:0300000002105893
:0C105800787FE4F6D8FD75812202109F1D
:100BCB0043616E2073656E642020200043616E20AC
:100BDB00726563657669650049443A202530376C48
:100BEB00582C2020444C433A2562782C2020446119
:100BFB0074613A200049443A2025376C582C202048
:100C0B00444C433A2562782C2020446174613A208D
:100C1B0000253032625820000D0A002D2D2D2D534A
:100C2B00656E644D7367200D0A0044656C61795FD6
:100C3B004E6D73283135303029200D0A0043414E5B
:100C4B005F52583049465F466C6167A3BA256264B0
:100C5B00200D0A0043414E5F52583149465F466CA6
:100C6B006167A3BA256264200D0A0043414E5F52AF
:100C7B00583049465F466C6167203D20300D0A00B5
:100C8B0043414E5F52583149465F466C6167203D88
:100C9B003D20310D0A007265636576696365200D31
:100CAB000A00310530010013053001000905300140
:100CBB000004053001000107380200010530010076
:100CCB0000053001000001100100000000000000D1
:0A0CDB00000020F1020304050607E3
:10132100C10CC10AC10BC109C110C10FC10EC10D50
:0C000300786AEFF2121347786AE2FF22DD
:09133E00D2BAD28AD2AAD2AF229F
:030013000211983F
:0D119800C0E0C0F0C083C082C0D075D00898
:1011A5007F2C12130DEF30E702D20CEF30E602D29E
:1011B5000AEF30E502D20BEF30E402D209EF30E35B
:1011C50002D210EF30E202D20FEF30E102D20EEF81
:0511D50030E002D20D24
:0B11DA00D0D0D082D083D0F0D0E03223
:0A0FBA007809EEF208EFF208EDF2FC
:100FC400E408F208F2087C007DFE7BFF7A0C79D5F8
:100FD400FE7F08120451780BE2FBFD7C007809E2E5
:100FE400FE08E2FF1204F1AA057809E2FE08E2FF16
:100FF400EBFD7C001204F17809EEF208EFF2780CB4
:10100400E2FD04F2740E2DF8EAF2D3EF9400EE94AC
:101014000050C3780CE214F2240EF8E2FAD39409D7
:1010240074809480EA5004243080022437FF780DC1
:10103400E2FE04F274002EF8EFF2780CE2D394008E
:101044007480948050CD08E22400F8E4F27BFE7AA8
:0310540000790020
:011057002276
:0A0F04007851EBF208EAF208E9F276
:100F0E0012057D78551205B7900004120490FF1358
:100F1E00131354017859F2EFC4540F08F2900004E1
:100F2E00120490FF1313543F7BFF30E0067A0B79C7
:100F3E00CB80047A0B79D71200887859E27BFF6058
:100F4E00067A0B79E380047A0C79007855E2FC0876
:100F5E00E2FD08E2FE08E2FF785E1205B7785AE27B
:100F6E007862F2120088E47854F2785AE2FF7854EC
:100F7E00E2FEC39F502D7851E2FB08E2FA08E2240C
:100F8E0005F9E43AFAEE7E0029F9EE3AFA12047700
:100F9E00785EF27BFF7A0C791C1200887854E2049A
:0C0FAE00F280C77BFF7A0C7923020088D8
:0610E4007BFE7A00792D6D
:0A10EA007847EBF208EAF208E9F299
:1010F40012057D784B1205B7900004120490FF137B
:1011040013135401784FF2EFC4540F08F2120F0472
:10111400784BE2FC08E2FD08E2FE08E2FF08E27810
:1011240055F27850E27856F27847E2FB08E2FA0882
:10113400E22405F9E43AFA7857EBF208EAF208E90E
:04114400F202066746
:0608CB007BFE7A00793A81
:0E08D1007848EBF208EAF208E9F27847EFF215
:1008DF0012130D784CEFF27847E204FF12130D78E4
:1008EF004DEFF27847E22402FF12130D784EEFF22C
:1008FF007847E22403FF12130D784FEFF27847E2A7
:10090F002404FF12130D7850EFF27847E22405FF0D
:10091F0012130D784EE2540813131354013333336B
:10092F0054F8FE7848E2FB08E2FA08E22404F9E4FE
:10093F003AFA12047754F74EFE1204BDEF540FC467
:10094F0054F0FFEE540F4F1204BD7848E2FB08E25B
:10095F00FA08E2F9900004120490131313541F3095
:02096F00E0772F
:10097100784DE275F008A4FFAEF008E2FBC4135411
:1009810007FDEF4DFFEE3395E0FDFC78511205B701
:10099100EB54037E007810C333CE33CED8F9FDACCF
:1009A10006784FE24CFEEDFF08E2FDEF4DFFEE331E
:1009B10095E0FDFC78551205B77851E2FC08E2FD9F
:1009C10008E2FE08E2FF781212056A7855E2FB0898
:1009D100E2F908E2FA08E2CBF8EB4FFFEA4EFEE952
:0509E1004DFDE84CFC97
:0209E600802C63
:1009E800784DE275F008A4FFAEF008E2C41354078E
:1009F800FDEF4DFFEE3395E0FDFC78511205B77819
:100A080051E2FC08E2FD08E2FE08E2FF7848E2FB5A
:090A180008E2FA08E2F912059D5A
:100A2100E4784BF27848E2FB08E2FA08E2F9900038
:100A310004120490C4540FFF784BE2FEC39F502D63
:100A41007847E22406FFEE2FFF12130D7848E2FBF0
:100A510008E2FA08E22405F9E43AFA08E27C0029FE
:100A6100F9EC3AFAEF1204BDE204F280B77847E2FA
:100A71006460700A7F2C12130DEF44FE800F7847DB
:100A8100E26470700E7F2C12130DEF44FDFD7F2C7C
:030A9100121298A6
:010A9400223F
:100CE500781F1205C3000007FEE47823F208740894
:100CF500F2087C007DFE7BFF7A0C79DD7E00FF1219
:100D050004511212EE12133E7BFF7A0C79C1120DBB
:100D1500F87831E24404F2781FE2FC08E2FD08E2CB
:100D2500FE08E2FF782D1205B77831E254FC440243
:100D3500F254F7F2540F4480F27825E27832F278D3
:100D45003EE254FBF21210E4E47808F27808E2C3BC
:100D55009402748094804003020DEF7BFF7A0C7936
:100D6500261200881210E4782D1205C30000010038
:100D75007831E254FC4402F24408F2540F4470F214
:100D85007FB87E0B1212CF7BFF7A0C793512008863
:100D95007BFF7A0C7948A20D92001200887BFF7ABE
:100DA5000C795FA20E9200120088300D197F601237
:100DB50008CB7BFE7A00793A120F04C20D7BFF7ACD
:100DC5000C7976120088300E107F701208CBC20D98
:100DD5007BFF7A0C798B1200887BFF7A0C79A11244
:100DE50000887808E204F2020D517FD07E071212C6
:030DF500CF80FEAE
:1011E500303132333435363738393A3B3C3D40417E
:1011F50042434445464748494A4B4C4D505152534A
:101205005455565758595A5B5C5D00010203040555
:10121500060708090A0B10111213141516171819C9
:0A1225001A1B20212223242526276E
:1012CF00D3EF9400EE94004015E4FDFC0DBD00013A
:0E12DF000CED64644C70F5EF1F70E51E80E2AC
:0112ED0022DE
:1012AE00E4FFC295FEEEC39408748094805011D270
:1012BE0095EF25E0FFA293E4334FFFC2950E80E534
:0112CE0022FD
:10126100E4FEEEC3940874809480501AC295A806D7
:10127100EF088002C333D8FC30E704D2948002C265
:0812810094D2950E80DCC295A9
:011289002242
:0E128A00E2FB08E2FA08E2F9120490FFE4FD2C
:10129800AC07C2927F02121261AF04121261AF054D
:0612A800121261D2922235
:02130D00AD072A
:10130F00C2927F03121261AF051212611212AED296
:01131F00923B
:0113200022AA
:0A133400C2927FC0121261D2922211
:100A95007847EFF2E47FFF7E07FDFC08E2FB08E202
:100AA500F908E2FA08E2CBF8D31205465066784C0D
:100AB500E260137847E2FFE4FD1212987847E204FA
:100AC500FF7D08020B8E7848E2FC08E2FD08E2FE95
:100AD50008E2FF7803120557AD077847E2FF1212C7
:100AE500987847E204FFC00708080808E25407FFA2
:100AF500E4FEFDFC780512056AAD07D007121298D1
:100B05007847E22402FFE4FD1212987847E22403B5
:100B1500FF020BC77848E2FC08E2FD08E2FE08E2A6
:100B2500FF7815120557AD077847E2FF121298783E
:100B350047E204FFC00708E2FC08E2FD08E2FE0800
:100B4500E2FF7812120557EF5407FFE4FEFDFC782B
:100B55000512056AC004C005C006C0077848E2FC56
:100B650008E2FD08E2FE08E2FF7810120557EF548F
:100B750003FFD003D002D001D000EB4FFFEAFEE81F
:100B8500FCEF4408FFAD07D0071212987847E2241E
:100B950002FFC00708E2FC08E2FD08E2FE08E2FFEA
:100BA5007808120557AD07D0071212987847E22446
:100BB50003FFC00708E2FC0808E2FE08E2FFAD07F4
:060BC500D0071212982275
:100DF800E4FF1213347F017E001212CF9000041218
:100E08000490FF1204774FFD7F2A12129890000277
:100E18001204904480FF9000011204904FFD7F2936
:100E28001212989000031204904480FD7F28121239
:100E3800987D067F6012129878481205C300000159
:100E480000784C7401F2E4FF120A9578481205C341
:100E5800000007FEE4784CF27F04120A95784812E5
:100E680005C3000007FFE4784CF27F20120A95784A
:100E7800481205C300000800784C7401F27F08127C
:100E88000A9578481205C31FFFFFFF784C7401F2DA
:100E98007F10120A9578481205C3000007FFE4780E
:100EA8004CF27F14120A9578481205C3000000001E
:100EB800E4784CF27F18120A9578481205C31FFF90
:100EC800FFFEE4784CF27F24120A95E4FD7F2C1291
:100ED80012987D037F2B1212987D447F0F1212986F
:100EE8007F0E12130DEF7E0060047F0180027F00E9
:0B0EF800EF4E60077D447F0F12129840
:010F030022CB
:0506670078511205B7F7
:10066C007F3012130DEF20E204785A80307F401255
:10067C00130DEF20E20F785A74FFF2087411F20890
:10068C0074F3F280237F5012130DEF785A20E20D91
:10069C0074FFF2087412F2087401F2800B74FFF20A
:1006AC00087411F20874E5F2785AE2FB08E2FA08D1
:1006BC00E2F9900005120490FF7856E2FD121298B0
:1006CC00E47FFF7E07FDFC7851E2FB08E2F908E2CB
:1006DC00FA08E2CBF8D3120546400302077F78559F
:1006EC00E2785A601C90000112128A785AE2FB08D8
:1006FC00E2FA08E2F9900002120490FF7D08020869
:10070C0012E2FB08E2FA08E2F9900001120490FFF1
:10071C00C0077851E2FC08E2FD08E2FE08E2FF782F
:10072C0003120557AD07D007121298785AE2FB084E
:10073C00E2FA08E2F9900002120490FFC007785127
:10074C00080808E25407FFE4FEFDFC780512056A70
:10075C00AD07D007121298785A90000312128A78BB
:10076C005AE2FB08E2FA08E2F9900004120490FF46
:10077C00020863785AE2FB08E2FA08E2F9900001F9
:10078C00120490FFC0077851E2FC08E2FD08E2FE7B
:10079C0008E2FF7815120557AD07D00712129878AA
:1007AC005AE2FB08E2FA08E2F9900002120490FF08
:1007BC00C0077851E2FC08E2FD08E2FE08E2FF788F
:1007CC0012120557EF5407FFE4FEFDFC78051205E5
:1007DC006AC004C005C006C0077851E2FC08E2FDFF
:1007EC0008E2FE08E2FF7810120557EF5403FFD021
:1007FC0003D002D001D000EB4FFFEAFEE8FCEF443F
:10080C0008FFAD07D007121298785AE2FB08E2FAFB
:10081C0008E2F9900003120490FFC0077851E2FC43
:10082C0008E2FD08E2FE08E2FF7808120557AD0762
:10083C00D007121298785AE2FB08E2FA08E2F99013
:10084C000004120490FFC0077851E2FC0808E2FE95
:10085C0008E2FFAD07D007121298E4785DF27856E3
:10086C00E2FF785DE2FED39F503DEE9408748094D5
:10087C00805034785AE2FB08E2FA08E2F99000065C
:10088C00120490FF785DE2FE2FFF7857E2FB08E23E
:10089C00FA08E2F98E82758300120490FD12129808
:1008AC00785DE204F280B7C292785AE2FB08E2FA71
:0E08BC0008E2F9120477FF7D08121298D2921A
:0108CA00220B
:0D1148007816EFF208EBF208EAF208E9F27F
:10115500E4FCECC3940E74809480501E7816E22C47
:10116500FF12130D7817E2FB08E2FA08E2F98C8208
:10117500758300EF1204CF0C80D87816E2FB7A0055
:10118500646070028006EB64704A7006FD7F2C1265
:021195001298AE
:011197002235
:02133100C111E8
:1012EE00C2AF53890F438920759850758DFA758B4F
:0F12FE00FA438780D299D2ACD28ED29CD2AF2243
:03002300020016C2
:0B001600309803C29832C299C2113228
:081347008F99D2112011FD2243
:10122F00781AEBF208EAF208E9F2781AE2FB08E220
:10123F00FA08E2F9120477FF121347781AE2FB0853
:10124F0008E2F92401F218E2FA3400F2120477707E
:02125F00D92292
:10106400020CE5E493A3F8E493A34003F68001F2B1
:1010740008DFF48029E493A3F85407240CC8C3338D
:10108400C4540F4420C8834004F456800146F6DF5C
:10109400E4800B0102040810204080901321E47EB8
:1010A400019360BCA3FF543F30E509541FFEE49351
:1010B400A360010ECF54C025E060A840B8E493A318
:1010C400FAE493A3F8E493A3C8C582C8CAC583CA43
:1010D400F0A3C8C582C8CAC583CADFE9DEE780BEFB
:0113330000B9
:10038100E709F608DFFA8046E709F208DFFA803E5E
:1003910088828C83E709F0A3DFFA8032E309F6084B
:1003A100DFFA8078E309F208DFFA807088828C83B3
:1003B100E309F0A3DFFA806489828A83E0A3F60867
:1003C100DFFA805889828A83E0A3F208DFFA804C41
:1003D10080D280FA80C680D4806980F28033801018
:1003E10080A680EA809A80A880DA80E280CA803381
:1003F10089828A83ECFAE493A3C8C582C8CCC583F9
:10040100CCF0A3C8C582C8CCC583CCDFE9DEE780C8
:100411000D89828A83E493A3F608DFF9ECFAA9F047
:10042100EDFB2289828A83ECFAE0A3C8C582C8CC9D
:10043100C583CCF0A3C8C582C8CCC583CCDFEADEB6
:10044100E880DB89828A83E493A3F208DFF980CC18
:1004510088F0EF60010E4E60C388F0ED2402B40411
:100461000050B9F582EB2402B4040050AF232345B8
:0604710082239003D17309
:10047700BB010689828A83E0225002E722BBFE0283
:09048700E32289828A83E49322B6
:10049000BB010CE58229F582E5833AF583E0225021
:1004A00006E92582F8E622BBFE06E92582F8E2226B
:0D04B000E58229F582E5833AF583E4932285
:1004BD00BB010689828A83F0225002F722BBFE011E
:0204CD00F32218
:1004CF00F8BB010DE58229F582E5833AF583E8F063
:1004DF00225006E92582C8F622BBFE05E92582C80F
:0204EF00F222F7
:1004F100BC000BBE0029EF8DF084FFADF022E4CCEF
:10050100F875F008EF2FFFEE33FEEC33FCEE9DECB7
:10051100984005FCEE9DFE0FD5F0E9E4CEFD22EDFD
:10052100F8F5F0EE8420D21CFEADF075F008EF2F47
:10053100FFED33FD4007985006D5F0F222C398FD38
:050541000FD5F0EA22D5
:10054600EB9FF5F0EA9E42F0E99D42F0E89C45F00B
:010556002282
:10055700E8600FECC313FCED13FDEE13FEEF13FF82
:03056700D8F122A6
:10056A00E8600FEFC333FFEE33FEED33FDEC33FCEF
:03057A00D8F12293
:10057D00BB010789828A830205E85005E9F8020567
:10058D00DCBBFE05E9F80205F489828A83020600C8
:10059D00BB010789828A8302061C5005E9F8020611
:0A05AD0010BBFE05E9F80205B722B5
:0C05B700ECF208EDF208EEF208EFF22280
:1005C300D083D082E493F208740193F20874029307
:0905D300F208740393F27404733E
:10002600E510245EF8E2051022785B300702785E60
:10003600E475F0011206280204772000EB7F2ED229
:10004600008018EF540F2490D43440D4FF30040BB2
:10005600EF24BFB41A0050032461FFE511600215B6
:10006600110514E5147002051330070D785BE4756D
:10007600F001120628EF0204BD0200037403D20742
:100086008003E4C207F510785B120638E4F511F533
:1000960013F514E51160077F2012006180F57512D3
:1000A600FFC201C200C202C203C205C206C20812D2
:1000B600002FFF700D3007057F00120072AF14AEDF
:1000C6001322B4255FC2D5C20412002FFF24D0B478
:1000D6000A00501A75F00A781130D50508B6FF01E6
:1000E60006C6A426F620D5047002D20380D924CFF2
:1000F600B41A00EF5004C2E5D204020271D20180A4
:10010600C6D20080C0D20280BCD2D580BAD20580C9
:10011600B47F201200612002077401B5110040F17E
:10012600120026FF120061020099D208D2068095BD
:10013600120026FB120026FA120026F94A4B700618
:1001460079427A037BFF20022EE511602A7E008E1B
:100156008275830012049060060EEE651270F0C27E
:10016600D5EBC0E0EAC0E0E9C0E0EE1202B8D0E0AC
:10017600F9D0E0FAD0E0FB120477FF60AAEBC0E00A
:10018600EAC0E0E9C0E0120061D0E02401F9D0E065
:100196003400FAD0E0FBE5120460DCD512D9808782
:1001A6007BFF7A0279B4D202809C791080027908AA
:1001B600C206C2088008D2D5790A8004790AC2D557
:1001C600E512047002F512E4FAFDFEFF120026FCA9
:1001D6007B08200113120026FD7B1030000A120056
:1001E60026FE120026FF7B20EC3382D592D55013D3
:1001F600C3E43000069FFFE49EFEE42001039DFD5C
:10020600E49CFCE4CBF8C201EC700CCFCECDCCE87C
:1002160024F8F870F38017C3EF33FFEE33FEED33A7
:10022600FDEC33FCEB33FB994002FB0FD8E9EB30D6
:100236000105F8D0E0C448B201C0E00AEC4D4E4FCB
:1002460078207B0070C2EAB5120040BCC0E0120202
:10025600BAD0F0D0E0200104C4C0E0C4B201C0F0BE
:1002660012004AD0F0D5F0EB020099120641013691
:100276005301B05801074C01034201B44F01BC447D
:1002860001BC49011C4301C25501A64601A6450110
:01029600A6C1
:1002970047036250010B2D010F2E01322B0113234F
:1002A700013020034B2A00CB480000012A3F3F3F83
:1002B70000790AA2D5200314300509B910020404F5
:1002C700B9080104A2D52006025001042002689251
:1002D70002B511005034C0E07F203003197F30A2EF
:1002E7000272067205500F120311C202C206C2053E
:1002F700C2087F30800F300503E9C0E0120061308B
:100307000503D0E0F9D0E0B511CC3005177F30B93F
:10031700100C1200617F583004077F788003B908FA
:10032700031200613002057F2D0200617F20200843
:10033700F87F2B2006F322920280CF286E756C6C13
:100347002900D2011200263001F8C201781130D5F8
:100357000108F60200CB2D5043495812002624030A
:10036700B405004001E490035D93120052743A1201
:0A0377000052D2037511040201B018
:0C05DC00E6FC08E6FD08E6FE08E6FF224B
:0C05E800E0FCA3E0FDA3E0FEA3E0FF2286
:0C05F400E2FC08E2FD08E2FE08E2FF2243
:10060000E493FC740193FD740293FE740393FF2240
:0C061000ECF608EDF608EEF608EFF62216
:0C061C00ECF0A3EDF0A3EEF0A3EFF02251
:10062800FAE2FB0808E2F925F0F218E2CA3AF222E7
:09063800EBF208EAF208E9F222F3
:10064100D083D082F8E4937012740193700DA3A348
:1006510093F8740193F5828883E47374029368605C
:06066100EFA3A3A380DF5C
:00000001FF
