:030000000219984A
:0C199800787FE4F6D8FD7581210219DF8C
:1011850073656E64200072656320200049443A202F
:101195002530376C582C2020444C433A2562782C56
:1011A5002020446174613A200049443A2025376C77
:1011B500582C2020444C433A2562782C2020446149
:1011C50074613A2000253032625820000D0A006112
:1011D50064643A202530326258204C656E3A2025E9
:1011E5003032625820446174613A00202530326201
:1011F500580053617665436667546F453220203A3F
:10120500202530326258200D0A0053617665436609
:1012150067546F453220203A202530326258202508
:1012250030326258202530326258202530326258DB
:10123500202530326258200D0A00706167653A201A
:101245002530326258200020253032625820007047
:101255006167653A2000656E61626C6520203A2001
:101265002530326258200D0A0043616E4366672DB2
:101275003E52584635494420203A2025303262589E
:10128500200D0A0053617665436667546F45323A0F
:0A129500202530326258200D0A00B7
:08001600C10AC1094100DB0130
:0E00030090006DEFF0121F7990006DE0FF226B
:091F7000D2BAD28AD2AAD2AF2261
:03001300021E4882
:0D1E4800C0E0C0F0C083C082C0D075D008DB
:101E55007F2C121F36EF30E102D20AEF30E002D2BA
:011E65000973
:0B1E6600D0D0D082D083D0F0D0E0328A
:0B176A00900089EBF0A3EAF0A3E9F087
:101775001209F290008D120A80900005120944FFAB
:10178500C3135401900091F0EF1313540FA3F0907D
:1017950000051209447BFF30E0067A117985800443
:1017A5007A11798B120091900091E07BFF60067AA7
:1017B50011799180047A1179AE90008DE0FCA3E057
:1017C500FDA3E0FEA3E0FF900048120A809000927E
:1017D500E090004CF0120091E490008CF0900092A3
:1017E500E0FF90008CE0FEC39F5030900089E0FB45
:1017F500A3E0FAA3E02406F9E43AFAEE7E0029F91B
:10180500EE3AFA12092B900048F07BFF7A1179CA5B
:1018150012009190008CE004F080C27BFF7A117970
:04182500D10200915B
:0B1A24009000B0EBF0A3EAF0A3E9F0A3
:101A2F009000B0E0FBA3E0FAA3E0F91209F29000F6
:101A3F00B3120A80900005120944FFC3135401909A
:101A4F0000B7F09000041209441313135401C43368
:101A5F003354C0FEEF1313540F4EFB9000B3E0FC52
:101A6F00A3E0FDA3E0FEA3E0FFA3E0900000F0A33E
:101A7F00EBF09000B0E0FBA3E0FAA3E02406F9E45A
:101A8F003AFA900000EBF0A3EAF0A3E9F0020000AD
:101CA0009000011209449000A7F09000021209442C
:101CB000FFE4FEEEC39F501CEEF582758300A3A3E4
:101CC000A3120944FD74A82EF582E43400F583EDD7
:101CD000F00E80DF7B017A0079A89000A7E0FDEF8D
:091CE0002403900043F0021C3EB5
:0B1B790090003FEBF0A3EAF0A3E9F0BE
:101B84007BFF7A1179D4900048EDF0900043E09007
:101B94000049F0120091E4900044F0900043E0FF0B
:101BA400A3E0FEC39F502890003FE0FBA3E0FAA30C
:101BB400E0F98E82758300120944900048F07BFF9F
:101BC4007A1179F0120091900044E004F080CC7B0B
:081BD400FF7A1179D1020091A2
:0B0BA500900034EBF0A3EAF0A3E9F0AD
:100BB0007BFF7A1179F79000DBE0900048F012009B
:100BC00091900034E0FBA3E0FAA3E0F912092B9026
:100BD0000037F0900028120944FFC4131313540186
:100BE000900038F0EF5403A3F0900028120944FF5E
:100BF0001313540390003AF0EFC45407A3F090008D
:100C00002612094490003CF09000271209449000FD
:100C10003DF07BFF7A12790F900037E0900048F0AA
:100C2000900038E0900049F0900039E090004AF0E0
:100C300090003AE090004BF01200917B017A00792D
:100C4000379000437407F0E4FD121C3E7B017A00EC
:100C500079379000437407F0E4FD121B799000345B
:100C6000E0FBA3E0FAA3E0F9900006120A1290005C
:100C700043120A80E4900047F07B017A007937FD47
:100C80001218E2900034E0FBA3E0FAA3E0F9900030
:100C900012120A12900043120A80E4900047F07B7F
:100CA000017A0079377D041218E27B017A007937E6
:100CB0009000437408F07D20121C3E900034E0FB4D
:100CC000A3E0FAA3E0F990000A120A12900043127E
:100CD0000A809000291209445401900047F07B01DA
:100CE0007A007937E4FD1218E2900034E0FBA3E0CB
:100CF000FAA3E0F990000E120A12900043120A8043
:100D0000900029120944FFC3135401900047F07B5F
:100D1000017A0079377D041218E27B017A00793775
:100D20009000437408F0FD121C3E900034E0FBA3D9
:100D3000E0FAA3E0F9900016120A12900043120A9A
:100D400080900029120944FF13135401900047F0CA
:100D50007B017A007937E4FD1218E2900034E0FB61
:100D6000A3E0FAA3E0F990001A120A1290004312CD
:100D70000A80900029120944FF13131354019000B4
:100D800047F07B017A0079377D041218E27B017A03
:100D90000079379000437408F07D10121C3E9000DB
:100DA00034E0FBA3E0FAA3E0F990001E120A1290CF
:100DB0000043120A80900029120944FFC454019094
:100DC0000047F07B017A007937E4FD1218E29000C9
:100DD00034E0FBA3E0FAA3E0F9900022120A12909B
:100DE0000043120A80900029120944FFC4135401E1
:100DF000900047F07B017A0079377D041218E27B7E
:100E0000017A0079379000437408F07D18021C3E87
:051BDC00900037EFF05E
:101BE1007BFF7A12793F900048F01200917B017AD5
:101BF100007939900037E0FD9000457408F0121B20
:101C010011E4900038F0900038E0FFC3940874802C
:101C1100948050207BFF7A12794C74392FF582E43D
:101C21003400F583E0900048F0120091900038E014
:0D1C310004F080D27BFF7A1179D10200917E
:101E9A00900034EBF0A3EAF0A3E9F07BFF7A127921
:101EAA0054120091E4FF121BDC7F08121BDC7F1026
:081EBA00121BDC7F18021BDC87
:0B06AE0090007EEBF0A3EAF0A3E9F05F
:1006B9007B017A0079819000457408F0E4FD121BF2
:1006C90011900081E0FF90007EE0FBA3E0FAA3E037
:1006D900F9EF12097190007EE0FBA3E0FAA3E0F9BB
:1006E90012092BFFE92401F9E43AFA12168B90005A
:1006F90082E05401C43333335480FF90007EE0FB21
:10070900A3E0FAA3E02428F9E43AFA12092B547F6A
:100719004F120971900085E05407C454F0FF120983
:100729002B548F4F120971900086E0FF90007EE0F4
:10073900FBA3E0FAA3E0F9900026EF1209839000E9
:1007490087E09000271209837B017A007981900064
:10075900457408F07D20121B117B017A007981E430
:10076900FD12182990007EE0FBA3E0FAA3E0F990BE
:100779000006120A5C7B017A0079817D041218292E
:1007890090007EE0FBA3E0FAA3E0F9900012120AC0
:100799005C7B017A0079819000457408F0FD121B99
:1007A90011900082E05401FF90007EE0FBA3E0FA83
:1007B900A3E02429F9E43AFA12092B54FE4F12094D
:1007C900717B017A007981E4FD12182990007EE09D
:1007D900FBA3E0FAA3E0F990000A120A5C900085F5
:1007E900E0540125E0FFE92429F9E43AFA12092B3A
:1007F90054FD4F1209717B017A0079817D04121829
:100809002990007EE0FBA3E0FAA3E0F990000E1224
:100819000A5C7B017A0079819000457408F07D10AB
:10082900121B11900081E0540125E025E0FF9000A2
:100839007EE0FBA3E0FAA3E02429F9E43AFA1209DD
:100849002B54FB4F1209717B017A007981E4FD1267
:10085900182990007EE0FBA3E0FAA3E0F9900016C6
:10086900120A5C900085E0540133333354F8FFE9F0
:100879002429F9E43AFA12092B54F74F1209717B2A
:10088900017A0079817D0412182990007EE0FBA38A
:10089900E0FAA3E0F990001A120A5C7B017A007968
:1008A900819000457408F07D18121B11900081E0B9
:1008B9005401C454F0FF90007EE0FBA3E0FAA3E0EA
:1008C9002429F9E43AFA12092B54EF4F1209717BE2
:1008D900017A007981E4FD12182990007EE0FBA3DA
:1008E900E0FAA3E0F990001E120A5C900085E0543A
:1008F90001C43354E0FFE92429F9E43AFA12092B37
:1009090054DF4F1209717B017A0079817D04121835
:100919002990007EE0FBA3E0FAA3E0F9900022020F
:020929000A5C66
:10159E007B017A00796E9000457408F0E4FD121B11
:1015AE00117F60121F36900078EFF0E0FE5401902C
:1015BE00006FF0EE5403A3F07F70121F36EF54034A
:1015CE00900071F07F0F121F36EF5407900072F0EB
:1015DE007F2B121F36900073EFF07F2C121F369068
:1015EE000074EFF07B017A00796E9000437407F07F
:1015FE00E4FD121C3EE4900076F0900076E0C39479
:10160E0008748094805075900078E025E025E09075
:10161E000077F004FF121F36EF5401900079F0901E
:10162E000077E0FF1214AA90007A120A807B017AEA
:10163E0000796E900077E05407FDC00590007AE0C7
:10164E00FCA3E0FDA3E0FEA3E0FF900043120A809E
:10165E00900079E0900047F0D0051218E27B017AF5
:10166E0000796E900077E02408FD9000437404F03A
:0C167E00121C3E900076E004F0021608FA
:01168A00223D
:10103500900034EBF0A3EAF0A3E9F0900034E0FB74
:10104500A3E0FAA3E0F97414120971900034E0FBEF
:10105500A3E0FAA3E0F9900001740112098390005E
:1010650002740712098390000374381209839000F3
:10107500047402120983900005E4120983E9242807
:10108500F9E43AFA12092B448012097112092B541A
:101095008F4420120971900034E0FBA3E0FAA3E02D
:1010A500F99000267403120983900027E41209833E
:1010B500900034E0FBA3E0FAA3E0F99000271209C1
:1010C50044900048F07BFF7A12795B120091900002
:1010D50034E0FBA3E0FAA3E0F9900006120ABD1F75
:1010E500FFFFFF900012120ABD1FFFFFFF90000ACD
:1010F500120ABD0000010090000E120ABD00000793
:10110500FE900016120ABD0000010190001A120A95
:10111500BD0000010290001E120ABD0000010390EF
:101125000022120ABD00000104E92429F9E43AFA73
:1011350012092B440112097112092B54FD12097170
:1011450012092B54FB12097112092B44081209715B
:1011550012092B54EF12097112092B44201209713F
:10116500900034E0FBA3E0FAA3E0F9900022120A14
:1011750012900048120A807BFF7A12796E02009164
:101CE900900031EBF0A3EAF0A3E9F07B017A0079E7
:101CF900311210357B017A007931120BA57BFF7AFD
:101D09001279899000DBE0900048F01200917B0184
:071D19007A007931021E9AE5
:101A9F0013135401900098F0E4A3F07B01A304F01A
:081AAF00A37400F0A374C3F05E
:101AB70090009AE0FBA3E0FAA3E0F9120A42900033
:101AC70098E0540125E0FF90009AE0FBA3E0FAA319
:101AD700E02405F9E43AFA12092B54FD4F12097173
:101AE700900097E0FF90009AE0FBA3E0FAA3E0F9EB
:101AF700900007EF120983900099E09000081209FF
:0A1B0700837B017A00799A021A2408
:10038B009000C0EBF0A3EAF0A3E9F0A3E0FBA3E03D
:10039B00FAA3E02404F9E43AFA12092B44081209EF
:1003AB00719000C3E0FBA3E0FAA3E02405F9E43A63
:1003BB00FA12092B54C31209719000C0E0FBA3E0A1
:1003CB00FAA3E0F990000A120A129000C3E0FBA313
:1003DB00E0FAA3E0F9120A429000C0E0FBA3E0FAB6
:1003EB00A3E0F9900029120944540125E0FF900085
:1003FB00C3E0FBA3E0FAA3E02405F9E43AFA1209FF
:10040B002B54FD4F1209717B017A0079C3121A2408
:10041B009000C3E0FBA3E0FAA3E02405F9E43AFA69
:10042B0012092B54C3441C1209719000C3E0FBA3A7
:10043B00E0FAA3E0F990000674FE120983E92406A2
:10044B00F9E43AFAC003C002C0019000C0E0FBA37C
:10045B00E0FAA3E0F990000A120A12900043120A84
:10046B00809000291209445401900047F0D001D02C
:10047B0002D0037D031218E29000C0E0FBA3E0FA68
:10048B00A3E0F990000A120A12E4900097F0900092
:10049B00291209445401900098F012092B900099ED
:1004AB00F0A37401121AAE9000C0E0FBA3E0FAA314
:1004BB00E0F990000A120A12C0079000977401F03D
:1004CB009000291209445401900098F090002812D2
:1004DB000944C41313135401900099F0A37401F051
:1004EB00A37400F0A374C3F0D007121AB79000C026
:1004FB00E0FBA3E0FAA3E0F990000A120A12C0078E
:10050B009000977404F09000291209445401900054
:10051B0098F0900028120944C45407900099F0A356
:10052B007401F0A37400F0A374C3F0D007121AB7D0
:10053B009000C0E0FBA3E0FAA3E0F990000A120AD6
:10054B00129000977405F090002912094454019001
:10055B000098F0900026120944900099F0A37401C2
:10056B00121AAE9000C0E0FBA3E0FAA3E0F99000F2
:10057B000A120A129000977406F09000291209448F
:10058B005401900098F0900027120944900099F0C4
:10059B00A37401121AAE9000C0E0FBA3E0FAA3E033
:1005AB00F990000E120A129000977407F090002930
:1005BB00120944121AA19000C0E0FBA3E0FAA3E0D9
:1005CB00F9900016120A129000977408F090002907
:1005DB00120944C3121AA09000C0E0FBA3E0FAA3D7
:1005EB00E0F990001A120A129000977409F090002B
:1005FB0029120944121A9F9000C0E0FBA3E0FAA352
:10060B00E0F990001E120A12900097740AF0900005
:10061B002912094413121A9F9000C0E0FBA3E0FAC1
:10062B00A3E0F9900022120A12900097740BF0903D
:10063B000029120944C4121AA19000C0E0FBA3E0E8
:10064B00FAA3E0F9900022120A12900097740CF0B2
:10065B00900029120944C4121AA09000C0E0FBA319
:10066B00E0FAA3E0F9900006120A12900097740DBD
:10067B00F0E4A3F0121AA89000C0E0FBA3E0FAA3E9
:10068B00E0F9900012120A12900097740EF0E4A396
:10069B00F0A3F07B01A304F0A37400F0A374C3F0E8
:0306AB00021AB779
:101E1D00900000120A8C00000101E4900004F0A370
:101E2D007408F0121F02121F707B017A00790712DD
:0B1E3D001CE97FD07E07121EE380F737
:101EE300D3EF9400EE94004015E4FDFC0DBD00011A
:0E1EF3000CED64644C70F5EF1F70E51E80E28C
:011F010022BD
:101EC200E4FFC295FEEEC39408748094805011D250
:101ED20095EF25E0FFA293E4334FFFC2950E80E514
:011EE20022DD
:101E7100E4FEEEC3940874809480501AC295A806BB
:101E8100EF088002C333D8FC30E704D2948002C249
:081E910094D2950E80DCC2958D
:011E99002226
:101DEF009000C7E0FCA3E0FDA3E0FEA3E0FF120913
:081DFF00CCAD079000C6E0FF27
:101E0700AC07C2927F02121E71AF04121E71AF059A
:061E1700121E71D292229E
:021F3600AD07F5
:101F3800C2927F03121E71AF05121E71121EC2D209
:011F48009206
:011F49002275
:0A1F6600C2927FC0121E71D29222B7
:101829009000D1EBF0A3EAF0A3E9F0A3EDF02402D4
:10183900FFE433FE9000D1E0FBA3E0FAA3E0F98FC7
:10184900828E831209447E007810C333CE33CED8FA
:10185900F9FFEE3395E0FDFCC004C005C006C007E2
:101869009000D4E02401FFE433FE9000D1E0FBA313
:10187900E0FAA3E0F98F828E831209447E0078187A
:10188900C333CE33CED8F9FFEE3395E0FDFCD00358
:10189900D002D001D000EF4BFFEE4AFEED49FDEC3E
:1018A90048FCC004C005C006C0079000D4E024036A
:1018B900FFE433FE9000D1E0FBA3E0FAA3E0F98F47
:1018C900828E83120944FFD003D002D001D000EBED
:0918D9004FFFEAFEE9FDE8FC22E4
:1018E20090003FEBF0A3EAF0A3E9F0A3EDF0900043
:1018F20047E075F080A4FFAEF0EE3395E0FDFCC04A
:1019020004C005C006C007900043E0FCA3E0FDA3AD
:10191200E0FEA3E0FF78181209CCD003D002D00178
:10192200D000EF4BFF90003FE0FBA3E0FAA3E0F909
:10193200A3E0F582758300EF120983900043E0FC77
:10194200A3E0FDA3E0FEA3E0FF78101209CC900013
:1019520042E0F582758300A3EF120983900043E011
:10196200FCA3E0FDA3E0FEA3E0FF78081209CC90FF
:101972000042E0F582758300A3A3EF120983900071
:1019820043A3A3A3E0FF900042E0F582758300A386
:06199200A3A3EF0209838C
:0514AA0090009DEFF031
:1014AF0004FF121F36A3EFF090009DE0FF121F36CE
:1014BF00E4FCFDFE78031209DFA804A905AA06AB18
:1014CF0007A3E0C4135407FFEB4FFFEAFEE9FDE863
:1014DF00FCA3120A8090009DE02402FF121F36E445
:1014EF00FCFDFE78081209DFC004C005C006C00766
:1014FF00A3E05403FFE4FCFDFE78101209DFD003D4
:10150F00D002D001D000EF4BFFEE4AFEED49FDECCB
:10151F0048FCC004C005C006C00790009DE024032E
:10152F00FF121F36D003D002D001D000EB4FFFEADD
:10153F00FEE9FDE8FC9000A3120A809000A3E0FCF6
:10154F00A3E0FDA3E0FEA3E0FFEC4D4E4F7007902C
:10155F00009EE030E32A90009FE0FCA3E0FDA3E0B3
:10156F00FEA3E0FF78121209DFA3E0F8A3E0F9A3CE
:10157F00E0FAA3E04FFFEA4EFEE94DFDE84CFC22F6
:0E158F0090009FE0FCA3E0FDA3E0FEA3E0FFC0
:01159D00222B
:1013B2009000C6EFF0E47FFF7E07FDFCA3E0F8A3F8
:1013C200E0F9A3E0FAA3E0FBD31209BB50099000B5
:1013D200CBE070030214747815121DEFE004FFC015
:1013E20007A3E0FCA3E0FDA3E0FEA3E0FF78121256
:1013F20009CCEF5407FFE4FEFDFC78051209DFC0BB
:1014020004C005C006C0079000C7E0FCA3E0FDA32E
:10141200E0FEA3E0FF78101209CCEF5403FFD003E3
:10142200D002D001D000EB4FFFEAFEE8FCEF440807
:10143200FFAD07D007121E079000C6E02402FFC0CE
:1014420007A3E0FCA3E0FDA3E0FEA3E0FF780812FF
:1014520009CCAD07D007121E079000C6E02403FF97
:10146200C007A3E0FCA3A3E0FEA3E0FFAD07D00703
:1014720080327803121DEFE004FFC007A3A3A3A3E9
:10148200E05407FFE4FEFDFC78051209DFAD07D04A
:1014920007121E079000C6E02402FFE4FD121E0799
:0814A200E02403FF121E0722E3
:0B168B009000B8EBF0A3EAF0A3E9F038
:10169600EF75F005A424F6601F24F1602224E760AC
:1016A6002524CE602B24E7603A2483604924F57014
:1016B600579000BB743180309000BB741380299022
:1016C60000BB740980229000BB7404F0A304801C44
:1016D6009000BB7401F0A37407F0A37438F0A374F0
:1016E6000280349000BB7401F0A37405F0A374303B
:1016F600F0A374018021E49000BBF0A37405F0A36D
:101706007430F0A37401800FE49000BBF0A304F0E2
:10171600A37410F0A37401F0E4A3F09000BBE0FF03
:101726009000B8E0FBA3E0FAA3E0F9EF120971908C
:1017360000BCE0FF9000B8E0FBA3E0FAA3E0F9905C
:101746000001EF1209839000BDE0900002120983A8
:101756009000BEE09000031209839000BFE0900065
:0417660004020983ED
:100E10009000D5EBF0A3EAF0A3E9F0121F667F0182
:100E20007E00121EE39000D5E0FBA3E0FAA3E0F9F8
:100E3000900001120944FF9000051209444FFD7F04
:100E40002A121E079000D5E0FBA3E0FAA3E0F99078
:100E500000031209444480FF9000021209444FFD30
:100E60007F29121E079000D5E0FBA3E0FAA3E0F96A
:100E70009000041209444480FD7F28121E07900050
:100E8000D5E0FBA3E0FAA3E0F9900028120944C4DE
:100E9000131313540125E025E0FD7F60121E077D2A
:100EA000607F70121E079000D5E0FBA3E0FAA3E07C
:100EB000F9900027120944FD7F2C121E079000D5DF
:100EC000E0FBA3E0FAA3E0F9900026120944FD7FBD
:100ED0002B121E079000D5E0FBA3E0FAA3E0F990E7
:100EE000000A120A129000C7120A80900029120903
:100EF0004454019000CBF0E4FF1213B29000D5E00F
:100F0000FBA3E0FAA3E0F990000E120A129000C7CA
:100F1000120A80900029120944C31354019000CB97
:100F2000F07F041213B29000D5E0FBA3E0FAA3E037
:100F3000F9900016120A129000C7120A8090002938
:100F4000120944131354019000CBF07F081213B21E
:100F50009000D5E0FBA3E0FAA3E0F990001A120A92
:100F6000129000C7120A809000291209441313132B
:100F700054019000CBF07F101213B29000D5E0FB2B
:100F8000A3E0FAA3E0F990001E120A129000C71223
:100F90000A80900029120944C454019000CBF07FCC
:100FA000141213B29000D5E0FBA3E0FAA3E0F9908D
:100FB0000022120A129000C7120A8090002912091A
:100FC00044C41354019000CBF07F181213B2900068
:100FD000D5E0FBA3E0FAA3E0F9900006120A129014
:100FE00000C7120A809000CB7401F07F201213B268
:100FF0009000D5E0FBA3E0FAA3E0F9900012120AFA
:10100000129000C7120A809000CB7401F07F241266
:1010100013B27D447F0F121E077F0E121F36EF7E24
:101020000060047F0180027F00EF4E60077D447FF7
:051030000F121E072253
:0B129F009000CCEBF0A3EAF0A3E9F014
:1012AA00E49000D0F09000D0E0FFC39403748094DF
:1012BA00805019EF75F00FA42430FF9000CFF01280
:1012CA001F36EF30E306A3E004F080D99000CFE0A8
:1012DA0004FFC0079000CCE0FBA3E0FAA3E0F912F8
:1012EA0009F29000C7120A80900005120944C3133C
:1012FA0054019000CBF0D0071213B29000CFE02433
:10130A0005FF9000CCE0FBA3E0FAA3E0F99000040B
:10131A001209441313135401C4333354C0FE90000A
:10132A00051209441313540F4EFD121E07E49000D0
:10133A00D0F09000CCE0FBA3E0FAA3E0F99000051E
:10134A001209441313540FFF9000D0E0FED39F50AC
:10135A0032EE94087480948050299000CFE02406DD
:10136A00FFA3E02FFFE92406F9E43AFAEE7C00290C
:10137A00F9EC3AFA12092BFD121E079000D0E0048C
:10138A00F080AFC2929000CFE0FF9000CCE0FBA3C8
:10139A00E0FAA3E0F9900004120944FEC45403449D
:0713AA0008FD121E07D2929C
:0113B1002219
:02001E00C10B14
:101F0200C2AF53890F438920759850758DFA758B2E
:0F1F1200FA438780D299D2ACD28ED29CD2AF2222
:03002300021F5B5E
:0B1F5B00309803C29832C299C20B32CA
:081F79008F99D20B200BFD2211
:101D56009000D8EBF0A3EAF0A3E9F09000D8E0FBFE
:101D6600A3E0FAA3E0F912092BFF121F799000D81D
:101D7600E0FBA3E475F0011209A5A9F0FA12092BFC
:031D860070D922EF
:101F4A00D2A0D2A100000000C2A000000000C2A1DD
:011F5A002264
:101F2100C2A1C2A000000000D2A100000000D2A006
:051F3100000000002289
:101D20007E80EE601B5F7004C2A08002D2A0000023
:101D30000000D2A100000000C2A1EEC313FE80E2A9
:101D4000D2A000000000D2A1A2A0920000000000DA
:051D5000C2A1A200B3D6
:011D5500226B
:101D8900D2A07E80EE601D00000000D2A120A00537
:101D9900F45FFF8003EF4EFF00000000C2A1EEC315
:101DA90013FE80E0D2A000000000D2A100000000D4
:021DB900C2A1C5
:011DBB002205
:101DBC00D2A07E80EE601D00000000D2A120A00504
:101DCC00F45FFF8003EF4EFF00000000C2A1EEC3E2
:101DDC0013FE80E0C2A000000000D2A100000000B1
:021DEC00C2A192
:011DEE0022D2
:101B1100900041EBF0A3EAF0A3E9F0121F4A7FA085
:101B2100121D204005121F2180F1AF05121D201248
:101B31001F4A7FA1121D20900045E0D394017480BB
:101B41009480401F121DBC900041E0FBA3E475F09E
:101B5100011209A5A9F0FAEF120971900045E014EC
:101B6100F080D4121D89900041E0FBA3E0FAA3E0CC
:081B7100F9EF120971021F21B6
:101C3E0090003FEBF0A3EAF0A3E9F0900043E0D36D
:101C4E009400748094804049121F4A7FA0121D2078
:101C5E004005121F2180F1AF05121D20900043E0B8
:101C6E00D3940074809480402390003FE0FBA3E463
:101C7E0075F0011209A5A9F0FA12092BFF121D2009
:101C8E00900043E014F00DED540770D0121F218028
:021C9E00AA2278
:1019A400021E1DE493A3F8E493A34003F68001F21E
:1019B40008DFF48029E493A3F85407240CC8C33344
:1019C400C4540F4420C8834004F456800146F6DF13
:1019D400E4800B0102040810204080900016E47E8D
:1019E400019360BCA3FF543F30E509541FFEE49308
:1019F400A360010ECF54C025E060A840B8E493A3CF
:101A0400FAE493A3F8E493A3C8C582C8CAC583CAF9
:101A1400F0A3C8C582C8CAC583CADFE9DEE780BEB1
:0100200000DF
:10092B00BB010689828A83E0225002E722BBFE02CA
:09093B00E32289828A83E49322FD
:10094400BB010CE58229F582E5833AF583E0225068
:1009540006E92582F8E622BBFE06E92582F8E222B2
:0D096400E58229F582E5833AF583E49322CC
:10097100BB010689828A83F0225002F722BBFE0165
:02098100F3225F
:10098300F8BB010DE58229F582E5833AF583E8F0AA
:10099300225006E92582C8F622BBFE05E92582C856
:0209A300F2223E
:1009A500A3F8E0C5F025F0F0E58215827002158305
:0609B500E0C838F0E82262
:1009BB00EB9FF5F0EA9E42F0E99D42F0E89C45F092
:0109CB002209
:1009CC00E8600FECC313FCED13FDEE13FEEF13FF09
:0309DC00D8F1222D
:1009DF00E8600FEFC333FFEE33FEED33FDEC33FC76
:0309EF00D8F1221A
:1009F200BB010789828A83020AED5005E9F8020ADF
:100A0200E1BBFE05E9F8020AF989828A83020B0535
:100A1200BB010DE58229F582E5833AF583020AEDF1
:100A22005007E92582F8020AE1BBFE07E92582F8B0
:100A3200020AF9E58229F582E5833AF583020B057C
:100A4200BB010789828A83020A805005E9F8020BFA
:0A0A520015BBFE05E9F8020B212296
:100A5C00BB010DE58229F582E5833AF583020A8014
:100A6C005007E92582F8020B15BBFE07E92582F831
:040A7C00020B212226
:0C0A8000ECF0A3EDF0A3EEF0A3EFF022E9
:100A8C00A8828583F0D083D082120AA3120AA31203
:100A9C000AA3120AA3E473E493A3C583C5F0C58328
:100AAC00C8C582C8F0A3C583C5F0C583C8C582C8B4
:010ABC002217
:100ABD00BB010DE58229F582E5833AF583020A8CA7
:100ACD005007E92582F8020B2DBBFE07E92582F8B8
:040ADD00020B4622A0
:10002600E5102448F582E43400F583E005102290BB
:100036000045300703900048E475F001120B5F029B
:10004600092B2000E97F2ED2008018EF540F249050
:10005600D43440D4FF30040BEF24BFB41A0050034D
:100066002461FFE511600215110514E514700205FF
:100076001330070E900045E475F001120B5FEF0296
:1000860009710200037403D2078003E4C207F51066
:10009600900045120B76E4F511F513F514E51160A1
:1000A600077F2012006980F57512FFC201C200C2E7
:1000B60002C203C205C206C208120035FF700D3027
:1000C60007057F0012007AAF14AE1322B4255FC273
:1000D600D5C204120035FF24D0B40A00501A75F0B8
:1000E6000A781130D50508B6FF0106C6A426F62003
:1000F600D5047002D20380D924CFB41A00EF50047D
:10010600C2E5D20402027BD20180C6D20080C0D2F0
:100116000280BCD2D580BAD20580B47F2012006995
:100126002002077401B5110040F1120026FF1200EB
:10013600690200A3D208D2068095120026FB12009F
:1001460026FA120026F94A4B7006794C7A037BFF91
:1001560020022EE511602A7E008E82758300120928
:100166004460060EEE651270F0C2D5EBC0E0EAC040
:10017600E0E9C0E0EE1202C2D0E0F9D0E0FAD0E049
:10018600FB12092BFF60AAEBC0E0EAC0E0E9C0E081
:10019600120069D0E02401F9D0E03400FAD0E0FB87
:1001A600E5120460DCD512D980877BFF7A0279BE1E
:1001B600D202809C791080027908C206C2088008A3
:1001C600D2D5790A8004790AC2D5E512047002F5FF
:1001D60012E4FAFDFEFF120026FC7B082001131232
:1001E6000026FD7B1030000A120026FE120026FFB4
:1001F6007B20EC3382D592D55013C3E43000069FA2
:10020600FFE49EFEE42001039DFDE49CFCE4CBF8A4
:10021600C201EC700CCFCECDCCE824F8F870F38098
:1002260017C3EF33FFEE33FEED33FDEC33FCEB3358
:10023600FB994002FB0FD8E9EB300105F8D0E0C48A
:1002460048B201C0E00AEC4D4E4F78207B0070C2E8
:10025600EAB5120040BCC0E01202C4D0F0D0E020E3
:100266000104C4C0E0C4B201C0F0120052D0F0D5FF
:10027600F0EB0200A3120B7F01405301BA580111A3
:100286004C010D4201BE4F01C64401C64901264339
:0802960001CC5501B04601B096
:10029E004501B047036C5001152D01192E013C2B61
:1002AE00011D23013A2003552A00D54800000134D0
:1002BE003F3F3F00790AA2D5200314300509B9103B
:1002CE00020404B9080104A2D5200602500104203C
:1002DE0002689202B511005034C0E07F203003193D
:1002EE007F30A20272067205500F12031BC202C2A9
:1002FE0006C205C2087F30800F300503E9C0E01248
:10030E000069300503D0E0F9D0E0B511CC30051707
:10031E007F30B9100C1200697F583004077F788047
:10032E0003B908031200693002057F2D0200697FB0
:10033E00202008F87F2B2006F322920280CF286E11
:10034E00756C6C2900D2011200263001F8C20178BA
:10035E001130D50108F60200D52D50434958120030
:10036E00262403B405004001E49003679312005A5B
:0D037E00743A12005AD2037511040201BA3C
:0C0AE100E6FC08E6FD08E6FE08E6FF2241
:0C0AED00E0FCA3E0FDA3E0FEA3E0FF227C
:0C0AF900E2FC08E2FD08E2FE08E2FF2239
:100B0500E493FC740193FD740293FE740393FF2236
:0C0B1500ECF608EDF608EEF608EFF6220C
:0C0B2100ECF208EDF208EEF208EFF22210
:100B2D00D083D082E493F608740193F6087402938F
:090B3D00F608740393F6740473C6
:100B4600D083D082E493F208740193F2087402937E
:090B5600F208740393F2740473B5
:100B5F00F8E0FBA3A3E0F925F0F0E582158270021F
:070B6F001583E0FA38F022C3
:090B7600EBF0A3EAF0A3E9F02280
:100B7F00D083D082F8E4937012740193700DA3A305
:100B8F0093F8740193F5828883E473740293686019
:060B9F00EFA3A3A380DF19
:00000001FF
