:03000000020EFEEF
:0C0EFE00787FE4F6D8FD758122020F45D4
:100A860043616E2073656E642049443A20253038F0
:100A9600582C2020444C433A2562782C202044616F
:100AA60074613A200043616E2073656E6420494488
:100AB6003A202538582C2020444C433A2562782C7D
:100AC6002020446174613A200025303262582000AB
:100AD6000D0A0052656365697665205258425F4388
:100AE60054524C5F416464726573733A20256258B0
:100AF6002C20444C433A2562782C20446174613A98
:100B060000526561645F5258425F4354524C3A202A
:100B160025303262582C20205258463A25625820F9
:100B26000D0A0031053001001305300100090530BA
:100B360001000405300100010738020001053001FB
:100B46000000053001000001100100000000000057
:100B5600000000000000000000000020F102030475
:030B66000506077A
:10111600C10CC10AC10BC109C110C10FC10EC10D5D
:101126008E46000102030405060708090A0B0C0D8A
:0A1136008854000102030405062797
:0C000300789FEFF2121242789FE2FF2279
:09123900D2BAD28AD2AAD2AF22A5
:0300130002104B8D
:0D104B00C0E0C0F0C083C082C0D075D008E6
:101058007F2C12121BEF30E702D20CEF30E602D2DF
:101068000AEF30E502D20BEF30E402D209EF30E3A9
:1010780002D210EF30E202D20FEF30E102D20EEFCF
:0710880030E002B290D20D2E
:0B108F00D0D0D082D083D0F0D0E0326F
:0A0D10007800EBF208EAF208E9F2BD
:100D1A007806E2FF14F2EF7003020DB77803E2FBE4
:100D2A0008E2FA08E2F91206DBC4540FFFD3940969
:100D3A0074809480EF5004243080022437FE7800B7
:100D4A00E2FB0808E2F92401F218E2FA3400F2EEB2
:100D5A001207217803E2FB08E2FA08E2F91206DB3D
:100D6A00540FFFD3940974809480EF500424308088
:100D7A00022437FF7800E2FB0808E2F92401F2189E
:100D8A00E2FA3400F2EF1207217800E2FB0808E2E7
:100D9A00F92401F218E2FA3400F2742012072178D9
:100DAA0005E22401F218E23400F2020D1A7800E298
:0B0DBA00FB08E2FA08E2F9E40207215E
:040F8A00785DEDF2AF
:100F8E00E4FF785DE2FE14F2EE60541206DBC45408
:100F9E000FFED3940974809480EE500424308002A6
:100FAE002437FDAC070F74072CF8EDF21206DB5454
:100FBE000FFED3940974809480EE50042430800286
:100FCE002437FEAD070F74072DF8EEF2AE070F743F
:100FDE00072EF87420F2740129F9E43AFA80A31F5F
:0C0FEE0074072FF8E4F27BFE7A0079070C
:010FFA0022D4
:0A0DC500785EEEF208EFF208EDF29E
:100DCF00E408F208F2087C007DFE7BFF7A0B795174
:100DDF00FE7F081206B57860E2FBFD7C00785EE2CC
:100DEF00FE08E2FF120755AA05785EE2FE08E2FF51
:100DFF00EBFD7C00120755785EEEF208EFF278619A
:100E0F00E2FD04F274632DF8EAF2D3EF9400EE944E
:100E1F000050C37861E214F22463F8E2FAD3940924
:100E2F0074809480EA5004243080022437FF786263
:100E3F00E2FE04F274302EF8EFF27861E2D3940000
:100E4F007480948050CD08E22430F8E4F27BFE7A6F
:030E5F00007930E7
:010E6200226D
:0A114300786BEBF208EAF208E9F21B
:10114D00E4FF786BE2FB0808E2F92401F218E2FAF9
:10115D003400F21206DB60030F80E77A00A9077BEB
:01116D000081
:01116E00225E
:100E63007881EEF208EFF27884EBF218EDF27BFF73
:100E730060067A0A798680047A0A79AB7881E2FF80
:100E830008E27893CFF208EFF27884E27895F212D1
:100E93000088E4785CF27884E2FF785CE2FEC39F2A
:100EA30050257885E2FB08E2FA08E2F98E82758321
:100EB300001206F47893F27BFF7A0A79CF12008846
:100EC300785CE204F280CF7BFF7A0A79D61200883D
:100ED3007881E2FE08E2FFE4FCFD08E2788CF27818
:100EE30084E2788DF27885E2F908E2FA08E2788EF6
:0B0EF300C9F208EAF208E9F2020381EC
:0D0C4B007881EFF208EBF208EAF208E9F216
:100C5800E47886F208F2087C007DFE7BFF7A0B7947
:100C680059FE7F081206B57881E2FF08E2FB08E228
:100C7800FA08E2F9120FFB7882E2FB08E2FA08E2CE
:100C8800F99000051206F4540FFF7886F27BFF7A7C
:100C98000A79D97881E27893F208EFF2120088E4B1
:100CA8007885F27886E2FF18E2FEC39F5036E2FFAD
:100CB8002406F582E433F5837882E2FB08E2FA0839
:100CC800E2F91206F4FD74882FF8EDF27BFF7A0A38
:100CD80079CF74882EF8E27893F21200887885E24A
:100CE80004F280BF7BFF7A0A79D61200887881E205
:100CF800FF12121B7887EFF27BFF7A0B7907789344
:080D0800F2540708F202008812
:100B690078731207ED000007FDE47877F20874083E
:100B7900F2087C007DFE7BFF7A0B79617E00FF1213
:100B890006B51211FC1212397BFF7A0B793D120955
:100B99007BE47871F208F278730808E2FE08E2FF54
:100BA90008E2FD788574FEF2087400F2087479F29F
:100BB9007878E2FB120E637873E2FC08E2FD08E242
:100BC900FE08E22401FFE43EFEE43DFDE43CFC783E
:100BD900731207E17877E270047F0180027F007861
:100BE90077EFF208E214F27FE87E031211DD7872E2
:100BF900E22401F218E23400F2C308E2940218E296
:100C0900940040937FD07E071211DD300D14C20D80
:100C19007BFE7A0079467F60120C4B7FD07E0712EB
:100C290011DD300E14C20E7BFE7A0079467F7012F8
:100C39000FFB7FD07E071211DD7FD07E071211DDF9
:020C490080C960
:10109A00303132333435363738393A3B3C3D4041CA
:1010AA0042434445464748494A4B4C4D5051525396
:1010BA005455565758595A5B5C5D000102030405A2
:1010CA00060708090A0B1011121314151617181916
:0A10DA001A1B2021222324252627BB
:1011DD00D3EF9400EE94004015E4FDFC0DBD00012D
:0E11ED000CED64644C70F5EF1F70E51E80E29F
:0111FB0022D1
:1011BC00E4FFC295FEEEC39408748094805011D263
:1011CC0095EF25E0FFA293E4334FFFC2950E80E527
:0111DC0022F0
:10116F00E4FEEEC3940874809480501AC295A806CA
:10117F00EF088002C333D8FC30E704D2948002C258
:08118F0094D2950E80DCC2959C
:011197002235
:0E119800E2FB08E2FA08E2F91206F4FFE4FDB9
:1011A600AC07C2927F0212116FAF0412116FAF0526
:0611B60012116FD292221B
:02121B00AD071D
:10121D00C2927F0312116FAF0512116F1211BCD262
:01122D00922E
:01122E00229D
:0A122F00C2927FC012116FD292220A
:100845007881EFF2E47FFF7E07FDFC08E2FB08E21A
:10085500F908E2FA08E2CBF8D31207AA50667886BF
:10086500E260137881E2FFE4FD1211A67881E204CB
:10087500FF7D0802093E7882E2FC08E2FD08E2FEFF
:1008850008E2FF78031207BBAD077881E2FF12117A
:10089500A67881E204FFC00708080808E25407FFAC
:1008A500E4FEFDFC78051207CEAD07D0071211A6B0
:1008B5007881E22402FFE4FD1211A67881E2240387
:1008C500FF0209777882E2FC08E2FD08E2FE08E211
:1008D500FF78151207BBAD077881E2FF1211A678E4
:1008E50081E204FFC00708E2FC08E2FD08E2FE0819
:1008F500E2FF78121207BBEF5407FFE4FEFDFC7818
:10090500051207CEC004C005C006C0077882E2FC08
:1009150008E2FD08E2FE08E2FF78101207BBEF547B
:1009250003FFD003D002D001D000EB4FFFEAFEE871
:10093500FCEF4408FFAD07D0071211A67881E22429
:1009450002FFC00708E2FC08E2FD08E2FE08E2FF3C
:1009550078081207BBAD07D0071211A67881E224EB
:1009650003FFC00708E2FC0808E2FE08E2FFAD0746
:06097500D0071211A622BA
:10097B00E4FF12122F7F017E001211DD9000041292
:10098B0006F4FF1206DB4FFD7F2A1211A690000220
:10099B001206F44480FF9000011206F44FFD7F29EC
:1009AB001211A69000031206F44480FD7F28121149
:1009BB00A67D067F601211A678821207ED0000015A
:1009CB000078867401F2E4FF12084578821207ED75
:1009DB00000007FEE47886F27F0412084578821245
:1009EB0007ED000007FFE47886F27F2012084578B8
:1009FB00821207ED0000080078867401F27F08125E
:100A0B00084578821207ED1FFFFFFF78867401F20D
:100A1B007F1012084578821207ED000007FFE4787B
:100A2B0086F27F1412084578821207ED0000000051
:100A3B00E47886F27F1812084578821207ED1FFFC3
:100A4B00FFFEE47886F27F24120845E4FD7F2C122A
:100A5B0011A67D037F2B1211A60D7F0F1211A67FFE
:100A6B000E12121BEF7E0060047F0180027F00EFED
:0A0A7B004E60077D047F0F1211A6E4
:010A8500224E
:0503810078881207E17D
:100386007F3012121BEF20E204789180307F4012FA
:10039600121BEF20E20F789174FFF2087410F20836
:1003A60074A8F280237F5012121BEF789120E20D81
:1003B60074FFF2087410F20874B6F2800B74FFF240
:1003C600087410F208749AF27891E2FB08E2FA08CF
:1003D600E2F99000051206F4FF788DE2FD1211A6EF
:1003E600E47FFF7E07FDFC7888E2FB08E2F908E27D
:1003F600FA08E2CBF8D31207AA4003020499788CD4
:10040600E27891601C9000011211987891E2FB0845
:10041600E2FA08E2F99000021206F4FF7D080205EE
:100426002CE2FB08E2FA08E2F99000011206F4FF5A
:10043600C0077888E2FC08E2FD08E2FE08E2FF78E1
:10044600031207BBAD07D0071211A67891E2FB088D
:10045600E2FA08E2F99000021206F4FFC007788873
:10046600080808E25407FFE4FEFDFC78051207CEF3
:10047600AD07D0071211A678919000031211987853
:1004860091E2FB08E2FA08E2F99000041206F4FF92
:1004960002057D7891E2FB08E2FA08E2F990000194
:1004A6001206F4FFC0077888E2FC08E2FD08E2FEC7
:1004B60008E2FF78151207BBAD07D0071211A67820
:1004C60091E2FB08E2FA08E2F99000021206F4FF54
:1004D600C0077888E2FC08E2FD08E2FE08E2FF7841
:1004E600121207BBEF5407FFE4FEFDFC7805120766
:1004F600CEC004C005C006C0077888E2FC08E2FD4D
:1005060008E2FE08E2FF78101207BBEF5403FFD0A3
:1005160003D002D001D000EB4FFFEAFEE8FCEF4427
:1005260008FFAD07D0071211A67891E2FB08E2FAA0
:1005360008E2F99000031206F4FFC0077888E2FC8F
:1005460008E2FD08E2FE08E2FF78081207BBAD07E5
:10055600D0071211A67891E2FB08E2FA08E2F990B8
:1005660000041206F4FFC0077888E2FC0808E2FEE1
:1005760008E2FFAD07D0071211A6E47894F2788D51
:10058600E2FF7894E2FED39F503DEE940874809487
:100596008050347891E2FB08E2FA08E2F99000060E
:1005A6001206F4FF7894E2FE2FFF788EE2FB08E253
:1005B600FA08E2F98E827583001206F4FD1211A67E
:1005C6007894E204F280B7C2927891E2FB08E2FAEC
:0E05D60008E2F91206DBFF7D081211A6D29290
:0105E40022F4
:0D0FFB007890EFF208EBF208EAF208E9F254
:10100800E4FCECC3940E74809480501E7890E22C1B
:10101800FF12121B7891E2FB08E2FA08E2F98C82CF
:10102800758300EF1207330C80D87890E2FB7A00C2
:10103800646070028006EB64704A7006FD7F2C12B3
:0210480011A6EF
:01104A002283
:02114000C111DB
:1011FC00C2AF53890F438920759850758DFA758B42
:0F120C00FA438780D299D2ACD28ED29CD2AF2235
:03002300020016C2
:0B001600309803C29832C299C2113228
:081242008F99D2112011FD2249
:1010E400786EEBF208EAF208E9F2786EE2FB08E2C5
:1010F400FA08E2F91206DBFF121242786EE2FB08EC
:1011040008E2F92401F218E2FA3400F21206DB7064
:02111400D922DE
:100F0A00020B69E493A3F8E493A34003F68001F289
:100F1A0008DFF48029E493A3F85407240CC8C333E8
:100F2A00C4540F4420C8834004F456800146F6DFB7
:100F3A00E4800B0102040810204080901116E47E20
:100F4A00019360BCA3FF543F30E509541FFEE493AC
:100F5A00A360010ECF54C025E060A840B8E493A373
:100F6A00FAE493A3F8E493A3C8C582C8CAC583CA9E
:100F7A00F0A3C8C582C8CAC583CADFE9DEE780BE56
:0111420000AC
:1005E500E709F608DFFA8046E709F208DFFA803EF8
:1005F50088828C83E709F0A3DFFA8032E309F608E5
:10060500DFFA8078E309F208DFFA807088828C834C
:10061500E309F0A3DFFA806489828A83E0A3F60800
:10062500DFFA805889828A83E0A3F208DFFA804CDA
:1006350080D280FA80C680D4806980F280338010B1
:1006450080A680EA809A80A880DA80E280CA80331A
:1006550089828A83ECFAE493A3C8C582C8CCC58392
:10066500CCF0A3C8C582C8CCC583CCDFE9DEE78062
:100675000D89828A83E493A3F608DFF9ECFAA9F0E1
:10068500EDFB2289828A83ECFAE0A3C8C582C8CC37
:10069500C583CCF0A3C8C582C8CCC583CCDFEADE50
:1006A500E880DB89828A83E493A3F208DFF980CCB2
:1006B50088F0EF60010E4E60C388F0ED2402B404AB
:1006C5000050B9F582EB2402B4040050AF23234552
:0606D5008223900635733C
:1006DB00BB010689828A83E0225002E722BBFE021D
:0906EB00E32289828A83E4932250
:1006F400BB010CE58229F582E5833AF583E02250BB
:1007040006E92582F8E622BBFE06E92582F8E22204
:0D071400E58229F582E5833AF583E493221E
:10072100BB010689828A83F0225002F722BBFE01B7
:02073100F322B1
:10073300F8BB010DE58229F582E5833AF583E8F0FC
:10074300225006E92582C8F622BBFE05E92582C8A8
:02075300F22290
:10075500BC000BBE0029EF8DF084FFADF022E4CC88
:10076500F875F008EF2FFFEE33FEEC33FCEE9DEC51
:10077500984005FCEE9DFE0FD5F0E9E4CEFD22ED97
:10078500F8F5F0EE8420D21CFEADF075F008EF2FE1
:10079500FFED33FD4007985006D5F0F222C398FDD2
:0507A5000FD5F0EA226F
:1007AA00EB9FF5F0EA9E42F0E99D42F0E89C45F0A5
:0107BA00221C
:1007BB00E8600FECC313FCED13FDEE13FEEF13FF1C
:0307CB00D8F12240
:1007CE00E8600FEFC333FFEE33FEED33FDEC33FC89
:0307DE00D8F1222D
:0C07E100ECF208EDF208EEF208EFF22254
:1007ED00D083D082E493F208740193F208740293DB
:0907FD00F208740393F274047312
:10002600E5102493F8E205102278903007027893C1
:10003600E475F0011208060206DB2000EB7F2ED2E3
:10004600008018EF540F2490D43440D4FF30040BB2
:10005600EF24BFB41A0050032461FFE511600215B6
:10006600110514E5147002051330070D7890E47538
:10007600F001120806EF0207210200037403D207FB
:100086008003E4C207F5107890120816E4F511F51E
:1000960013F514E51160077F2012006180F57512D3
:1000A600FFC201C200C202C203C205C206C20812D2
:1000B600002FFF700D3007057F00120072AF14AEDF
:1000C6001322B4255FC2D5C20412002FFF24D0B478
:1000D6000A00501A75F00A781130D50508B6FF01E6
:1000E60006C6A426F620D5047002D20380D924CFF2
:1000F600B41A00EF5004C2E5D204020271D20180A4
:10010600C6D20080C0D20280BCD2D580BAD20580C9
:10011600B47F201200612002077401B5110040F17E
:10012600120026FF120061020099D208D2068095BD
:10013600120026FB120026FA120026F94A4B700618
:1001460079427A037BFF20022EE511602A7E008E1B
:10015600827583001206F460060EEE651270F0C218
:10016600D5EBC0E0EAC0E0E9C0E0EE1202B8D0E0AC
:10017600F9D0E0FAD0E0FB1206DBFF60AAEBC0E0A4
:10018600EAC0E0E9C0E0120061D0E02401F9D0E065
:100196003400FAD0E0FBE5120460DCD512D9808782
:1001A6007BFF7A0279B4D202809C791080027908AA
:1001B600C206C2088008D2D5790A8004790AC2D557
:1001C600E512047002F512E4FAFDFEFF120026FCA9
:1001D6007B08200113120026FD7B1030000A120056
:1001E60026FE120026FF7B20EC3382D592D55013D3
:1001F600C3E43000069FFFE49EFEE42001039DFD5C
:10020600E49CFCE4CBF8C201EC700CCFCECDCCE87C
:1002160024F8F870F38017C3EF33FFEE33FEED33A7
:10022600FDEC33FCEB33FB994002FB0FD8E9EB30D6
:100236000105F8D0E0C448B201C0E00AEC4D4E4FCB
:1002460078207B0070C2EAB5120040BCC0E0120202
:10025600BAD0F0D0E0200104C4C0E0C4B201C0F0BE
:1002660012004AD0F0D5F0EB02009912081F0136B1
:100276005301B05801074C01034201B44F01BC447D
:1002860001BC49011C4301C25501A64601A6450110
:01029600A6C1
:1002970047036250010B2D010F2E01322B0113234F
:1002A700013020034B2A00CB480000012A3F3F3F83
:1002B70000790AA2D5200314300509B910020404F5
:1002C700B9080104A2D52006025001042002689251
:1002D70002B511005034C0E07F203003197F30A2EF
:1002E7000272067205500F120311C202C206C2053E
:1002F700C2087F30800F300503E9C0E0120061308B
:100307000503D0E0F9D0E0B511CC3005177F30B93F
:10031700100C1200617F583004077F788003B908FA
:10032700031200613002057F2D0200617F20200843
:10033700F87F2B2006F322920280CF286E756C6C13
:100347002900D2011200263001F8C201781130D5F8
:100357000108F60200CB2D5043495812002624030A
:10036700B405004001E490035D93120052743A1201
:0A0377000052D2037511040201B018
:10080600FAE2FB0808E2F925F0F218E2CA3AF22207
:09081600EBF208EAF208E9F22213
:10081F00D083D082F8E4937012740193700DA3A368
:10082F0093F8740193F5828883E47374029368607C
:06083F00EFA3A3A380DF7C
:00000001FF
