:03000000021FBD1F
:0C1FBD00787FE4F6D8FD75812202200434
:100FEA0043616E2073656E64202020200043616E89
:100FFA002072656365766965200049443A20253088
:10100A00376C582C2020444C433A2562782C2020F7
:10101A00446174613A200049443A2025376C582CBF
:10102A002020444C433A2562782C20204461746184
:10103A003A2000253032625820000D0A00616464AB
:10104A003A2025303262582045325F726561645F0A
:10105A00646174615B385D3D5B25303262582C20D7
:10106A0025303262582C2025303262582C20253007
:10107A003262582C2025303262582C2025303262B8
:10108A00582C2025303262582C2025303262585D87
:10109A00200D0A00434E46313A202530326258204C
:1010AA0000434E46323A2025303262582000434EE1
:1010BA0046333A202530326258200D0A00525842EF
:1010CA00304354524C3A2025303262582000434172
:1010DA004E494E54463A2025303262582000434148
:1010EA004E494E54453A202530326258200D0A00A6
:1010FA0052584630534944483A20253032625820E3
:10110A000052584631534944483A202530326258F1
:10111A00200052584632534944483A202530326218
:10112A0058200D0A0052584633534944483A20255C
:10113A0030326258200052584634534944483A20C3
:10114A002530326258200052584635534944483AAD
:10115A00202530326258200D0A0052584D3053492A
:10116A0044483A202530326258200052584D3153B3
:10117A004944483A202530326258200043414E43C0
:10118A0054524C3A202530326258200D0A00B6C11A
:10119A00C8A1CABEDD203A2045325F646174615B32
:1011AA002562645D203D20256278200D0A004341B6
:1011BA004E5F52583049465F466C6167203D202594
:1011CA006264200D0A0043414E5F52583149465F1E
:1011DA00466C6167203D20256264200D0A00434168
:1011EA004E535441543A202530326258200D0A0099
:1011FA0043414E494E54463A202530326258200D1A
:0A120A000A0020F1030304050607A3
:10242500C10CC10AC10BC109C110C10FC10EC10D3B
:0E000300900090EFF012245C900090E0FF223D
:09245300D2BAD28AD2AAD2AF2279
:030013000221D0F7
:0D21D000C0E0C0F0C083C082C0D075D00850
:1021DD007F2C1223FCEF30E702D20CEF30E602D257
:1021ED000AEF30E502D20BEF30E402D209EF30E313
:1021FD0002D210EF30E202D20FEF30E102D20EEF39
:05220D0030E002D20DDB
:0B221200D0D0D082D083D0F0D0E032DA
:061EF3007B017A00792555
:0B1EF90090005CEBF0A3EAF0A3E9F01E
:101F0400120AD2900060120B60900004120A24FF9F
:101F14001313135401900064F0EFC4540FA3F09012
:101F24000004120A24FF1313543F7BFF30E0067AA7
:101F34000F79EA80047A0F79F7120CF0900064E0CC
:101F44007BFF60067A10790480047A10792190006E
:101F540060E0FCA3E0FDA3E0FEA3E0FF90006B12B1
:101F64000B60900065E090006FF0120CF0E49000BC
:101F74005FF0900065E0FF90005FE0FEC39F50308B
:101F840090005CE0FBA3E0FAA3E02405F9E43AFA4C
:101F9400EE7E0029F9EE3AFA120A0B90006BF07B00
:101FA400FF7A10793D120CF090005FE004F080C2DB
:091FB4007BFF7A107944020CF065
:0B20490090005CEBF0A3EAF0A3E9F0CC
:1020540090005CE0FBA3E0FAA3E0F9120AD290003E
:102064005F120B60900004120A24FF13131354012F
:10207400900063F0FBEFC4540FFA90005FE0FCA300
:10208400E0FDA3E0FEA3E0FF900068EBF0AB02A349
:10209400EBF090005CE0FBA3E0FAA3E02405F9E494
:1020A4003AFA90006AEBF0A3EAF0A3E9F002121402
:06182B007B017A00792523
:1018310090005DEBF0A3EAF0A3E9F090005CEFF01B
:101841001223FC900061EFF090005CE004FF122392
:10185100FC900062EFF090005CE02402FF1223FC98
:10186100900063EFF090005CE02403FF1223FC90F2
:101871000064EFF090005CE02404FF1223FC900070
:1018810065EFF090005CE02405FF1223FC900063FB
:10189100E05408131313540133333354F8FE90000A
:1018A1005DE0FBA3E0FAA3E02404F9E43AFA120AAA
:1018B1000B54F74EFE120A51EF540FC454F0FFEED1
:1018C100540F4F120A5190005DE0FBA3E0FAA3E030
:0F18D100F9900004120A24131313541F30E07807
:1018E000900062E075F008A4FFAEF0A3E0FBC41323
:1018F0005407FDEF4DFFEE3395E0FDFC90006612BE
:101900000B60EB54037E007810C333CE33CED8F98E
:10191000FDAC06900064E04CFEEDFFA3E0FDEF4D52
:10192000FFEE3395E0FDFC90006A120B60900066BC
:10193000E0FCA3E0FDA3E0FEA3E0FF7812120ABFE3
:10194000A3E0F8A3E0F9A3E0FAA3E04FFFEA4EFE1C
:06195000E94DFDE84CFC2E
:02195600802FE0
:10195800900062E075F008A4FFAEF0A3E0C4135451
:1019680007FDEF4DFFEE3395E0FDFC900066120B8E
:1019780060900066E0FCA3E0FDA3E0FEA3E0FF901A
:0D198800005DE0FBA3E0FAA3E0F9120B22E2
:10199500E4900060F090005DE0FBA3E0FAA3E0F9BD
:1019A500900004120A24C4540FFF900060E0FEC3A7
:1019B5009F503290005CE02406FFEE2FFF1223FCBF
:1019C50090005DE0FBA3E0FAA3E02405F9E43AFA10
:1019D500A3E07C0029F9EC3AFAEF120A5190006075
:0519E500E004F080B0F9
:0119EA0022DA
:0B1E1400900068EBF0A3EAF0A3E9F0F7
:101E1F00EF75F005A424F6601F24F1602224E7601B
:101E2F002524CE602B24E7603A2483604924F57083
:101E3F005790006B7431803090006B741380299031
:101E4F00006B7409802290006B7404F0A304801C53
:101E5F0090006B7401F0A37407F0A37438F0A374AF
:101E6F0002803490006B7401F0A37405F0A37430FA
:101E7F00F0A374018021E490006BF0A37405F0A32C
:101E8F007430F0A37401800FE490006BF0A304F0A2
:101E9F00A37410F0A37401F0E4A3F090006BE0FFC3
:101EAF00900068E0FBA3E0FAA3E0F9EF120A51906B
:101EBF00006CE0FF900068E0FBA3E0FAA3E0F9906C
:101ECF000001EF120A6390006DE0900002120A63A6
:101EDF0090006EE0900003120A6390006FE0900094
:041EEF0004020A637C
:0B050D0090005CEBF0A3EAF0A3E9F023
:1005180090005CE0FBA3E0FAA3E0F9120A0B90005C
:1005280060F0900006120A24FF5401900061F0EF79
:10053800C3135407A3F0900027120A24900063F015
:10054800900028120A24900063F07B017A007960F9
:1005580090006C7405F0E4FD12211C90005CE0FB37
:10056800A3E0FAA3E0F9900007120AF27818120A39
:10057800AC900060EFF0900007120AF27810120AAF
:10058800AC900061EFF0900007120AF27808120AA6
:10059800AC900062EFF0900007120AF2900063EF4F
:1005A800F0900007120AF27818120AAC900064EF73
:1005B800F0900007120AF27810120AAC900065EF6A
:1005C800F0900007120AF27808120AAC900066EF61
:1005D800F0900007120AF2E4900067EFF07B017ACE
:1005E80000796090006C7408F07D0112211C900065
:1005F8005CE0FBA3E0FAA3E0F9900029120A245476
:10060800017F00C43333335480FE3395E0FDFCC0D2
:1006180004C005C006C00790005CA3A3E090000BCF
:10062800120AF27818120AACD003D002D001D00016
:10063800EF4BFF900060EFF090005CE0FBA3E0FA66
:10064800A3E0F990000B120AF27810120AAC90009D
:1006580061EFF090000B120AF27808120AAC9000D1
:1006680062EFF090000B120AF2900063EFF0900036
:1006780029120A24C31354017F00C433333354802E
:10068800FE3395E0FDFCC004C005C006C00790001D
:100698005CA3A3E090000F120AF27818120AACD0FB
:1006A80003D002D001D000EF4BFF900064EFF09030
:1006B800005CE0FBA3E0FAA3E0F990000F120AF255
:1006C8007810120AAC900065EFF090000F120AF251
:1006D8007808120AAC900066EFF090000F120AF248
:1006E800E4900067EFF07B017A00796090006C7409
:1006F80008F07D0212211C90005CE0FBA3E0FAA345
:10070800E0F9900029120A24131354017F00C4331E
:1007180033335480FE3395E0FDFCC004C005C006A9
:10072800C00790005CA3A3E0900017120AF27818A3
:10073800120AACD003D002D001D000EF4BFF9000DA
:1007480060EFF090005CE0FBA3E0FAA3E0F9900012
:1007580017120AF27810120AAC900061EFF09000BC
:1007680017120AF27808120AAC900062EFF09000B3
:1007780017120AF2900063EFF0900029120A24136E
:10078800131354017F00C43333335480FE3395E090
:10079800FDFCC004C005C006C00790005CA3A3E030
:1007A80090001B120AF27818120AACD003D002D0BB
:1007B80001D000EF4BFF900064EFF090005CE0FB8D
:1007C800A3E0FAA3E0F990001B120AF27810120ACB
:1007D800AC900065EFF090001B120AF27808120A3C
:1007E800AC900066EFF090001B120AF2E4900067EC
:1007F800EFF07B017A00796090006C7408F07D035B
:1008080012211C90005CE0FBA3E0FAA3E0F9900041
:1008180029120A24C454017F00C43333335480FEA0
:100828003395E0FDFCC004C005C006C00790005C1D
:10083800A3A3E090001F120AF27818120AACD003A2
:10084800D002D001D000EF4BFF900060EFF0900095
:100858005CE0FBA3E0FAA3E0F990001F120AF2782B
:1008680010120AAC900061EFF090001F120AF278A3
:1008780008120AAC900062EFF090001F120AF29082
:100888000063EFF0900029120A24C41354017F007A
:10089800C43333335480FE3395E0FDFCC004C005F7
:1008A800C006C00790005CA3A3E0900023120AF2E0
:1008B8007818120AACD003D002D001D000EF4BFF59
:1008C800900064EFF090005CE0FBA3E0FAA3E0F98D
:1008D800900023120AF27810120AAC900065EFF02B
:1008E800900023120AF27808120AAC900066EFF022
:1008F800900023120AF2E4900067EFF07B017A007F
:0D090800796090006C7408F07D0402211CE1
:0B00260090005CEBF0A3EAF0A3E9F00F
:100031007B017A00796090006C7408F0E4FD122075
:10004100B4900060E0FF90005CE0FBA3E0FAA3E065
:10005100F9EF120A5190005CE0FBA3E0FAA3E0F98A
:10006100120A0BFFE92401F9E43AFA121E14900076
:1000710061E05401FF90005CE0FBA3E0FAA3E024FF
:1000810006F9E43AFA120A0B54FE4F120A51900093
:1000910062E0540725E0FF120A0B54F14F120A5196
:1000A100900063E0FF90005CE0FBA3E0FAA3E0F9BD
:1000B100900027EF120A63900064E0900028120A72
:1000C100637B017A00796090006C7408F07D011205
:1000D10020B47BFF7A10794790006B7401F0900097
:1000E10060E090006CF0900061E090006DF0900095
:1000F10062E090006EF0900063E090006FF090007D
:1001010064E0900070F0900065E0900071F0900064
:1001110066E0900072F0900067E0900073F0120CBE
:10012100F0900060E0547F7E007818C333CE33CE68
:10013100D8F9FDAC06900061E07E007810C333CEA3
:1001410033CED8F9FFEC4EFCED4FFD900062E04C50
:10015100FEEDFFA3E0FDEF4DFFEE3395E0FDFC90DA
:10016100005CE0FBA3E0FAA3E0F9900007120B3C6E
:10017100900013120B3C7B017A00796090006C7443
:1001810008F07D021220B47BFF7A10794790006B52
:100191007401F0900060E090006CF0900061E090DC
:1001A100006DF0900062E090006EF0900063E090CE
:1001B100006FF0900064E0900070F0900065E090B6
:1001C1000071F0900066E0900072F0900067E0909E
:1001D1000073F0120CF0900060E0FF90005CE0FB17
:1001E100A3E0FAA3E02429F9E43AFA120A0B54FE37
:1001F100120A51EF547F7E007818C333CE33CED824
:10020100F9FDAC06900061E07E007810C333CE3377
:10021100CED8F9FFEC4EFCED4FFD900062E04CFEB4
:10022100EDFFA3E0FDEF4DFFEE3395E0FDFC900007
:100231005CE0FBA3E0FAA3E0F990000B120B3CE4B5
:1002410025E0FFE92429F9E43AFA120A0B54FD4F9B
:10025100120A51900060E0547F7E007818C333CEBB
:1002610033CED8F9FDAC06900061E07E007810C372
:1002710033CE33CED8F9FFEC4EFCED4FFD9000624A
:10028100E04CFEEDFFA3E0FDEF4DFFEE3395E0FD09
:10029100FC90005CE0FBA3E0FAA3E0F990000F12F0
:1002A1000B3C7B017A00796090006C7408F07D034F
:1002B1001220B47BFF7A10794790006B7401F090A3
:1002C1000060E090006CF0900061E090006DF090B3
:1002D1000062E090006EF0900063E090006FF0909B
:1002E1000064E0900070F0900065E0900071F09083
:1002F1000066E0900072F0900067E0900073F012E9
:100301000CF0900060E0FFE425E025E0FE90005C49
:10031100E0FBA3E0FAA3E02429F9E43AFA120A0B7C
:1003210054FB4E120A51EF547F7E007818C333CE2E
:1003310033CED8F9FDAC06900061E07E007810C3A1
:1003410033CE33CED8F9FFEC4EFCED4FFD90006279
:10035100E04CFEEDFFA3E0FDEF4DFFEE3395E0FD38
:10036100FC90005CE0FBA3E0FAA3E0F99000171217
:100371000B3CE433333354F8FFE92429F9E43AFA26
:10038100120A0B54F74F120A51900060E0547F7E1D
:10039100007818C333CE33CED8F9FDAC0690006196
:1003A100E07E007810C333CE33CED8F9FFEC4EFC9B
:1003B100ED4FFD900062E04CFEEDFFA3E0FDEF4D3F
:1003C100FFEE3395E0FDFC90005CE0FBA3E0FAA3B7
:1003D100E0F990001B120B3C7B017A0079609000E0
:1003E1006C7408F07D041220B47BFF7A1079479079
:1003F100006B7401F0900060E090006CF09000617F
:10040100E090006DF0900062E090006EF09000636B
:10041100E090006FF0900064E0900070F090006553
:10042100E0900071F0900066E0900072F09000673B
:10043100E0900073F0120CF0900060E0FFE4C4540F
:10044100F0FE90005CE0FBA3E0FAA3E02429F9E4CC
:100451003AFA120A0B54EF4E120A51EF547F7E0002
:100461007818C333CE33CED8F9FDAC06900061E0E5
:100471007E007810C333CE33CED8F9FFEC4EFCEDBD
:100481004FFD900062E04CFEEDFFA3E0FDEF4DFF5C
:10049100EE3395E0FDFC90005CE0FBA3E0FAA3E005
:1004A100F990001F120B3CE4C43354E0FFE9242906
:1004B100F9E43AFA120A0B54DF4F120A5190006024
:1004C100E0547F7E007818C333CE33CED8F9FDAC2B
:1004D10006900061E07E007810C333CE33CED8F9A8
:1004E100FFEC4EFCED4FFD900062E04CFEEDFFA3F2
:1004F100E0FDEF4DFFEE3395E0FDFC90005CE0FB8D
:0C050100A3E0FAA3E0F9900023020B3CF9
:101D1F0090005CEBF0A3EAF0A3E9F090005CE0FB2D
:101D2F00A3E0FAA3E0F97414120A5190005CE0FBEF
:101D3F00A3E0FAA3E0F99000017401120A63900086
:101D4F00027407120A639000037438120A6390003A
:101D5F00047402120A63900005E4120A63E9240670
:101D6F00F9E43AFA120A0B4401120A5154F14406EB
:101D7F00120A5190005CE0FBA3E0FAA3E0F9900097
:101D8F00277403120A63900028E4120A6390000775
:101D9F00120B9D1FFFFFFF900013120B9D1FFFFFE4
:101DAF00FF90000B120B9D0000010090000F120B13
:101DBF009D000007FE900017120B9D00000101907F
:101DCF00001B120B9D0000010290001F120B9D00C3
:101DDF00000103900023120B9D00000104E9242948
:101DEF00F9E43AFA120A0B4401120A5154FD120A8D
:101DFF005154FB120A514408120A5154EF120A515E
:051E0F004420020A510D
:1019EB007F2A1223FC90006BEFF07BFF7A10799E1D
:1019FB00120CF07F291223FC90006BEFF07BFF7A27
:101A0B001079AB120CF07F281223FC90006BEFF0D7
:101A1B007BFF7A1079B8120CF07F601223FC9000D8
:101A2B006BEFF07BFF7A1079C7120CF07F2C12232F
:101A3B00FC90006BEFF07BFF7A1079D8120CF07FE3
:101A4B002B1223FC90006BEFF07BFF7A1079E812DE
:101A5B000CF0E4FF1223FC90006BEFF07BFF7A108D
:101A6B0079FA120CF07F041223FC90006BEFF07BE1
:101A7B00FF7A11790B120CF07F081223FC90006B8C
:101A8B00EFF07BFF7A11791C120CF07F101223FC04
:101A9B0090006BEFF07BFF7A11792F120CF07F1413
:101AAB001223FC90006BEFF07BFF7A117940120C44
:101ABB00F07F181223FC90006BEFF07BFF7A11790B
:101ACB0051120CF07F201223FC90006BEFF07BFF88
:101ADB007A117964120CF07F241223FC90006BEFC7
:101AEB00F07BFF7A117975120CF07F0F1223FC90AB
:0D1AFB00006BEFF07BFF7A117986020CF092
:10164500900000120B6C00000101E4900004F0A36F
:101655007408F078087C007D017BFF7A12790C7E96
:1016650000FF1209E57B017A007932121D1F7B010B
:101675007A00793212050D7B017A00793212002643
:101685001223D41224537B017A00793212143A7B47
:10169500017A00790890006C7408F0E4FD12211CB1
:1016A5007B017A00791090006C7408F0E4FD12203B
:1016B500B4E4900006F0900006E0C39408748094AA
:1016C5008050247BFF7A117998E090006BF024100C
:1016D500F582E43400F583E090006CF0120CF09094
:1016E5000006E004F080CF90001CE04404F0900078
:1016F50000E0FCA3E0FDA3E0FEA3E0FF90001812CC
:101705000B6090001CE054FC4402F054F7F0540FB9
:101715004480F0E4900006F0900006E0C39408745D
:101725008094805021E0FF2408F582E43400F5839D
:10173500E0FE741D2FF582E43400F583EEF0900091
:1017450006E004F080D2900029E054FBF0E490001C
:1017550006F0900006E0C394027480948040030272
:1017650018227B017A0079181220497B017A0079C9
:1017750018121EF9900018120B6C00000100900061
:101785001CE054FC4402F04408F0540F4470F07F10
:10179500B87E0B1223947BFF7A1179B8A20D9200C3
:1017A500120CF07BFF7A1179D0A20E9200120CF088
:1017B5007F0E1223FC90006BEFF07BFF7A1179E826
:1017C500120CF07F2C1223FC900007EFF07BFF7AC0
:1017D5001179FA90006BF0120CF0900007E030E000
:1017E500167F6012182B121EF37F2C1223FCEF5468
:1017F500FEFD7F2C12234E900007E030E1167F702E
:1018050012182B121EF37F2C1223FCEF54FDFD7FC3
:101815002C12234E900006E004F00217577FD07E6D
:061825000712239480FE6F
:10221D00303132333435363738393A3B3C3D404135
:10222D0042434445464748494A4B4C4D5051525301
:10223D005455565758595A5B5C5D0001020304050D
:10224D00060708090A0B1011121314151617181981
:0A225D001A1B202122232425262726
:07238D001224497F017E00CC
:10239400D3EF9400EE94004015E4FDFC0DBD000164
:0E23A4000CED64644C70F5EF1F70E51E80E2D6
:0123B2002208
:1023B300E4FFC295FEEEC39408748094805011D25A
:1023C30095EF25E0FFA293E4334FFFC2950E80E51E
:0123D30022E7
:10236400E4FEEEC3940874809480501AC295A806C3
:10237400EF088002C333D8FC30E704D2948002C251
:0823840094D2950E80DCC29595
:01238C00222E
:10233600900060E0FCA3E0FDA3E0FEA3E0FF120A2C
:08234600ACAD0790005FE0FF61
:10234E00AC07C2927F02122364AF04122364AF055E
:06235E00122364D292225A
:0923F3007D447F0F12234E7F0E82
:0223FC00AD072B
:1023FE00C2927F03122364AF051223641223B3D259
:01240E00923B
:01240F0022AA
:0A244900C2927FC0122364D29222D7
:061B0800900064F07F0470
:101B0E0090005FEFF0E47FFF7E07FDFCA3E0F8A3FB
:101B1E00E0F9A3E0FAA3E0FBD3120A9B5050900029
:101B2E0064E0601590005FE0FFE4FD12234EE004D8
:101B3E00FF7D0812234E021BE07803122336E004C9
:101B4E00FFC007A3A3A3A3E05407FFE4FEFDFC78A8
:101B5E0005120ABFAD07D00712234E90005FE02496
:101B6E0002FFE4FD12234EE02403FF021C1578153C
:101B7E00122336E004FFC007A3E0FCA3E0FDA3E0C0
:101B8E00FEA3E0FF7812120AACEF5407FFE4FEFD4D
:101B9E00FC7805120ABFC004C005C006C00790003D
:101BAE0060E0FCA3E0FDA3E0FEA3E0FF7810120AC4
:101BBE00ACEF5403FFD003D002D001D000EB4FFFA7
:101BCE00EAFEE8FCEF4408FFAD07D00712234E9063
:101BDE00005FE02402FFC007A3E0FCA3E0FDA3E04A
:101BEE00FEA3E0FF7808120AACAD07D00712234E11
:101BFE0090005FE02403FFC007A3E0FCA3A3E0FE78
:0B1C0E00A3E0FFAD07D00712234E2219
:10143A0090005CEBF0A3EAF0A3E9F012238D900090
:10144A005CE0FBA3E0FAA3E0F9900001120A24FF92
:10145A00900005120A244FFD7F2A12234E90005C49
:10146A00E0FBA3E0FAA3E0F9900003120A24448007
:10147A00FF900002120A244FFD7F2912234E90008A
:10148A005CE0FBA3E0FAA3E0F9900004120A24440A
:10149A0080FD7F2812234E90005CE0FBA3E0FAA3B4
:1014AA00E0F9900006120A24540125E025E0FD7FA8
:1014BA006012234E7D607F7012234E90005CE0FB29
:1014CA00A3E0FAA3E0F9900028120A24FD7F2C1267
:1014DA00234E90005CE0FBA3E0FAA3E0F99000271A
:1014EA00120A24FD7F2B12234E90005CE0FBA3E03E
:1014FA00FAA3E0F990000B120AF2900060120B6056
:10150A00900029120A245401900064F0E4FF121B8F
:10151A000E90005CE0FBA3E0FAA3E0F990000F1242
:10152A000AF2900060120B60900029120A24C31379
:10153A005401121B0890005CE0FBA3E0FAA3E0F957
:10154A00900017120AF2900060120B6090002912A4
:10155A000A2413135401900064F07F08121B0E90A2
:10156A00005CE0FBA3E0FAA3E0F990001B120AF288
:10157A00900060120B60900029120A24131313546E
:10158A0001900064F07F10121B0E90005CE0FBA338
:10159A00E0FAA3E0F990001F120AF2900060120B21
:1015AA0060900029120A24C45401900064F07F1448
:1015BA00121B0E90005CE0FBA3E0FAA3E0F9900096
:1015CA0023120AF2900060120B60900029120A247A
:1015DA00C4135401900064F07F18121B0E90005C33
:1015EA00E0FBA3E0FAA3E0F9900007120AF29000E8
:1015FA0060120B609000647401F07F20121B0E9041
:10160A00005CE0FBA3E0FAA3E0F9900013120AF2EF
:10161A00900060120B609000647401F07F24121B2A
:10162A000E1223F3EF7E0060047F0180027F00EF39
:0B163A004E60077D447F0F12234E22FC
:101C1900E4FF12238D900004120A24FF120A0B4FCD
:101C2900FD7F2A12234E900002120A244480FF905D
:101C39000001120A244FFD7F2912234E900003123E
:101C49000A244480FD7F2812234E7D067F601223DB
:101C59004E900060120B6C0000010090006474014A
:101C6900F0E4FF121B0E900060120B6C000007FEDF
:101C7900E4121B08900060120B6C000007FFE4904F
:101C89000064F07F20121B0E900060120B6C0000A4
:101C990008009000647401F07F08121B0E90006028
:101CA900120B6C1FFFFFFF9000647401F07F10128C
:101CB9001B0E900060120B6C000007FFE49000649B
:101CC900F07F14121B0E900060120B6C00000000D4
:101CD900E4900064F07F18121B0E900060120B6CE8
:101CE9001FFFFFFEE4900064F07F24121B0EE4FD49
:101CF9007F2C12234E7D037F2B12234E1223F3EFE9
:101D09007E0060047F0180027F00EF4E60077D4402
:051D19007F0F12234EB4
:011D1E0022A2
:06121400900064120B6063
:10121A007F301223FC90006FEFF0540870089000A2
:10122A006D7430F080267F401223FC90006FEFF03F
:10123A005408700890006D7440F080107F5012239B
:10124A00FC90006FEFF090006D7450F090006DE02C
:10125A002405FF900069E0FD12234EE47FFF7E071C
:10126A00FDFC900064E0F8A3E0F9A3E0FAA3E0FB38
:10127A00D3120A9B5072900068E090006D6014E0EF
:10128A0004FFE4FD12234EE02402FF7D0812234EE0
:10129A00021379E004FFC007900064E0FCA3E0FDBC
:1012AA00A3E0FEA3E0FF7803120AACAD07D0071251
:1012BA00234E90006DE02402FFC007900064A3A3B0
:1012CA00A3E05407FFE4FEFDFC7805120ABFAD0750
:1012DA00D00712234E90006DE02403FFE4FD122391
:1012EA004EE02404FF0213B290006DE004FFC00731
:1012FA00900064E0FCA3E0FDA3E0FEA3E0FF781504
:10130A00120AACAD07D00712234E90006DE02402FA
:10131A00FFC007900064E0FCA3E0FDA3E0FEA3E0A9
:10132A00FF7812120AACEF5407FFE4FEFDFC7805C1
:10133A00120ABFC004C005C006C007900064E0FCE2
:10134A00A3E0FDA3E0FEA3E0FF7810120AACEF547D
:10135A0003FFD003D002D001D000EB4FFFEAFEE832
:10136A00FCEF4408FFAD07D00712234E90006DE052
:10137A002403FFC007900064E0FCA3E0FDA3E0FEA5
:10138A00A3E0FF7808120AACAD07D00712234E90EB
:10139A00006DE02404FFC007900064E0FCA3A3E012
:1013AA00FEA3E0FFAD07D00712234EE490006EF0D3
:1013BA00900069E0FF90006EE0FED39F5033EE94F8
:1013CA000874809480502A90006DE02406FFA3E000
:1013DA002FFF90006AE0FBA3E0FAA3E0F98E827582
:1013EA008300120A24FD12234E90006EE004F0805E
:1013FA00BFC29290006DE0FF90006FE04408FD12BA
:10140A00234ED292E490006EF090006EE0C3940EE8
:10141A0074809480501990006DE0FF1223FCEF3025
:0F142A00E30D7F647E00122394A3E004F080DAC8
:011439002290
:0E217E00900091EFF0A3EBF0A3EAF0A3E9F0DC
:10218C00E4FCECC3940E74809480501E900091E09B
:10219C002CFF1223FCA3E0FBA3E0FAA3E0F98C8252
:1021AC00758300EF120A630C80D8900091E0FB7AE3
:1021BC0000646070028006EB64704A7006FD7F2C30
:0321CC0012234E8D
:0121CF0022ED
:02243500C111D3
:1023D400C2AF53890F438920759850758DFA758B58
:0F23E400FA438780D299D2ACD28ED29CD2AF224C
:03002300020016C2
:0B001600309803C29832C299C2113228
:08245C008F99D2112011FD221D
:10229D00900095EBF0A3EAF0A3E9F0900095E0FB38
:1022AD00A3E0FAA3E0F9120A0BFF12245C9000954B
:1022BD00E0FBA3E475F001120A85A9F0FA120A0BEE
:0322CD0070D922A3
:10243800D2A0D2A100000000C2A000000000C2A1EA
:012448002271
:10241000C2A1C2A000000000D2A100000000D2A012
:05242000000000002295
:102267007E80EE601B5F7004C2A08002D2A00000D7
:102277000000D2A100000000C2A1EEC313FE80E25D
:10228700D2A000000000D2A1A2A09200000000008E
:05229700C2A1A200B38A
:01229C00221F
:1022D000D2A07E80EE601D00000000D2A120A005EB
:1022E000F45FFF8003EF4EFF00000000C2A1EEC3C9
:1022F00013FE80E0D2A000000000D2A10000000088
:02230000C2A178
:0123020022B8
:10230300D2A07E80EE601D00000000D2A120A005B7
:10231300F45FFF8003EF4EFF00000000C2A1EEC395
:1023230013FE80E0C2A000000000D2A10000000064
:02233300C2A145
:012335002285
:1020B400900068EBF0A3EAF0A3E9F01224387FA0C3
:1020C400122267400512241080F1AF051222671214
:1020D40024387FA112226790006CE0D394017480AD
:1020E4009480401F122303900068E0FBA3E475F082
:1020F40001120A85A9F0FAEF120A5190006CE0145B
:10210400F080D41222D0900068E0FBA3E0FAA3E0B0
:08211400F9EF120A5102241038
:10211C00900068EBF0A3EAF0A3E9F090006CE0D338
:10212C0094007480948040491224387FA012226756
:10213C00400512241080F1AF0512226790006CE06C
:10214C00D39400748094804023900068E0FBA3E457
:10215C0075F001120A85A9F0FA120A0BFF12226718
:10216C0090006CE014F00DED540770D01224108028
:02217C00AA2295
:101FC900021645E493A3F8E493A34003F68001F2D3
:101FD90008DFF48029E493A3F85407240CC8C33319
:101FE900C4540F4420C8834004F456800146F6DFE8
:101FF900E4800B0102040810204080902425E47E2F
:10200900019360BCA3FF543F30E509541FFEE493DC
:10201900A360010ECF54C025E060A840B8E493A3A3
:10202900FAE493A3F8E493A3C8C582C8CAC583CACE
:10203900F0A3C8C582C8CAC583CADFE9DEE780BE86
:0124370000A4
:10091500E709F608DFFA8046E709F208DFFA803EC4
:1009250088828C83E709F0A3DFFA8032E309F608B1
:10093500DFFA8078E309F208DFFA807088828C8319
:10094500E309F0A3DFFA806489828A83E0A3F608CD
:10095500DFFA805889828A83E0A3F208DFFA804CA7
:1009650080D280FA80C680D4806980F2803380107E
:1009750080A680EA809A80A880DA80E280CA8033E7
:1009850089828A83ECFAE493A3C8C582C8CCC5835F
:10099500CCF0A3C8C582C8CCC583CCDFE9DEE7802F
:1009A5000D89828A83E493A3F608DFF9ECFAA9F0AE
:1009B500EDFB2289828A83ECFAE0A3C8C582C8CC04
:1009C500C583CCF0A3C8C582C8CCC583CCDFEADE1D
:1009D500E880DB89828A83E493A3F208DFF980CC7F
:1009E50088F0EF60010E4E60C388F0ED2402B40478
:1009F5000050B9F582EB2402B4040050AF2323451F
:060A0500822390096573D5
:100A0B00BB010689828A83E0225002E722BBFE02E9
:090A1B00E32289828A83E493221C
:100A2400BB010CE58229F582E5833AF583E0225087
:100A340006E92582F8E622BBFE06E92582F8E222D1
:0D0A4400E58229F582E5833AF583E49322EB
:100A5100BB010689828A83F0225002F722BBFE0184
:020A6100F3227E
:100A6300F8BB010DE58229F582E5833AF583E8F0C9
:100A7300225006E92582C8F622BBFE05E92582C875
:020A8300F2225D
:100A8500A3F8E0C5F025F0F0E58215827002158324
:060A9500E0C838F0E82281
:100A9B00EB9FF5F0EA9E42F0E99D42F0E89C45F0B1
:010AAB002228
:100AAC00E8600FECC313FCED13FDEE13FEEF13FF28
:030ABC00D8F1224C
:100ABF00E8600FEFC333FFEE33FEED33FDEC33FC95
:030ACF00D8F12239
:100AD200BB010789828A83020BCD5005E9F8020B1C
:100AE200C1BBFE05E9F8020BD989828A83020BE5B4
:100AF200BB010DE58229F582E5833AF583020BCD30
:100B02005007E92582F8020BC1BBFE07E92582F8EE
:100B1200020BD9E58229F582E5833AF583020BE5DA
:100B2200BB010789828A83020B605005E9F8020B38
:0A0B3200F5BBFE05E9F8020C0122F4
:100B3C00BB010DE58229F582E5833AF583020B6052
:100B4C005007E92582F8020BF5BBFE07E92582F870
:040B5C00020C012264
:0C0B6000ECF0A3EDF0A3EEF0A3EFF02208
:100B6C00A8828583F0D083D082120B83120B831260
:100B7C000B83120B83E473E493A3C583C5F0C58385
:100B8C00C8C582C8F0A3C583C5F0C583C8C582C8D3
:010B9C002236
:100B9D00BB010DE58229F582E5833AF583020B6CE5
:100BAD005007E92582F8020C0DBBFE07E92582F8F6
:040BBD00020C2622DE
:100C8500E510246BF582E43400F583E0051022902D
:100C9500006830070390006BE475F001120C3F0209
:100CA5000A0B2000E97F2ED2008018EF540F249004
:100CB500D43440D4FF30040BEF24BFB41A005003E2
:100CC5002461FFE511600215110514E51470020594
:100CD5001330070E900068E475F001120C3FEF0227
:100CE5000A510200037403D2078003E4C207F5101A
:100CF500900068120C56E4F511F513F514E5116032
:100D0500077F20120CC880F57512FFC201C200C210
:100D150002C203C205C206C208120C94FF700D3050
:100D250007057F00120CD9AF14AE1322B4255FC29C
:100D3500D5C204120C94FF24D0B40A00501A75F0E1
:100D45000A781130D50508B6FF0106C6A426F62097
:100D5500D5047002D20380D924CFB41A00EF500411
:100D6500C2E5D204020EDAD20180C6D20080C0D21A
:100D75000280BCD2D580BAD20580B47F20120CC8BF
:100D85002002077401B5110040F1120C85FF120C09
:100D9500C8020D02D208D2068095120C85FB120CF2
:100DA50085FA120C85F94A4B700679AB7A0F7BFFF1
:100DB50020022EE511602A7E008E82758300120ABC
:100DC5002460060EEE651270F0C2D5EBC0E0EAC0F5
:100DD500E0E9C0E0EE120F21D0E0F9D0E0FAD0E072
:100DE500FB120A0BFF60AAEBC0E0EAC0E0E9C0E035
:100DF500120CC8D0E02401F9D0E03400FAD0E0FBB1
:100E0500E5120460DCD512D980877BFF7A0F791D46
:100E1500D202809C791080027908C206C208800837
:100E2500D2D5790A8004790AC2D5E512047002F593
:100E350012E4FAFDFEFF120C85FC7B08200113125B
:100E45000C85FD7B1030000A120C85FE120C85FF07
:100E55007B20EC3382D592D55013C3E43000069F36
:100E6500FFE49EFEE42001039DFDE49CFCE4CBF839
:100E7500C201EC700CCFCECDCCE824F8F870F3802D
:100E850017C3EF33FFEE33FEED33FDEC33FCEB33ED
:100E9500FB994002FB0FD8E9EB300105F8D0E0C41F
:100EA50048B201C0E00AEC4D4E4F78207B0070C27D
:100EB500EAB5120040BCC0E0120F23D0F0D0E0200C
:100EC5000104C4C0E0C4B201C0F0120CB1D0F0D529
:100ED500F0EB020D02120C5F0D9F530E19580D70A9
:100EE5004C0D6C420E1D4F0E25440E25490D8543B4
:080EF5000E2B550E0F460E0FE7
:100EFD00450E0F470FCB500D742D0D782E0D9B2BDE
:100F0D000D7C230D99200FB42A0D344800000D934C
:100F1D003F3F3F00790AA2D5200314300509B910CF
:100F2D00020404B9080104A2D520060250010420D0
:100F3D0002689202B511005034C0E07F20300319D1
:100F4D007F30A20272067205500F120F7AC202C2D2
:100F5D0006C205C2087F30800F300503E9C0E012DC
:100F6D000CC8300503D0E0F9D0E0B511CC30051731
:100F7D007F30B9100C120CC87F583004077F788071
:100F8D0003B90803120CC83002057F2D020CC87F6F
:100F9D00202008F87F2B2006F322920280CF286EA6
:100FAD00756C6C2900D201120C853001F8C20178E4
:100FBD001130D50108F6020D342D50434958120C4D
:100FCD00852403B405004001E4900FC693120CB9BB
:0D0FDD00743A120CB9D203751104020E19FA
:0C0BC100E6FC08E6FD08E6FE08E6FF2260
:0C0BCD00E0FCA3E0FDA3E0FEA3E0FF229B
:0C0BD900E2FC08E2FD08E2FE08E2FF2258
:100BE500E493FC740193FD740293FE740393FF2256
:0C0BF500ECF608EDF608EEF608EFF6222C
:0C0C0100ECF208EDF208EEF208EFF2222F
:100C0D00D083D082E493F608740193F608740293AE
:090C1D00F608740393F6740473E5
:100C2600D083D082E493F208740193F2087402939D
:090C3600F208740393F2740473D4
:100C3F00F8E0FBA3A3E0F925F0F0E582158270023E
:070C4F001583E0FA38F022E2
:090C5600EBF0A3EAF0A3E9F0229F
:100C5F00D083D082F8E4937012740193700DA3A324
:100C6F0093F8740193F5828883E473740293686038
:060C7F00EFA3A3A380DF38
:00000001FF
