:03000000021DE6F8
:0C1DE600787FE4F6D8FD758121021E2DE7
:1013690073656E64200072656320200049443A2049
:101379002530376C582C2020444C433A2562782C70
:101389002020446174613A200049443A2025376C91
:10139900582C2020444C433A2562782C2020446163
:1013A90074613A2000253032625820000D0A005F2E
:1013B900354B6270733A202530326258200D0A008D
:1013C900626974726174653A202530326258202549
:1013D9003032625820253032625820253032625826
:1013E9002025303262580D0A0042554B545F656E14
:1013F90061626C653A202530326258200D0A00433B
:10140900414E5F4D4F44453A202530326258200DF8
:101419000A0043414E494E54453A2025303262581C
:10142900200D0A0043414E494E54463A2025303298
:101439006258200D0A005258426E52584D302D31D3
:101449003A2025303262582025303262580D0A0080
:1014590052584D6E4944302D313A202530386C5858
:10146900202530386C580D0A005258466E494430D0
:101479002D353A202530376C58202530376C5820C7
:101489002530376C58202530376C58202530376C7B
:10149900580D0A005258466E494445302D353A20B8
:1014A9002562582025625820256258202562582037
:0614B9002562580D0A0037
:08001600C10AC10941009E006E
:0E000300900079EFF0122307900079E0FF22C1
:0922FE00D2BAD28AD2AAD2AF22D0
:030013000221E1E6
:0D21E100C0E0C0F0C083C082C0D075D0083F
:1021EE007F2C1222C4EF30E102D20AEF30E002D28D
:0121FE0009D7
:0B21FF00D0D0D082D083D0F0D0E032EE
:0B1BB80090007AEBF0A3EAF0A3E9F044
:101BC3001209F290007E120A80900005120944FF68
:101BD300C3135401900082F0EF1313540FA3F0903A
:101BE30000051209447BFF30E0067A13796980040B
:101BF3007A13796F120091900082E07BFF60067A7E
:101C030013797580047A13799290007EE0FCA3E047
:101C1300FDA3E0FEA3E0FF900054120A809000832E
:101C2300E0900058F0120091E490007DF090008362
:101C3300E0FF90007DE0FEC39F503090007AE0FB10
:101C4300A3E0FAA3E02406F9E43AFAEE7E0029F9C8
:101C5300EE3AFA12092B900054F07BFF7A1379AE17
:101C630012009190007DE004F080C27BFF7A13792B
:041C7300B502009125
:0B1E720090005EEBF0A3EAF0A3E9F0A3
:101E7D0090005EE0FBA3E0FAA3E0F91209F29000F6
:101E8D0061120A80900005120944FFC3135401909A
:101E9D000065F09000041209441313135401C43368
:101EAD003354C0FEEF1313540F4EFB900061E0FC52
:101EBD00A3E0FDA3E0FEA3E0FFA3E0900000F0A3EC
:101ECD00EBF090005EE0FBA3E0FAA3E02406F9E45A
:101EDD003AFA900000EBF0A3EAF0A3E9F00200005B
:10209B00900001120944900084F090000212094450
:1020AB00FFE4FEEEC39F501CEEF582758300A3A3E5
:1020BB00A3120944FD74852EF582E43400F583EDFB
:1020CB00F00E80DF7B017A007985900084E0FDEFD4
:0920DB002403900062F002203998
:1011DD00900098EBF0A3EAF0A3E9F0900098E0FB03
:1011ED00A3E0FAA3E0F990000412094454077051EA
:1011FD00900006120944FF7E0064F0700B9000070A
:10120D0012094490009EF022EF64014E700AE92409
:10121D0006F9E43AFA02209B900098E0FBA3E0FA6D
:10122D00A3E0F990000612094464016003021368FB
:10123D00900007120944FF900008120944FD022195
:10124D00CB900098E0FBA3E0FAA3E0F99000041224
:10125D0009445407640160030213689000061209E3
:10126D0044FF7E0064F07014E92405F9E43AFA12A3
:10127D00092B54C3440412097102132EEF64014E5D
:10128D007064900098E0FBA3E0FAA3E0F9900008E9
:10129D00120944540F25E025E0FFE92405F9E43A4D
:1012AD00FA12092B54C34F120971900098E0FBA359
:1012BD00E0FAA3E02406F9E43AFAC002C001900076
:1012CD0098A3E0FAA3E0F9900007120944FD9000FD
:1012DD0098A3A3900008120944900062F0D001D0A9
:1012ED0002121FD1803B900098E0FBA3E0FAA3E02F
:1012FD00F990000612094464017026E92405F9E409
:10130D003AFA12092B54C34404120971900098E063
:10131D00FBA3E0FAA3E0F9900007120944FF1222A3
:10132D00C4900098E0FBA3E0FAA3E0F9900004124A
:10133D000944FF13131354017018E92404F9E43A16
:10134D00FA12092B44081209717B017A007998125F
:0C135D001E727B017A007998121BB822E6
:1014BF0090008EEBF0A3EAF0A3E9F090008DEFF02F
:1014CF001222C4900092EFF090008DE02405FF12DD
:1014DF0022C4EF540F25E025E0FE90008EE0FBA321
:1014EF00E0FAA3E02405F9E43AFA12092B54C34EAB
:1014FF00120971EFC41313540133333354F8FF90AF
:10150F00008EE0FBA3E0FAA3E02404F9E43AFA1218
:10151F00092B54F74F12097190008DE06460900011
:10152F00927005E054038003E05407FF90008EE0B3
:10153F00FBA3E0FAA3E02404F9E43AFA12092B54CE
:10154F00F84F12097190008DE004FF1218F8900007
:10155F008EE0FBA3E0FAA3E0F9120A4290008DE0BF
:10156F002402FF1222C4EF5408131313540125E071
:10157F00FF90008EE0FBA3E0FAA3E02405F9E43A24
:10158F00FA12092B54FD4F120971E4900091F0905B
:10159F00008EE0FBA3E0FAA3E0F9900005120944E6
:1015AF001313540FFF900091E0FEC39F5032900031
:1015BF008DE02406FFEE2FFF1222C490008EE0FB79
:1015CF00A3E0FAA3E02406F9E43AFAA3E07C0029A9
:1015DF00F9EC3AFAEF120971900091E004F080AF44
:0915EF007B017A00798E0211DD06
:0B0DCA00900051EBF0A3EAF0A3E9F069
:100DD500900051E0FBA3E0FAA3E0F912092B900083
:100DE50054F0900028120944FFC4131313540190C2
:100DF5000055F0EF5403A3F0900028120944FF13A7
:100E0500135403900057F0EFC45407A3F090002645
:100E1500120944900059F090002712094490005A95
:100E2500F07B017A0079549000627407F0E4FD12BA
:100E35002039900051E0FBA3E0FAA3E0F990000609
:100E4500120A12900062120A80E4900066F07B019B
:100E55007A007954FD121D30900051E0FBA3E0FAB1
:100E6500A3E0F9900012120A12900062120A80E4BF
:100E7500900066F07B017A0079547D04121D307B69
:100E8500017A0079549000627408F07D20122039AF
:100E9500900051E0FBA3E0FAA3E0F990000A120AE2
:100EA50012900062120A80900029120944540190A0
:100EB5000066F07B017A007954E4FD121D30900044
:100EC50051E0FBA3E0FAA3E0F990000E120A12909C
:100ED5000062120A80900029120944FFC3135401CD
:100EE500900066F07B017A0079547D04121D307BF9
:100EF500017A0079549000627408F0FD122039904F
:100F05000051E0FBA3E0FAA3E0F9900016120A12E3
:100F1500900062120A80900029120944FF131354AD
:100F250001900066F07B017A007954E4FD121D30D2
:100F3500900051E0FBA3E0FAA3E0F990001A120A31
:100F450012900062120A80900029120944FF1313BF
:100F5500135401900066F07B017A0079547D0412E8
:100F65001D307B017A0079549000627408F07D1081
:100F7500122039900051E0FBA3E0FAA3E0F99000BC
:100F85001E120A12900062120A809000291209446A
:100F9500FFC45401900066F07B017A007954E4FDAA
:100FA500121D30900051E0FBA3E0FAA3E0F9900098
:100FB50022120A12900062120A8090002912094436
:100FC500FFC4135401900066F07B017A0079547DCB
:100FD50004121D307B017A0079549000627408F088
:050FE5007D1802203917
:100FEA0090004EEBF0A3EAF0A3E9F090004EE0FB8C
:100FFA00A3E0FAA3E0F912092B900054F07BFF7AE0
:10100A001379B812009190004EE0FBA3E0FAA3E036
:10101A00F9900001120944900054F090000212095C
:10102A0044900055F0900003120944900056F09045
:10103A000004120944900057F090000512094490E8
:10104A000058F07BFF7A1379C912009190004EE0A4
:10105A00FBA3E0FAA3E0F9900028120944FFC413A5
:10106A0013135401900054F07BFF7A1379F21200A3
:10107A009190004EE0FBA3E0FAA3E0F99000281259
:10108A000944FFC45407900054F07BFF7A1479088E
:10109A0012009190004EE0FBA3E0FAA3E0F9900061
:1010AA0026120944900054F07BFF7A14791B12002F
:1010BA009190004EE0FBA3E0FAA3E0F9900027121A
:1010CA000944900054F07BFF7A14792D1200919014
:1010DA00004EE0FBA3E0FAA3E0F9900028120944CD
:1010EA00FF5403900054F0EF13135403A3F07BFF53
:1010FA007A14793F12009190004EE0FBA3E0FAA324
:10110A00E0F9900006120A12900054120A80900028
:10111A0012120A12900058120A807BFF7A14795927
:10112A0012009190004EE0FBA3E0FAA3E0F99000D0
:10113A000A120A12900054120A8090000E120A1221
:10114A00900058120A80900016120A1290005C123F
:10115A000A8090001A120A12900060120A80900007
:10116A001E120A12900064120A80900022120A12B9
:10117A00900068120A807BFF7A14797212009190AB
:10118A00004EE0FBA3E0FAA3E0F99000291209441B
:10119A00FF5401900054F0EFC3135401A3F09000E0
:1011AA0029120944FF13135401900056F0EF131348
:1011BA00135401A3F0900029120944FFC45401906A
:1011CA000058F0EFC4135401A3F07BFF7A14799D01
:0311DA000200917F
:0B06AE0090004EEBF0A3EAF0A3E9F08F
:1006B9007B017A0079519000627408F0E4FD121F01
:1006C900D1900051E0FF90004EE0FBA3E0FAA3E0D7
:1006D900F9EF12097190004EE0FBA3E0FAA3E0F9EB
:1006E90012092BFFE92401F9E43AFA121AD9900008
:1006F90052E05401C43333335480FF90004EE0FB81
:10070900A3E0FAA3E02428F9E43AFA12092B547F6A
:100719004F120971900055E05407C454F0FF1209B3
:100729002B548F4F120971900056E0FF90004EE054
:10073900FBA3E0FAA3E0F9900026EF1209839000E9
:1007490057E09000271209837B017A0079519000C4
:10075900627408F07D20121FD17B017A007951E47F
:10076900FD121C7790004EE0FBA3E0FAA3E0F9909C
:100779000006120A5C7B017A0079517D04121C770C
:1007890090004EE0FBA3E0FAA3E0F9900012120AF0
:100799005C7B017A0079519000627408F0FD121FA8
:1007A900D1900052E05401FF90004EE0FBA3E0FA23
:1007B900A3E02429F9E43AFA12092B54FE4F12094D
:1007C900717B017A007951E4FD121C7790004EE0AB
:1007D900FBA3E0FAA3E0F990000A120A5C90005525
:1007E900E0540125E0FFE92429F9E43AFA12092B3A
:1007F90054FD4F1209717B017A0079517D04121C55
:100809007790004EE0FBA3E0FAA3E0F990000E1206
:100819000A5C7B017A0079519000627408F07D10BE
:10082900121FD1900051E0540125E025E0FF90000E
:100839004EE0FBA3E0FAA3E02429F9E43AFA12090D
:100849002B54FB4F1209717B017A007951E4FD1297
:100859001C7790004EE0FBA3E0FAA3E0F9900016A4
:10086900120A5C900055E0540133333354F8FFE920
:100879002429F9E43AFA12092B54F74F1209717B2A
:10088900017A0079517D04121C7790004EE0FBA398
:10089900E0FAA3E0F990001A120A5C7B017A007968
:1008A900519000627408F07D18121FD1900051E038
:1008B9005401C454F0FF90004EE0FBA3E0FAA3E01A
:1008C9002429F9E43AFA12092B54EF4F1209717BE2
:1008D900017A007951E4FD121C7790004EE0FBA3E8
:1008E900E0FAA3E0F990001E120A5C900055E0546A
:1008F90001C43354E0FFE92429F9E43AFA12092B37
:1009090054DF4F1209717B017A0079517D04121C61
:100919007790004EE0FBA3E0FAA3E0F990002202F1
:020929000A5C66
:1019EC007B017A00794E9000627408F0E4FD121FBE
:1019FC00D17F601222C4900058EFF0E0FE540190A9
:101A0C00004FF0EE5403A3F07F701222C4EF540386
:101A1C00900051F07F0F1222C4EF5407900052F047
:101A2C007F2B1222C4900053EFF07F2C1222C49013
:101A3C000054EFF07B017A00794E9000627407F04D
:101A4C00E4FD122039E4900056F0900056E0C39467
:101A5C0008748094805075900058E025E025E09043
:101A6C000057F004FF1222C4EF5401900059F0907B
:101A7C000057E0FF1218F890005A120A807B017A86
:101A8C0000794E900057E05407FDC00590005AE0D5
:101A9C00FCA3E0FDA3E0FEA3E0FF900062120A802D
:101AAC00900059E0900066F0D005121D307B017A51
:101ABC0000794E900057E02408FD9000627404F009
:0C1ACC00122039900056E004F0021A5677
:011AD80022EB
:10180300900051EBF0A3EAF0A3E9F0900051E0FB64
:10181300A3E0FAA3E0F97414120971900051E0FBFC
:10182300A3E0FAA3E0F99000017401120983900088
:10183300027407120983900003743812098390001D
:10184300047402120983900005E4120983E9242831
:10185300F9E43AFA12092B4480120971548F442097
:10186300120971900051E0FBA3E0FAA3E0F99000A4
:10187300267403120983900027E41209839000065B
:10188300120ABD1FFFFFFF900012120ABD1FFFFFC8
:10189300FF90000A120ABD0000010090000E120A18
:1018A300BD000007FE900016120ABD000001019062
:1018B300001A120ABD0000010290001E120ABD00A8
:1018C300000103900022120ABD00000104E924294B
:1018D300F9E43AFA12092B440112097154FD120971
:1018E3007154FB120971440812097154EF12097102
:0518F300442002097110
:1022920090004EEBF0A3EAF0A3E9F07B017A00791B
:0D22A2004E1218037B017A00794E020DCA1E
:101EED0013135401900059F0E4A3F07B01A304F007
:081EFD00A37400F0A37451F07E
:101F050090005BE0FBA3E0FAA3E0F9120A4290001F
:101F150059E0540125E0FF90005BE0FBA3E0FAA344
:101F2500E02405F9E43AFA12092B54FD4F12097120
:101F3500900058E0FF90005BE0FBA3E0FAA3E0F916
:101F4500900007EF12098390005AE09000081209EB
:0A1F5500837B017A00795B021E72A3
:10038B0090004EEBF0A3EAF0A3E9F0A3E0FBA3E0AF
:10039B00FAA3E02404F9E43AFA12092B44081209EF
:1003AB0071900051E0FBA3E0FAA3E02405F9E43AD5
:1003BB00FA12092B54C312097190004EE0FBA3E013
:1003CB00FAA3E0F990000A120A12900051E0FBA385
:1003DB00E0FAA3E0F9120A4290004EE0FBA3E0FA28
:1003EB00A3E0F9900029120944540125E0FF900085
:1003FB0051E0FBA3E0FAA3E02405F9E43AFA120971
:10040B002B54FD4F1209717B017A007951121E7228
:10041B00900051E0FBA3E0FAA3E02405F9E43AFADB
:10042B0012092B54C3441C120971900051E0FBA319
:10043B00E0FAA3E0F990000674FE120983E92406A2
:10044B00F9E43AFAC003C002C00190004EE0FBA3EE
:10045B00E0FAA3E0F990000A120A12900062120A65
:10046B00809000291209445401900066F0D001D00D
:10047B0002D0037D03121D3090004EE0FBA3E0FA87
:10048B00A3E0F990000A120A12E4900058F09000D1
:10049B00291209445401900059F012092B90005A6B
:1004AB00F0A37401121EFC90004EE0FBA3E0FAA334
:1004BB00E0F990000A120A12C0079000587401F07C
:1004CB009000291209445401900059F09000281211
:1004DB000944C4131313540190005AF0A37401F090
:1004EB00A37400F0A37451F0D007121F0590004EB7
:1004FB00E0FBA3E0FAA3E0F990000A120A12C0078E
:10050B009000587404F09000291209445401900093
:10051B0059F0900028120944C4540790005AF0A3D4
:10052B007401F0A37400F0A37451F0D007121F05EF
:10053B0090004EE0FBA3E0FAA3E0F990000A120A48
:10054B00129000587405F090002912094454019040
:10055B000059F090002612094490005AF0A3740140
:10056B00121EFC90004EE0FBA3E0FAA3E0F9900012
:10057B000A120A129000587406F0900029120944CE
:10058B005401900059F090002712094490005AF042
:10059B00A37401121EFC90004EE0FBA3E0FAA3E053
:1005AB00F990000E120A129000587407F09000296F
:1005BB00120944121EEF90004EE0FBA3E0FAA3E0F9
:1005CB00F9900016120A129000587408F090002946
:1005DB00120944C3121EEE90004EE0FBA3E0FAA3F7
:1005EB00E0F990001A120A129000587409F090006A
:1005FB0029120944121EED90004EE0FBA3E0FAA372
:10060B00E0F990001E120A12900058740AF0900044
:10061B002912094413121EED90004EE0FBA3E0FAE1
:10062B00A3E0F9900022120A12900058740BF0907C
:10063B000029120944C4121EEF90004EE0FBA3E008
:10064B00FAA3E0F9900022120A12900058740CF0F1
:10065B00900029120944C4121EEE90004EE0FBA339
:10066B00E0FAA3E0F9900006120A12900058740DFC
:10067B00F0E4A3F0121EF690004EE0FBA3E0FAA309
:10068B00E0F9900012120A12900058740EF0E4A3D5
:10069B00F0A3F07B01A304F0A37400F0A37451F05A
:0306AB00021F0526
:101F5F00900000120A8C00000101E4900004F0A32D
:101F6F007408F01222731222FE90009EE024FE608D
:101F7F0013146022146046240370EE7B017A0079FB
:101F8F00241222927B017A0079241206AE7B017A09
:101F9F00007924120BA59000517401F0A37400F086
:101FAF00A37408F07B017A00792412038B7B017AEA
:101FBF00007924120FEAE490009EF080AC1219EC25
:021FCF0080A7E9
:10225400D3EF9400EE94004015E4FDFC0DBD0001A5
:0E2264000CED64644C70F5EF1F70E51E80E217
:012272002249
:10223300E4FFC295FEEEC39408748094805011D2DB
:1022430095EF25E0FFA293E4334FFFC2950E80E59F
:012253002268
:10220A00E4FEEEC3940874809480501AC295A8061E
:10221A00EF088002C333D8FC30E704D2948002C2AC
:08222A0094D2950E80DCC295F0
:012232002289
:1021B300900052E0FCA3E0FDA3E0FEA3E0FF1209C0
:0821C300CCAD07900051E0FFD4
:1021CB00AC07C2927F0212220AAF0412220AAF0599
:0621DB0012220AD292223A
:0222C400AD0764
:1022C600C2927F0312220AAF0512220A122233D2C9
:0122D6009275
:0122D70022E4
:0A22F400C2927FC012220AD2922289
:101C7700900059EBF0A3EAF0A3E9F0A3EDF02402FA
:101C8700FFE433FE900059E0FBA3E0FAA3E0F98FED
:101C9700828E831209447E007810C333CE33CED8A8
:101CA700F9FFEE3395E0FDFCC004C005C006C00790
:101CB70090005CE02401FFE433FE900059E0FBA3B1
:101CC700E0FAA3E0F98F828E831209447E00781828
:101CD700C333CE33CED8F9FFEE3395E0FDFCD00306
:101CE700D002D001D000EF4BFFEE4AFEED49FDECEC
:101CF70048FCC004C005C006C00790005CE0240390
:101D0700FFE433FE900059E0FBA3E0FAA3E0F98F6C
:101D1700828E83120944FFD003D002D001D000EB9A
:091D27004FFFEAFEE9FDE8FC2291
:101D300090005EEBF0A3EAF0A3E9F0A3EDF09000D1
:101D400066E075F080A4FFAEF0EE3395E0FDFCC0D8
:101D500004C005C006C007900062E0FCA3E0FDA33C
:101D6000E0FEA3E0FF78181209CCD003D002D00126
:101D7000D000EF4BFF90005EE0FBA3E0FAA3E0F998
:101D8000A3E0F582758300EF120983900062E0FC06
:101D9000A3E0FDA3E0FEA3E0FF78101209CC9000C1
:101DA00061E0F582758300A3EF120983900062E081
:101DB000FCA3E0FDA3E0FEA3E0FF78081209CC90AD
:101DC0000061E0F582758300A3A3EF120983900000
:101DD00062A3A3A3E0FF900061E0F582758300A3F6
:061DE000A3A3EF0209833A
:0518F80090005EEFF01E
:1018FD0004FF1222C4A3EFF090005EE0FF1222C499
:10190D00E4FCFDFE78031209DFA804A905AA06ABC5
:10191D0007A3E0C4135407FFEB4FFFEAFEE9FDE810
:10192D00FCA3120A8090005EE02402FF1222C4E4A0
:10193D00FCFDFE78081209DFC004C005C006C00713
:10194D00A3E05403FFE4FCFDFE78101209DFD00381
:10195D00D002D001D000EF4BFFEE4AFEED49FDEC79
:10196D0048FCC004C005C006C00790005EE024031B
:10197D00FF1222C4D003D002D001D000EB4FFFEAFA
:10198D00FEE9FDE8FC900064120A80900064E0FC22
:10199D00A3E0FDA3E0FEA3E0FFEC4D4E4F700790DA
:1019AD00005FE030E32A900060E0FCA3E0FDA3E0DF
:1019BD00FEA3E0FF78121209DFA3E0F8A3E0F9A37C
:1019CD00E0FAA3E04FFFEA4EFEE94DFDE84CFC22A4
:0E19DD00900060E0FCA3E0FDA3E0FEA3E0FFAD
:0119EB0022D9
:10170B00900051EFF0E47FFF7E07FDFCA3E0F8A310
:10171B00E0F9A3E0FAA3E0FBD31209BB5009900058
:10172B0056E070030217CD78151221B3E004FFC009
:10173B0007A3E0FCA3E0FDA3E0FEA3E0FF781212F9
:10174B0009CCEF5407FFE4FEFDFC78051209DFC05E
:10175B0004C005C006C007900052E0FCA3E0FDA347
:10176B00E0FEA3E0FF78101209CCEF5403FFD00387
:10177B00D002D001D000EB4FFFEAFEE8FCEF4408AB
:10178B00FFAD07D0071221CB900051E02402FFC020
:10179B0007A3E0FCA3E0FDA3E0FEA3E0FF780812A3
:1017AB0009CCAD07D0071221CB900051E02403FFE9
:1017BB00C007A3E0FCA3A3E0FEA3E0FFAD07D007A7
:1017CB00803278031221B3E004FFC007A3A3A3A3C5
:1017DB00E05407FFE4FEFDFC78051209DFAD07D0EE
:1017EB00071221CB900051E02402FFE4FD1221CB24
:0817FB00E02403FF1221CB22C0
:0B1AD900900059EBF0A3EAF0A3E9F045
:101AE400EF75F005A424F6601F24F1602224E7605A
:101AF4002524CE602B24E7603A2483604924F570C2
:101B04005790005C7431803090005C74138029908D
:101B1400005C7409802290005C7404F0A304801CAF
:101B240090005C7401F0A37407F0A37438F0A374FC
:101B340002803490005C7401F0A37405F0A3743047
:101B4400F0A374018021E490005CF0A37405F0A379
:101B54007430F0A37401800FE490005CF0A304F0EF
:101B6400A37410F0A37401F0E4A3F090005CE0FF10
:101B7400900059E0FBA3E0FAA3E0F9EF1209719099
:101B8400005DE0FF900059E0FBA3E0FAA3E0F990C8
:101B94000001EF12098390005EE0900002120983B5
:101BA40090005FE0900003120983900060E09000D1
:041BB400040209839B
:100BA50090004EEBF0A3EAF0A3E9F01222F47F01E6
:100BB5007E0012225490004EE0FBA3E0FAA3E0F978
:100BC500900001120944FF9000051209444FFD7F72
:100BD5002A1221CB90004EE0FBA3E0FAA3E0F990A6
:100BE50000031209444480FF9000021209444FFD9E
:100BF5007F291221CB90004EE0FBA3E0FAA3E0F998
:100C05009000041209444480FD7F281221CB9000F6
:100C15004EE0FBA3E0FAA3E0F9900028120944C4D2
:100C2500131313540125E025E0FD7F601221CB7DD0
:100C3500607F701221CB90004EE0FBA3E0FAA3E0A9
:100C4500F9900027120944FD7F2C1221CB90004E0C
:100C5500E0FBA3E0FAA3E0F9900026120944FD7F2A
:100C65002B1221CB90004EE0FBA3E0FAA3E0F99014
:100C7500000A120A12900052120A809000291209E5
:100C8500445401900056F0E4FF12170B90004EE01B
:100C9500FBA3E0FAA3E0F990000E120A12900052AD
:100CA500120A80900029120944C31354019000567A
:100CB500F07F0412170B90004EE0FBA3E0FAA3E0CF
:100CC500F9900016120A12900052120A809000291B
:100CD50012094413135401900056F07F0812170BA4
:100CE50090004EE0FBA3E0FAA3E0F990001A120A87
:100CF50012900052120A809000291209441313130E
:100D05005401900056F07F1012170B90004EE0FB37
:100D1500A3E0FAA3E0F990001E120A129000521205
:100D25000A80900029120944C45401900056F07FAE
:100D35001412170B90004EE0FBA3E0FAA3E0F99024
:100D45000022120A12900052120A809000291209FC
:100D550044C4135401900056F07F1812170B9000ED
:100D65004EE0FBA3E0FAA3E0F9900006120A129008
:100D75000052120A809000567401F07F2012170B62
:100D850090004EE0FBA3E0FAA3E0F9900012120AEE
:100D950012900052120A809000567401F07F2412BE
:100DA500170B7D447F0F1221CB7F0E1222C4EF7EDD
:100DB5000060047F0180027F00EF4E60077D447F65
:050DC5000F1221CB22FA
:0B15F800900093EBF0A3EAF0A3E9F0F1
:10160300E4900097F0900097E0FFC39403748094F4
:10161300805019EF75F00FA42430FF900096F0125C
:1016230022C4EF30E306A3E004F080D9900096E0F3
:1016330004FFC007900093E0FBA3E0FAA3E0F912D4
:1016430009F2900052120A80900005120944C31354
:101653005401900056F0D00712170B900096E02427
:1016630005FF900093E0FBA3E0FAA3E0F9900004E8
:101673001209441313135401C4333354C0FE9000AE
:10168300051209441313540F4EFD1221CBE49000AD
:1016930097F0900093E0FBA3E0FAA3E0F990000534
:1016A3001209441313540FFF900097E0FED39F5089
:1016B30032EE9408748094805029900096E02406BA
:1016C300FFA3E02FFFE92406F9E43AFAEE7C0029B0
:1016D300F9EC3AFA12092BFD1221CB900097E004A2
:1016E300F080AFC292900096E0FF900093E0FBA3DE
:1016F300E0FAA3E0F9900004120944FEC454034441
:0717030008FD1221CBD29278
:01170A0022BC
:02001E00C10B14
:10227300C2AF53890F438920759850758DFA758BBA
:0F228300FA438780D299D2ACD28ED29CD2AF22AE
:030023000222E9CD
:0B22E900309803C29832C299C20B3239
:082307008F99D20B200BFD227F
:10211A0090009BEBF0A3EAF0A3E9F090009BE0FBB0
:10212A00A3E0FAA3E0F912092BFF12230790009B00
:10213A00E0FBA3E475F0011209A5A9F0FA12092B34
:03214A0070D92227
:1022D800D2A0D2A100000000C2A000000000C2A14C
:0122E80022D3
:1022AF00C2A1C2A000000000D2A100000000D2A075
:0522BF000000000022F8
:1020E4007E80EE601B5F7004C2A08002D2A000005C
:1020F4000000D2A100000000C2A1EEC313FE80E2E2
:10210400D2A000000000D2A1A2A092000000000012
:05211400C2A1A200B30E
:0121190022A3
:10214D00D2A07E80EE601D00000000D2A120A0056F
:10215D00F45FFF8003EF4EFF00000000C2A1EEC34D
:10216D0013FE80E0D2A000000000D2A1000000000C
:02217D00C2A1FD
:01217F00223D
:10218000D2A07E80EE601D00000000D2A120A0053C
:10219000F45FFF8003EF4EFF00000000C2A1EEC31A
:1021A00013FE80E0C2A000000000D2A100000000E9
:0221B000C2A1CA
:0121B200220A
:101FD10090005EEBF0A3EAF0A3E9F01222D87FA013
:101FE1001220E440051222AF80F1AF051220E41265
:101FF10022D87FA11220E4900062E0D39401748082
:102001009480401F12218090005EE0FBA3E475F0F4
:10201100011209A5A9F0FAEF120971900062E0140A
:10202100F080D412214D90005EE0FBA3E0FAA3E022
:08203100F9EF1209710222AF60
:1020390090005EEBF0A3EAF0A3E9F0900062E0D330
:1020490094007480948040491222D87FA01220E421
:1020590040051222AF80F1AF051220E4900062E042
:10206900D3940074809480402390005EE0FBA3E445
:1020790075F0011209A5A9F0FA12092BFF1220E443
:10208900900062E014F00DED540770D01222AF8079
:02209900AA2279
:101DF200021F5FE493A3F8E493A34003F68001F289
:101E020008DFF48029E493A3F85407240CC8C333F1
:101E1200C4540F4420C8834004F456800146F6DFC0
:101E2200E4800B0102040810204080900016E47E3A
:101E3200019360BCA3FF543F30E509541FFEE493B5
:101E4200A360010ECF54C025E060A840B8E493A37C
:101E5200FAE493A3F8E493A3C8C582C8CAC583CAA7
:101E6200F0A3C8C582C8CAC583CADFE9DEE780BE5F
:0100200000DF
:10092B00BB010689828A83E0225002E722BBFE02CA
:09093B00E32289828A83E49322FD
:10094400BB010CE58229F582E5833AF583E0225068
:1009540006E92582F8E622BBFE06E92582F8E222B2
:0D096400E58229F582E5833AF583E49322CC
:10097100BB010689828A83F0225002F722BBFE0165
:02098100F3225F
:10098300F8BB010DE58229F582E5833AF583E8F0AA
:10099300225006E92582C8F622BBFE05E92582C856
:0209A300F2223E
:1009A500A3F8E0C5F025F0F0E58215827002158305
:0609B500E0C838F0E82262
:1009BB00EB9FF5F0EA9E42F0E99D42F0E89C45F092
:0109CB002209
:1009CC00E8600FECC313FCED13FDEE13FEEF13FF09
:0309DC00D8F1222D
:1009DF00E8600FEFC333FFEE33FEED33FDEC33FC76
:0309EF00D8F1221A
:1009F200BB010789828A83020AED5005E9F8020ADF
:100A0200E1BBFE05E9F8020AF989828A83020B0535
:100A1200BB010DE58229F582E5833AF583020AEDF1
:100A22005007E92582F8020AE1BBFE07E92582F8B0
:100A3200020AF9E58229F582E5833AF583020B057C
:100A4200BB010789828A83020A805005E9F8020BFA
:0A0A520015BBFE05E9F8020B212296
:100A5C00BB010DE58229F582E5833AF583020A8014
:100A6C005007E92582F8020B15BBFE07E92582F831
:040A7C00020B212226
:0C0A8000ECF0A3EDF0A3EEF0A3EFF022E9
:100A8C00A8828583F0D083D082120AA3120AA31203
:100A9C000AA3120AA3E473E493A3C583C5F0C58328
:100AAC00C8C582C8F0A3C583C5F0C583C8C582C8B4
:010ABC002217
:100ABD00BB010DE58229F582E5833AF583020A8CA7
:100ACD005007E92582F8020B2DBBFE07E92582F8B8
:040ADD00020B4622A0
:10002600E5102454F582E43400F583E005102290AF
:100036000051300703900054E475F001120B5F0283
:10004600092B2000E97F2ED2008018EF540F249050
:10005600D43440D4FF30040BEF24BFB41A0050034D
:100066002461FFE511600215110514E514700205FF
:100076001330070E900051E475F001120B5FEF028A
:1000860009710200037403D2078003E4C207F51066
:10009600900051120B76E4F511F513F514E5116095
:1000A600077F2012006980F57512FFC201C200C2E7
:1000B60002C203C205C206C208120035FF700D3027
:1000C60007057F0012007AAF14AE1322B4255FC273
:1000D600D5C204120035FF24D0B40A00501A75F0B8
:1000E6000A781130D50508B6FF0106C6A426F62003
:1000F600D5047002D20380D924CFB41A00EF50047D
:10010600C2E5D20402027BD20180C6D20080C0D2F0
:100116000280BCD2D580BAD20580B47F2012006995
:100126002002077401B5110040F1120026FF1200EB
:10013600690200A3D208D2068095120026FB12009F
:1001460026FA120026F94A4B7006794C7A037BFF91
:1001560020022EE511602A7E008E82758300120928
:100166004460060EEE651270F0C2D5EBC0E0EAC040
:10017600E0E9C0E0EE1202C2D0E0F9D0E0FAD0E049
:10018600FB12092BFF60AAEBC0E0EAC0E0E9C0E081
:10019600120069D0E02401F9D0E03400FAD0E0FB87
:1001A600E5120460DCD512D980877BFF7A0279BE1E
:1001B600D202809C791080027908C206C2088008A3
:1001C600D2D5790A8004790AC2D5E512047002F5FF
:1001D60012E4FAFDFEFF120026FC7B082001131232
:1001E6000026FD7B1030000A120026FE120026FFB4
:1001F6007B20EC3382D592D55013C3E43000069FA2
:10020600FFE49EFEE42001039DFDE49CFCE4CBF8A4
:10021600C201EC700CCFCECDCCE824F8F870F38098
:1002260017C3EF33FFEE33FEED33FDEC33FCEB3358
:10023600FB994002FB0FD8E9EB300105F8D0E0C48A
:1002460048B201C0E00AEC4D4E4F78207B0070C2E8
:10025600EAB5120040BCC0E01202C4D0F0D0E020E3
:100266000104C4C0E0C4B201C0F0120052D0F0D5FF
:10027600F0EB0200A3120B7F01405301BA580111A3
:100286004C010D4201BE4F01C64401C64901264339
:0802960001CC5501B04601B096
:10029E004501B047036C5001152D01192E013C2B61
:1002AE00011D23013A2003552A00D54800000134D0
:1002BE003F3F3F00790AA2D5200314300509B9103B
:1002CE00020404B9080104A2D5200602500104203C
:1002DE0002689202B511005034C0E07F203003193D
:1002EE007F30A20272067205500F12031BC202C2A9
:1002FE0006C205C2087F30800F300503E9C0E01248
:10030E000069300503D0E0F9D0E0B511CC30051707
:10031E007F30B9100C1200697F583004077F788047
:10032E0003B908031200693002057F2D0200697FB0
:10033E00202008F87F2B2006F322920280CF286E11
:10034E00756C6C2900D2011200263001F8C20178BA
:10035E001130D50108F60200D52D50434958120030
:10036E00262403B405004001E49003679312005A5B
:0D037E00743A12005AD2037511040201BA3C
:0C0AE100E6FC08E6FD08E6FE08E6FF2241
:0C0AED00E0FCA3E0FDA3E0FEA3E0FF227C
:0C0AF900E2FC08E2FD08E2FE08E2FF2239
:100B0500E493FC740193FD740293FE740393FF2236
:0C0B1500ECF608EDF608EEF608EFF6220C
:0C0B2100ECF208EDF208EEF208EFF22210
:100B2D00D083D082E493F608740193F6087402938F
:090B3D00F608740393F6740473C6
:100B4600D083D082E493F208740193F2087402937E
:090B5600F208740393F2740473B5
:100B5F00F8E0FBA3A3E0F925F0F0E582158270021F
:070B6F001583E0FA38F022C3
:090B7600EBF0A3EAF0A3E9F02280
:100B7F00D083D082F8E4937012740193700DA3A305
:100B8F0093F8740193F5828883E473740293686019
:060B9F00EFA3A3A380DF19
:00000001FF
