:030000000218C023
:0C18C000787FE4F6D8FD7581210219073D
:1014EE006164643A202530326258204C656E3A2091
:1014FE00253032625820446174613A002025303222
:10150E006258000D0A0053617665436667546F4555
:10151E003220203A202530326258200D0A005361C5
:10152E007665436667546F453220203A2025303267
:10153E0062582025303262582025303262582025DC
:10154E0030326258202530326258200D0A00536125
:10155E007665436667546F45323A202530326258BD
:10156E00200D0A005072696E74665F4366673A20FA
:10157E002530326258200D0A0045325F6275663A98
:10158E00202530326258200020253032625820004B
:10159E000D0A20453220656E640D0A001405030005
:1015AE00010503001FFFFFFF1FFFFFFF10000100DB
:1015BE0000000101000007FF100017FF9FFFFFFF53
:0415CE009FFFFFFE7E
:08001600C10AC1094101030107
:0E000300900082EFF0121E0E900082E0FF22AD
:091E0500D2BAD28AD2AAD2AF22CD
:03001300021D05C6
:0D1D0500C0E0C0F0C083C082C0D075D0081F
:101D12007F2C121DCBEF30E102D20AEF30E002D26B
:011D220009B7
:0B1D2300D0D0D082D083D0F0D0E032CE
:0B194C009000CFEBF0A3EAF0A3E9F05D
:101957009000CFE0FBA3E0FAA3E0F912086B900038
:10196700D21208F99000051207BDFFC31354019066
:1019770000D6F09000041207BD1313135401C433AB
:101987003354C0FEEF1313540F4EFB9000D2E0FC0C
:10199700A3E0FDA3E0FEA3E0FFA3E0900000F0A317
:1019A700EBF09000CFE0FBA3E0FAA3E02406F9E414
:1019B7003AFA900000EBF0A3EAF0A3E9F002000086
:101B66009000011207BD9000BDF09000021207BD63
:101B7600FFE4FEEEC39F501CEEF582758300A3A31F
:101B8600A31207BDFD74BE2EF582E43400F583ED85
:101B9600F00E80DF7B017A0079BE9000BDE0FDEF9C
:091BA600240390005EF0021B0410
:0B1AA1009000DFEBF0A3EAF0A3E9F0F7
:101AAC007BFF7A1479EE90005DEDF09000E3E0900E
:101ABC00005EF0120091E49000E4F09000E3E0FF8F
:101ACC00A3E0FEC39F50289000DFE0FBA3E0FAA345
:101ADC00E0F98E827583001207BD90005DF07BFFEC
:101AEC007A15790A1200919000E4E004F080CC7B26
:081AFC00FF7A15791102009137
:0B0C7000900093EBF0A3EAF0A3E9F082
:100C7B007BFF7A157914900103E090005DF0120070
:100C8B0091900093E0FBA3E0FAA3E0F91207A49084
:100C9B000096F09000281207BDFFC41313135401E4
:100CAB0090009AF0EF5403A3F09000281207BDFFB9
:100CBB001313540390009CF0EFC45407900097F06B
:100CCB009000261207BD900098F09000271207BDE8
:100CDB00900099F07BFF7A15792C900096E09000AC
:100CEB005DF0900097E090005EF0900098E090002F
:100CFB005FF0900099E0900060F01200917B017A18
:100D0B0000799690005E7407F0E4FD121B047B01E2
:100D1B007A0079969000E37407F0E4FD121AA19023
:100D2B000093E0FBA3E0FAA3E0F990000612088B16
:100D3B009000CA1208F9E49000CEF07B017A00799A
:100D4B0096FD12176A900093E0FBA3E0FAA3E0F97B
:100D5B0090001212088B9000CA1208F9E49000CE92
:100D6B00F07B017A0079967D0412176A7B017A0079
:100D7B00799690005E7408F0FD121B04900093E0CE
:100D8B00FBA3E0FAA3E0F990000A12088B9000CACB
:100D9B001208F99000291207BD54019000CEF07B88
:100DAB00017A007996E4FD12176A900093E0FBA399
:100DBB00E0FAA3E0F990000E12088B9000CA12081B
:100DCB00F99000291207BDFFC31354019000CEF018
:100DDB007B017A0079967D0412176A7B017A007980
:100DEB009690005E7408F07D10121B04900093E047
:100DFB00FBA3E0FAA3E0F990001612088B9000CA4F
:100E0B001208F99000291207BDFF1313540190002B
:100E1B00CEF07B017A007996E4FD12176A9000936D
:100E2B00E0FBA3E0FAA3E0F990001A12088B900004
:100E3B00CA1208F99000291207BDFF1313135401AE
:100E4B009000CEF07B017A0079967D0412176A7BB5
:100E5B00017A00799690005E7408F07D18121B04DD
:100E6B00900093E0FBA3E0FAA3E0F990001E1208B8
:100E7B008B9000CA1208F99000291207BDFFC454C9
:100E8B00019000CEF07B017A007996E4FD12176A8F
:100E9B00900093E0FBA3E0FAA3E0F9900022120884
:100EAB008B9000CA1208F99000291207BDFFC413DA
:100EBB0054019000CEF07B017A0079967D041217D5
:100ECB006A7B017A00799690005E7408F07D2002AF
:020EDB001B04F6
:0B09C80090009EEBF0A3EAF0A3E9F022
:1009D3007B017A0079A190005E7408F0E4FD121A9D
:1009E300399000A1E0FF90009EE0FBA3E0FAA3E0B2
:1009F300F9EF1207EA90009EE0FBA3E0FAA3E0F907
:100A03001207A4FFE92401F9E43AFA1215D290007F
:100A1300A2E05407C454F0FF90009EE0FBA3E0FA69
:100A2300A3E02428F9E43AFA1207A4548F4F1207DB
:100A3300EA9000A3E0FF90009EE0FBA3E0FAA3E0AE
:100A4300F9900026EF1207FC9000A4E09000271213
:100A530007FC9000A5E05401C43333335480FFE90D
:100A63002428F9E43AFA1207A4547F4F1207EA90B4
:100A730000A6E05403FF1207A454FC4F1207EA90A8
:100A830000A7E0540325E025E0FF1207A454F34F29
:100A93001207EA7B017A0079A190005E7408F0FDE9
:100AA300121A397B017A0079A1E4FD1216B1900084
:100AB3009EE0FBA3E0FAA3E0F99000061208D57BC1
:100AC300017A0079A17D041216B190009EE0FBA388
:100AD300E0FAA3E0F99000121208D57B017A0079BD
:100AE300A190005E7408F07D10121A399000A2E004
:100AF3005401FF90009EE0FBA3E0FAA3E02429F950
:100B0300E43AFA1207A454FE4F1207EA7B017A0073
:100B130079A1E4FD1216B190009EE0FBA3E0FAA3D5
:100B2300E0F990000A1208D59000A5E0540125E0F1
:100B3300FFE92429F9E43AFA1207A454FD4F1207F6
:100B4300EA7B017A0079A17D041216B190009EE040
:100B5300FBA3E0FAA3E0F990000E1208D57B017A1B
:100B63000079A190005E7408F07D18121A39900084
:100B7300A1E0540125E025E0FF90009EE0FBA3E007
:100B8300FAA3E02429F9E43AFA1207A454FB4F121A
:100B930007EA7B017A0079A1E4FD1216B190009E69
:100BA300E0FBA3E0FAA3E0F99000161208D5900049
:100BB300A5E0540133333354F8FFE92429F9E43A27
:100BC300FA1207A454F74F1207EA7B017A0079A1BE
:100BD3007D041216B190009EE0FBA3E0FAA3E0F9B6
:100BE30090001A1208D57B017A0079A190005E74F7
:100BF30008F07D20121A399000A1E05401C454F08A
:100C0300FF90009EE0FBA3E0FAA3E02429F9E43A75
:100C1300FA1207A454EF4F1207EA7B017A0079A175
:100C2300E4FD1216B190009EE0FBA3E0FAA3E0F905
:100C330090001E1208D59000A5E05401C43354E07F
:100C4300FFE92429F9E43AFA1207A454DF4F120703
:100C5300EA7B017A0079A17D041216B190009EE02F
:0D0C6300FBA3E0FAA3E0F99000220208D5FF
:101401007B017A00798390005E7408F0E4FD121A82
:10141100397F60121DCB90008DEFF0E0FE540190FA
:101421000087F0EE5403A3F07F70121DCBEF54033D
:10143100900089F07F0F121DCBEF5407900084F0CC
:101441007F2B121DCB900085EFF07F2C121DCB90CE
:101451000086EFF07B017A00798390005E7407F0DB
:10146100E4FD121B04E490008BF090008BE0C39428
:101471000874809480507590008DE025E025E090FF
:10148100008CF004FF121DCBEF540190008EF09000
:10149100008CE0FF12130D90008F1208F97B017A86
:1014A10000798390008CE05407FDC00590008FE027
:1014B100FCA3E0FDA3E0FEA3E0FF9000CA1208F93F
:1014C10090008EE09000CEF0D00512176A7B017A71
:1014D10000798390008CE02410FD90005E7404F08C
:0C14E100121B0490008BE004F002146B5E
:0114ED0022DC
:101CAC009000FAEBF0A3EAF0A3E9F07BFF7A157948
:101CBC005C900103E090005DF01200917BFF7A15BF
:0D1CCC007972900103E090005DF00200913C
:05182000900031EFF023
:1018250078327C007D017BFF7A1579AA7E007F28BE
:1018350012077E7BFF7A157987900031E090005D75
:10184500F0120091900031E0640170557B017A003F
:10185500793290005E7428F0E4FD121A39E49000A4
:1018650031F0900031E0FFC3942874809480504299
:10187500EF540770097BFF7A1579111200917BFFF0
:101885007A157996900031E02432F582E43400F53A
:1018950083E090005DF0120091900031E004F0804B
:1018A500C17B017A00793290005E7408F0E4FD1284
:0B18B5001B047BFF7A15799E02009156
:1019C700131354019000AEF0E4A3F07B01A304F0DD
:0819D700A37400F0A374E8F012
:1019DF009000B0E0FBA3E0FAA3E0F91208BB90007F
:1019EF00AEE0540125E0FF9000B0E0FBA3E0FAA3C6
:1019FF00E02405F9E43AFA1207A454FD4F1207EA5E
:101A0F009000ADE0FF9000B0E0FBA3E0FAA3E0F997
:101A1F00900007EF1207FC9000AFE090000812074C
:0A1A2F00FC7B017A0079B002194C2B
:10038B009000E5EBF0A3EAF0A3E9F0A3E0FBA3E018
:10039B00FAA3E02404F9E43AFA1207A4440812077A
:1003AB00EA9000E8E0FBA3E0FAA3E02405F9E43AC5
:1003BB00FA1207A454C31207EA9000E5E0FBA3E08E
:1003CB00FAA3E0F990000A12088B9000E8E0FBA377
:1003DB00E0FAA3E0F91208BB9000E5E0FBA3E0FA1A
:1003EB00A3E0F99000291207BD540125E0FF90000E
:1003FB00E8E0FBA3E0FAA3E02405F9E43AFA1207DC
:10040B00A454FD4F1207EA7B017A0079E812194CCC
:10041B009000E8E0FBA3E0FAA3E02405F9E43AFA44
:10042B001207A454C3441C1207EA9000E8E0FBA394
:10043B00E0FAA3E0F990000674FE1207FCE924062B
:10044B00F9E43AFAC003C002C0019000E5E0FBA357
:10045B00E0FAA3E0F990000A12088B9000CA120888
:10046B00F99000291207BD54019000CEF0D001D0B5
:10047B0002D0037D0312176A9000E5E0FBA3E0FABC
:10048B00A3E0F990000A12088BE49000ADF0900005
:10049B00291207BD54019000AEF01207A49000AFD3
:1004AB00F0A374011219D69000E5E0FBA3E0FAA3C8
:1004BB00E0F990000A12088BC0079000AD7404F0AD
:1004CB009000291207BD54019000AEF09000281245
:1004DB0007BDC413131354019000AFF0A37401F0C4
:1004EB00A37400F0A374E8F0D0071219DF9000E5B5
:1004FB00E0FBA3E0FAA3E0F990000A12088BC00717
:10050B009000AD7401F09000291207BD54019000CA
:10051B00AEF09000281207BDC454079000AFF0A3B3
:10052B007401F0A37400F0A374E8F0D0071219DF84
:10053B009000E5E0FBA3E0FAA3E0F990000A1208B3
:10054B008B9000AD7402F09000291207BD540190FE
:10055B0000AEF09000261207BD9000AFF0A374011F
:10056B001219D69000E5E0FBA3E0FAA3E0F99000A6
:10057B000A12088B9000AD7403F09000291207BD8E
:10058B0054019000AEF09000271207BD9000AFF021
:10059B00A374011219D69000E5E0FBA3E0FAA3E0E7
:1005AB00F990000E12088B9000AD7407F0900029A3
:1005BB001207BD1219C99000E5E0FBA3E0FAA3E016
:1005CB00F990001612088B9000AD7408F09000297A
:1005DB001207BDC31219C89000E5E0FBA3E0FAA314
:1005EB00E0F990001A12088B9000AD7409F090009E
:1005FB00291207BD1219C79000E5E0FBA3E0FAA38F
:10060B00E0F990001E12088B9000AD740AF0900078
:10061B00291207BD131219C79000E5E0FBA3E0FAFE
:10062B00A3E0F990002212088B9000AD740BF090B0
:10063B0000291207BDC41219C99000E5E0FBA3E025
:10064B00FAA3E0F990002212088B9000AD740CF025
:10065B009000291207BDC41219C89000E5E0FBA356
:10066B00E0FAA3E0F990000612088B9000AD740D30
:10067B00F0E4A3F01219D09000E5E0FBA3E0FAA39D
:10068B00E0F990001212088B9000AD740EF0E4A309
:10069B00F0A3F07B01A304F0A37400F0A374E8F0C3
:0306AB000219DF52
:101CD90090000012090500000101E4900004F0A33E
:101CE9007408F0121D97121E05E4FF1218207F01D7
:0C1CF9001218207FD07E07121D7880F7A3
:101D7800D3EF9400EE94004015E4FDFC0DBD000186
:0E1D88000CED64644C70F5EF1F70E51E80E2F8
:011D9600222A
:101D5700E4FFC295FEEEC39408748094805011D2BC
:101D670095EF25E0FFA293E4334FFFC2950E80E580
:011D77002249
:101D2E00E4FEEEC3940874809480501AC295A806FF
:101D3E00EF088002C333D8FC30E704D2948002C28D
:081D4E0094D2950E80DCC295D1
:011D5600226A
:101C7E009000ECE0FCA3E0FDA3E0FEA3E0FF120861
:081C8E0045AD079000EBE0FFFB
:101C9600AC07C2927F02121D2EAF04121D2EAF0595
:061CA600121D2ED2922255
:021DCB00AD0762
:101DCD00C2927F03121D2EAF05121D2E121D57D26A
:011DDD009273
:011DDE0022E2
:0A1DFB00C2927FC0121D2ED2922268
:1016B1009000F6EBF0A3EAF0A3E9F0A3EDF0240229
:1016C100FFE433FE9000F6E0FBA3E0FAA3E0F98F1C
:1016D100828E831207BD7E007810C333CE33CED8FD
:1016E100F9FFEE3395E0FDFCC004C005C006C0075C
:1016F1009000F9E02401FFE433FE9000F6E0FBA343
:10170100E0FAA3E0F98F828E831207BD7E0078187C
:10171100C333CE33CED8F9FFEE3395E0FDFCD003D1
:10172100D002D001D000EF4BFFEE4AFEED49FDECB7
:1017310048FCC004C005C006C0079000F9E02403BE
:10174100FFE433FE9000F6E0FBA3E0FAA3E0F98F9B
:10175100828E831207BDFFD003D002D001D000EBEF
:091761004FFFEAFEE9FDE8FC225D
:10176A009000C6EBF0A3EAF0A3E9F0A3EDF0900035
:10177A00CEE075F080A4FFAEF0EE3395E0FDFCC03C
:10178A0004C005C006C0079000CAE0FCA3E0FDA3A0
:10179A00E0FEA3E0FF7818120845D003D002D0017A
:1017AA00D000EF4BFF9000C6E0FBA3E0FAA3E0F9FC
:1017BA00A3E0F582758300EF1207FC9000CAE0FCF3
:1017CA00A3E0FDA3E0FEA3E0FF7810120845900015
:1017DA00C9E0F582758300A3EF1207FC9000CAE006
:1017EA00FCA3E0FDA3E0FEA3E0FF78081208459001
:1017FA0000C9E0F582758300A3A3EF1207FC9000ED
:10180A00CAA3A3A3E0FF9000C9E0F582758300A3F1
:06181A00A3A3EF0207FC8E
:05130D009000B3EFF0B9
:1013120004FF121DCBA3EFF09000B3E0FF121DCB30
:10132200E4FCFDFE7803120858A804A905AA06AB3E
:1013320007A3E0C4135407FFEB4FFFEAFEE9FDE801
:10134200FCA31208F99000B3E02402FF121DCBE4C3
:10135200FCFDFE7808120858C004C005C006C0078C
:10136200A3E05403FFE4FCFDFE7810120858D003FA
:10137200D002D001D000EF4BFFEE4AFEED49FDEC6A
:1013820048FCC004C005C006C0079000B3E02403B7
:10139200FF121DCBD003D002D001D000EB4FFFEAE9
:1013A200FEE9FDE8FC9000B91208F99000B9E0FCF2
:1013B200A3E0FDA3E0FEA3E0FFEC4D4E4F700790CB
:1013C20000B4E030E32A9000B5E0FCA3E0FDA3E026
:1013D200FEA3E0FF7812120858A3E0F8A3E0F9A3F5
:1013E200E0FAA3E04FFFEA4EFEE94DFDE84CFC2295
:0E13F2009000B5E0FCA3E0FDA3E0FEA3E0FF49
:0114000022C9
:101215009000EBEFF0E47FFF7E07FDFCA3E0F8A371
:10122500E0F9A3E0FAA3E0FBD312083450099000DB
:10123500F0E070030212D77815121C7EE004FFC09F
:1012450007A3E0FCA3E0FDA3E0FEA3E0FF781212F4
:101255000845EF5407FFE4FEFDFC7805120858C069
:1012650004C005C006C0079000ECE0FCA3E0FDA3A8
:10127500E0FEA3E0FF7810120845EF5403FFD0030A
:10128500D002D001D000EB4FFFEAFEE8FCEF4408A6
:10129500FFAD07D007121C969000EBE02402FFC0BB
:1012A50007A3E0FCA3E0FDA3E0FEA3E0FF7808129E
:1012B5000845AD07D007121C969000EBE02403FF0C
:1012C500C007A3E0FCA3A3E0FEA3E0FFAD07D007A2
:1012D50080327803121C7EE004FFC007A3A3A3A3FA
:1012E500E05407FFE4FEFDFC7805120858AD07D071
:1012F50007121C969000EBE02402FFE4FD121C96F9
:08130500E02403FF121C9622F4
:0B15D2009000D7EBF0A3EAF0A3E9F0D3
:1015DD00EF75F005A424F6601F24F1602224E76066
:1015ED002524CE602B24E7603A2483604924F570CE
:1015FD00579000DA743180309000DA74138029909E
:10160D0000DA740980229000DA7404F0A304801CBF
:10161D009000DA7401F0A37407F0A37438F0A3748A
:10162D000280349000DA7401F0A37405F0A37430D5
:10163D00F0A374018021E49000DAF0A37405F0A307
:10164D007430F0A37401800FE49000DAF0A304F07D
:10165D00A37410F0A37401F0E4A3F09000DAE0FF9E
:10166D009000D7E0FBA3E0FAA3E0F9EF1207EA90B0
:10167D0000DBE0FF9000D7E0FBA3E0FAA3E0F990D8
:10168D000001EF1207FC9000DCE09000021207FC55
:10169D009000DDE09000031207FC9000DEE090006A
:0416AD00040207FC30
:100EDD009000FDEBF0A3EAF0A3E9F0121DFB7F01FA
:100EED007E00121D789000FDE0FBA3E0FAA3E0F96F
:100EFD009000011207BDFF9000051207BD4FFD7F49
:100F0D002A121C969000FDE0FBA3E0FAA3E0F990F5
:100F1D0000031207BD4480FF9000021207BD4FFD74
:100F2D007F29121C969000FDE0FBA3E0FAA3E0F9E7
:100F3D009000041207BD4480FD7F28121C9690007E
:100F4D00FDE0FBA3E0FAA3E0F99000281207BDC471
:100F5D00131313540125E025E0FD7F60121C967DCF
:100F6D00607F70121C969000FDE0FBA3E0FAA3E0F9
:100F7D00F99000271207BDFD7F2C121C969000FDE5
:100F8D00E0FBA3E0FAA3E0F99000261207BDFD7F78
:100F9D002B121C969000FDE0FBA3E0FAA3E0F99064
:100FAD00000A12088B9000EC1208F9900029120724
:100FBD00BD54019000F0F0E4FF1212159000FDE019
:100FCD00FBA3E0FAA3E0F990000E12088B9000EC61
:100FDD001208F99000291207BDC31354019000F0B7
:100FED00F07F041212159000FDE0FBA3E0FAA3E0E0
:100FFD00F990001612088B9000EC1208F990002958
:10100D001207BD131354019000F0F07F0812121552
:10101D009000FDE0FBA3E0FAA3E0F990001A12089E
:10102D008B9000EC1208F99000291207BD131313D1
:10103D0054019000F0F07F101212159000FDE0FBAE
:10104D00A3E0FAA3E0F990001E12088B9000EC12B9
:10105D0008F99000291207BDC454019000F0F07FEB
:10106D00141212159000FDE0FBA3E0FAA3E0F99035
:10107D00002212088B9000EC1208F990002912073B
:10108D00BDC41354019000F0F07F1812121590009A
:10109D00FDE0FBA3E0FAA3E0F990000612088B90A7
:1010AD0000EC1208F99000F07401F07F2012121577
:1010BD009000FDE0FBA3E0FAA3E0F9900012120806
:1010CD008B9000EC1208F99000F07401F07F24125F
:1010DD0012157D447F0F121C967F0E121DCBEF7ED5
:1010ED000060047F0180027F00EF4E60077D447F2A
:0510FD000F121C9622F9
:0B1102009000F1EBF0A3EAF0A3E9F08D
:10110D00E49000F5F09000F5E0FFC3940374809433
:10111D00805019EF75F00FA42430FF9000F4F012F9
:10112D001DCBEF30E306A3E004F080D99000F4E08E
:10113D0004FFC0079000F1E0FBA3E0FAA3E0F91271
:10114D00086B9000EC1208F99000051207BDC3134F
:10115D0054019000F0F0D0071212159000F4E02425
:10116D0005FF9000F1E0FBA3E0FAA3E0F990000485
:10117D001207BD1313135401C4333354C0FE900032
:10118D00051207BD1313540F4EFD121C96E490006B
:10119D00F5F09000F1E0FBA3E0FAA3E0F990000573
:1011AD001207BD1313540FFF9000F5E0FED39F50AF
:1011BD0032EE94087480948050299000F4E0240657
:1011CD00FFA3E02FFFE92406F9E43AFAEE7C0029AB
:1011DD00F9EC3AFA1207A4FD121C969000F5E00402
:1011ED00F080AFC2929000F4E0FF9000F1E0FBA31D
:1011FD00E0FAA3E0F99000041207BDFEC4540344C5
:07120D0008FD121C96D292AD
:0112140022B7
:02001E00C10B14
:101D9700C2AF53890F438920759850758DFA758B9B
:0F1DA700FA438780D299D2ACD28ED29CD2AF228F
:03002300021DF0CB
:0B1DF000309803C29832C299C20B3237
:081E0E008F99D20B200BFD227D
:101BE500900100EBF0A3EAF0A3E9F0900100E0FB1F
:101BF500A3E0FAA3E0F91207A4FF121E0E9001005C
:101C0500E0FBA3E475F00112081EA9F0FA1207A47F
:031C150070D92261
:101DDF00D2A0D2A100000000C2A000000000C2A14A
:011DEF0022D1
:101DB600C2A1C2A000000000D2A100000000D2A073
:051DC6000000000022F6
:101BAF007E80EE601B5F7004C2A08002D2A0000096
:101BBF000000D2A100000000C2A1EEC313FE80E21C
:101BCF00D2A000000000D2A1A2A09200000000004D
:051BDF00C2A1A200B349
:011BE40022DE
:101C1800D2A07E80EE601D00000000D2A120A005A9
:101C2800F45FFF8003EF4EFF00000000C2A1EEC387
:101C380013FE80E0D2A000000000D2A10000000046
:021C4800C2A137
:011C4A002277
:101C4B00D2A07E80EE601D00000000D2A120A00576
:101C5B00F45FFF8003EF4EFF00000000C2A1EEC354
:101C6B0013FE80E0C2A000000000D2A10000000023
:021C7B00C2A104
:011C7D002244
:101A390090005AEBF0A3EAF0A3E9F0121DDF7FA0B2
:101A4900121BAF4005121DB680F1AF05121BAF1274
:101A59001DDF7FA1121BAF90005EE0D3940174805B
:101A69009480401F121C4B90005AE0FBA3E475F0D0
:101A79000112081EA9F0FAEF1207EA90005EE014BD
:101A8900F080D4121C1890005AE0FBA3E0FAA3E0FE
:081A9900F9EF1207EA021DB685
:101B040090005AEBF0A3EAF0A3E9F090005EE0D372
:101B14009400748094804049121DDF7FA0121BAF93
:101B24004005121DB680F1AF05121BAF90005EE0B8
:101B3400D3940074809480402390005AE0FBA3E483
:101B440075F00112081EA9F0FA1207A4FF121BAFC8
:101B540090005EE014F00DED540770D0121DB680B5
:021B6400AA22B3
:1018CC00021CD9E493A3F8E493A34003F68001F23D
:1018DC0008DFF48029E493A3F85407240CC8C3331D
:1018EC00C4540F4420C8834004F456800146F6DFEC
:1018FC00E4800B0102040810204080900016E47E66
:10190C00019360BCA3FF543F30E509541FFEE493E0
:10191C00A360010ECF54C025E060A840B8E493A3A7
:10192C00FAE493A3F8E493A3C8C582C8CAC583CAD2
:10193C00F0A3C8C582C8CAC583CADFE9DEE780BE8A
:0100200000DF
:1006AE00E709F608DFFA8046E709F208DFFA803E2E
:1006BE0088828C83E709F0A3DFFA8032E309F6081B
:1006CE00DFFA8078E309F208DFFA807088828C8383
:1006DE00E309F0A3DFFA806489828A83E0A3F60837
:1006EE00DFFA805889828A83E0A3F208DFFA804C11
:1006FE0080D280FA80C680D4806980F280338010E8
:10070E0080A680EA809A80A880DA80E280CA803350
:10071E0089828A83ECFAE493A3C8C582C8CCC583C8
:10072E00CCF0A3C8C582C8CCC583CCDFE9DEE78098
:10073E000D89828A83E493A3F608DFF9ECFAA9F017
:10074E00EDFB2289828A83ECFAE0A3C8C582C8CC6D
:10075E00C583CCF0A3C8C582C8CCC583CCDFEADE86
:10076E00E880DB89828A83E493A3F208DFF980CCE8
:10077E0088F0EF60010E4E60C388F0ED2402B404E1
:10078E000050B9F582EB2402B4040050AF23234588
:06079E0082239006FE73A9
:1007A400BB010689828A83E0225002E722BBFE0253
:0907B400E32289828A83E4932286
:1007BD00BB010CE58229F582E5833AF583E02250F1
:1007CD0006E92582F8E622BBFE06E92582F8E2223B
:0D07DD00E58229F582E5833AF583E4932255
:1007EA00BB010689828A83F0225002F722BBFE01EE
:0207FA00F322E8
:1007FC00F8BB010DE58229F582E5833AF583E8F033
:10080C00225006E92582C8F622BBFE05E92582C8DE
:02081C00F222C6
:10081E00A3F8E0C5F025F0F0E5821582700215838D
:06082E00E0C838F0E822EA
:10083400EB9FF5F0EA9E42F0E99D42F0E89C45F01A
:010844002291
:10084500E8600FECC313FCED13FDEE13FEEF13FF91
:03085500D8F122B5
:10085800E8600FEFC333FFEE33FEED33FDEC33FCFE
:03086800D8F122A2
:10086B00BB010789828A830209425005E9F8020914
:10087B0036BBFE05E9F802094E89828A8302095AC2
:10088B00BB010DE58229F582E5833AF58302094226
:10089B005007E92582F8020936BBFE07E92582F8E5
:1008AB0002094EE58229F582E5833AF58302095A5E
:1008BB00BB010789828A830208F95005E9F802090E
:0A08CB006ABBFE05E9F80209762277
:1008D500BB010DE58229F582E5833AF5830208F926
:1008E5005007E92582F802096ABBFE07E92582F867
:0408F500020976225C
:0C08F900ECF0A3EDF0A3EEF0A3EFF02272
:10090500A8828583F0D083D08212091C12091C129B
:10091500091C12091CE473E493A3C583C5F0C583C0
:10092500C8C582C8F0A3C583C5F0C583C8C582C83C
:01093500229F
:10002600E510245DF582E43400F583E005102290A6
:10003600005A30070390005DE475F0011209820250
:1000460007A42000E97F2ED2008018EF540F2490D9
:10005600D43440D4FF30040BEF24BFB41A0050034D
:100066002461FFE511600215110514E514700205FF
:100076001330070E90005AE475F001120982EF0260
:1000860007EA0200037403D2078003E4C207F510EF
:1000960090005A120999E4F511F513F514E511606B
:1000A600077F2012006980F57512FFC201C200C2E7
:1000B60002C203C205C206C208120035FF700D3027
:1000C60007057F0012007AAF14AE1322B4255FC273
:1000D600D5C204120035FF24D0B40A00501A75F0B8
:1000E6000A781130D50508B6FF0106C6A426F62003
:1000F600D5047002D20380D924CFB41A00EF50047D
:10010600C2E5D20402027BD20180C6D20080C0D2F0
:100116000280BCD2D580BAD20580B47F2012006995
:100126002002077401B5110040F1120026FF1200EB
:10013600690200A3D208D2068095120026FB12009F
:1001460026FA120026F94A4B7006794C7A037BFF91
:1001560020022EE511602A7E008E8275830012072A
:10016600BD60060EEE651270F0C2D5EBC0E0EAC0C7
:10017600E0E9C0E0EE1202C2D0E0F9D0E0FAD0E049
:10018600FB1207A4FF60AAEBC0E0EAC0E0E9C0E00A
:10019600120069D0E02401F9D0E03400FAD0E0FB87
:1001A600E5120460DCD512D980877BFF7A0279BE1E
:1001B600D202809C791080027908C206C2088008A3
:1001C600D2D5790A8004790AC2D5E512047002F5FF
:1001D60012E4FAFDFEFF120026FC7B082001131232
:1001E6000026FD7B1030000A120026FE120026FFB4
:1001F6007B20EC3382D592D55013C3E43000069FA2
:10020600FFE49EFEE42001039DFDE49CFCE4CBF8A4
:10021600C201EC700CCFCECDCCE824F8F870F38098
:1002260017C3EF33FFEE33FEED33FDEC33FCEB3358
:10023600FB994002FB0FD8E9EB300105F8D0E0C48A
:1002460048B201C0E00AEC4D4E4F78207B0070C2E8
:10025600EAB5120040BCC0E01202C4D0F0D0E020E3
:100266000104C4C0E0C4B201C0F0120052D0F0D5FF
:10027600F0EB0200A31209A201405301BA58011182
:100286004C010D4201BE4F01C64401C64901264339
:0802960001CC5501B04601B096
:10029E004501B047036C5001152D01192E013C2B61
:1002AE00011D23013A2003552A00D54800000134D0
:1002BE003F3F3F00790AA2D5200314300509B9103B
:1002CE00020404B9080104A2D5200602500104203C
:1002DE0002689202B511005034C0E07F203003193D
:1002EE007F30A20272067205500F12031BC202C2A9
:1002FE0006C205C2087F30800F300503E9C0E01248
:10030E000069300503D0E0F9D0E0B511CC30051707
:10031E007F30B9100C1200697F583004077F788047
:10032E0003B908031200693002057F2D0200697FB0
:10033E00202008F87F2B2006F322920280CF286E11
:10034E00756C6C2900D2011200263001F8C20178BA
:10035E001130D50108F60200D52D50434958120030
:10036E00262403B405004001E49003679312005A5B
:0D037E00743A12005AD2037511040201BA3C
:0C093600E6FC08E6FD08E6FE08E6FF22ED
:0C094200E0FCA3E0FDA3E0FEA3E0FF2228
:0C094E00E2FC08E2FD08E2FE08E2FF22E5
:10095A00E493FC740193FD740293FE740393FF22E3
:0C096A00ECF608EDF608EEF608EFF622B9
:0C097600ECF208EDF208EEF208EFF222BD
:10098200F8E0FBA3A3E0F925F0F0E58215827002FE
:070992001583E0FA38F022A2
:09099900EBF0A3EAF0A3E9F0225F
:1009A200D083D082F8E4937012740193700DA3A3E4
:1009B20093F8740193F5828883E4737402936860F8
:0609C200EFA3A3A380DFF8
:00000001FF
