:0300000002204992
:0C204900787FE4F6D8FD7581210220901C
:1012C50073656E64200072656320200049443A20EE
:1012D5002530376C582C2020444C433A2562782C15
:1012E5002020446174613A200049443A2025376C36
:1012F500582C2020444C433A2562782C2020446108
:1013050074613A2000253032625820000D0A0061D0
:1013150064643A202530326258204C656E3A2025A7
:101325003032625820446174613A002025303262BF
:1013350058005F354B6270733A2025303262582071
:101345000D0A00626974726174653A202530326253
:1013550058202530326258202530326258202530F9
:101365003262582025303262580D0A0042554B54DE
:101375005F656E61626C653A202530326258200DDA
:101385000A0043414E5F4D4F44453A2025303262B5
:1013950058200D0A0043414E494E54453A20253008
:1013A500326258200D0A0043414E494E54463A20B8
:1013B5002530326258200D0A005258426E52584D5F
:1013C500302D313A2025303262582025303262588E
:1013D5000D0A0052584D6E4944302D313A202530C2
:1013E500386C58202530386C580D0A005258466E16
:1013F5004944302D353A202530376C582025303773
:101405006C58202530376C58202530376C582025EE
:1014150030376C580D0A005258466E494445302DF8
:10142500353A202562582025625820256258202506
:101435006258202562580D0A0043414E5F525830CC
:1014450049465F466C6167203D20256264200D0A90
:101455000043414E5F52583149465F466C616720F3
:101465003D20256264200D0A0043414E53544154EA
:101475003A202530326258200D0A0020F10303047A
:0314850005060752
:08001600C10AC1094100B90053
:0E000300900089EFF012262F900089E0FF2276
:09262600D2BAD28AD2AAD2AF22A4
:03001300022509BA
:0D250900C0E0C0F0C083C082C0D075D00813
:102516007F2C1225ECEF30E102D20AEF30E002D236
:0125260009AB
:0B252700D0D0D082D083D0F0D0E032C2
:0B1E140090008AEBF0A3EAF0A3E9F0D5
:101E1F001201E390008E120271900004120135FF3F
:101E2F00C41313135401900092F090000512013562
:101E3F00540F900093F0EFC4131354037BFF30E063
:101E4F00067A1279C580047A1279CB1204019000B8
:101E5F0092E07BFF60067A1279D180047A1279EED4
:101E6F0090008EE0FCA3E0FDA3E0FEA3E0FF900056
:101E7F0064120271900093E0900068F0120401E484
:101E8F0090008DF0900093E0FF90008DE0FEC39FD7
:101E9F00503090008AE0FBA3E0FAA3E02406F9E4B7
:101EAF003AFAEE7E0029F9EE3AFA12011C9000641C
:101EBF00F07BFF7A13790A12040190008DE004F091
:0B1ECF0080C27BFF7A1379110204012E
:0B21530090006EEBF0A3EAF0A3E9F0AF
:10215E0090006EE0FBA3E0FAA3E0F91201E3900019
:10216E0071120271900004120135FFC4131313543F
:10217E0001900075F0EF1313135401C4333354C0A0
:10218E00FF900005120135540F4FFB900071E0FCDB
:10219E00A3E0FDA3E0FEA3E0FFA3E090007AF0A38E
:1021AE00EBF090006EE0FBA3E0FAA3E02406F9E466
:1021BE003AFA90007CEBF0A3EAF0A3E9F002186B78
:1023C300900001120135900094F090000212013543
:1023D300FFE4FEEEC39F501CEEF582758300A3A3BA
:1023E300A3120135FD74952EF582E43400F583EDD7
:1023F300F00E80DF7B017A007995900094E0FDEF89
:092403002403900072F002230F83
:101488009000B3EBF0A3EAF0A3E9F09000B3E0FB1F
:10149800A3E0FAA3E0F99000041201355407705153
:1014A800900006120135FF7E0064F0700B90000773
:1014B8001201359000B9F022EF64014E700AE92458
:1014C80006F9E43AFA0223C39000B3E0FBA3E0FA7A
:1014D800A3E0F99000061201356401600302160FBB
:1014E800900007120135FF900008120135FD022413
:1014F800F39000B3E0FBA3E0FAA3E0F99000041234
:10150800013554076401600302160F9000061201AA
:1015180035FF7E0064F07014E92405F9E43AFA1204
:10152800011C54F044011201620215D5EF64014E0A
:1015380070609000B3E0FBA3E0FAA3E0F990000824
:10154800120135540FFFE92405F9E43AFA12011C97
:1015580054F04F1201629000B3E0FBA3E0FAA3E05D
:101568002406F9E43AFAC002C0019000B3A3E0FAF5
:10157800A3E0F9900007120135FD9000B3A3A390F2
:101588000008120135900072F0D001D002122244F6
:10159800803B9000B3E0FBA3E0FAA3E0F9900006DB
:1015A80012013564017026E92405F9E43AFA1201BA
:1015B8001C54F044011201629000B3E0FBA3E0FA6E
:1015C800A3E0F9900007120135FF1225EC9000B353
:1015D800E0FBA3E0FAA3E0F9900004120135FF1341
:1015E800131354017018E92404F9E43AFA12011C9F
:1015F80044081201627B017A0079B31221537B01FE
:081608007A0079B3121E1422CE
:1016100090009EEBF0A3EAF0A3E9F090009DEFF0BC
:101620001225EC9000A2EFF090009DE02405FF123F
:1016300025ECEF540FFE90009EE0FBA3E0FAA3E040
:101640002405F9E43AFA12011C54F04E120162EF3B
:10165000C41313540133333354F8FF90009EE0FB5E
:10166000A3E0FAA3E02404F9E43AFA12011C54F7C7
:101670004F12016290009DE064609000A27005E04E
:1016800054038003E05407FF90009EE0FBA3E0FAC0
:10169000A3E02404F9E43AFA12011C54F84F1201B1
:1016A0006290009DE004FF121B5490009EE0FBA39B
:1016B000E0FAA3E0F912023390009DE02402FF1249
:1016C00025ECEF54081313135401C43333335480FF
:1016D000FF90009EE0FBA3E0FAA3E02404F9E43AC3
:1016E000FA12011C547F4F120162E49000A1F090A5
:1016F000009EE0FBA3E0FAA3E0F99000051201359B
:10170000540FFF9000A1E0FEC39F503290009DE077
:101710002406FFEE2FFF1225EC90009EE0FBA3E0D5
:10172000FAA3E02406F9E43AFAA3E07C0029F9ECF4
:101730003AFAEF1201629000A1E004F080B17B015F
:071740007A00799E02148873
:0B22AC009000A3EBF0A3EAF0A3E9F020
:1022B7007BFF7A137914900064EDF09000A7E0900B
:1022C7000065F0120401E49000A8F09000A7E0FF79
:1022D700A3E0FEC39F50289000A3E0FBA3E0FAA36E
:1022E700E0F98E82758300120135900064F07BFF60
:1022F7007A1379301204019000A8E004F080CC7BB7
:08230700FF7A137911020401B1
:0B0C9F00900061EBF0A3EAF0A3E9F085
:100CAA00900061E0FBA3E0FAA3E0F912011C9000B6
:100CBA0064F0900028120135FFC4131313540190F5
:100CCA000065F0EF5403A3F0900028120135FF13DA
:100CDA00135403900067F0EFC45407A3F090002662
:100CEA00120135900069F090002712013590006AD0
:100CFA00F07B017A0079649000727407F0E4FD12C7
:100D0A00230F900061E0FBA3E0FAA3E0F99000064C
:100D1A00120203900072120271E4900076F07B01D5
:100D2A007A007964FD121F93900061E0FBA3E0FA58
:100D3A00A3E0F9900012120203900072120271E409
:100D4A00900076F07B017A0079647D04121F937B10
:100D5A00017A0079649000727408F07D2012230FE2
:100D6A00900061E0FBA3E0FAA3E0F990000A120206
:100D7A0003900072120271900029120135540190F9
:100D8A000076F07B017A007964E4FD121F939000EB
:100D9A0061E0FBA3E0FAA3E0F990000E12020390CF
:100DAA000072120271900029120135FFC313540117
:100DBA00900076F07B017A0079647D04121F937BA0
:100DCA00017A0079649000727408F0FD12230F9082
:100DDA000061E0FBA3E0FAA3E0F990001612020317
:100DEA00900072120271900029120135FF131354F8
:100DFA0001900076F07B017A007964E4FD121F937A
:100E0A00900061E0FBA3E0FAA3E0F990001A120255
:100E1A0003900072120271900029120135FF131318
:100E2A00135401900076F07B017A0079647D0412F4
:100E3A001F937B017A0079649000727408F07D1028
:100E4A0012230F900061E0FBA3E0FAA3E0F99000FF
:100E5A001E120203900072120271900029120135CB
:100E6A00FFC45401900076F07B017A007964E4FDB6
:100E7A00121F93900061E0FBA3E0FAA3E0F990004F
:100E8A002212020390007212027190002912013597
:100E9A00FFC4135401900076F07B017A0079647DD7
:100EAA0004121F937B017A0079649000727408F02F
:050EBA007D1802230F6A
:1010D20090005EEBF0A3EAF0A3E9F090005EE0FB83
:1010E200A3E0FAA3E0F912011C900064F07BFF7AFE
:1010F20013793712040190005EE0FBA3E0FAA3E04B
:10110200F9900001120135900064F0900002120182
:1011120035900065F0900003120135900066F09062
:101122000004120135900067F0900005120135901D
:101132000068F07BFF7A13794812040190005EE0A8
:10114200FBA3E0FAA3E0F9900028120135FFC413D3
:1011520013135401900064F07BFF7A137971120427
:101162000190005EE0FBA3E0FAA3E0F990002812F0
:101172000135FFC45407900064F07BFF7A1379872E
:1011820012040190005EE0FBA3E0FAA3E0F99000F4
:1011920026120135900064F07BFF7A13799A1204CB
:1011A2000190005EE0FBA3E0FAA3E0F990002712B1
:1011B2000135900064F07BFF7A1379AC1204019040
:1011C200005EE0FBA3E0FAA3E0F9900028120135EB
:1011D200FF5403900064F0EF13135403A3F07BFF5A
:1011E2007A1379BE12040190005EE0FBA3E0FAA339
:1011F200E0F990000612020390006412027190005E
:10120200121202039000681202717BFF7A1379D8DE
:1012120012040190005EE0FBA3E0FAA3E0F9900063
:101222000A12020390006412027190000E1202036D
:1012320090006812027190001612020390006C1264
:10124200027190001A120203900070120271900053
:101252001E12020390007412027190002212020305
:101262009000781202717BFF7A1379F112040190D7
:10127200005EE0FBA3E0FAA3E0F990002912013539
:10128200FF5401900064F0EFC3135401A3F09000E7
:1012920029120135FF13135401900066F0EF131366
:1012A200135401A3F0900029120135FFC454019098
:1012B2000068F0EFC4135401A3F07BFF7A14791C89
:0312C20002040122
:0B0A220090005EEBF0A3EAF0A3E9F007
:100A2D007B017A0079619000727408F0E4FD122266
:100A3D0044900061E0FF90005EE0FBA3E0FAA3E0CC
:100A4D00F9EF12016290005EE0FBA3E0FAA3E0F97A
:100A5D0012011CFFE92401F9E43AFA121D35900048
:100A6D0062E05401C43333335480FF90005EE0FBE9
:100A7D00A3E0FAA3E02428F9E43AFA12011C547F0A
:100A8D004F120162900065E05407C454F0FF12014B
:100A9D001C548F4F120162900066E0FF90005EE0E3
:100AAD00FBA3E0FAA3E0F9900026EF120174900089
:100ABD0067E09000271201747B017A007961900044
:100ACD00727408F07D201222447B017A007961E472
:100ADD00FD121EDA90005EE0FBA3E0FAA3E0F990B0
:100AED00000612024D7B017A0079617D04121EDA37
:100AFD0090005EE0FBA3E0FAA3E0F9900012120271
:100B0D004D7B017A0079619000727408F0FD12221C
:100B1D0044900062E05401FF90005EE0FBA3E0FA18
:100B2D00A3E02429F9E43AFA12011C54FE4F1201F4
:100B3D00627B017A007961E4FD121EDA90005EE0BD
:100B4D00FBA3E0FAA3E0F990000A12024D900065B4
:100B5D00E0540125E0FFE92429F9E43AFA12011CD9
:100B6D0054FD4F1201627B017A0079617D04121EE2
:100B7D00DA90005EE0FBA3E0FAA3E0F990000E121C
:100B8D00024D7B017A0079619000727408F07D103E
:100B9D00122244900061E0540125E025E0FF900011
:100BAD005EE0FBA3E0FAA3E02429F9E43AFA12018E
:100BBD001C54FB4F1201627B017A007961E4FD1236
:100BCD001EDA90005EE0FBA3E0FAA3E0F9900016B8
:100BDD0012024D900065E0540133333354F8FFE9B0
:100BED002429F9E43AFA12011C54F74F1201627BE1
:100BFD00017A0079617D04121EDA90005EE0FBA39C
:100C0D00E0FAA3E0F990001A12024D7B017A007907
:100C1D00619000727408F07D18122244900061E01A
:100C2D005401C454F0FF90005EE0FBA3E0FAA3E092
:100C3D002429F9E43AFA12011C54EF4F1201627B98
:100C4D00017A007961E4FD121EDA90005EE0FBA3EB
:100C5D00E0FAA3E0F990001E12024D900065E054F9
:100C6D0001C43354E0FFE92429F9E43AFA12011CD6
:100C7D0054DF4F1201627B017A0079617D04121EEF
:100C8D00DA90005EE0FBA3E0FAA3E0F99000220207
:020C9D00024D06
:101C48007B017A00795E9000727408F0E4FD12223C
:101C5800447F601225EC900068EFF0E0FE5401909C
:101C6800005FF0EE5403A3F07F701225ECEF5403ED
:101C7800900061F07F0F1225ECEF5407900062F09E
:101C88007F2B1225EC900063EFF07F2C1225EC904F
:101C98000064EFF07B017A00795E9000727407F0BF
:101CA800E4FD12230FE4900066F0900066E0C39410
:101CB80008748094805075900068E025E025E090D5
:101CC8000067F004FF1225ECEF5401900069F090D2
:101CD8000067E0FF121B5490006A1202717B017AC0
:101CE80000795E900067E05407FDC00590006AE047
:101CF800FCA3E0FDA3E0FEA3E0FF900072120271D6
:101D0800900069E0900076F0D005121F937B017A6D
:101D180000795E900067E02408FD9000727404F07A
:0C1D280012230F900066E004F0021CB2D1
:011D3400228C
:10196A00900061EBF0A3EAF0A3E9F0900061E0FBDC
:10197A00A3E0FAA3E0F97414120162900061E0FB9B
:10198A00A3E0FAA3E0F99000017401120174900037
:10199A0002740712017490000374381201749000E3
:1019AA00047402120174900005E4120174E92428F7
:1019BA00F9E43AFA12011C4480120162548F44205D
:1019CA00120162900061E0FBA3E0FAA3E0F9900043
:1019DA00267403120174900027E412017490000621
:1019EA001202AE1FFFFFFF9000121202AE1FFFFF8E
:1019FA00FF90000A1202AE0000010090000E1202CF
:101A0A00AE000007FE9000161202AE00000101901F
:101A1A00001A1202AE0000010290001E1202AE006D
:101A2A000001039000221202AE00000104E92429F9
:101A3A00F9E43AFA12011C440112016254FD12013E
:101A4A006254FB120162440812016254EF120162ED
:051A5A004420020162BE
:1025BA0090005EEBF0A3EAF0A3E9F07B017A0079E0
:0D25CA005E12196A7B017A00795E020C9F97
:1021CE0013135401900069F0E4A3F07B01A304F013
:0821DE00A37400F0A37461F08A
:1021E60090006BE0FBA3E0FAA3E0F9120233900043
:1021F60069E05401C43333335480FF90006BE0FB35
:10220600A3E0FAA3E02404F9E43AFA12011C547F8D
:102216004F120162900068E0FF90006BE0FBA3E0C4
:10222600FAA3E0F9900007EF12017490006AE090BB
:0E22360000081201747B017A00796B022153BB
:1006FB0090005EEBF0A3EAF0A3E9F0A3E0FBA3E02C
:10070B00FAA3E02404F9E43AFA12011C440812019A
:10071B0062900061E0FBA3E0FAA3E02405F9E43A60
:10072B00FA12011C54F012016290005EE0FBA3E090
:10073B00FAA3E0F990000A120203900061E0FBA318
:10074B00E0FAA3E0F912023390005EE0FBA3E0FABB
:10075B00A3E0F99000291201355401C4333333540B
:10076B0080FF900061E0FBA3E0FAA3E02404F9E42E
:10077B003AFA12011C547F4F1201627B017A007905
:10078B0061122153900061E0FBA3E0FAA3E0240582
:10079B00F9E43AFA12011C54F0440712016290007A
:1007AB0061E0FBA3E0FAA3E0F990000674FE1201EE
:1007BB0074E92406F9E43AFAC003C002C0019000C0
:1007CB005EE0FBA3E0FAA3E0F990000A12020390AB
:1007DB0000721202719000291201355401900076BB
:1007EB00F0D001D002D0037D03121F9390005EE086
:1007FB00FBA3E0FAA3E0F990000A120203E49000D5
:10080B0068F09000291201355401900069F0120133
:10081B001C90006AF0A374011221DD90005EE0FBD6
:10082B00A3E0FAA3E0F990000A120203C0079000BC
:10083B00687401F09000291201355401900069F0A1
:10084B00900028120135C4131313540190006AF061
:10085B00A37401F0A37400F0A37461F0D00712210C
:10086B00E690005EE0FBA3E0FAA3E0F990000A1229
:10087B000203C0079000687404F090002912013540
:10088B005401900069F0900028120135C454079070
:10089B00006AF0A37401F0A37400F0A37461F0D0AC
:1008AB00071221E690005EE0FBA3E0FAA3E0F990CB
:1008BB00000A1202039000687405F09000291201DF
:1008CB00355401900069F090002612013590006AB2
:1008DB00F0A374011221DD90005EE0FBA3E0FAA30C
:1008EB00E0F990000A1202039000687406F0900081
:1008FB00291201355401900069F09000271201353F
:10090B0090006AF0A374011221DD90005EE0FBA35E
:10091B00E0FAA3E0F990000E12020390006874074E
:10092B00F09000291201351221D090005EE0FBA35C
:10093B00E0FAA3E0F9900016120203900068740825
:10094B00F0900029120135C31221CF90005EE0FB1D
:10095B00A3E0FAA3E0F990001A1202039000687466
:10096B0009F09000291201351221CE90005EE0FBB8
:10097B00A3E0FAA3E0F990001E1202039000687442
:10098B000AF0900029120135131221CE90005EE07F
:10099B00FBA3E0FAA3E0F990002212020390006897
:1009AB00740BF0900029120135C41221D090005E17
:1009BB00E0FBA3E0FAA3E0F99000221202039000FF
:1009CB0068740CF0900029120135C41221CF9000ED
:1009DB005EE0FBA3E0FAA3E0F9900006120203909D
:1009EB000068740DF0E4A3F01221D790005EE0FBD9
:1009FB00A3E0FAA3E0F990001212020390006874CE
:100A0B000EF0E4A3F0A3F07B01A304F0A37400F0B9
:070A1B00A37461F00221E663
:1020D50090000012027D00000101E4900004F0A3CD
:1020E5007408F078087C007D017BFF7A1479807E86
:1020F50000FF1200F612259B1226269000B9E02457
:10210500FE6013146022146040240370EE7B017A94
:102115000079341225BA7B017A007934120A227BC0
:10212500017A007934120EBF9000617401F0A37436
:1021350000F0A37418F07B017A0079341206FB12C3
:0E21450010D2E49000B9F080B2121C4880ADB8
:10257C00D3EF9400EE94004015E4FDFC0DBD00017A
:0E258C000CED64644C70F5EF1F70E51E80E2EC
:01259A00221E
:10255B00E4FFC295FEEEC39408748094805011D2B0
:10256B0095EF25E0FFA293E4334FFFC2950E80E574
:01257B00223D
:10253200E4FEEEC3940874809480501AC295A806F3
:10254200EF088002C333D8FC30E704D2948002C281
:0825520094D2950E80DCC295C5
:01255A00225E
:1024DB00900083E0FCA3E0FDA3E0FEA3E0FF12016C
:0824EB00BD900082AD07E0FF87
:1024F300AC07C2927F02122532AF04122532AF0518
:06250300122532D29222E3
:0225EC00AD0739
:1025EE00C2927F03122532AF0512253212255BD21D
:0125FE00924A
:0125FF0022B9
:0A261C00C2927FC0122532D2922232
:101A5F00900082EFF0E47FFF7E07FDFCA3E0F8A388
:101A6F00E0F9A3E0FAA3E0FBD31201AC500620008B
:101A7F0003021B1E78151224DBE004FFC007A3E04E
:101A8F00FCA3E0FDA3E0FEA3E0FF78121201BDEF7F
:101A9F005407FFE4FEFDFC78051201D0C004C00519
:101AAF00C006C007900083E0FCA3E0FDA3E0FEA307
:101ABF00E0FF78101201BDEF5403FFD003D002D026
:101ACF0001D000EB4FFFEAFEE8FCEF4408FFAD0743
:101ADF00D0071224F3900082E02402FFC007A3E096
:101AEF00FCA3E0FDA3E0FEA3E0FF78081201BDAD6B
:101AFF0007D0071224F3900082E02403FFC007A34E
:101B0F00E0FCA3A3E0FEA3E0FFAD07D0078032788F
:101B1F00031224DBE004FFC007A3A3A3A3E0540731
:101B2F00FFE4FEFDFC78051201D0AD07D0071224AB
:101B3F00F3900082E02402FFE4FD1224F3E024037B
:051B4F00FF1224F32247
:100EBF0090005EEBF0A3EAF0A3E9F012261C7F018D
:100ECF007E0012257C90005EE0FBA3E0FAA3E0F920
:100EDF00900001120135FF9000051201354FFD7F83
:100EEF002A1224F390005EE0FBA3E0FAA3E0F9904E
:100EFF0000031201354480FF9000021201354FFDAF
:100F0F007F291224F390005EE0FBA3E0FAA3E0F93F
:100F1F009000041201354480FD7F281224F39000C5
:100F2F005EE0FBA3E0FAA3E0F9900028120135C4BC
:100F3F00131313540125E025E0FD7F601224F37D88
:100F4F00607F701224F390005EE0FBA3E0FAA3E051
:100F5F00F9900027120135FD7F2C1224F390005ECB
:100F6F00E0FBA3E0FAA3E0F9900026120135FD7F24
:100F7F002B1224F390005EE0FBA3E0FAA3E0F990BC
:100F8F00000A1202039000831202719000291201CD
:100F9F0035139200E4FF121A5F90005EE0FBA3E0AE
:100FAF00FAA3E0F990000E1202039000831202716F
:100FBF00900029120135C3131392007F04121A5F98
:100FCF0090005EE0FBA3E0FAA3E0F9900016120296
:100FDF0003900083120271900029120135131354EC
:100FEF003F1392007F08121A5F90005EE0FBA3E0B0
:100FFF00FAA3E0F990001A12020390008312027113
:10100F00900029120135131313541F1392007F10F0
:10101F00121A5F90005EE0FBA3E0FAA3E0F99000E4
:10102F001E120203900083120271900029120135E3
:10103F00C4540F1392007F14121A5F90005EE0FBEE
:10104F00A3E0FAA3E0F990002212020390008312AA
:10105F000271900029120135C41354071392007FB7
:10106F0018121A5F90005EE0FBA3E0FAA3E0F9907C
:10107F000006120203900083120271D2007F201229
:10108F001A5F90005EE0FBA3E0FAA3E0F990001274
:10109F00120203900083120271D2007F24121A5F92
:1010AF007D447F0F1224F37F0E1225ECEF7E00603C
:1010BF00047F0180027F00EF4E60077D447F0F1297
:0310CF0024F322E5
:06186B00900076120271EC
:101871007F301225EC900081EFF054087008900041
:101881007F7430F080267F401225EC900081EFF0CC
:101891005408700890007F7440F080107F5012252A
:1018A100EC900081EFF090007F7450F090007FE0A9
:1018B1002405FF90007BE0FD1224F390007FE004FB
:1018C100FFC007900076E0FCA3E0FDA3E0FEA3E0EB
:1018D100FF90008312027190007AE024FF9200D001
:1018E10007121A5FE4900080F090007BE0FF900007
:1018F10080E0FED39F5033EE940874809480502A88
:1019010090007FE02406FFA3E02FFF90007CE0FB26
:10191100A3E0FAA3E0F98E82758300120135FD126E
:1019210024F3900080E004F080BFC29290007FE039
:10193100FF900081E04408FD1224F3D292E490006C
:1019410080F0900080E0C3940E74809480501990D0
:10195100007FE0FF1225ECEF30E30D7F647E001283
:08196100257CA3E004F080DA0C
:01196900225B
:0E2371009000AFEFF0A3EBF0A3EAF0A3E9F0C9
:10237F00E4FCECC3940E74809480501E9000AFE088
:10238F002CFF1225ECA3E0FBA3E0FAA3E0F98C826B
:10239F00758300EF1201740C80D89000AFE0FB7AC8
:1023AF0000646070028006EB64704A7006FD7F2C3B
:0323BF001224F3F2
:0123C20022F8
:101EDA00900069EBF0A3EAF0A3E9F0A3EDF0240285
:101EEA00FFE433FE900069E0FBA3E0FAA3E0F98F78
:101EFA00828E831201357E007810C333CE33CED85A
:101F0A00F9FFEE3395E0FDFCC004C005C006C0072A
:101F1A0090006CE02401FFE433FE900069E0FBA32B
:101F2A00E0FAA3E0F98F828E831201357E007818D9
:101F3A00C333CE33CED8F9FFEE3395E0FDFCD003A0
:101F4A00D002D001D000EF4BFFEE4AFEED49FDEC86
:101F5A0048FCC004C005C006C00790006CE024031A
:101F6A00FFE433FE900069E0FBA3E0FAA3E0F98FF7
:101F7A00828E83120135FFD003D002D001D000EB4C
:091F8A004FFFEAFEE9FDE8FC222C
:101F930090006EEBF0A3EAF0A3E9F0A3EDF090005C
:101FA30076E075F080A4FFAEF0EE3395E0FDFCC063
:101FB30004C005C006C007900072E0FCA3E0FDA3C7
:101FC300E0FEA3E0FF78181201BDD003D002D001D8
:101FD300D000EF4BFF90006EE0FBA3E0FAA3E0F923
:101FE300A3E0F582758300EF120174900072E0FCA8
:101FF300A3E0FDA3E0FEA3E0FF78101201BD900073
:1020030071E0F582758300A3EF120174900072E012
:10201300FCA3E0FDA3E0FEA3E0FF78081201BD905E
:102023000071E0F582758300A3A3EF1201749000A1
:1020330072A3A3A3E0FF900071E0F582758300A370
:06204300A3A3EF020174EB
:051B540090006EEFF0AF
:101B590004FF1225ECA3EFF090006EE0FF1225ECD4
:101B6900E4FCFDFE78031201D0A804A905AA06AB7E
:101B790007A3E0C4135407FFEB4FFFEAFEE9FDE8B2
:101B8900FCA312027190006EE02402FF1225ECE41E
:101B9900FCFDFE78081201D0C004C005C006C007CC
:101BA900A3E05403FFE4FCFDFE78101201D0D0033A
:101BB900D002D001D000EF4BFFEE4AFEED49FDEC1B
:101BC90048FCC004C005C006C00790006EE02403AD
:101BD900FF1225ECD003D002D001D000EB4FFFEA71
:101BE900FEE9FDE8FC900074120271900074E0FCBB
:101BF900A3E0FDA3E0FEA3E0FFEC4D4E4F7007907C
:101C0900006FE030E32A900070E0FCA3E0FDA3E060
:101C1900FEA3E0FF78121201D0A3E0F8A3E0F9A334
:101C2900E0FAA3E04FFFEA4EFEE94DFDE84CFC2245
:0E1C3900900070E0FCA3E0FDA3E0FEA3E0FF3E
:011C4700227A
:101747009000A9EFF0E47FFF7E07FDFCA3E0F8A37C
:10175700E0F9A3E0FAA3E0FBD31201AC5009900033
:10176700AEE0700302181D9000AAE0FCA3E0FDA301
:10177700E0FEA3E0FF78151201BD9000A91224EF47
:10178700E004FFC007A3E0FCA3E0FDA3E0FEA3E0A5
:10179700FF78121201BDEF5407FFE4FEFDFC780548
:1017A7001201D0C004C005C006C0079000AAE0FC23
:1017B700A3E0FDA3E0FEA3E0FF78101201BDEF5404
:1017C70003FFD003D002D001D000EB4FFFEAFEE8C1
:1017D700FCEF4408FFAD07D0071224F39000A9E0FF
:1017E7002402FFC007A3E0FCA3E0FDA3E0FEA3E003
:1017F700FF78081201BDAD07D0071224F39000A9A6
:10180700E02403FFC007A3E0FCA3A3E0FEA3E0FFDF
:10181700AD07D007804A9000AAE0FCA3E0FDA3E053
:10182700FEA3E0FF78031201BDAD079000A9E0FF1A
:101837001224F3E004FFC007A3A3A3A3E05407FF08
:10184700E4FEFDFC78051201D0AD07D0071224F3A2
:101857009000A9E02402FFE4FD1224F3E02403FF33
:041867001224F32232
:0B1D3500900069EBF0A3EAF0A3E9F0D6
:101D4000EF75F005A424F6601F24F1602224E760FB
:101D50002524CE602B24E7603A2483604924F57063
:101D60005790006C7431803090006C74138029900F
:101D7000006C7409802290006C7404F0A304801C31
:101D800090006C7401F0A37407F0A37438F0A3748E
:101D900002803490006C7401F0A37405F0A37430D9
:101DA000F0A374018021E490006CF0A37405F0A30B
:101DB0007430F0A37401800FE490006CF0A304F081
:101DC000A37410F0A37401F0E4A3F090006CE0FFA2
:101DD000900069E0FBA3E0FAA3E0F9EF1201629042
:101DE000006DE0FF900069E0FBA3E0FAA3E0F9904A
:101DF0000001EF12017490006EE090000212017475
:101E000090006FE0900003120174900070E0900069
:041E10000402017453
:02001E00C10B14
:10259B00C2AF53890F438920759850758DFA758B8F
:0F25AB00FA438780D299D2ACD28ED29CD2AF2283
:03002300022611A1
:0B261100309803C29832C299C20B320D
:08262F008F99D20B200BFD2254
:102442009000B6EBF0A3EAF0A3E9F09000B6E0FB4F
:10245200A3E0FAA3E0F912011CFF12262F9000B6A6
:10246200E0FBA3E475F001120196A9F0FA12011C37
:0324720070D922FC
:10260000D2A0D2A100000000C2A000000000C2A120
:0126100022A7
:1025D700C2A1C2A000000000D2A100000000D2A04A
:0525E7000000000022CD
:10240C007E80EE601B5F7004C2A08002D2A0000030
:10241C000000D2A100000000C2A1EEC313FE80E2B6
:10242C00D2A000000000D2A1A2A0920000000000E7
:05243C00C2A1A200B3E3
:012441002278
:10247500D2A07E80EE601D00000000D2A120A00544
:10248500F45FFF8003EF4EFF00000000C2A1EEC322
:1024950013FE80E0D2A000000000D2A100000000E1
:0224A500C2A1D2
:0124A7002212
:1024A800D2A07E80EE601D00000000D2A120A00511
:1024B800F45FFF8003EF4EFF00000000C2A1EEC3EF
:1024C80013FE80E0C2A000000000D2A100000000BE
:0224D800C2A19F
:0124DA0022DF
:1022440090006EEBF0A3EAF0A3E9F01226007FA061
:1022540012240C40051225D780F1AF0512240C126C
:1022640026007FA112240C900072E0D394017480A4
:102274009480401F1224A890006EE0FBA3E475F044
:1022840001120196A9F0FAEF120162900072E014B3
:10229400F080D412247590006EE0FBA3E0FAA3E072
:0822A400F9EF1201620225D7D7
:10230F0090006EEBF0A3EAF0A3E9F0900072E0D337
:10231F0094007480948040491226007FA012240CF0
:10232F0040051225D780F1AF0512240C900072E002
:10233F00D3940074809480402390006EE0FBA3E45C
:10234F0075F001120196A9F0FA12011CFF12240C6C
:10235F00900072E014F00DED540770D01225D78065
:02236F00AA22A0
:102055000220D5E493A3F8E493A34003F68001F2AC
:1020650008DFF48029E493A3F85407240CC8C3338C
:10207500C4540F4420C8834004F456800146F6DF5B
:10208500E4800B0102040810204080900016E47ED5
:10209500019360BCA3FF543F30E509541FFEE49350
:1020A500A360010ECF54C025E060A840B8E493A317
:1020B500FAE493A3F8E493A3C8C582C8CAC583CA42
:1020C500F0A3C8C582C8CAC583CADFE9DEE780BEFA
:0100200000DF
:10002600E709F608DFFA8046E709F208DFFA803EBC
:1000360088828C83E709F0A3DFFA8032E309F608A9
:10004600DFFA8078E309F208DFFA807088828C8311
:10005600E309F0A3DFFA806489828A83E0A3F608C5
:10006600DFFA805889828A83E0A3F208DFFA804C9F
:1000760080D280FA80C680D4806980F28033801076
:1000860080A680EA809A80A880DA80E280CA8033DF
:1000960089828A83ECFAE493A3C8C582C8CCC58357
:1000A600CCF0A3C8C582C8CCC583CCDFE9DEE78027
:1000B6000D89828A83E493A3F608DFF9ECFAA9F0A6
:1000C600EDFB2289828A83ECFAE0A3C8C582C8CCFC
:1000D600C583CCF0A3C8C582C8CCC583CCDFEADE15
:1000E600E880DB89828A83E493A3F208DFF980CC77
:1000F60088F0EF60010E4E60C388F0ED2402B40470
:100106000050B9F582EB2402B4040050AF23234516
:06011600822390007673C5
:10011C00BB010689828A83E0225002E722BBFE02E1
:09012C00E32289828A83E4932214
:10013500BB010CE58229F582E5833AF583E022507F
:1001450006E92582F8E622BBFE06E92582F8E222C9
:0D015500E58229F582E5833AF583E49322E3
:10016200BB010689828A83F0225002F722BBFE017C
:02017200F32276
:10017400F8BB010DE58229F582E5833AF583E8F0C1
:10018400225006E92582C8F622BBFE05E92582C86D
:02019400F22255
:10019600A3F8E0C5F025F0F0E5821582700215831C
:0601A600E0C838F0E82279
:1001AC00EB9FF5F0EA9E42F0E99D42F0E89C45F0A9
:0101BC002220
:1001BD00E8600FECC313FCED13FDEE13FEEF13FF20
:0301CD00D8F12244
:1001D000E8600FEFC333FFEE33FEED33FDEC33FC8D
:0301E000D8F12231
:1001E300BB010789828A830202DE5005E9F8020215
:1001F300D2BBFE05E9F80202EA89828A830202F68B
:10020300BB010DE58229F582E5833AF5830202DE1F
:100213005007E92582F80202D2BBFE07E92582F8DE
:100223000202EAE58229F582E5833AF5830202F6C2
:10023300BB010789828A830202715005E9F8020330
:0A02430006BBFE05E9F802031222D3
:10024D00BB010DE58229F582E5833AF58302027142
:10025D005007E92582F8020306BBFE07E92582F85F
:04026D000203122254
:0C027100ECF0A3EDF0A3EEF0A3EFF02200
:10027D00A8828583F0D083D0821202941202941248
:10028D000294120294E473E493A3C583C5F0C5836D
:10029D00C8C582C8F0A3C583C5F0C583C8C582C8CB
:0102AD00222E
:1002AE00BB010DE58229F582E5833AF58302027DD5
:1002BE005007E92582F802031EBBFE07E92582F8E6
:0402CE0002033722CE
:10039600E5102464F582E43400F583E0051022902C
:1003A6000061300703900064E475F0011203500207
:1003B600011C2000E97F2ED2008018EF540F2490F4
:1003C600D43440D4FF30040BEF24BFB41A005003DA
:1003D6002461FFE511600215110514E5147002058C
:1003E6001330070E900061E475F001120350EF021E
:1003F60001620200037403D2078003E4C207F5100A
:10040600900061120367E4F511F513F514E5116028
:10041600077F201203D980F57512FFC201C200C200
:1004260002C203C205C206C2081203A5FF700D3040
:1004360007057F001203EAAF14AE1322B4255FC28C
:10044600D5C2041203A5FF24D0B40A00501A75F0D1
:100456000A781130D50508B6FF0106C6A426F6208F
:10046600D5047002D20380D924CFB41A00EF500409
:10047600C2E5D2040205EBD20180C6D20080C0D20A
:100486000280BCD2D580BAD20580B47F201203D9AF
:100496002002077401B5110040F1120396FF120302
:1004A600D9020413D208D2068095120396FB1203D2
:1004B60096FA120396F94A4B700679BC7A067BFFC8
:1004C60020022EE511602A7E008E827583001201BD
:1004D6003560060EEE651270F0C2D5EBC0E0EAC0DC
:1004E600E0E9C0E0EE120632D0E0F9D0E0FAD0E062
:1004F600FB12011CFF60AAEBC0E0EAC0E0E9C0E025
:100506001203D9D0E02401F9D0E03400FAD0E0FBA0
:10051600E5120460DCD512D980877BFF7A06792E36
:10052600D202809C791080027908C206C20880082F
:10053600D2D5790A8004790AC2D5E512047002F58B
:1005460012E4FAFDFEFF120396FC7B08200113124B
:100556000396FD7B1030000A120396FE120396FFE7
:100566007B20EC3382D592D55013C3E43000069F2E
:10057600FFE49EFEE42001039DFDE49CFCE4CBF831
:10058600C201EC700CCFCECDCCE824F8F870F38025
:1005960017C3EF33FFEE33FEED33FDEC33FCEB33E5
:1005A600FB994002FB0FD8E9EB300105F8D0E0C417
:1005B60048B201C0E00AEC4D4E4F78207B0070C275
:1005C600EAB5120040BCC0E0120634D0F0D0E020FC
:1005D6000104C4C0E0C4B201C0F01203C2D0F0D519
:1005E600F0EB02041312037004B053052A58048179
:1005F6004C047D42052E4F05364405364904964384
:08060600053C550520460520C6
:10060E004505204706DC5004852D04892E04AC2BAD
:10061E00048D2304AA2006C52A044548000004A41C
:10062E003F3F3F00790AA2D5200314300509B910C7
:10063E00020404B9080104A2D520060250010420C8
:10064E0002689202B511005034C0E07F20300319C9
:10065E007F30A20272067205500F12068BC202C2C2
:10066E0006C205C2087F30800F300503E9C0E012D4
:10067E0003D9300503D0E0F9D0E0B511CC30051721
:10068E007F30B9100C1203D97F583004077F788061
:10069E0003B908031203D93002057F2D0203D97F57
:1006AE00202008F87F2B2006F322920280CF286E9E
:1006BE00756C6C2900D2011203963001F8C20178D4
:1006CE001130D50108F60204452D50434958120346
:1006DE00962403B405004001E49006D7931203CA92
:0D06EE00743A1203CAD20375110402052AE2
:0C02D200E6FC08E6FD08E6FE08E6FF2258
:0C02DE00E0FCA3E0FDA3E0FEA3E0FF2293
:0C02EA00E2FC08E2FD08E2FE08E2FF2250
:1002F600E493FC740193FD740293FE740393FF224E
:0C030600ECF608EDF608EEF608EFF62223
:0C031200ECF208EDF208EEF208EFF22227
:10031E00D083D082E493F608740193F608740293A6
:09032E00F608740393F6740473DD
:10033700D083D082E493F208740193F20874029395
:09034700F208740393F2740473CC
:10035000F8E0FBA3A3E0F925F0F0E5821582700236
:070360001583E0FA38F022DA
:09036700EBF0A3EAF0A3E9F02297
:10037000D083D082F8E4937012740193700DA3A31C
:1003800093F8740193F5828883E473740293686030
:06039000EFA3A3A380DF30
:00000001FF
