:03000000021B23BD
:0C1B2300787FE4F6D8FD758121021B6A72
:1015010043616E2073656E64202020200043616E6C
:101511002072656365766965200049443A2025306B
:10152100376C582C2020444C433A2562782C2020DB
:10153100446174613A200049443A2025376C582CA3
:101541002020444C433A2562782C20204461746168
:101551003A2000253032625820000D0A006164648F
:101561003A202530326258204C656E3A20253032BF
:10157100625820446174613A00202530326258007B
:1015810043414E494E54453A202530326258200D90
:101591000A0043414E494E54463A202530326258A2
:1015A100200D0A0052584D3049443A202530386CFC
:1015B10058200D0A0052584D3149443A20253038FF
:1015C1006C58200D0A0053657443666746726F6D4F
:1015D10045322000646174615B305D3A2025303210
:1015E100625820256C580D0A002D20253034625890
:1015F1000D0A002B20256C580D0A0020F10303046D
:03160100050607D4
:041F9C00C10AC109AC
:0E000300900096EFF0121F94900096E0FF22FE
:091F8B00D2BAD28AD2AAD2AF2246
:03001300021E9634
:0D1E9600C0E0C0F0C083C082C0D075D0088D
:101EA3007F2C121F5CEF30E102D20AEF30E002D246
:011EB3000925
:0B1EB400D0D0D082D083D0F0D0E0323C
:0619CC007B017A00792581
:0B19D20090005CEBF0A3EAF0A3E9F04A
:1019DD00120AC0900060120B4E900004120A12FF02
:1019ED001313135401900064F0EFC4540FA3F0903F
:1019FD000004120A12FF1313543F7BFF30E0067AE6
:101A0D0015790180047A15790E120CDE900064E0D0
:101A1D007BFF60067A15791B80047A157938900062
:101A2D0060E0FCA3E0FDA3E0FEA3E0FF90007112D7
:101A3D000B4E900065E0900075F0120CDEE4900006
:101A4D005FF0900065E0FF90005FE0FEC39F5030B7
:101A5D0090005CE0FBA3E0FAA3E02405F9E43AFA78
:101A6D00EE7E0029F9EE3AFA1209F9900071F07B39
:101A7D00FF7A157954120CDE90005FE004F080C2FD
:091A8D007BFF7A15795B020CDE87
:0B1BAF0090005CEBF0A3EAF0A3E9F06B
:101BBA0090005CE0FBA3E0FAA3E0F9120AC09000EF
:101BCA005F120B4E900004120A12FF1313135401F2
:101BDA00900063F0FBEFC4540FFA90005FE0FCA39F
:101BEA00E0FDA3E0FEA3E0FF900068EBF0AB02A3E8
:101BFA00EBF090005CE0FBA3E0FAA3E02405F9E433
:101C0A003AFA90006AEBF0A3EAF0A3E9F0021604AC
:0611EB007B017A0079256A
:1011F10090005DEBF0A3EAF0A3E9F090005CEFF062
:10120100121F5C900061EFF090005CE004FF121F80
:101211005C900062EFF090005CE02402FF121F5C22
:10122100900063EFF090005CE02403FF121F5C90DC
:101231000064EFF090005CE02404FF121F5C90005A
:1012410065EFF090005CE02405FF121F5C900063E5
:10125100E05408131313540133333354F8FE900050
:101261005DE0FBA3E0FAA3E02404F9E43AFA1209F1
:10127100F954F74EFE120A3FEF540FC454F0FFEE3B
:10128100540F4F120A3F90005DE0FBA3E0FAA3E088
:0F129100F9900004120A12131313541F30E0785F
:1012A000900062E075F008A4FFAEF0A3E0FBC41369
:1012B0005407FDEF4DFFEE3395E0FDFC9000661204
:1012C0000B4EEB54037E007810C333CE33CED8F9E7
:1012D000FDAC06900064E04CFEEDFFA3E0FDEF4D99
:1012E000FFEE3395E0FDFC90006A120B4E90006615
:1012F000E0FCA3E0FDA3E0FEA3E0FF7812120AAD3C
:10130000A3E0F8A3E0F9A3E0FAA3E04FFFEA4EFE62
:06131000E94DFDE84CFC74
:02131600802F26
:10131800900062E075F008A4FFAEF0A3E0C4135497
:1013280007FDEF4DFFEE3395E0FDFC900066120BD4
:101338004E900066E0FCA3E0FDA3E0FEA3E0FF9072
:0D134800005DE0FBA3E0FAA3E0F9120B103A
:10135500E4900060F090005DE0FBA3E0FAA3E0F903
:10136500900004120A12C4540FFF900060E0FEC3FF
:101375009F503290005CE02406FFEE2FFF121F5CA9
:1013850090005DE0FBA3E0FAA3E02405F9E43AFA56
:10139500A3E07C0029F9EC3AFAEF120A3F900060CD
:0513A500E004F080B03F
:0113AA002220
:0B18ED00900068EBF0A3EAF0A3E9F024
:1018F800EF75F005A424F6601F24F1602224E76048
:101908002524CE602B24E7603A2483604924F570AF
:101918005790006B7431803090006B74138029905D
:10192800006B7409802290006B7404F0A304801C7F
:1019380090006B7401F0A37407F0A37438F0A374DB
:1019480002803490006B7401F0A37405F0A3743026
:10195800F0A374018021E490006BF0A37405F0A358
:101968007430F0A37401800FE490006BF0A304F0CE
:10197800A37410F0A37401F0E4A3F090006BE0FFEF
:10198800900068E0FBA3E0FAA3E0F9EF120A3F90A9
:10199800006CE0FF900068E0FBA3E0FAA3E0F99098
:1019A8000001EF120A5190006DE0900002120A51F6
:1019B80090006EE0900003120A5190006FE09000D2
:0419C80004020A51BA
:0B1C8200900068EBF0A3EAF0A3E9F08B
:101C8D007BFF7A15795E900071EDF090006CE0901D
:101C9D000072F0120CDEE490006DF090006CE0FF2D
:101CAD00A3E0FEC39F5028900068E0FBA3E0FAA3D9
:101CBD00E0F98E82758300120A12900071F07BFF9D
:101CCD007A15797A120CDE90006DE004F080CC7BF1
:081CDD00FF7A15795B020CDEB1
:0B04EB0090005CEBF0A3EAF0A3E9F046
:1004F60090005CE0FBA3E0FAA3E0F91209F9900092
:100506005FF0900028120A12FFC4131313540190CF
:100516000060F0EF5403A3F0900028120A12FF13B4
:10052600135403900062F0EFC45407A3F090002622
:10053600120A12900064F0900027120A12900065C9
:10054600F07B017A00795F90006B7407F0E4FD128E
:100556001CE590005CE0FBA3E0FAA3E0F99000063E
:10056600120AE07818120A9A90005FEFF0900006DF
:10057600120AE07810120A9A900060EFF0900006D6
:10058600120AE07808120A9A900061EFF0900006CD
:10059600120AE0900062EFF0900006120AE0781866
:1005A600120A9A900063EFF0900006120AE07810A3
:1005B600120A9A900064EFF0900006120AE078089A
:1005C600120A9A900065EFF0900006120AE0E49095
:1005D6000066EFF07B017A00795F90006B7408F09B
:1005E600FD121CE590005CE0FBA3E0FAA3E0F990A5
:1005F6000029120A12540175F080A4FFAEF0EE3302
:1006060095E0FDFCC004C005C006C00790005CA3D1
:10061600A3E090000A120AE07818120A9AD003D0D2
:1006260002D001D000EF4BFF90005FEFF090005C2E
:10063600E0FBA3E0FAA3E0F990000A120AE07810C2
:10064600120A9A900060EFF090000A120AE0780809
:10065600120A9A900061EFF090000A120AE09000E8
:1006660062EFF0900029120A12C313540175F0804C
:10067600A4FFAEF0EE3395E0FDFCC004C005C00655
:10068600C00790005CA3A3E090000E120AE0781861
:10069600120A9AD003D002D001D000EF4BFF90008F
:1006A60063EFF090005CE0FBA3E0FAA3E0F99000B2
:1006B6000E120AE07810120A9A900064EFF0900089
:1006C6000E120AE07808120A9A900065EFF0900080
:1006D6000E120AE0E4900066EFF07B017A00795F83
:1006E60090006B7408F07D10121CE590005CE0FB36
:1006F600A3E0FAA3E0F9900029120A121313540199
:1007060075F080A4FFAEF0EE3395E0FDFCC004C0AA
:1007160005C006C00790005CA3A3E0900016120A6D
:10072600E07818120A9AD003D002D001D000EF4B1D
:10073600FF90005FEFF090005CE0FBA3E0FAA3E01F
:10074600F9900016120AE07810120A9A900060EFEB
:10075600F0900016120AE07808120A9A900061EFEB
:10076600F0900016120AE0900062EFF09000291255
:100776000A12131313540175F080A4FFAEF0EE3382
:1007860095E0FDFCC004C005C006C00790005CA350
:10079600A3E090001A120AE07818120A9AD003D041
:1007A60002D001D000EF4BFF900063EFF090005CA9
:1007B600E0FBA3E0FAA3E0F990001A120AE0781031
:1007C600120A9A900064EFF090001A120AE0780874
:1007D600120A9A900065EFF090001A120AE0E4906F
:1007E6000066EFF07B017A00795F90006B7408F089
:1007F6007D18121CE590005CE0FBA3E0FAA3E0F98B
:10080600900029120A12C4540175F080A4FFAEF0BC
:10081600EE3395E0FDFCC004C005C006C00790009D
:100826005CA3A3E090001E120AE07818120A9AD080
:1008360003D002D001D000EF4BFF90005FEFF090A5
:10084600005CE0FBA3E0FAA3E0F990001E120AE0C8
:100856007810120A9A900060EFF090001E120AE0DB
:100866007808120A9A900061EFF090001E120AE0D2
:10087600900062EFF0900029120A12C41354017519
:10088600F080A4FFAEF0EE3395E0FDFCC004C00599
:10089600C006C00790005CA3A3E0900022120AE005
:1008A6007818120A9AD003D002D001D000EF4BFF7D
:1008B600900063EFF090005CE0FBA3E0FAA3E0F9A0
:1008C600900022120AE07810120A9A900064EFF063
:1008D600900022120AE07808120A9A900065EFF05A
:1008E600900022120AE0E4900066EFF07B017A00A5
:0D08F600795F90006B7408F07D20021CE516
:061A96007B017A007932A9
:101A9C0090005CEBF0A3EAF0A3E9F090005CE0FBB3
:101AAC00A3E0FAA3E0F9900026120A12900071F05C
:101ABC007BFF7A157981120CDE90005CE0FBA3E0D1
:101ACC00FAA3E0F9900027120A12900071F07BFF44
:101ADC007A157993120CDE90005CE0FBA3E0FAA37C
:101AEC00E0F9900006120AE0900071120B4E7BFF99
:101AFC007A1579A5120CDE90005CE0FBA3E0FAA34A
:101B0C00E0F9900012120AE0900071120B4E7BFF6C
:071B1C007A1579B6020CDE18
:0B00260090005CEBF0A3EAF0A3E9F00F
:10003100E4A3F090005FE0FFC394057480948050C6
:100041003E7B017A007960EF75F008A4FD90006CA9
:100051007408F0121C1A7BFF7A1579C7120CDE7B2B
:10006100017A00796090005FE075F008A4FD9000CE
:100071006C7408F0121C8290005FE004F080B47B85
:10008100017A00796090006C7408F0E4FD121C1A8A
:10009100900060E0FF90005CE0FBA3E0FAA3E0F9D0
:1000A100EF120A3F90005CE0FBA3E0FAA3E0F91233
:1000B10009F9FFE92401F9E43AFA1218ED90006117
:1000C100E05401C43333335480FF90005CE0FBA360
:1000D100E0FAA3E02428F9E43AFA1209F9547F4F2F
:1000E100120A3F900064E05407C454F0FF1209F96A
:1000F100548F4F120A3F900065E0FF90005CE0FBD7
:10010100A3E0FAA3E0F9900026EF120A51900066ED
:10011100E0900027120A517B017A00796090006C0F
:100121007408F0FD121C1A900061E07E007810C383
:1001310033CE33CED8F9FDAC06900060E07E007876
:1001410018C333CE33CED8F9FFEE4CFCEF4DFD9002
:100151000062E04CFEEDFFA3E0FDEF4DFFEE3395B5
:10016100E0FDFC90005CE0FBA3E0FAA3E0F9900065
:1001710006120B2A900065E07E007810C333CE335F
:10018100CED8F9FDAC06900064E07E007818C33348
:10019100CE33CED8F9FFEE4CFCEF4DFD900066E07A
:1001A1004CFEEDFFA3E0FDEF4DFFEE3395E0FDFCCE
:1001B100900012120B2A7BFF7A1579D5900060E02E
:1001C100FF900071F0C454F04410A3F0120CDE90C3
:1001D100005CE0FBA3E0FAA3E0F9900006120AE05C
:1001E10074FFFBFAF9F8C3120A89700E7A1579EADD
:1001F100900064E0900071F0801D90005CE0FBA332
:10020100E0FAA3E0F9900006120AE0900071120BE7
:100211004E7BFF7A1579F4120CDE7B017A0079604E
:1002210090006C7408F07D10121C1A900060E0FFC1
:10023100C41313135401FE90005CE0FBA3E0FAA386
:10024100E02429F9E43AFA1209F954FE4E120A3F60
:10025100EF547F7E007818C333CE33CED8F9FDAC8E
:1002610006900061E07E007810C333CE33CED8F91A
:10027100FFEC4EFCED4FFD900062E04CFEEDFFA364
:10028100E0FDEF4DFFEE3395E0FDFC90005CE0FBFF
:10029100A3E0FAA3E0F990000A120B2A900064E0AF
:1002A100FFC4131313540125E0FEE92429F9E43AAC
:1002B100FA1209F954FD4E120A3FEF547F7E00787D
:1002C10018C333CE33CED8F9FDAC06900065E07E7D
:1002D100007810C333CE33CED8F9FFEC4EFCED4F8E
:1002E100FD900066E04CFEEDFFA3E0FDEF4DFFEE5B
:1002F1003395E0FDFC90005CE0FBA3E0FAA3E0F99C
:1003010090000E120B2A7B017A00796090006C74C8
:1003110008F07D18121C1A900060E0FFC41313133B
:10032100540125E025E0FE90005CE0FBA3E0FAA388
:10033100E02429F9E43AFA1209F954FB4E120A3F72
:10034100EF547F7E007818C333CE33CED8F9FDAC9D
:1003510006900061E07E007810C333CE33CED8F929
:10036100FFEC4EFCED4FFD900062E04CFEEDFFA373
:10037100E0FDEF4DFFEE3395E0FDFC90005CE0FB0E
:10038100A3E0FAA3E0F9900016120B2A900064E0B2
:10039100FFC4131313540133333354F8FEE92429F2
:1003A100F9E43AFA1209F954F74E120A3FEF547F71
:1003B1007E007818C333CE33CED8F9FDAC06900059
:1003C10065E07E007810C333CE33CED8F9FFEC4E12
:1003D100FCED4FFD900066E04CFEEDFFA3E0FDEF6C
:1003E1004DFFEE3395E0FDFC90005CE0FBA3E0FAED
:1003F100A3E0F990001A120B2A7B017A0079609030
:10040100006C7408F07D20121C1A900060E0FFC49B
:100411001313135401C454F0FE90005CE0FBA3E0FD
:10042100FAA3E02429F9E43AFA1209F954EF4E1239
:100431000A3FEF547F7E007818C333CE33CED8F90C
:10044100FDAC06900061E07E007810C333CE33CE60
:10045100D8F9FFEC4EFCED4FFD900062E04CFEED53
:10046100FFA3E0FDEF4DFFEE3395E0FDFC90005C56
:10047100E0FBA3E0FAA3E0F990001E120B2A900022
:1004810064E0FFC41313135401C43354E0FEE924A0
:1004910029F9E43AFA1209F954DF4E120A3FEF54EE
:1004A1007F7E007818C333CE33CED8F9FDAC0690E9
:1004B1000065E07E007810C333CE33CED8F9FFEC6F
:1004C1004EFCED4FFD900066E04CFEEDFFA3E0FD1C
:1004D100EF4DFFEE3395E0FDFC90005CE0FBA3E007
:0A04E100FAA3E0F9900022020B2AB2
:1017030090005CEBF0A3EAF0A3E9F090005CE0FB4F
:10171300A3E0FAA3E0F97414120A3F90005CE0FB23
:10172300A3E0FAA3E0F99000017401120A519000BA
:10173300027407120A519000037438120A51900080
:10174300047402120A51900005E4120A51E9242894
:10175300F9E43AFA1209F94480120A3F548F4430EB
:10176300120A3F90005CE0FBA3E0FAA3E0F99000CB
:10177300267403120A51900027E4120A51900006BE
:10178300120B8B1FFFFFFF900012120B8B1FFFFF2B
:10179300FF90000A120B8B0000010090000E120B49
:1017A3008B000007FE900016120B8B0000010190C6
:1017B300001A120B8B0000010290001E120B8B000B
:1017C300000103900022120B8B00000104E924297D
:1017D300F9E43AFA1209F94401120A3F54FD120AD4
:1017E3003F54FB120A3F4408120A3F54EF120A3FC8
:0517F3004420020A3F42
:1013AB00900000120B5A00000101E4900004F0A31E
:1013BB007408F078087C007D017BFF7A1579FC7E40
:1013CB0000FF1209D3121F28121F8B7B017A0079A1
:1013DB0032121703121A967B017A0079321204EB40
:1013EB007B017A007932120026121A967B017A0061
:1013FB007932120FD890001CE04404F0900000E00A
:10140B00FCA3E0FDA3E0FEA3E0FF900018120B4E3F
:10141B0090001CE054FC4402F054F7F0540F44804D
:10142B00F0E4900006F0900006E0C39408748094FA
:10143B00805021E0FF2408F582E43400F583E0FEC0
:10144B00741D2FF582E43400F583EEF0900006E076
:10145B0004F080D2900029E054FBF0E4900006F0F9
:10146B00900006E0C394027480948040030214F849
:10147B007B017A007918121BAF7B017A0079181265
:10148B0019D2900018120B5A0000010090001CE0BA
:10149B0054FC4402F04408F0540F4470F07FB87EC3
:1014AB000B121F097F2C121F5C900007EFF030E02E
:1014BB00167F601211EB1219CC7F2C121F5CEF54AC
:1014CB00FEFD7F2C121E80900007E030E1167F702E
:1014DB001211EB1219CC7F2C121F5CEF54FDFD7F08
:1014EB002C121E80900006E004F002146B7FD07E5D
:0614FB0007121F0980FE2C
:101F0900D3EF9400EE94004015E4FDFC0DBD0001F3
:0E1F19000CED64644C70F5EF1F70E51E80E265
:011F27002297
:101EE800E4FFC295FEEEC39408748094805011D22A
:101EF80095EF25E0FFA293E4334FFFC2950E80E5EE
:011F080022B6
:101EBF00E4FEEEC3940874809480501AC295A8066D
:101ECF00EF088002C333D8FC30E704D2948002C2FB
:081EDF0094D2950E80DCC2953F
:011EE70022D8
:101E6800900071E0FCA3E0FDA3E0FEA3E0FF120AEE
:081E78009AAD07900070E0FF35
:101E8000AC07C2927F02121EBFAF04121EBFAF0585
:061E9000121EBFD29222D7
:021F5C00AD07CF
:101F5E00C2927F03121EBFAF05121EBF121EE8D221
:011F6E0092E0
:011F6F00224F
:0A1F8100C2927FC0121EBFD292224E
:1017F800900070EFF0E47FFF7E07FDFCA3E0F8A304
:10180800E0F9A3E0FAA3E0FBD3120A89500620000E
:10181800030218B77815121E68E004FFC007A3E09A
:10182800FCA3E0FDA3E0FEA3E0FF7812120A9AEF02
:101838005407FFE4FEFDFC7805120AADC004C0059C
:10184800C006C007900071E0FCA3E0FDA3E0FEA382
:10185800E0FF7810120A9AEF5403FFD003D002D0A9
:1018680001D000EB4FFFEAFEE8FCEF4408FFAD07AC
:10187800D007121E80900070E02402FFC007A3E08A
:10188800FCA3E0FDA3E0FEA3E0FF7808120A9AADEE
:1018980007D007121E80900070E02403FFC007A342
:1018A800E0FCA3A3E0FEA3E0FFAD07D007803278F9
:1018B80003121E68E004FFC007A3A3A3A3E0540714
:1018C800FFE4FEFDFC7805120AADAD07D007121E35
:1018D80080900070E02402FFE4FD121E80E02403E3
:0518E800FF121E80222A
:100FD80090005CEBF0A3EAF0A3E9F0121F817F0117
:100FE8007E00121F0990005CE0FBA3E0FAA3E0F981
:100FF800900001120A12FF900005120A124FFD7F9D
:101008002A121E8090005CE0FBA3E0FAA3E0F990AE
:101018000003120A124480FF900002120A124FFDC8
:101028007F29121E8090005CE0FBA3E0FAA3E0F9A0
:10103800900004120A124480FD7F28121E8090003E
:101048005CE0FBA3E0FAA3E0F9900028120A12C4BE
:10105800131313540125E025E0FD7F60121E807DE7
:10106800607F70121E8090005CE0FBA3E0FAA3E0B2
:10107800F9900027120A12FD7F2C121E8090005C46
:10108800E0FBA3E0FAA3E0F9900026120A12FD7F24
:101098002B121E8090005CE0FBA3E0FAA3E0F9901D
:1010A800000A120AE0900071120B4E900029120AF1
:1010B80012139200E4FF1217F890005CE0FBA3E023
:1010C800FAA3E0F990000E120AE0900071120B4E9C
:1010D800900029120A12C3131392007F041217F802
:1010E80090005CE0FBA3E0FAA3E0F9900016120A76
:1010F800E0900071120B4E900029120A121313543B
:101108003F1392007F081217F890005CE0FBA3E001
:10111800FAA3E0F990001A120AE0900071120B4E3F
:10112800900029120A12131313541F1392007F10F0
:101138001217F890005CE0FBA3E0FAA3E0F9900036
:101148001E120AE0900071120B4E900029120A122A
:10115800C4540F1392007F141217F890005CE0FB40
:10116800A3E0FAA3E0F9900022120AE090007112BD
:101178000B4E900029120A12C41354071392007FD1
:10118800181217F890005CE0FBA3E0FAA3E0F990CE
:101198000006120AE0900071120B4ED2007F201256
:1011A80017F890005CE0FBA3E0FAA3E0F9900012C6
:1011B800120AE0900071120B4ED2007F241217F829
:1011C8007D447F0F121E807F0E121F5CEF7E006031
:1011D800047F0180027F00EF4E60077D447F0F127D
:0311E8001E802244
:06160400900064120B4E81
:10160A007F30121F5C90006FEFF054087008900052
:10161A006D7430F080267F40121F5C90006FEFF0EF
:10162A005408700890006D7440F080107F50121FAB
:10163A005C90006FEFF090006D7450F090006DE0D8
:10164A002405FF900069E0FD121E8090006DE00401
:10165A00FFC007900064E0FCA3E0FDA3E0FEA3E066
:10166A00FF900071120B4E900068E024FF9200D0A8
:10167A00071217F8E490006EF0900069E0FF9000FE
:10168A006EE0FED39F5033EE940874809480502A03
:10169A0090006DE02406FFA3E02FFF90006AE0FBB4
:1016AA00A3E0FAA3E0F98E82758300120A12FD12F2
:1016BA001E8090006EE004F080BFC29290006DE040
:1016CA00FF90006FE04408FD121E80D292E4900061
:1016DA006EF090006EE0C3940E748094805019905E
:1016EA00006DE0FF121F5CEF30E30D7F647E001295
:0816FA001F09A3E004F080DAEF
:0117020022C4
:0E1D4700900097EFF0A3EBF0A3EAF0A3E9F011
:101D5500E4FCECC3940E74809480501E900097E0D0
:101D65002CFF121F5CA3E0FBA3E0FAA3E0F98C8231
:101D7500758300EF120A510C80D8900097E0FB7A2A
:101D850000646070028006EB64704A7006FD7F2C6B
:031D9500121E809B
:011D98002228
:021FA000C10B73
:101F2800C2AF53890F438920759850758DFA758B08
:0F1F3800FA438780D299D2ACD28ED29CD2AF22FC
:03002300020016C2
:0B001600309803C29832C299C20B322E
:081F94008F99D20B200BFD22F6
:101DCF0090009BEBF0A3EAF0A3E9F090009BE0FBFF
:101DDF00A3E0FAA3E0F91209F9FF121F9490009BF8
:101DEF00E0FBA3E475F001120A73A9F0FA1209F9E6
:031DFF0070D92276
:101F7000D2A0D2A100000000C2A000000000C2A1B7
:011F8000223E
:101F4700C2A1C2A000000000D2A100000000D2A0E0
:051F5700000000002263
:101D99007E80EE601B5F7004C2A08002D2A00000AA
:101DA9000000D2A100000000C2A1EEC313FE80E230
:101DB900D2A000000000D2A1A2A092000000000061
:051DC900C2A1A200B35D
:011DCE0022F2
:101E0200D2A07E80EE601D00000000D2A120A005BD
:101E1200F45FFF8003EF4EFF00000000C2A1EEC39B
:101E220013FE80E0D2A000000000D2A1000000005A
:021E3200C2A14B
:011E3400228B
:101E3500D2A07E80EE601D00000000D2A120A0058A
:101E4500F45FFF8003EF4EFF00000000C2A1EEC368
:101E550013FE80E0C2A000000000D2A10000000037
:021E6500C2A118
:011E67002258
:101C1A00900068EBF0A3EAF0A3E9F0121F707FA02E
:101C2A00121D994005121F4780F1AF05121D991226
:101C3A001F707FA1121D9990006CE0D394017480EB
:101C4A009480401F121E35900068E0FBA3E475F0F3
:101C5A0001120A73A9F0FAEF120A3F90006CE0141D
:101C6A00F080D4121E02900068E0FBA3E0FAA3E021
:081C7A00F9EF120A3F021F47B7
:101CE500900067EBF0A3EAF0A3E9F090006BE0D376
:101CF5009400748094804049121F707FA0121D9932
:101D05004005121F4780F1AF05121D9990006BE049
:101D1500D39400748094804023900067E0FBA3E493
:101D250075F001120A73A9F0FA1209F9FF121D994B
:101D350090006BE014F00DED540770D0121F478032
:021D4500AA22D0
:101B2F000213ABE493A3F8E493A34003F68001F20E
:101B3F0008DFF48029E493A3F85407240CC8C333B7
:101B4F00C4540F4420C8834004F456800146F6DF86
:101B5F00E4800B0102040810204080901F9CE47E5B
:101B6F00019360BCA3FF543F30E509541FFEE4937B
:101B7F00A360010ECF54C025E060A840B8E493A342
:101B8F00FAE493A3F8E493A3C8C582C8CAC583CA6D
:101B9F00F0A3C8C582C8CAC583CADFE9DEE780BE25
:011FA200003E
:10090300E709F608DFFA8046E709F208DFFA803ED6
:1009130088828C83E709F0A3DFFA8032E309F608C3
:10092300DFFA8078E309F208DFFA807088828C832B
:10093300E309F0A3DFFA806489828A83E0A3F608DF
:10094300DFFA805889828A83E0A3F208DFFA804CB9
:1009530080D280FA80C680D4806980F28033801090
:1009630080A680EA809A80A880DA80E280CA8033F9
:1009730089828A83ECFAE493A3C8C582C8CCC58371
:10098300CCF0A3C8C582C8CCC583CCDFE9DEE78041
:100993000D89828A83E493A3F608DFF9ECFAA9F0C0
:1009A300EDFB2289828A83ECFAE0A3C8C582C8CC16
:1009B300C583CCF0A3C8C582C8CCC583CCDFEADE2F
:1009C300E880DB89828A83E493A3F208DFF980CC91
:1009D30088F0EF60010E4E60C388F0ED2402B4048A
:1009E3000050B9F582EB2402B4040050AF23234531
:0609F300822390095373FA
:1009F900BB010689828A83E0225002E722BBFE02FC
:090A0900E32289828A83E493222E
:100A1200BB010CE58229F582E5833AF583E0225099
:100A220006E92582F8E622BBFE06E92582F8E222E3
:0D0A3200E58229F582E5833AF583E49322FD
:100A3F00BB010689828A83F0225002F722BBFE0196
:020A4F00F32290
:100A5100F8BB010DE58229F582E5833AF583E8F0DB
:100A6100225006E92582C8F622BBFE05E92582C887
:020A7100F2226F
:100A7300A3F8E0C5F025F0F0E58215827002158336
:060A8300E0C838F0E82293
:100A8900EB9FF5F0EA9E42F0E99D42F0E89C45F0C3
:010A9900223A
:100A9A00E8600FECC313FCED13FDEE13FEEF13FF3A
:030AAA00D8F1225E
:100AAD00E8600FEFC333FFEE33FEED33FDEC33FCA7
:030ABD00D8F1224B
:100AC000BB010789828A83020BBB5005E9F8020B40
:100AD000AFBBFE05E9F8020BC789828A83020BD3FC
:100AE000BB010DE58229F582E5833AF583020BBB54
:100AF0005007E92582F8020BAFBBFE07E92582F813
:100B0000020BC7E58229F582E5833AF583020BD310
:100B1000BB010789828A83020B4E5005E9F8020B5C
:0A0B2000E3BBFE05E9F8020BEF222B
:100B2A00BB010DE58229F582E5833AF583020B4E76
:100B3A005007E92582F8020BE3BBFE07E92582F894
:040B4A00020BEF2289
:0C0B4E00ECF0A3EDF0A3EEF0A3EFF0221A
:100B5A00A8828583F0D083D082120B71120B711296
:100B6A000B71120B71E473E493A3C583C5F0C583BB
:100B7A00C8C582C8F0A3C583C5F0C583C8C582C8E5
:010B8A002248
:100B8B00BB010DE58229F582E5833AF583020B5A09
:100B9B005007E92582F8020BFBBBFE07E92582F81B
:040BAB00020C142202
:100C7300E5102471F582E43400F583E00510229039
:100C8300006E300703900071E475F001120C2D0221
:100C930009F92000E97F2ED2008018EF540F249029
:100CA300D43440D4FF30040BEF24BFB41A005003F4
:100CB3002461FFE511600215110514E514700205A6
:100CC3001330070E90006EE475F001120C2DEF0245
:100CD3000A3F0200037403D2078003E4C207F5103E
:100CE30090006E120C44E4F511F513F514E5116050
:100CF300077F20120CB680F57512FFC201C200C235
:100D030002C203C205C206C208120C82FF700D3074
:100D130007057F00120CC7AF14AE1322B4255FC2C0
:100D2300D5C204120C82FF24D0B40A00501A75F005
:100D33000A781130D50508B6FF0106C6A426F620A9
:100D4300D5047002D20380D924CFB41A00EF500423
:100D5300C2E5D204020EC8D20180C6D20080C0D23E
:100D63000280BCD2D580BAD20580B47F20120CB6E3
:100D73002002077401B5110040F1120C73FF120C2D
:100D8300B6020CF0D208D2068095120C73FB120C3B
:100D930073FA120C73F94A4B700679997A0F7BFF39
:100DA30020022EE511602A7E008E82758300120ACE
:100DB3001260060EEE651270F0C2D5EBC0E0EAC019
:100DC300E0E9C0E0EE120F0FD0E0F9D0E0FAD0E096
:100DD300FB1209F9FF60AAEBC0E0EAC0E0E9C0E05A
:100DE300120CB6D0E02401F9D0E03400FAD0E0FBD5
:100DF300E5120460DCD512D980877BFF7A0F790B6B
:100E0300D202809C791080027908C206C208800849
:100E1300D2D5790A8004790AC2D5E512047002F5A5
:100E230012E4FAFDFEFF120C73FC7B08200113127F
:100E33000C73FD7B1030000A120C73FE120C73FF4F
:100E43007B20EC3382D592D55013C3E43000069F48
:100E5300FFE49EFEE42001039DFDE49CFCE4CBF84B
:100E6300C201EC700CCFCECDCCE824F8F870F3803F
:100E730017C3EF33FFEE33FEED33FDEC33FCEB33FF
:100E8300FB994002FB0FD8E9EB300105F8D0E0C431
:100E930048B201C0E00AEC4D4E4F78207B0070C28F
:100EA300EAB5120040BCC0E0120F11D0F0D0E02030
:100EB3000104C4C0E0C4B201C0F0120C9FD0F0D54D
:100EC300F0EB020CF0120C4D0D8D530E07580D5E16
:100ED3004C0D5A420E0B4F0E13440E13490D734320
:080EE3000E19550DFD460DFD31
:100EEB00450DFD470FB9500D622D0D662E0D892B4B
:100EFB000D6A230D87200FA22A0D224800000D81B9
:100F0B003F3F3F00790AA2D5200314300509B910E1
:100F1B00020404B9080104A2D520060250010420E2
:100F2B0002689202B511005034C0E07F20300319E3
:100F3B007F30A20272067205500F120F68C202C2F6
:100F4B0006C205C2087F30800F300503E9C0E012EE
:100F5B000CB6300503D0E0F9D0E0B511CC30051755
:100F6B007F30B9100C120CB67F583004077F788095
:100F7B0003B90803120CB63002057F2D020CB67FA5
:100F8B00202008F87F2B2006F322920280CF286EB8
:100F9B00756C6C2900D201120C733001F8C2017808
:100FAB001130D50108F6020D222D50434958120C71
:100FBB00732403B405004001E4900FB493120CA703
:0D0FCB00743A120CA7D203751104020E0730
:0C0BAF00E6FC08E6FD08E6FE08E6FF2272
:0C0BBB00E0FCA3E0FDA3E0FEA3E0FF22AD
:0C0BC700E2FC08E2FD08E2FE08E2FF226A
:100BD300E493FC740193FD740293FE740393FF2268
:0C0BE300ECF608EDF608EEF608EFF6223E
:0C0BEF00ECF208EDF208EEF208EFF22242
:100BFB00D083D082E493F608740193F608740293C1
:090C0B00F608740393F6740473F7
:100C1400D083D082E493F208740193F208740293AF
:090C2400F208740393F2740473E6
:100C2D00F8E0FBA3A3E0F925F0F0E5821582700250
:070C3D001583E0FA38F022F4
:090C4400EBF0A3EAF0A3E9F022B1
:100C4D00D083D082F8E4937012740193700DA3A336
:100C5D0093F8740193F5828883E47374029368604A
:060C6D00EFA3A3A380DF4A
:00000001FF
