:0300000002147176
:0C147100787FE4F6D8FD7581220214B8E3
:100A900043616E2073656E64202020200043616EE8
:100AA0002072656365766965200049443A202530E7
:100AB000376C582C2020444C433A2562782C202057
:100AC000446174613A200049443A2025376C582C1F
:100AD0002020444C433A2562782C202044617461E4
:100AE0003A2000253032625820000D0A00434E465D
:100AF000313A2025303262582000434E46323A20A7
:100B000025303262582000434E46333A2025303299
:100B10006258200D0A00525842304354524C3A2039
:100B20002530326258200043414E494E54463A2007
:100B30002530326258200043414E494E54453A20F8
:100B40002530326258200D0A00525846305349442D
:100B5000483A2025303262582000525846315349D5
:100B600044483A20253032625820005258463253C9
:100B70004944483A202530326258200D0A00525824
:100B80004633534944483A202530326258200052B7
:100B9000584634534944483A2025303262582000A0
:100BA00052584635534944483A202530326258203D
:100BB0000D0A0052584D30534944483A20253032EE
:100BC0006258200052584D31534944483A2025304C
:100BD000326258200043414E4354524C3A20253053
:100BE000326258200D0A0043414E5F525830494648
:100BF0005F466C6167203D20256264200D0A00433A
:100C0000414E5F52583149465F466C6167203D2036
:100C1000256264200D0A0043414E535441543A204A
:100C20002530326258200D0A0043414E494E544649
:100C30003A202530326258200D0A0031053001007B
:100C400013053001000905300100040530010001E1
:100C500007380200010530010000053001000001E5
:0B0C600010010020F10203040506074C
:1018C300C10CC10AC10BC109C110C10FC10EC10DA9
:0C0003007873EFF21218FA7873E2FF2213
:0918F100D2BAD28AD2AAD2AF22E7
:030013000216745E
:0D167400C0E0C0F0C083C082C0D075D008B7
:101681007F2C12189AEF30E702D20CEF30E602D22B
:101691000AEF30E502D20BEF30E402D209EF30E37A
:1016A10002D210EF30E202D20FEF30E102D20EEFA0
:0516B10030E002D20D43
:0B16B600D0D0D082D083D0F0D0E03242
:0613B5007BFE7A007924A2
:0A13BB00785AEBF208EAF208E9F2B2
:1013C500120528785E120592900004120490FF130E
:1013D500131354017862F2EFC4540F08F29000041D
:1013E500120490FF1313543F7BFF30E0067A0A790D
:1013F5009080047A0A799D1200887862E27BFF600A
:10140500067A0A79AA80047A0A79C7785EE2FC0826
:10141500E2FD08E2FE08E2FF78671205927863E2D2
:10142500786BF2120088E4785DF27863E2FF785D0C
:10143500E2FEC39F502D785AE2FB08E2FA08E22447
:1014450005F9E43AFAEE7E0029F9EE3AFA12047744
:101455007867F27BFF7A0A79E3120088785DE20407
:0C146500F280C77BFF7A0A79EA02008857
:0A156200785AEBF208EAF208E9F209
:10156C00785AE2FB08E2FA08E2F9120528785D12D3
:10157C000592900004120490FF1313135401786128
:10158C00F2FBEFC4540FFA785DE2FC08E2FD08E2CE
:10159C00FE08E2FF7866EBF2AB0208EBF2785AE257
:1015AC00FB08E2FA08E22405F9E43AFA7868EBF26F
:0915BC0008EAF208E9F20206B0A7
:060C6B007BFE7A007924F3
:0E0C7100785BEBF208EAF208E9F2785AEFF24B
:100C7F0012189A785FEFF2785AE204FF12189A78F6
:100C8F0060EFF2785AE22402FF12189A7861EFF2BD
:100C9F00785AE22403FF12189A7862EFF2785AE238
:100CAF002404FF12189A7863EFF2785AE22405FFB2
:100CBF0012189A7861E25408131313540133333323
:100CCF0054F8FE785BE2FB08E2FA08E22404F9E448
:100CDF003AFA12047754F74EFE1204BDEF540FC4C4
:100CEF0054F0FFEE540F4F1204BD785BE2FB08E2A5
:100CFF00FA08E2F9900004120490131313541F30F2
:020D0F00E0778B
:100D11007860E275F008A4FFAEF008E2FBC413545A
:100D210007FDEF4DFFEE3395E0FDFC78641205926F
:100D3100EB54037E007810C333CE33CED8F9FDAC2B
:100D4100067862E24CFEEDFF08E2FDEF4DFFEE3367
:100D510095E0FDFC78681205927864E2FC08E2FDFA
:100D610008E2FE08E2FF78121205157868E2FB0836
:100D7100E2F908E2FA08E2CBF8EB4FFFEA4EFEE9AE
:050D81004DFDE84CFCF3
:020D8600802CBF
:100D88007860E275F008A4FFAEF008E2C4135407D7
:100D9800FDEF4DFFEE3395E0FDFC78641205927887
:100DA80064E2FC08E2FD08E2FE08E2FF785BE2FB91
:090DB80008E2FA08E2F9120578DC
:100DC100E4785EF2785BE2FB08E2FA08E2F990006F
:100DD10004120490C4540FFF785EE2FEC39F502DAD
:100DE100785AE22406FFEE2FFF12189A785BE2FB95
:100DF10008E2FA08E22405F9E43AFA08E27C00295B
:0D0E0100F9EC3AFAEF1204BDE204F280B7FA
:010E0E0022C1
:1011CF00785AEBF208EAF208E9F2900C4FE493FF39
:1011DF00785AE2FB08E2FA08E2F9EF1204BD900C2C
:1011EF0050E493FF785AE2FB08E2FA08E2F9900024
:1011FF0001EF1204CF900C51E4939000021204CF30
:10120F00900C52E4939000031204CF900C53E4938C
:10121F009000041204CFE92405F9E43AFA12047796
:10122F0044011204BD54F144061204BD785AE2FB86
:10123F0008E2FA08E2F990002674031204CF900036
:10124F0027E41204CF9000061205B71FFFFFFF908F
:10125F0000121205B71FFFFFFF90000A1205B7001B
:10126F0000010090000E1205B7000007FE90001657
:10127F001205B70000010190001A1205B700000116
:10128F000290001E1205B700000103900022120504
:10129F00B700000104E92428F9E43AFA120477446C
:1012AF00011204BD54FD1204BD54FB1204BD4408C9
:0D12BF001204BD54EF1204BD44200204BD12
:1010C1007F2A12189A7867EFF27BFF7A0A79ED127C
:1010D10000887F2912189A7867EFF27BFF7A0A79E4
:1010E100FA1200887F2812189A7867EFF27BFF7A4C
:1010F1000B79071200887F6012189A7867EFF27BEC
:10110100FF7A0B79161200887F2C12189A7867EFF4
:10111100F27BFF7A0B79271200887F2B12189A78BD
:1011210067EFF27BFF7A0B7937120088E4FF121820
:101131009A7867EFF27BFF7A0B79491200887F0476
:1011410012189A7867EFF27BFF7A0B795A120088AE
:101151007F0812189A7867EFF27BFF7A0B796B128E
:1011610000887F1012189A7867EFF27BFF7A0B796B
:101171007E1200887F1412189A7867EFF27BFF7A4B
:101181000B798F1200887F1812189A7867EFF27B1B
:10119100FF7A0B79A01200887F2012189A7867EFE6
:1011A100F27BFF7A0B79B31200887F2412189A78A8
:1011B10067EFF27BFF7A0B79C41200887F0F121858
:0E11C1009A7867EFF27BFF7A0B79D5020088EF
:100E0F00780712059E00000101E4780BF2087408C0
:100E1F00F2780F7C007DFE7BFF7A0C79637E00FFFA
:100E2F001204517BFE7A0079311211CF121872120F
:100E3F0018F17BFE7A0079311208B47BFE7A0079C3
:100E4F000F785E7408F2E4FD1215C57BFE7A007907
:100E5F000F785E7408F2E4FD1214FD781BE244046F
:100E6F00F27807E2FC08E2FD08E2FE08E2FF7817DD
:100E7F00120592781BE254FC4402F254F7F2540F1D
:100E8F004480F2E4780DF2780DE2C39408748094F4
:100E9F00805014E2FF240FF8E2FE741C2FF8EEF2DC
:100EAF00780DE204F280E07828E254FBF2E4780D4A
:100EBF00F2780DE2C39402748094804003020F8293
:100ECF007BFE7A0079171215627BFE7A0079171272
:100EDF0013BB781712059E00000100781BE254FC2B
:100EEF004402F24408F2540F4470F27FB87E0B12A2
:100EFF0018327BFF7A0B79E7A20D92001200887BE4
:100F0F00FF7A0B79FFA20E92001200887F0E121843
:100F1F009A7867EFF27BFF7A0C79171200887F2C93
:100F2F0012189A780EEFF27BFF7A0C79297867F214
:100F3F00120088780EE230E0167F60120C6B1213ED
:100F4F00B57F2C12189AEF54FEFD7F2C12181578CE
:100F5F000EE230E1167F70120C6B1213B57F2C125C
:100F6F00189AEF54FDFD7F2C121815780DE204F23C
:0C0F7F00020EC07FD07E0712183280FEE8
:1016C100303132333435363738393A3B3C3D40419D
:1016D10042434445464748494A4B4C4D5051525369
:1016E1005455565758595A5B5C5D00010203040575
:1016F100060708090A0B10111213141516171819E9
:0A1701001A1B20212223242526278D
:07182B001218E77F017E00A7
:10183200D3EF9400EE94004015E4FDFC0DBD0001D1
:0E1842000CED64644C70F5EF1F70E51E80E243
:011850002275
:10185100E4FFC295FEEEC39408748094805011D2C7
:1018610095EF25E0FFA293E4334FFFC2950E80E58B
:011871002254
:1017D900E4FEEEC3940874809480501AC295A8065A
:1017E900EF088002C333D8FC30E704D2948002C2E8
:0817F90094D2950E80DCC2952C
:0118010022C4
:101802009000021204904480FF9000011204904F55
:03181200FD7F292E
:10181500AC07C2927F021217D9AF041217D9AF05D0
:061825001217D9D2922235
:091891007D447F0F1218157F0E33
:02189A00AD0798
:10189C00C2927F031217D9AF051217D9121851D261
:0118AC0092A9
:0118AD002218
:0A18E700C2927FC01217D9D29222DC
:100F8B00785DEFF2E47FFF7E07FDFC08E2FB08E2F1
:100F9B00F908E2FA08E2CBF8D31204F15066786252
:100FAB00E26013785DE2FFE4FD121815785DE20450
:100FBB00FF7D08021084785EE2FC08E2FD08E2FE89
:100FCB0008E2FF7803120502AD07785DE2FF121805
:100FDB0015785DE204FFC00708080808E25407FF14
:100FEB00E4FEFDFC7805120515AD07D007121815A8
:100FFB00785DE22402FFE4FD121815785DE224030C
:10100B00FF0210BD785EE2FC08E2FD08E2FE08E29A
:10101B00FF7815120502AD07785DE2FF12181578FF
:10102B005DE204FFC00708E2FC08E2FD08E2FE08EF
:10103B00E2FF7812120502EF5407FFE4FEFDFC7885
:10104B0005120515C004C005C006C007785EE2FC9A
:10105B0008E2FD08E2FE08E2FF7810120502EF54E9
:10106B0003FFD003D002D001D000EB4FFFEAFEE824
:10107B00FCEF4408FFAD07D007121815785DE2248A
:10108B0002FFC00708E2FC08E2FD08E2FE08E2FFEF
:10109B007808120502AD07D007121815785DE22407
:1010AB0003FFC00708E2FC0808E2FE08E2FFAD07F9
:0610BB00D00712181522F7
:1008B400785AEBF208EAF208E9F212182B785AE2B5
:1008C400FB08E2FA08E2F9900004120490FF120413
:1008D400774FFD7F2A121815785AE2FB08E2FA08CE
:1008E400E2F9121802785AE2FB08E2FA08E2F990F7
:1008F40000031204904480FD7F28121815785AE2F0
:10090400FB08E2FA08E2F99000051204905401256C
:10091400E025E0FD7F601218157D607F70121815C8
:10092400785AE2FB08E2FA08E2F9900027120490F0
:10093400FD7F2C121815785AE2FB08E2FA08E2F956
:10094400900026120490FD7F2B121815785AE2FBB2
:1009540008E2FA08E2F990000A120548785E1205E6
:100964009290002812049054017862F2E4FF120F6E
:100974008B785AE2FB08E2FA08E2F990000E1205BD
:1009840048785E120592900028120490C313540113
:100994007862F27F04120F8B785AE2FB08E2FA08BD
:1009A400E2F9900016120548785E1205929000282C
:1009B400120490131354017862F27F08120F8B789B
:1009C4005AE2FB08E2FA08E2F990001A12054878A4
:1009D4005E120592900028120490131313540178A8
:1009E40062F27F10120F8B785AE2FB08E2FA08E2F7
:1009F400F990001E120548785E12059290002812A4
:100A04000490C454017862F27F14120F8B785AE276
:100A1400FB08E2FA08E2F9900022120548785E1217
:100A24000592900028120490C41354017862F27F56
:100A340018120F8B785AE2FB08E2FA08E2F99000E8
:100A440006120548785E12059278627401F27F20DE
:100A5400120F8B785AE2FB08E2FA08E2F9900012CE
:100A6400120548785E12059278627401F27F2412AE
:100A74000F8B121891EF7E0060047F0180027F00CB
:0C0A8400EF4E60077D447F0F1218152212
:1012CC00E4FF12182B900004120490FF1204774FC5
:1012DC00FD7F2A1218151218029000031204904474
:1012EC0080FD7F281218157D067F60121815785E18
:1012FC0012059E0000010078627401F2E4FF120FE7
:10130C008B785E12059E000007FEE47862F27F0483
:10131C00120F8B785E12059E000007FFE47862F2D4
:10132C007F20120F8B785E12059E000008007862F9
:10133C007401F27F08120F8B785E12059E1FFFFF5F
:10134C00FF78627401F27F10120F8B785E12059E8B
:10135C00000007FFE47862F27F14120F8B785E12A4
:10136C00059E00000000E47862F27F18120F8B7863
:10137C005E12059E1FFFFFFEE47862F27F24120FBF
:10138C008BE4FD7F2C1218157D037F2B1218151280
:10139C001891EF7E0060047F0180027F00EF4E60A9
:0813AC00077D447F0F121815A4
:0113B4002216
:0506B0007862120592C2
:1006B5007F3012189A786DEFF254087007786B74D2
:1006C50030F280227F4012189A786DEFF25408704C
:1006D50007786B7440F2800E7F5012189A786DEF90
:1006E500F2786B7450F2786BE22405FF7867E2FDCF
:1006F500121815E47FFF7E07FDFC7862E2FB08E235
:10070500F908E2FA08E2CBF8D31204F1506D7866E5
:10071500E2786B6013E204FFE4FD121815786BE2D2
:100725002402FF7D080207FCE204FFC0077862E2AD
:10073500FC08E2FD08E2FE08E2FF7803120502ADBF
:1007450007D007121815786BE22402FFC0077862FC
:10075500080808E25407FFE4FEFDFC7805120515BC
:10076500AD07D007121815786BE22403FFE4FD12DC
:100775001815786BE22404FF020837786BE204FF52
:10078500C0077862E2FC08E2FD08E2FE08E2FF78B5
:1007950015120502AD07D007121815786BE2240271
:1007A500FFC0077862E2FC08E2FD08E2FE08E2FF0E
:1007B5007812120502EF5407FFE4FEFDFC780512DE
:1007C5000515C004C005C006C0077862E2FC08E252
:1007D500FD08E2FE08E2FF7810120502EF5403FF60
:1007E500D003D002D001D000EB4FFFEAFEE8FCEFCA
:1007F5004408FFAD07D007121815786BE22403FFF4
:10080500C0077862E2FC08E2FD08E2FE08E2FF7834
:1008150008120502AD07D007121815786BE22404FB
:10082500FFC0077862E2FC0808E2FE08E2FFAD07B8
:10083500D007121815E4786CF27867E2FF786CE25D
:10084500FED39F5030EE940874809480502718E2B0
:100855002406FF08E2FE2FFF7868E2FB08E2FA08AB
:10086500E2F98E82758300120490FD121815786CDA
:10087500E204F280C4C292786BE2FF786DE244082C
:10088500FD121815D292E4786CF2786CE2C3940EDE
:1008950074809480501818E2FF12189AEF30E30E16
:0E08A5007F647E00121832786CE204F280DC70
:0108B3002222
:0D1624007800EFF208EBF208EAF208E9F2B4
:10163100E4FCECC3940E74809480501E7800E22C7C
:10164100FF12189A7801E2FB08E2FA08E2F98C82AB
:10165100758300EF1204CF0C80D87800E2FB7A008A
:10166100646070028006EB64704A7006FD7F2C1284
:0216710018154A
:011673002254
:0218D300C11141
:10187200C2AF53890F438920759850758DFA758BC5
:0F188200FA438780D299D2ACD28ED29CD2AF22B9
:03002300020016C2
:0B001600309803C29832C299C2113228
:0818FA008F99D2112011FD228B
:1017A7007804EBF208EAF208E9F27804E2FB08E2CF
:1017B700FA08E2F9120477FF1218FA7804E2FB0834
:1017C70008E2F92401F218E2FA3400F21204777001
:0217D700D92215
:1018D600D2A0D2A100000000C2A000000000C2A158
:0118E60022DF
:1018AE00C2A1C2A000000000D2A100000000D2A080
:0518BE00000000002203
:10170B007E80EE601B5F7004C2A08002D2A000003E
:10171B000000D2A100000000C2A1EEC313FE80E2C4
:10172B00D2A000000000D2A1A2A0920000000000F5
:05173B00C2A1A200B3F1
:011740002286
:10174100D2A07E80EE601D00000000D2A120A00585
:10175100F45FFF8003EF4EFF00000000C2A1EEC363
:1017610013FE80E0D2A000000000D2A10000000022
:02177100C2A113
:011773002253
:10177400D2A07E80EE601D00000000D2A120A00552
:10178400F45FFF8003EF4EFF00000000C2A1EEC330
:1017940013FE80E0C2A000000000D2A100000000FF
:0217A400C2A1E0
:0117A6002220
:1014FD00785AEBF208EAF208E9F21218D67FA01238
:10150D00170B40051218AE80F1AF0512170B12180C
:10151D00D67FA112170B785EE2D39401748094806C
:10152D00401F121774785AE2FB0808E2F92401F201
:10153D0018E2FA3400F2EF1204BD785EE214F28084
:10154D00D5121741785AE2FB08E2FA08E2F9EF12D8
:05155D0004BD0218AE00
:1015C500785AEBF208EAF208E9F2785EE2D3940081
:1015D5007480948040481218D67FA012170B4005DE
:1015E5001218AE80F1AF0512170B785EE2D39400A6
:1015F500748094804023785AE2FB0808E2F92401BC
:10160500F218E2FA3400F2120477FF12170B785E33
:0F161500E214F20DED540770D11218AE80AC2222
:10147D00020E0FE493A3F8E493A34003F68001F268
:10148D0008DFF48029E493A3F85407240CC8C33370
:10149D00C4540F4420C8834004F456800146F6DF3F
:1014AD00E4800B01020408102040809018C3E47EF4
:1014BD00019360BCA3FF543F30E509541FFEE49334
:1014CD00A360010ECF54C025E060A840B8E493A3FB
:1014DD00FAE493A3F8E493A3C8C582C8CAC583CA26
:1014ED00F0A3C8C582C8CAC583CADFE9DEE780BEDE
:0118D5000012
:10038100E709F608DFFA8046E709F208DFFA803E5E
:1003910088828C83E709F0A3DFFA8032E309F6084B
:1003A100DFFA8078E309F208DFFA807088828C83B3
:1003B100E309F0A3DFFA806489828A83E0A3F60867
:1003C100DFFA805889828A83E0A3F208DFFA804C41
:1003D10080D280FA80C680D4806980F28033801018
:1003E10080A680EA809A80A880DA80E280CA803381
:1003F10089828A83ECFAE493A3C8C582C8CCC583F9
:10040100CCF0A3C8C582C8CCC583CCDFE9DEE780C8
:100411000D89828A83E493A3F608DFF9ECFAA9F047
:10042100EDFB2289828A83ECFAE0A3C8C582C8CC9D
:10043100C583CCF0A3C8C582C8CCC583CCDFEADEB6
:10044100E880DB89828A83E493A3F208DFF980CC18
:1004510088F0EF60010E4E60C388F0ED2402B40411
:100461000050B9F582EB2402B4040050AF232345B8
:0604710082239003D17309
:10047700BB010689828A83E0225002E722BBFE0283
:09048700E32289828A83E49322B6
:10049000BB010CE58229F582E5833AF583E0225021
:1004A00006E92582F8E622BBFE06E92582F8E2226B
:0D04B000E58229F582E5833AF583E4932285
:1004BD00BB010689828A83F0225002F722BBFE011E
:0204CD00F32218
:1004CF00F8BB010DE58229F582E5833AF583E8F063
:1004DF00225006E92582C8F622BBFE05E92582C80F
:0204EF00F222F7
:1004F100EB9FF5F0EA9E42F0E99D42F0E89C45F061
:0105010022D7
:10050200E8600FECC313FCED13FDEE13FEEF13FFD7
:03051200D8F122FB
:10051500E8600FEFC333FFEE33FEED33FDEC33FC44
:03052500D8F122E8
:10052800BB010789828A830205E75005E9F80205BD
:10053800DBBBFE05E9F80205F389828A830205FF21
:10054800BB010DE58229F582E5833AF5830205E7CB
:100558005007E92582F80205DBBBFE07E92582F88A
:100568000205F3E58229F582E5833AF5830205FF62
:10057800BB010789828A8302061B5005E9F8020637
:0A0588000FBBFE05E9F80205922200
:0C059200ECF208EDF208EEF208EFF222A5
:10059E00D083D082E493F208740193F2087402932C
:0905AE00F208740393F274047363
:1005B700BB010DE58229F582E5833AF58302064002
:1005C7005007E92582F8020627BBFE07E92582F8CE
:0405D70002059E2259
:10002600E5102467F8E20510227864300702786745
:10003600E475F0011206710204772000EB7F2ED2E0
:10004600008018EF540F2490D43440D4FF30040BB2
:10005600EF24BFB41A0050032461FFE511600215B6
:10006600110514E5147002051330070D7864E47564
:10007600F001120671EF0204BD0200037403D207F9
:100086008003E4C207F5107864120681E4F511F5E1
:1000960013F514E51160077F2012006180F57512D3
:1000A600FFC201C200C202C203C205C206C20812D2
:1000B600002FFF700D3007057F00120072AF14AEDF
:1000C6001322B4255FC2D5C20412002FFF24D0B478
:1000D6000A00501A75F00A781130D50508B6FF01E6
:1000E60006C6A426F620D5047002D20380D924CFF2
:1000F600B41A00EF5004C2E5D204020271D20180A4
:10010600C6D20080C0D20280BCD2D580BAD20580C9
:10011600B47F201200612002077401B5110040F17E
:10012600120026FF120061020099D208D2068095BD
:10013600120026FB120026FA120026F94A4B700618
:1001460079427A037BFF20022EE511602A7E008E1B
:100156008275830012049060060EEE651270F0C27E
:10016600D5EBC0E0EAC0E0E9C0E0EE1202B8D0E0AC
:10017600F9D0E0FAD0E0FB120477FF60AAEBC0E00A
:10018600EAC0E0E9C0E0120061D0E02401F9D0E065
:100196003400FAD0E0FBE5120460DCD512D9808782
:1001A6007BFF7A0279B4D202809C791080027908AA
:1001B600C206C2088008D2D5790A8004790AC2D557
:1001C600E512047002F512E4FAFDFEFF120026FCA9
:1001D6007B08200113120026FD7B1030000A120056
:1001E60026FE120026FF7B20EC3382D592D55013D3
:1001F600C3E43000069FFFE49EFEE42001039DFD5C
:10020600E49CFCE4CBF8C201EC700CCFCECDCCE87C
:1002160024F8F870F38017C3EF33FFEE33FEED33A7
:10022600FDEC33FCEB33FB994002FB0FD8E9EB30D6
:100236000105F8D0E0C448B201C0E00AEC4D4E4FCB
:1002460078207B0070C2EAB5120040BCC0E0120202
:10025600BAD0F0D0E0200104C4C0E0C4B201C0F0BE
:1002660012004AD0F0D5F0EB02009912068A013648
:100276005301B05801074C01034201B44F01BC447D
:1002860001BC49011C4301C25501A64601A6450110
:01029600A6C1
:1002970047036250010B2D010F2E01322B0113234F
:1002A700013020034B2A00CB480000012A3F3F3F83
:1002B70000790AA2D5200314300509B910020404F5
:1002C700B9080104A2D52006025001042002689251
:1002D70002B511005034C0E07F203003197F30A2EF
:1002E7000272067205500F120311C202C206C2053E
:1002F700C2087F30800F300503E9C0E0120061308B
:100307000503D0E0F9D0E0B511CC3005177F30B93F
:10031700100C1200617F583004077F788003B908FA
:10032700031200613002057F2D0200617F20200843
:10033700F87F2B2006F322920280CF286E756C6C13
:100347002900D2011200263001F8C201781130D5F8
:100357000108F60200CB2D5043495812002624030A
:10036700B405004001E490035D93120052743A1201
:0A0377000052D2037511040201B018
:0C05DB00E6FC08E6FD08E6FE08E6FF224C
:0C05E700E0FCA3E0FDA3E0FEA3E0FF2287
:0C05F300E2FC08E2FD08E2FE08E2FF2244
:1005FF00E493FC740193FD740293FE740393FF2242
:0C060F00ECF608EDF608EEF608EFF62217
:0C061B00ECF0A3EDF0A3EEF0A3EFF02252
:10062700D083D082E493F608740193F6087402939A
:09063700F608740393F6740473D1
:10064000A8828583F0D083D08212065712065712F3
:100650000657120657E473E493A3C583C5F0C58318
:10066000C8C582C8F0A3C583C5F0C583C8C582C804
:010670002267
:10067100FAE2FB0808E2F925F0F218E2CA3AF2229E
:09068100EBF208EAF208E9F222AA
:10068A00D083D082F8E4937012740193700DA3A3FF
:10069A0093F8740193F5828883E473740293686013
:0606AA00EFA3A3A380DF13
:00000001FF
