:03000000020FB537
:0C0FB500787FE4F6D8FD758122020FFC65
:100D9C0043616E2073656E64202020200043616ED9
:100DAC002072656365766965200049443A202530D8
:100DBC00376C582C2020444C433A2562782C202048
:100DCC00446174613A200049443A2025376C582C10
:100DDC002020444C433A2562782C202044617461D5
:100DEC003A2000253032625820000D0A0043414E53
:100DFC005F52583049465F466C6167203D20300D8C
:100E0C000A0043414E5F52583149465F466C616758
:100E1C00203D20310D0A0031053001001305300151
:100E2C0000090530010004053001000107380200FB
:100E3C000105300100000530010000011001000027
:0F0E4C000000000000000020F10203040506076B
:10127D00C10CC10AC10BC109C110C10FC10EC10DF5
:0C000300785FEFF21212A3785FE2FF2298
:09129A00D2BAD28AD2AAD2AF2244
:030013000210F4E4
:0D10F400C0E0C0F0C083C082C0D075D0083D
:101101007F2C121269EF30E702D20CEF30E602D2E7
:101111000AEF30E502D20BEF30E402D209EF30E3FF
:1011210002D210EF30E202D20FEF30E102D20EEF25
:0511310030E002D20DC8
:0B113600D0D0D082D083D0F0D0E032C7
:0A0F17007809EEF208EFF208EDF29F
:100F2100E408F208F2087C007DFE7BFF7A0E794B23
:100F3100FE7F08120451780BE2FBFD7C007809E288
:100F4100FE08E2FF1204F1AA057809E2FE08E2FFB9
:100F5100EBFD7C001204F17809EEF208EFF2780C57
:100F6100E2FD04F2740E2DF8EAF2D3EF9400EE9450
:100F71000050C3780CE214F2240EF8E2FAD394097B
:100F810074809480EA5004243080022437FF780D65
:100F9100E2FE04F274002EF8EFF2780CE2D3940032
:100FA1007480948050CD08E22400F8E4F27BFE7A4C
:030FB100007900C4
:010FB400221A
:060E5B007BFE7A007939EC
:0A0E61007846EBF208EAF208E9F225
:100E6B0012057D784A1205B7900004120490FF1307
:100E7B0013135401784EF2EFC4540F08F290000490
:100E8B00120490FF1313543F7BFF30E0067A0D7969
:100E9B009C80047A0D79A9120088784EE27BFF6062
:100EAB00067A0D79B680047A0D79D3784AE2FC087C
:100EBB00E2FD08E2FE08E2FF78531205B7784FE235
:100ECB007857F2120088E47849F2784FE2FF7849BC
:100EDB00E2FEC39F502D7846E2FB08E2FA08E224BB
:100EEB0005F9E43AFAEE7E0029F9EE3AFA120477A4
:100EFB007853F27BFF7A0D79EF1200887849E20480
:0C0F0B00F280C77BFF7A0D79F6020088A7
:0A1041007846EBF208EAF208E9F243
:10104B007846E2FB08E2FA08E2F912057D784912CC
:10105B0005B7900004120490FF1313135401784D3D
:10106B00F2FBEFC4540FFA7849E2FC08E2FD08E208
:10107B00FE08E2FF7852EBF2AB0208EBF27846E2A5
:10108B00FB08E2FA08E22405F9E43AFA7854EBF2A9
:09109B0008EAF208E9F202066716
:0608CB007BFE7A00793982
:0E08D1007847EBF208EAF208E9F27846EFF217
:1008DF00121269784BEFF27846E204FF1212697830
:1008EF004CEFF27846E22402FF121269784DEFF2D4
:1008FF007846E22403FF121269784EEFF27846E24F
:10090F002404FF121269784FEFF27846E22405FFB4
:10091F00121269784DE25408131313540133333311
:10092F0054F8FE7847E2FB08E2FA08E22404F9E4FF
:10093F003AFA12047754F74EFE1204BDEF540FC467
:10094F0054F0FFEE540F4F1204BD7847E2FB08E25C
:10095F00FA08E2F9900004120490131313541F3095
:02096F00E0772F
:10097100784CE275F008A4FFAEF008E2FBC4135412
:1009810007FDEF4DFFEE3395E0FDFC78501205B702
:10099100EB54037E007810C333CE33CED8F9FDACCF
:1009A10006784EE24CFEEDFF08E2FDEF4DFFEE331F
:1009B10095E0FDFC78541205B77850E2FC08E2FDA1
:1009C10008E2FE08E2FF781212056A7854E2FB0899
:1009D100E2F908E2FA08E2CBF8EB4FFFEA4EFEE952
:0509E1004DFDE84CFC97
:0209E600802C63
:1009E800784CE275F008A4FFAEF008E2C41354078F
:1009F800FDEF4DFFEE3395E0FDFC78501205B7781A
:100A080050E2FC08E2FD08E2FE08E2FF7847E2FB5C
:090A180008E2FA08E2F912059D5A
:100A2100E4784AF27847E2FB08E2FA08E2F990003A
:100A310004120490C4540FFF784AE2FEC39F502D64
:100A41007846E22406FFEE2FFF1212697847E2FB97
:100A510008E2FA08E22405F9E43AFA08E27C0029FE
:100A6100F9EC3AFAEF1204BDE204F280B7E4FD7F3B
:040A71002C0211F44E
:100CB700781D1205C3000007FEE47821F2087408C6
:100CC700F278247C007DFE7BFF7A0E79537E00FF4D
:100CD70012045112124A12129A7BFF7A0E793712B6
:100CE7000BAB7830E24404F2781DE2FC08E2FD0821
:100CF700E2FE08E2FF782C1205B77830E254FC4494
:100D070002F254F7F2540F4480F27824E27831F279
:100D1700783DE254FBF2E47823F27823E2C39402AD
:100D27007480948050667BFE7A00792C1210417B88
:100D3700FE7A00792C120E61782C1205C30000018F
:100D4700007830E254FC4402F24408F2540F447035
:100D5700F27FB87E0B12122B300D137F601208CB77
:100D6700C20D120E5B7BFF7A0D79F9120088300EE7
:100D7700137F701208CBC20E120E5B7BFF7A0E79BF
:100D87000E1200887823E204F2020D217FD07E073D
:050D970012122B80FE8A
:10114100303132333435363738393A3B3C3D404122
:1011510042434445464748494A4B4C4D50515253EE
:101161005455565758595A5B5C5D000102030405FA
:10117100060708090A0B101112131415161718196E
:0A1181001A1B202122232425262713
:10122B00D3EF9400EE94004015E4FDFC0DBD0001DE
:0E123B000CED64644C70F5EF1F70E51E80E250
:011249002282
:10120A00E4FFC295FEEEC39408748094805011D214
:10121A0095EF25E0FFA293E4334FFFC2950E80E5D8
:01122A0022A1
:1011BD00E4FEEEC3940874809480501AC295A8067C
:1011CD00EF088002C333D8FC30E704D2948002C20A
:0811DD0094D2950E80DCC2954E
:0111E50022E7
:0E11E600E2FB08E2FA08E2F9120490FFE4FDD1
:1011F400AC07C2927F021211BDAF041211BDAF053C
:061204001211BDD292227E
:02126900AD07CF
:10126B00C2927F031211BDAF051211BD12120AD229
:01127B0092E0
:01127C00224F
:0A129000C2927FC01211BDD292225B
:100A75007846EFF2E47FFF7E07FDFC08E2FB08E223
:100A8500F908E2FA08E2CBF8D31205465066784B2E
:100A9500E260137846E2FFE4FD1211F47846E204C1
:100AA500FF7D08020B6E7847E2FC08E2FD08E2FED6
:100AB50008E2FF7803120557AD077846E2FF1211E9
:100AC500F47846E204FFC00708080808E25407FF67
:100AD500E4FEFDFC780512056AAD07D0071211F496
:100AE5007846E22402FFE4FD1211F47846E224037D
:100AF500FF020BA77847E2FC08E2FD08E2FE08E2E8
:100B0500FF7815120557AD077846E2FF1211F47804
:100B150046E204FFC00708E2FC08E2FD08E2FE0821
:100B2500E2FF7812120557EF5407FFE4FEFDFC784B
:100B35000512056AC004C005C006C0077847E2FC77
:100B450008E2FD08E2FE08E2FF7810120557EF54AF
:100B550003FFD003D002D001D000EB4FFFEAFEE83F
:100B6500FCEF4408FFAD07D0071211F47846E224E4
:100B750002FFC00708E2FC08E2FD08E2FE08E2FF0A
:100B85007808120557AD07D0071211F47846E2240C
:100B950003FFC00708E2FC0808E2FE08E2FFAD0714
:060BA500D0071211F4223A
:100BAB00E4FF1212907F017E0012122B90000412B0
:100BBB000490FF1204774FFD7F2A1211F49000026C
:100BCB001204904480FF9000011204904FFD7F2986
:100BDB001211F49000031204904480FD7F2812112F
:100BEB00F47D067F601211F478471205C3000001F3
:100BFB0000784B7401F2E4FF120A7578471205C3B3
:100C0B00000007FEE4784BF27F04120A7578471256
:100C1B0005C3000007FFE4784BF27F20120A7578BA
:100C2B00471205C300000800784B7401F27F0812CD
:100C3B000A7578471205C31FFFFFFF784B7401F24B
:100C4B007F10120A7578471205C3000007FFE4787E
:100C5B004BF27F14120A7578471205C3000000008F
:100C6B00E4784BF27F18120A7578471205C31FFF01
:100C7B00FFFEE4784BF27F24120A75E4FD7F2C1201
:100C8B0011F47D037F2B1211F47D447F0F1211F4AD
:100C9B007F0E121269EF7E0060047F0180027F00DD
:0B0CAB00EF4E60077D447F0F1211F434
:010CB600221B
:05066700784E1205B7FA
:10066C007F30121269EF20E204785780307F4012FD
:10067C001269EF20E20F785774FFF2087411F20838
:10068C00744FF280237F50121269EF785720E20DDD
:10069C0074FFF2087411F208745DF2800B74FFF2AF
:1006AC00087411F2087441F27857E2FB08E2FA0878
:1006BC00E2F9900005120490FF7853E2FD1211F458
:1006CC00E47FFF7E07FDFC784EE2FB08E2F908E2CE
:1006DC00FA08E2CBF8D3120546400302077F7852A2
:1006EC00E27857601C9000011211E67857E2FB0883
:1006FC00E2FA08E2F9900002120490FF7D08020869
:10070C0012E2FB08E2FA08E2F9900001120490FFF1
:10071C00C007784EE2FC08E2FD08E2FE08E2FF7832
:10072C0003120557AD07D0071211F47857E2FB08F6
:10073C00E2FA08E2F9900002120490FFC007784E2A
:10074C00080808E25407FFE4FEFDFC780512056A70
:10075C00AD07D0071211F478579000031211E67808
:10076C0057E2FB08E2FA08E2F9900004120490FF49
:10077C000208637857E2FB08E2FA08E2F9900001FC
:10078C00120490FFC007784EE2FC08E2FD08E2FE7E
:10079C0008E2FF7815120557AD07D0071211F4784F
:1007AC0057E2FB08E2FA08E2F9900002120490FF0B
:1007BC00C007784EE2FC08E2FD08E2FE08E2FF7892
:1007CC0012120557EF5407FFE4FEFDFC78051205E5
:1007DC006AC004C005C006C007784EE2FC08E2FD02
:1007EC0008E2FE08E2FF7810120557EF5403FFD021
:1007FC0003D002D001D000EB4FFFEAFEE8FCEF443F
:10080C0008FFAD07D0071211F47857E2FB08E2FAA3
:10081C0008E2F9900003120490FFC007784EE2FC46
:10082C0008E2FD08E2FE08E2FF7808120557AD0762
:10083C00D0071211F47857E2FB08E2FA08E2F990BB
:10084C000004120490FFC007784EE2FC0808E2FE98
:10085C0008E2FFAD07D0071211F4E4785AF278538E
:10086C00E2FF785AE2FED39F503DEE9408748094D8
:10087C008050347857E2FB08E2FA08E2F99000065F
:10088C00120490FF785AE2FE2FFF7854E2FB08E244
:10089C00FA08E2F98E82758300120490FD1211F4AD
:1008AC00785AE204F280B7C2927857E2FB08E2FA77
:0E08BC0008E2F9120477FF7D081211F4D292BF
:0108CA00220B
:0D10A4007816EFF208EBF208EAF208E9F224
:1010B100E4FCECC3940E74809480501E7816E22CEC
:1010C100FF1212697817E2FB08E2FA08E2F98C8252
:1010D100758300EF1204CF0C80D87816E2FB7A00FA
:1010E100646070028006EB64704A7006FD7F2C120A
:0210F10011F4F8
:0110F30022DA
:02128D00C1118D
:10124A00C2AF53890F438920759850758DFA758BF3
:0F125A00FA438780D299D2ACD28ED29CD2AF22E7
:03002300020016C2
:0B001600309803C29832C299C2113228
:0812A3008F99D2112011FD22E8
:10118B00781AEBF208EAF208E9F2781AE2FB08E2C5
:10119B00FA08E2F9120477FF1212A3781AE2FB089D
:1011AB0008E2F92401F218E2FA3400F21204777023
:0211BB00D92237
:100FC100020CB7E493A3F8E493A34003F68001F283
:100FD10008DFF48029E493A3F85407240CC8C33331
:100FE100C4540F4420C8834004F456800146F6DF00
:100FF100E4800B010204081020408090127DE47E01
:10100100019360BCA3FF543F30E509541FFEE493F4
:10101100A360010ECF54C025E060A840B8E493A3BB
:10102100FAE493A3F8E493A3C8C582C8CAC583CAE6
:10103100F0A3C8C582C8CAC583CADFE9DEE780BE9E
:01128F00005E
:10038100E709F608DFFA8046E709F208DFFA803E5E
:1003910088828C83E709F0A3DFFA8032E309F6084B
:1003A100DFFA8078E309F208DFFA807088828C83B3
:1003B100E309F0A3DFFA806489828A83E0A3F60867
:1003C100DFFA805889828A83E0A3F208DFFA804C41
:1003D10080D280FA80C680D4806980F28033801018
:1003E10080A680EA809A80A880DA80E280CA803381
:1003F10089828A83ECFAE493A3C8C582C8CCC583F9
:10040100CCF0A3C8C582C8CCC583CCDFE9DEE780C8
:100411000D89828A83E493A3F608DFF9ECFAA9F047
:10042100EDFB2289828A83ECFAE0A3C8C582C8CC9D
:10043100C583CCF0A3C8C582C8CCC583CCDFEADEB6
:10044100E880DB89828A83E493A3F208DFF980CC18
:1004510088F0EF60010E4E60C388F0ED2402B40411
:100461000050B9F582EB2402B4040050AF232345B8
:0604710082239003D17309
:10047700BB010689828A83E0225002E722BBFE0283
:09048700E32289828A83E49322B6
:10049000BB010CE58229F582E5833AF583E0225021
:1004A00006E92582F8E622BBFE06E92582F8E2226B
:0D04B000E58229F582E5833AF583E4932285
:1004BD00BB010689828A83F0225002F722BBFE011E
:0204CD00F32218
:1004CF00F8BB010DE58229F582E5833AF583E8F063
:1004DF00225006E92582C8F622BBFE05E92582C80F
:0204EF00F222F7
:1004F100BC000BBE0029EF8DF084FFADF022E4CCEF
:10050100F875F008EF2FFFEE33FEEC33FCEE9DECB7
:10051100984005FCEE9DFE0FD5F0E9E4CEFD22EDFD
:10052100F8F5F0EE8420D21CFEADF075F008EF2F47
:10053100FFED33FD4007985006D5F0F222C398FD38
:050541000FD5F0EA22D5
:10054600EB9FF5F0EA9E42F0E99D42F0E89C45F00B
:010556002282
:10055700E8600FECC313FCED13FDEE13FEEF13FF82
:03056700D8F122A6
:10056A00E8600FEFC333FFEE33FEED33FDEC33FCEF
:03057A00D8F12293
:10057D00BB010789828A830205E85005E9F8020567
:10058D00DCBBFE05E9F80205F489828A83020600C8
:10059D00BB010789828A8302061C5005E9F8020611
:0A05AD0010BBFE05E9F80205B722B5
:0C05B700ECF208EDF208EEF208EFF22280
:1005C300D083D082E493F208740193F20874029307
:0905D300F208740393F27404733E
:10002600E5102453F8E20510227850300702785381
:10003600E475F0011206280204772000EB7F2ED229
:10004600008018EF540F2490D43440D4FF30040BB2
:10005600EF24BFB41A0050032461FFE511600215B6
:10006600110514E5147002051330070D7850E47578
:10007600F001120628EF0204BD0200037403D20742
:100086008003E4C207F5107850120638E4F511F53E
:1000960013F514E51160077F2012006180F57512D3
:1000A600FFC201C200C202C203C205C206C20812D2
:1000B600002FFF700D3007057F00120072AF14AEDF
:1000C6001322B4255FC2D5C20412002FFF24D0B478
:1000D6000A00501A75F00A781130D50508B6FF01E6
:1000E60006C6A426F620D5047002D20380D924CFF2
:1000F600B41A00EF5004C2E5D204020271D20180A4
:10010600C6D20080C0D20280BCD2D580BAD20580C9
:10011600B47F201200612002077401B5110040F17E
:10012600120026FF120061020099D208D2068095BD
:10013600120026FB120026FA120026F94A4B700618
:1001460079427A037BFF20022EE511602A7E008E1B
:100156008275830012049060060EEE651270F0C27E
:10016600D5EBC0E0EAC0E0E9C0E0EE1202B8D0E0AC
:10017600F9D0E0FAD0E0FB120477FF60AAEBC0E00A
:10018600EAC0E0E9C0E0120061D0E02401F9D0E065
:100196003400FAD0E0FBE5120460DCD512D9808782
:1001A6007BFF7A0279B4D202809C791080027908AA
:1001B600C206C2088008D2D5790A8004790AC2D557
:1001C600E512047002F512E4FAFDFEFF120026FCA9
:1001D6007B08200113120026FD7B1030000A120056
:1001E60026FE120026FF7B20EC3382D592D55013D3
:1001F600C3E43000069FFFE49EFEE42001039DFD5C
:10020600E49CFCE4CBF8C201EC700CCFCECDCCE87C
:1002160024F8F870F38017C3EF33FFEE33FEED33A7
:10022600FDEC33FCEB33FB994002FB0FD8E9EB30D6
:100236000105F8D0E0C448B201C0E00AEC4D4E4FCB
:1002460078207B0070C2EAB5120040BCC0E0120202
:10025600BAD0F0D0E0200104C4C0E0C4B201C0F0BE
:1002660012004AD0F0D5F0EB020099120641013691
:100276005301B05801074C01034201B44F01BC447D
:1002860001BC49011C4301C25501A64601A6450110
:01029600A6C1
:1002970047036250010B2D010F2E01322B0113234F
:1002A700013020034B2A00CB480000012A3F3F3F83
:1002B70000790AA2D5200314300509B910020404F5
:1002C700B9080104A2D52006025001042002689251
:1002D70002B511005034C0E07F203003197F30A2EF
:1002E7000272067205500F120311C202C206C2053E
:1002F700C2087F30800F300503E9C0E0120061308B
:100307000503D0E0F9D0E0B511CC3005177F30B93F
:10031700100C1200617F583004077F788003B908FA
:10032700031200613002057F2D0200617F20200843
:10033700F87F2B2006F322920280CF286E756C6C13
:100347002900D2011200263001F8C201781130D5F8
:100357000108F60200CB2D5043495812002624030A
:10036700B405004001E490035D93120052743A1201
:0A0377000052D2037511040201B018
:0C05DC00E6FC08E6FD08E6FE08E6FF224B
:0C05E800E0FCA3E0FDA3E0FEA3E0FF2286
:0C05F400E2FC08E2FD08E2FE08E2FF2243
:10060000E493FC740193FD740293FE740393FF2240
:0C061000ECF608EDF608EEF608EFF62216
:0C061C00ECF0A3EDF0A3EEF0A3EFF02251
:10062800FAE2FB0808E2F925F0F218E2CA3AF222E7
:09063800EBF208EAF208E9F222F3
:10064100D083D082F8E4937012740193700DA3A348
:1006510093F8740193F5828883E47374029368605C
:06066100EFA3A3A380DF5C
:00000001FF
