:03000000020F42AA
:0C0F4200787FE4F6D8FD758122020F894B
:100B9B0043616E2073656E642049443A20253038DA
:100BAB00582C2020444C433A2562782C2020446159
:100BBB0074613A200043616E2073656E6420494472
:100BCB003A202538582C2020444C433A2562782C67
:100BDB002020446174613A20002530326258200095
:100BEB000D0A0052656365697665205258425F4372
:100BFB0054524C5F416464726573733A202562589A
:100C0B002C20444C433A2562782C20446174613A81
:100C1B0000526561645F5258425F4354524C3A2014
:100C2B0025303262582C20205258463A25625820E3
:100C3B000D0A00313233313233446174613A25731A
:100C4B00200D0A00310530010013053001000905A4
:100C5B0030010004053001000107380200010530A6
:100C6B000100000530010000011001000000000030
:100C7B0000000000000000000000000020F1020353
:040C8B00040506074F
:10115A00C10CC10AC10BC109C110C10FC10EC10D19
:10116A008E46000102030405060708090A0B0C0D46
:0A117A008854000102030405062753
:0C000300789EEFF2121286789EE2FF2237
:09127D00D2BAD28AD2AAD2AF2261
:0300130002108F49
:0D108F00C0E0C0F0C083C082C0D075D008A2
:10109C007F2C12125FEF30E702D20CEF30E602D257
:1010AC000AEF30E502D20BEF30E402D209EF30E365
:1010BC0002D210EF30E202D20FEF30E102D20EEF8B
:0710CC0030E002B290D20DEA
:0B10D300D0D0D082D083D0F0D0E0322B
:0A0D54007800EBF208EAF208E9F279
:100D5E007806E2FF14F2EF7003020DFB7803E2FB5C
:100D6E0008E2FA08E2F91206DBC4540FFFD3940925
:100D7E0074809480EF5004243080022437FE780073
:100D8E00E2FB0808E2F92401F218E2FA3400F2EE6E
:100D9E001207217803E2FB08E2FA08E2F91206DBF9
:100DAE00540FFFD3940974809480EF500424308044
:100DBE00022437FF7800E2FB0808E2F92401F2185A
:100DCE00E2FA3400F2EF1207217800E2FB0808E2A3
:100DDE00F92401F218E2FA3400F274201207217895
:100DEE0005E22401F218E23400F2020D5E7800E210
:0B0DFE00FB08E2FA08E2F9E40207211A
:040FCE007880EDF248
:100FD200E4FF7880E2FE14F2EE60541206DBC454A1
:100FE2000FFED3940974809480EE50042430800262
:100FF2002437FDAC070F74072CF8EDF21206DB5410
:101002000FFED3940974809480EE50042430800241
:101012002437FEAD070F74072DF8EEF2AE070F74FA
:10102200072EF87420F2740129F9E43AFA80A31F1A
:0C10320074072FF8E4F27BFE7A007907C7
:01103E00228F
:0A0E0900785DEEF208EFF208EDF25A
:100E1300E408F208F2087C007DFE7BFF7A0C797708
:100E2300FE7F081206B5785FE2FBFD7C00785DE289
:100E3300FE08E2FF120755AA05785DE2FE08E2FF0D
:100E4300EBFD7C00120755785DEEF208EFF2786057
:100E5300E2FD04F274622DF8EAF2D3EF9400EE940B
:100E63000050C37860E214F22462F8E2FAD39409E2
:100E730074809480EA5004243080022437FF786120
:100E8300E2FE04F274302EF8EFF27860E2D39400BD
:100E93007480948050CD08E22430F8E4F27BFE7A2B
:030EA300007930A3
:010EA6002229
:0A118700786AEBF208EAF208E9F2D8
:10119100E4FF786AE2FB0808E2F92401F218E2FAB6
:1011A1003400F21206DB60030F80E77A00A9077BA7
:0111B100003D
:0111B200221A
:100EA7007880EEF208EFF27883EBF218EDF27BFF31
:100EB70060067A0B799B80047A0B79C07880E2FF11
:100EC70008E27892CFF208EFF27883E27894F21290
:100ED7000088E4785CF27883E2FF785CE2FEC39FE7
:100EE70050257884E2FB08E2FA08E2F98E827583DE
:100EF700001206F47892F27BFF7A0B79E4120088ED
:100F0700785CE204F280CF7BFF7A0B79EB120088E2
:100F17007880E2FE08E2FFE4FCFD08E2788BF278D5
:100F270083E2788CF27884E2F908E2FA08E2788DB5
:0B0F3700C9F208EAF208E9F2020381A7
:0D0C8F007880EFF208EBF208EAF208E9F2D3
:100C9C00E47885F208F2087C007DFE7BFF7A0C7903
:100CAC007FFE7F081206B57880E2FF08E2FB08E2BF
:100CBC00FA08E2F912103F7881E2FB08E2FA08E246
:100CCC00F99000051206F4540FFF7885F27BFF7A39
:100CDC000B79EE7880E27892F208EFF2120088E459
:100CEC007884F27885E2FF18E2FEC39F5036E2FF6B
:100CFC002406F582E433F5837881E2FB08E2FA08F6
:100D0C00E2F91206F4FD74872FF8EDF27BFF7A0BF3
:100D1C0079E474872EF8E27892F21200887884E2F3
:100D2C0004F280BF7BFF7A0B79EB1200887880E2AB
:100D3C00FF12125F7886EFF27BFF7A0C791C7892A7
:080D4C00F2540708F2020088CE
:10097B0078721207ED000007FDE47876F208740830
:10098B00F2087C007DFE7BFF7A0C79877E00FF12DC
:10099B0006B512124012127D7BFE7A0079787877B9
:1009AB00E2FD120FCE7838EBF208EAF208E9F278A2
:1009BB0038E2F908E2FA08E27892C9F208EAF2089A
:1009CB00E9F27BFF7A0C793E1200887BFF7A0C7977
:1009DB0063120A90E47870F208F278720808E2FE6B
:1009EB0008E2FF08E2FD788474FEF2087400F20856
:1009FB007478F27877E2FB120EA77872E2FC08E2C9
:100A0B00FD08E2FE08E22401FFE43EFEE43DFDE4C6
:100A1B003CFC78721207E17876E270047F01800269
:100A2B007F007876EFF208E214F27FE87E03121271
:100A3B00217871E22401F218E23400F2C308E29447
:100A4B000218E2940040937FD07E07121221300DE2
:100A5B0014C20D7BFE7A0079467F60120C8F7FD01B
:100A6B007E07121221300E14C20E7BFE7A007946DD
:100A7B007F7012103F7FD07E071212217FD07E072E
:050A8B0012122180C9D8
:1010DE00303132333435363738393A3B3C3D404186
:1010EE0042434445464748494A4B4C4D5051525352
:1010FE005455565758595A5B5C5D0001020304055E
:10110E00060708090A0B10111213141516171819D1
:0A111E001A1B202122232425262776
:10122100D3EF9400EE94004015E4FDFC0DBD0001E8
:0E1231000CED64644C70F5EF1F70E51E80E25A
:01123F00228C
:10120000E4FFC295FEEEC39408748094805011D21E
:1012100095EF25E0FFA293E4334FFFC2950E80E5E2
:0112200022AB
:1011B300E4FEEEC3940874809480501AC295A80686
:1011C300EF088002C333D8FC30E704D2948002C214
:0811D30094D2950E80DCC29558
:0111DB0022F1
:0E11DC00E2FB08E2FA08E2F91206F4FFE4FD75
:1011EA00AC07C2927F021211B3AF041211B3AF055A
:0611FA001211B3D2922293
:02125F00AD07D9
:10126100C2927F031211B3AF051211B3121200D251
:0112710092EA
:011272002259
:0A127300C2927FC01211B3D2922282
:100845007880EFF2E47FFF7E07FDFC08E2FB08E21B
:10085500F908E2FA08E2CBF8D31207AA50667885C0
:10086500E260137880E2FFE4FD1211EA7880E20489
:10087500FF7D0802093E7881E2FC08E2FD08E2FE00
:1008850008E2FF78031207BBAD077880E2FF12117B
:10089500EA7880E204FFC00708080808E25407FF69
:1008A500E4FEFDFC78051207CEAD07D0071211EA6C
:1008B5007880E22402FFE4FD1211EA7880E2240345
:1008C500FF0209777881E2FC08E2FD08E2FE08E212
:1008D500FF78151207BBAD077880E2FF1211EA78A1
:1008E50080E204FFC00708E2FC08E2FD08E2FE081A
:1008F500E2FF78121207BBEF5407FFE4FEFDFC7818
:10090500051207CEC004C005C006C0077881E2FC09
:1009150008E2FD08E2FE08E2FF78101207BBEF547B
:1009250003FFD003D002D001D000EB4FFFEAFEE871
:10093500FCEF4408FFAD07D0071211EA7880E224E6
:1009450002FFC00708E2FC08E2FD08E2FE08E2FF3C
:1009550078081207BBAD07D0071211EA7880E224A8
:1009650003FFC00708E2FC0808E2FE08E2FFAD0746
:06097500D0071211EA2276
:100A9000E4FF1212737F017E0012122190000412F3
:100AA00006F4FF1206DB4FFD7F2A1211EA900002C6
:100AB0001206F44480FF9000011206F44FFD7F29D6
:100AC0001211EA9000031206F44480FD7F281211EF
:100AD000EA7D067F601211EA78811207ED000001BD
:100AE0000078857401F2E4FF12084578811207ED61
:100AF000000007FEE47885F27F0412084578811231
:100B000007ED000007FFE47885F27F2012084578A2
:100B1000811207ED0000080078857401F27F081249
:100B2000084578811207ED1FFFFFFF78857401F2F9
:100B30007F1012084578811207ED000007FFE47866
:100B400085F27F1412084578811207ED000000003D
:100B5000E47885F27F1812084578811207ED1FFFAF
:100B6000FFFEE47885F27F24120845E4FD7F2C1215
:100B700011EA7D037F2B1211EA0D7F0F1211EA7F1C
:100B80000E12125FEF7E0060047F0180027F00EF93
:0A0B90004E60077D047F0F1211EA8A
:010B9A002238
:0503810078871207E17E
:100386007F3012125FEF20E204789080307F4012B7
:10039600125FEF20E20F789074FFF2087410F208F3
:1003A60074ECF280237F5012125FEF789020E20DFA
:1003B60074FFF2087410F20874FAF2800B74FFF2FC
:1003C600087410F20874DEF27890E2FB08E2FA088C
:1003D600E2F99000051206F4FF788CE2FD1211EAAC
:1003E600E47FFF7E07FDFC7887E2FB08E2F908E27E
:1003F600FA08E2CBF8D31207AA4003020499788BD5
:10040600E27890601C9000011211DC7890E2FB0803
:10041600E2FA08E2F99000021206F4FF7D080205EE
:100426002CE2FB08E2FA08E2F99000011206F4FF5A
:10043600C0077887E2FC08E2FD08E2FE08E2FF78E2
:10044600031207BBAD07D0071211EA7890E2FB084A
:10045600E2FA08E2F99000021206F4FFC007788774
:10046600080808E25407FFE4FEFDFC78051207CEF3
:10047600AD07D0071211EA78909000031211DC78CC
:1004860090E2FB08E2FA08E2F99000041206F4FF93
:1004960002057D7890E2FB08E2FA08E2F990000195
:1004A6001206F4FFC0077887E2FC08E2FD08E2FEC8
:1004B60008E2FF78151207BBAD07D0071211EA78DC
:1004C60090E2FB08E2FA08E2F99000021206F4FF55
:1004D600C0077887E2FC08E2FD08E2FE08E2FF7842
:1004E600121207BBEF5407FFE4FEFDFC7805120766
:1004F600CEC004C005C006C0077887E2FC08E2FD4E
:1005060008E2FE08E2FF78101207BBEF5403FFD0A3
:1005160003D002D001D000EB4FFFEAFEE8FCEF4427
:1005260008FFAD07D0071211EA7890E2FB08E2FA5D
:1005360008E2F99000031206F4FFC0077887E2FC90
:1005460008E2FD08E2FE08E2FF78081207BBAD07E5
:10055600D0071211EA7890E2FB08E2FA08E2F99075
:1005660000041206F4FFC0077887E2FC0808E2FEE2
:1005760008E2FFAD07D0071211EAE47893F2788C0F
:10058600E2FF7893E2FED39F503DEE940874809488
:100596008050347890E2FB08E2FA08E2F99000060F
:1005A6001206F4FF7893E2FE2FFF788DE2FB08E255
:1005B600FA08E2F98E827583001206F4FD1211EA3A
:1005C6007893E204F280B7C2927890E2FB08E2FAEE
:0E05D60008E2F91206DBFF7D081211EAD2924C
:0105E40022F4
:0D103F00788FEFF208EBF208EAF208E9F210
:10104C00E4FCECC3940E74809480501E788FE22CD8
:10105C00FF12125F7890E2FB08E2FA08E2F98C8248
:10106C00758300EF1207330C80D8788FE2FB7A007F
:10107C00646070028006EB64704A7006FD7F2C126F
:02108C0011EA67
:01108E00223F
:02118400C11197
:10124000C2AF53890F438920759850758DFA758BFD
:0F125000FA438780D299D2ACD28ED29CD2AF22F1
:03002300020016C2
:0B001600309803C29832C299C2113228
:081286008F99D2112011FD2205
:10112800786DEBF208EAF208E9F2786DE2FB08E282
:10113800FA08E2F91206DBFF121286786DE2FB0864
:1011480008E2F92401F218E2FA3400F21206DB7020
:02115800D9229A
:100F4E0002097BE493A3F8E493A34003F68001F235
:100F5E0008DFF48029E493A3F85407240CC8C333A4
:100F6E00C4540F4420C8834004F456800146F6DF73
:100F7E00E4800B010204081020408090115AE47E98
:100F8E00019360BCA3FF543F30E509541FFEE49368
:100F9E00A360010ECF54C025E060A840B8E493A32F
:100FAE00FAE493A3F8E493A3C8C582C8CAC583CA5A
:100FBE00F0A3C8C582C8CAC583CADFE9DEE780BE12
:011186000068
:1005E500E709F608DFFA8046E709F208DFFA803EF8
:1005F50088828C83E709F0A3DFFA8032E309F608E5
:10060500DFFA8078E309F208DFFA807088828C834C
:10061500E309F0A3DFFA806489828A83E0A3F60800
:10062500DFFA805889828A83E0A3F208DFFA804CDA
:1006350080D280FA80C680D4806980F280338010B1
:1006450080A680EA809A80A880DA80E280CA80331A
:1006550089828A83ECFAE493A3C8C582C8CCC58392
:10066500CCF0A3C8C582C8CCC583CCDFE9DEE78062
:100675000D89828A83E493A3F608DFF9ECFAA9F0E1
:10068500EDFB2289828A83ECFAE0A3C8C582C8CC37
:10069500C583CCF0A3C8C582C8CCC583CCDFEADE50
:1006A500E880DB89828A83E493A3F208DFF980CCB2
:1006B50088F0EF60010E4E60C388F0ED2402B404AB
:1006C5000050B9F582EB2402B4040050AF23234552
:0606D5008223900635733C
:1006DB00BB010689828A83E0225002E722BBFE021D
:0906EB00E32289828A83E4932250
:1006F400BB010CE58229F582E5833AF583E02250BB
:1007040006E92582F8E622BBFE06E92582F8E22204
:0D071400E58229F582E5833AF583E493221E
:10072100BB010689828A83F0225002F722BBFE01B7
:02073100F322B1
:10073300F8BB010DE58229F582E5833AF583E8F0FC
:10074300225006E92582C8F622BBFE05E92582C8A8
:02075300F22290
:10075500BC000BBE0029EF8DF084FFADF022E4CC88
:10076500F875F008EF2FFFEE33FEEC33FCEE9DEC51
:10077500984005FCEE9DFE0FD5F0E9E4CEFD22ED97
:10078500F8F5F0EE8420D21CFEADF075F008EF2FE1
:10079500FFED33FD4007985006D5F0F222C398FDD2
:0507A5000FD5F0EA226F
:1007AA00EB9FF5F0EA9E42F0E99D42F0E89C45F0A5
:0107BA00221C
:1007BB00E8600FECC313FCED13FDEE13FEEF13FF1C
:0307CB00D8F12240
:1007CE00E8600FEFC333FFEE33FEED33FDEC33FC89
:0307DE00D8F1222D
:0C07E100ECF208EDF208EEF208EFF22254
:1007ED00D083D082E493F208740193F208740293DB
:0907FD00F208740393F274047312
:10002600E5102492F8E2051022788F3007027892C4
:10003600E475F0011208060206DB2000EB7F2ED2E3
:10004600008018EF540F2490D43440D4FF30040BB2
:10005600EF24BFB41A0050032461FFE511600215B6
:10006600110514E5147002051330070D788FE47539
:10007600F001120806EF0207210200037403D207FB
:100086008003E4C207F510788F120816E4F511F51F
:1000960013F514E51160077F2012006180F57512D3
:1000A600FFC201C200C202C203C205C206C20812D2
:1000B600002FFF700D3007057F00120072AF14AEDF
:1000C6001322B4255FC2D5C20412002FFF24D0B478
:1000D6000A00501A75F00A781130D50508B6FF01E6
:1000E60006C6A426F620D5047002D20380D924CFF2
:1000F600B41A00EF5004C2E5D204020271D20180A4
:10010600C6D20080C0D20280BCD2D580BAD20580C9
:10011600B47F201200612002077401B5110040F17E
:10012600120026FF120061020099D208D2068095BD
:10013600120026FB120026FA120026F94A4B700618
:1001460079427A037BFF20022EE511602A7E008E1B
:10015600827583001206F460060EEE651270F0C218
:10016600D5EBC0E0EAC0E0E9C0E0EE1202B8D0E0AC
:10017600F9D0E0FAD0E0FB1206DBFF60AAEBC0E0A4
:10018600EAC0E0E9C0E0120061D0E02401F9D0E065
:100196003400FAD0E0FBE5120460DCD512D9808782
:1001A6007BFF7A0279B4D202809C791080027908AA
:1001B600C206C2088008D2D5790A8004790AC2D557
:1001C600E512047002F512E4FAFDFEFF120026FCA9
:1001D6007B08200113120026FD7B1030000A120056
:1001E60026FE120026FF7B20EC3382D592D55013D3
:1001F600C3E43000069FFFE49EFEE42001039DFD5C
:10020600E49CFCE4CBF8C201EC700CCFCECDCCE87C
:1002160024F8F870F38017C3EF33FFEE33FEED33A7
:10022600FDEC33FCEB33FB994002FB0FD8E9EB30D6
:100236000105F8D0E0C448B201C0E00AEC4D4E4FCB
:1002460078207B0070C2EAB5120040BCC0E0120202
:10025600BAD0F0D0E0200104C4C0E0C4B201C0F0BE
:1002660012004AD0F0D5F0EB02009912081F0136B1
:100276005301B05801074C01034201B44F01BC447D
:1002860001BC49011C4301C25501A64601A6450110
:01029600A6C1
:1002970047036250010B2D010F2E01322B0113234F
:1002A700013020034B2A00CB480000012A3F3F3F83
:1002B70000790AA2D5200314300509B910020404F5
:1002C700B9080104A2D52006025001042002689251
:1002D70002B511005034C0E07F203003197F30A2EF
:1002E7000272067205500F120311C202C206C2053E
:1002F700C2087F30800F300503E9C0E0120061308B
:100307000503D0E0F9D0E0B511CC3005177F30B93F
:10031700100C1200617F583004077F788003B908FA
:10032700031200613002057F2D0200617F20200843
:10033700F87F2B2006F322920280CF286E756C6C13
:100347002900D2011200263001F8C201781130D5F8
:100357000108F60200CB2D5043495812002624030A
:10036700B405004001E490035D93120052743A1201
:0A0377000052D2037511040201B018
:10080600FAE2FB0808E2F925F0F218E2CA3AF22207
:09081600EBF208EAF208E9F22213
:10081F00D083D082F8E4937012740193700DA3A368
:10082F0093F8740193F5828883E47374029368607C
:06083F00EFA3A3A380DF7C
:00000001FF
