:030000000216FDE8
:0C16FD00787FE4F6D8FD758121021744C7
:101590006164643A202530326258204C656E3A20EE
:1015A000253032625820446174613A00202530327F
:1015B0006258000D0A0053617665436667546F45B3
:1015C0003220203A202530326258200D0A00536123
:1015D0007665436667546F453220203A20253032C5
:1015E000625820253032625820253032625820253A
:1015F00030326258202530326258200D0A00706166
:10160000676531313A20253032625820002025307C
:101610003262582000706167653A20005361766538
:10162000436667546F45323A202530326258200DA8
:101630000A005072696E74665F4366673A2025300F
:07164000326258200D0A0080
:08001600C10AC1094100EC011F
:0E000300900069EFF0121CDD900069E0FF2212
:091CD400D2BAD28AD2AAD2AF2200
:03001300021BAC21
:0D1BAC00C0E0C0F0C083C082C0D075D0087A
:101BB9007F2C121C9AEF30E102D20AEF30E002D2F8
:011BC9000912
:0B1BCA00D0D0D082D083D0F0D0E03229
:0B1789009000B6EBF0A3EAF0A3E9F03B
:101794009000B6E0FBA3E0FAA3E0F9120EAF9000CC
:1017A400B9120F3D900005120E01FFC313540190AE
:1017B40000BDF0900004120E011313135401C4333E
:1017C4003354C0FEEF1313540F4EFB9000B9E0FCEA
:1017D400A3E0FDA3E0FEA3E0FFA3E0900000F0A3DC
:1017E400EBF09000B6E0FBA3E0FAA3E02406F9E4F2
:1017F4003AFA900000EBF0A3EAF0A3E9F00200004B
:101A0500900001120E019000A4F0900002120E0148
:101A1500FFE4FEEEC39F501CEEF582758300A3A381
:101A2500A3120E01FD74A52EF582E43400F583EDB5
:101A3500F00E80DF7B017A0079A59000A4E0FDEF30
:091A450024039000E1F00219A352
:0B18DE009000C6EBF0A3EAF0A3E9F0D5
:1018E9007BFF7A157990900044EDF09000CAE09062
:1018F9000045F0120091E49000CBF09000CAE0FF9F
:10190900A3E0FEC39F50289000C6E0FBA3E0FAA322
:10191900E0F98E82758300120E01900044F07BFF7E
:101929007A1579AC1200919000CBE004F080CC7B61
:08193900FF7A1579B302009159
:0B09560090007AEBF0A3EAF0A3E9F0B8
:100961007BFF7A1579B69000ECE0900044F012001C
:100971009190007AE0FBA3E0FAA3E0F9120DE89070
:10098100007DF0900028120E01FFC41313135401CF
:10099100900081F0EF5403A3F0900028120E01FFA4
:1009A10013135403900083F0EFC4540790007EF0BA
:1009B100900026120E0190007FF0900027120E0188
:1009C100900080F07BFF7A1579CE90007DE0900059
:1009D10044F090007EE0900045F090007FE09000B0
:1009E10046F0900080E0900047F01200917B017A80
:1009F10000797D9000E17407F0E4FD1219A37B01F9
:100A01007A00797D9000CA7407F0E4FD1218DE9037
:100A1100007AE0FBA3E0FAA3E0F9900006120ECF02
:100A21009000B1120F3DE49000B5F07B017A00799E
:100A31007DFD12164790007AE0FBA3E0FAA3E0F9EE
:100A4100900012120ECF9000B1120F3DE49000B54C
:100A5100F07B017A00797D7D041216477B017A00D3
:100A6100797D9000E17408F0FD1219A390007AE0FD
:100A7100FBA3E0FAA3E0F990000A120ECF9000B1B7
:100A8100120F3D900029120E0154019000B5F07B28
:100A9100017A00797DE4FD12164790007AE0FBA30C
:100AA100E0FAA3E0F990000E120ECF9000B1120F00
:100AB1003D900029120E01FFC31354019000B5F0BF
:100AC1007B017A00797D7D041216477B017A0079DA
:100AD1007D9000E17408F07D101219A390007AE076
:100AE100FBA3E0FAA3E0F9900016120ECF9000B13B
:100AF100120F3D900029120E01FF131354019000B3
:100B0100B5F07B017A00797DE4FD12164790007AF9
:100B1100E0FBA3E0FAA3E0F990001A120ECF9000D7
:100B2100B1120F3D900029120E01FF13131354014E
:100B31009000B5F07B017A00797D7D041216477B28
:100B4100017A00797D9000E17408F07D181219A3F3
:100B510090007AE0FBA3E0FAA3E0F990001E120EE8
:100B6100CF9000B1120F3D900029120E01FFC45425
:100B7100019000B5F07B017A00797DE4FD12164702
:100B810090007AE0FBA3E0FAA3E0F9900022120EB4
:100B9100CF9000B1120F3D900029120E01FFC41336
:100BA10054019000B5F07B017A00797D7D04121625
:100BB100477B017A00797D9000E17408F07D200285
:020BC10019A376
:05194100900037EFF0FB
:101946007BFF7A1579FE900044F01200917B017AB4
:10195600007939900037E0FD9000457408F01218C0
:1019660076E4900038F0900038E0FFC39408748065
:10197600948050207BFF7A16790D74392FF582E416
:101986003400F583E0900044F0120091900038E0B6
:0D19960004F080D27BFF7A1579B302009136
:101BFE00900034EBF0A3EAF0A3E9F07BFF7A1679BC
:101C0E0015120091E4FF1219417F101219417F182D
:081C1E001219417F2002194157
:0B06AE00900085EBF0A3EAF0A3E9F058
:1006B9007B017A0079889000457408F0E4FD1218EE
:1006C90076900088E0FF900085E0FBA3E0FAA3E0C4
:1006D900F9EF120E2E900085E0FBA3E0FAA3E0F9F2
:1006E900120DE8FFE92401F9E43AFA1213F890002F
:1006F90089E05407C454F0FF900085E0FBA3E0FAB9
:10070900A3E02428F9E43AFA120DE8548F4F120EA7
:100719002E90008AE0FF900085E0FBA3E0FAA3E0B9
:10072900F9900026EF120E4090008BE090002712FE
:100739000E4090008CE05401C43333335480FFE9F8
:100749002428F9E43AFA120DE8547F4F120E2E903C
:10075900008DE05403FF120DE854FC4F120E2E9049
:10076900008EE0540325E025E0FF120DE854F34F15
:10077900120E2E7B017A0079889000457408F0FDED
:100789001218767B017A007988E4FD1214D790005B
:1007990085E0FBA3E0FAA3E0F9900006120F197BAC
:1007A900017A0079887D041214D7900085E0FBA3B3
:1007B900E0FAA3E0F9900012120F197B017A00798F
:1007C900889000457408F07D10121876900089E031
:1007D9005401FF900085E0FBA3E0FAA3E02429F986
:1007E900E43AFA120DE854FE4F120E2E7B017A00FC
:1007F9007988E4FD1214D7900085E0FBA3E0FAA301
:10080900E0F990000A120F1990008CE0540125E0DC
:10081900FFE92429F9E43AFA120DE854FD4F120EC2
:100829002E7B017A0079887D041214D7900085E027
:10083900FBA3E0FAA3E0F990000E120F197B017AED
:100849000079889000457408F07D18121876900098
:1008590088E0540125E025E0FF900085E0FBA3E056
:10086900FAA3E02429F9E43AFA120DE854FB4F12ED
:100879000E2E7B017A007988E4FD1214D790008549
:10088900E0FBA3E0FAA3E0F9900016120F1990001B
:100899008CE0540133333354F8FFE92429F9E43A5D
:1008A900FA120DE854F74F120E2E7B017A0079885F
:1008B9007D041214D7900085E0FBA3E0FAA3E0F9C8
:1008C90090001A120F197B017A00798890004574FB
:1008D90008F07D20121876900088E05401C454F085
:1008E900FF900085E0FBA3E0FAA3E02429F9E43AAC
:1008F900FA120DE854EF4F120E2E7B017A00798817
:10090900E4FD1214D7900085E0FBA3E0FAA3E0F917
:1009190090001E120F1990008CE05401C43354E06A
:10092900FFE92429F9E43AFA120DE854DF4F120ECF
:100939002E7B017A0079887D041214D7900085E016
:0D094900FBA3E0FAA3E0F9900022020F19D1
:10130B007B017A00796A9000457408F0E4FD1218AD
:10131B00767F60121C9A900074EFF0E0FE540190FF
:10132B00006EF0EE5403A3F07F70121C9AEF54037F
:10133B00900070F07F0F121C9AEF540790006BF027
:10134B007F2B121C9A90006CEFF07F2C121C9A9042
:10135B00006DEFF07B017A00796A9000E17407F081
:10136B00E4FD1219A3E4900072F0900072E0C394B4
:10137B0008748094805075900074E025E025E0900F
:10138B000073F004FF121C9AEF5401900075F0905B
:10139B000073E0FF121217900076120F3D7B017A5B
:1013AB0000796A900073E05407FDC005900076E069
:1013BB00FCA3E0FDA3E0FEA3E0FF9000B1120F3D04
:1013CB00900075E09000B5F0D0051216477B017ABE
:1013DB0000796A900073E02410FD9000E17404F032
:0C13EB001219A3900072E004F0021375C8
:0113F70022D3
:101A4E00900031EBF0A3EAF0A3E9F07BFF7A167970
:101A5E001C9000ECE0900044F01200917B017A00A3
:101A6E007931121BFE7BFF7A1679329000ECE090F2
:061A7E000044F00200919B
:1018040013135401900095F0E4A3F07B01A304F0BA
:08181400A37400F0A374CFF0EF
:10181C00900097E0FBA3E0FAA3E0F9120EFF900012
:10182C0095E0540125E0FF900097E0FBA3E0FAA3BC
:10183C00E02405F9E43AFA120DE854FD4F120E2E8D
:10184C00900094E0FF900097E0FBA3E0FAA3E0F98E
:10185C00900007EF120E40900096E0900008120ED8
:0A186C00407B017A0079970217898A
:10038B009000CCEBF0A3EAF0A3E9F0A3E0FBA3E031
:10039B00FAA3E02404F9E43AFA120DE84408120E29
:1003AB002E9000CFE0FBA3E0FAA3E02405F9E43A9A
:1003BB00FA120DE854C3120E2E9000CCE0FBA3E012
:1003CB00FAA3E0F990000A120ECF9000CFE0FBA346
:1003DB00E0FAA3E0F9120EFF9000CCE0FBA3E0FAE9
:1003EB00A3E0F9900029120E01540125E0FF9000C3
:1003FB00CFE0FBA3E0FAA3E02405F9E43AFA120DEF
:10040B00E854FD4F120E2E7B017A0079CF1217891B
:10041B009000CFE0FBA3E0FAA3E02405F9E43AFA5D
:10042B00120DE854C3441C120E2E9000CFE0FBA318
:10043B00E0FAA3E0F990000674FE120E40E92406E0
:10044B00F9E43AFAC003C002C0019000CCE0FBA370
:10045B00E0FAA3E0F990000A120ECF9000B1120F50
:10046B003D900029120E0154019000B5F0D001D03F
:10047B0002D0037D031216479000CCE0FBA3E0FAF9
:10048B00A3E0F990000A120ECFE4900094F09000D4
:10049B0029120E015401900095F0120DE890009670
:1004AB00F0A374011218139000CCE0FBA3E0FAA3A5
:1004BB00E0F990000A120ECFC0079000947404F07C
:1004CB00900029120E015401900095F09000281213
:1004DB000E01C41313135401900096F0A37401F092
:1004EB00A37400F0A374CFF0D00712181C9000CCAB
:1004FB00E0FBA3E0FAA3E0F990000A120ECFC007CD
:10050B009000947401F0900029120E015401900098
:10051B0095F0900028120E01C45407900096F0A39A
:10052B007401F0A37400F0A374CFF0D00712181C61
:10053B009000CCE0FBA3E0FAA3E0F990000A120EC6
:10054B00CF9000947402F0900029120E0154019088
:10055B000095F0900026120E01900096F0A3740106
:10056B001218139000CCE0FBA3E0FAA3E0F9900083
:10057B000A120ECF9000947403F0900029120E0112
:10058B005401900095F0900027120E01900096F008
:10059B00A374011218139000CCE0FBA3E0FAA3E0C4
:1005AB00F990000E120ECF9000947407F090002972
:1005BB00120E011218069000CCE0FBA3E0FAA3E0A8
:1005CB00F9900016120ECF9000947408F090002949
:1005DB00120E01C31218059000CCE0FBA3E0FAA3A6
:1005EB00E0F990001A120ECF9000947409F090006D
:1005FB0029120E011218049000CCE0FBA3E0FAA321
:10060B00E0F990001E120ECF900094740AF0900047
:10061B0029120E01131218049000CCE0FBA3E0FA90
:10062B00A3E0F9900022120ECF900094740BF0907F
:10063B000029120E01C41218069000CCE0FBA3E0B7
:10064B00FAA3E0F9900022120ECF900094740CF0F4
:10065B00900029120E01C41218059000CCE0FBA3E8
:10066B00E0FAA3E0F9900006120ECF900094740DFF
:10067B00F0E4A3F012180D9000CCE0FBA3E0FAA37A
:10068B00E0F9900012120ECF900094740EF0E4A3D8
:10069B00F0A3F07B01A304F0A37400F0A374CFF0DC
:0306AB0002181C16
:101B8100900000120F4900000101E4900004F0A34D
:101B91007408F0121C66121CD47B017A00790712BA
:0B1BA1001A4E7FD07E07121C4780F711
:101C4700D3EF9400EE94004015E4FDFC0DBD0001B8
:0E1C57000CED64644C70F5EF1F70E51E80E22A
:011C6500225C
:101C2600E4FFC295FEEEC39408748094805011D2EE
:101C360095EF25E0FFA293E4334FFFC2950E80E5B2
:011C4600227B
:101BD500E4FEEEC3940874809480501AC295A8065A
:101BE500EF088002C333D8FC30E704D2948002C2E8
:081BF50094D2950E80DCC2952C
:011BFD0022C5
:101B53009000D3E0FCA3E0FDA3E0FEA3E0FF120EA0
:081B630089AD079000D2E0FFFC
:101B6B00AC07C2927F02121BD5AF04121BD5AF0577
:061B7B00121BD5D29222DC
:021C9A00AD0794
:101C9C00C2927F03121BD5AF05121BD5121C26D284
:011CAC0092A5
:011CAD002214
:0A1CCA00C2927FC0121BD5D29222F5
:1014D7009000E2EBF0A3EAF0A3E9F0A3EDF0240219
:1014E700FFE433FE9000E2E0FBA3E0FAA3E0F98F0C
:1014F700828E83120E017E007810C333CE33CED88E
:10150700F9FFEE3395E0FDFCC004C005C006C00737
:101517009000E5E02401FFE433FE9000E2E0FBA346
:10152700E0FAA3E0F98F828E83120E017E0078180D
:10153700C333CE33CED8F9FFEE3395E0FDFCD003AD
:10154700D002D001D000EF4BFFEE4AFEED49FDEC93
:1015570048FCC004C005C006C0079000E5E02403AE
:10156700FFE433FE9000E2E0FBA3E0FAA3E0F98F8B
:10157700828E83120E01FFD003D002D001D000EB80
:091587004FFFEAFEE9FDE8FC2239
:101647009000ADEBF0A3EAF0A3E9F0A3EDF0900072
:10165700B5E075F080A4FFAEF0EE3395E0FDFCC079
:1016670004C005C006C0079000B1E0FCA3E0FDA3DD
:10167700E0FEA3E0FF7818120E89D003D002D00154
:10168700D000EF4BFF9000ADE0FBA3E0FAA3E0F939
:10169700A3E0F582758300EF120E409000B1E0FCE5
:1016A700A3E0FDA3E0FEA3E0FF7810120E899000EF
:1016B700B0E0F582758300A3EF120E409000B1E011
:1016C700FCA3E0FDA3E0FEA3E0FF7808120E8990DB
:1016D70000B0E0F582758300A3A3EF120E409000DF
:1016E700B1A3A3A3E0FF9000B0E0F582758300A348
:0616F700A3A3EF020E4068
:0512170090009AEFF0C9
:10121C0004FF121C9AA3EFF090009AE0FF121C9AA4
:10122C00E4FCFDFE7803120E9CA804A905AA06ABEB
:10123C0007A3E0C4135407FFEB4FFFEAFEE9FDE8F8
:10124C00FCA3120F3D90009AE02402FF121C9AE4BA
:10125C00FCFDFE7808120E9CC004C005C006C00739
:10126C00A3E05403FFE4FCFDFE7810120E9CD003A7
:10127C00D002D001D000EF4BFFEE4AFEED49FDEC61
:10128C0048FCC004C005C006C00790009AE02403C7
:10129C00FF121C9AD003D002D001D000EB4FFFEA12
:1012AC00FEE9FDE8FC9000A0120F3D9000A0E0FCD0
:1012BC00A3E0FDA3E0FEA3E0FFEC4D4E4F700790C2
:1012CC00009BE030E32A90009CE0FCA3E0FDA3E04F
:1012DC00FEA3E0FF7812120E9CA3E0F8A3E0F9A3A2
:1012EC00E0FAA3E04FFFEA4EFEE94DFDE84CFC228C
:0E12FC0090009CE0FCA3E0FDA3E0FEA3E0FF59
:01130A0022C0
:10111F009000D2EFF0E47FFF7E07FDFCA3E0F8A381
:10112F00E0F9A3E0FAA3E0FBD3120E785009900088
:10113F00D7E070030211E17815121B53E004FFC0D2
:10114F0007A3E0FCA3E0FDA3E0FEA3E0FF781212EB
:10115F000E89EF5407FFE4FEFDFC7805120E9CC0CC
:10116F0004C005C006C0079000D3E0FCA3E0FDA3B8
:10117F00E0FEA3E0FF7810120E89EF5403FFD003B7
:10118F00D002D001D000EB4FFFEAFEE8FCEF44089D
:10119F00FFAD07D007121B6B9000D2E02402FFC0F7
:1011AF0007A3E0FCA3E0FDA3E0FEA3E0FF78081295
:1011BF000E89AD07D007121B6B9000D2E02403FFFE
:1011CF00C007A3E0FCA3A3E0FEA3E0FFAD07D00799
:1011DF0080327803121B53E004FFC007A3A3A3A31D
:1011EF00E05407FFE4FEFDFC7805120E9CAD07D01E
:1011FF0007121B6B9000D2E02402FFE4FD121B6B61
:08120F00E02403FF121B6B2217
:0B13F8009000BEEBF0A3EAF0A3E9F0C8
:10140300EF75F005A424F6601F24F1602224E76041
:101413002524CE602B24E7603A2483604924F570A9
:10142300579000C1743180309000C17413802990AB
:1014330000C1740980229000C17404F0A304801CCD
:101443009000C17401F0A37407F0A37438F0A3747F
:101453000280349000C17401F0A37405F0A37430CA
:10146300F0A374018021E49000C1F0A37405F0A3FC
:101473007430F0A37401800FE49000C1F0A304F072
:10148300A37410F0A37401F0E4A3F09000C1E0FF93
:101493009000BEE0FBA3E0FAA3E0F9EF120E2E905A
:1014A30000C2E0FF9000BEE0FBA3E0FAA3E0F990E6
:1014B3000001EF120E409000C3E0900002120E40B4
:1014C3009000C4E0900003120E409000C5E090002D
:0414D30004020E40C1
:100BC3009000E6EBF0A3EAF0A3E9F0121CCA7F0160
:100BD3007E00121C479000E6E0FBA3E0FAA3E0F9D5
:100BE300900001120E01FF900005120E014FFD7FD0
:100BF3002A121B6B9000E6E0FBA3E0FAA3E0F99056
:100C03000003120E014480FF900002120E014FFDFB
:100C13007F29121B6B9000E6E0FBA3E0FAA3E0F947
:100C2300900004120E014480FD7F28121B6B90007C
:100C3300E6E0FBA3E0FAA3E0F9900028120E01C45A
:100C4300131313540125E025E0FD7F60121B6B7D18
:100C5300607F70121B6B9000E6E0FBA3E0FAA3E059
:100C6300F9900027120E01FD7F2C121B6B9000E6FA
:100C7300E0FBA3E0FAA3E0F9900026120E01FD7F4A
:100C83002B121B6B9000E6E0FBA3E0FAA3E0F990C4
:100C9300000A120ECF9000D3120F3D900029120EBE
:100CA3000154019000D7F0E4FF12111F9000E6E019
:100CB300FBA3E0FAA3E0F990000E120ECF9000D34D
:100CC300120F3D900029120E01C31354019000D757
:100CD300F07F0412111F9000E6E0FBA3E0FAA3E00B
:100CE300F9900016120ECF9000D3120F3D900029F9
:100CF300120E01131354019000D7F07F0812111F35
:100D03009000E6E0FBA3E0FAA3E0F990001A120ECC
:100D1300CF9000D3120F3D900029120E011313132D
:100D230054019000D7F07F1012111F9000E6E0FBF2
:100D3300A3E0FAA3E0F990001E120ECF9000D312A5
:100D43000F3D900029120E01C454019000D7F07F8B
:100D53001412111F9000E6E0FBA3E0FAA3E0F99060
:100D63000022120ECF9000D3120F3D900029120ED5
:100D730001C41354019000D7F07F1812111F900083
:100D8300E6E0FBA3E0FAA3E0F9900006120ECF9091
:100D930000D3120F3D9000D77401F07F2012111F72
:100DA3009000E6E0FBA3E0FAA3E0F9900012120E34
:100DB300CF9000D3120F3D9000D77401F07F24121F
:100DC300111F7D447F0F121B6B7F0E121C9AEF7E47
:100DD3000060047F0180027F00EF4E60077D447F47
:050DE3000F121B6B2242
:0B100C009000D8EBF0A3EAF0A3E9F09D
:10101700E49000DCF09000DCE0FFC394037480945C
:10102700805019EF75F00FA42430FF9000DBF01209
:101037001C9AEF30E306A3E004F080D99000DBE0D0
:1010470004FFC0079000D8E0FBA3E0FAA3E0F91281
:101057000EAF9000D3120F3D900005120E01C3137F
:1010670054019000D7F0D00712111F9000DBE02445
:1010770005FF9000D8E0FBA3E0FAA3E0F990000495
:10108700120E011313135401C4333354C0FE9000DE
:1010970005120E011313540F4EFD121B6BE4900043
:1010A700DCF09000D8E0FBA3E0FAA3E0F99000059C
:1010B700120E011313540FFF9000DCE0FED39F5074
:1010C70032EE94087480948050299000DBE0240667
:1010D700FFA3E02FFFE92406F9E43AFAEE7C0029A2
:1010E700F9EC3AFA120DE8FD121B6B9000DCE004F4
:1010F700F080AFC2929000DBE0FF9000D8E0FBA346
:10110700E0FAA3E0F9900004120E01FEC454034470
:0711170008FD121B6BD292D0
:01111E0022AE
:02001E00C10B14
:101C6600C2AF53890F438920759850758DFA758BCD
:0F1C7600FA438780D299D2ACD28ED29CD2AF22C1
:03002300021CBFFD
:0B1CBF00309803C29832C299C20B3269
:081CDD008F99D20B200BFD22B0
:101ABA009000E9EBF0A3EAF0A3E9F09000E9E0FB7B
:101ACA00A3E0FAA3E0F9120DE8FF121CDD9000E989
:101ADA00E0FBA3E475F001120E62A9F0FA120DE818
:031AEA0070D9228E
:101CAE00D2A0D2A100000000C2A000000000C2A17C
:011CBE002203
:101C8500C2A1C2A000000000D2A100000000D2A0A5
:051C9500000000002228
:101A84007E80EE601B5F7004C2A08002D2A00000C2
:101A94000000D2A100000000C2A1EEC313FE80E248
:101AA400D2A000000000D2A1A2A092000000000079
:051AB400C2A1A200B375
:011AB900220A
:101AED00D2A07E80EE601D00000000D2A120A005D6
:101AFD00F45FFF8003EF4EFF00000000C2A1EEC3B4
:101B0D0013FE80E0D2A000000000D2A10000000072
:021B1D00C2A163
:011B1F0022A3
:101B2000D2A07E80EE601D00000000D2A120A005A2
:101B3000F45FFF8003EF4EFF00000000C2A1EEC380
:101B400013FE80E0C2A000000000D2A1000000004F
:021B5000C2A130
:011B52002270
:10187600900041EBF0A3EAF0A3E9F0121CAE7FA0C2
:10188600121A844005121C8580F1AF05121A8412C3
:101896001CAE7FA1121A84900045E0D39401748097
:1018A6009480401F121B20900041E0FBA3E475F0DA
:1018B60001120E62A9F0FAEF120E2E900045E01406
:1018C600F080D4121AED900041E0FBA3E0FAA3E009
:0818D600F9EF120E2E021C8531
:1019A3009000DDEBF0A3EAF0A3E9F09000E1E0D3CF
:1019B3009400748094804049121CAE7FA0121A8454
:1019C3004005121C8580F1AF05121A849000E1E0F6
:1019D300D394007480948040239000DDE0FBA3E463
:1019E30075F001120E62A9F0FA120DE8FF121A84C3
:1019F3009000E1E014F00DED540770D0121C8580C7
:021A0300AA2215
:10170900021B81E493A3F8E493A34003F68001F25A
:1017190008DFF48029E493A3F85407240CC8C333E1
:10172900C4540F4420C8834004F456800146F6DFB0
:10173900E4800B0102040810204080900016E47E2A
:10174900019360BCA3FF543F30E509541FFEE493A5
:10175900A360010ECF54C025E060A840B8E493A36C
:10176900FAE493A3F8E493A3C8C582C8CAC583CA97
:10177900F0A3C8C582C8CAC583CADFE9DEE780BE4F
:0100200000DF
:100DE800BB010689828A83E0225002E722BBFE0209
:090DF800E32289828A83E493223C
:100E0100BB010CE58229F582E5833AF583E02250A6
:100E110006E92582F8E622BBFE06E92582F8E222F0
:0D0E2100E58229F582E5833AF583E493220A
:100E2E00BB010689828A83F0225002F722BBFE01A3
:020E3E00F3229D
:100E4000F8BB010DE58229F582E5833AF583E8F0E8
:100E5000225006E92582C8F622BBFE05E92582C894
:020E6000F2227C
:100E6200A3F8E0C5F025F0F0E58215827002158343
:060E7200E0C838F0E822A0
:100E7800EB9FF5F0EA9E42F0E99D42F0E89C45F0D0
:010E88002247
:100E8900E8600FECC313FCED13FDEE13FEEF13FF47
:030E9900D8F1226B
:100E9C00E8600FEFC333FFEE33FEED33FDEC33FCB4
:030EAC00D8F12258
:100EAF00BB010789828A83020F865005E9F8020F7A
:100EBF007ABBFE05E9F8020F9289828A83020F9EA0
:100ECF00BB010DE58229F582E5833AF583020F8692
:100EDF005007E92582F8020F7ABBFE07E92582F851
:100EEF00020F92E58229F582E5833AF583020F9E80
:100EFF00BB010789828A83020F3D5005E9F8020F73
:0A0F0F00AEBBFE05E9F8020FBA229E
:100F1900BB010DE58229F582E5833AF583020F3D90
:100F29005007E92582F8020FAEBBFE07E92582F8D2
:040F3900020FBA22C7
:0C0F3D00ECF0A3EDF0A3EEF0A3EFF02227
:100F4900A8828583F0D083D082120F60120F6012BD
:100F59000F60120F60E473E493A3C583C5F0C583E2
:100F6900C8C582C8F0A3C583C5F0C583C8C582C8F2
:010F79002255
:10002600E5102444F582E43400F583E005102290BF
:100036000041300703900044E475F001120FC60238
:100046000DE82000E97F2ED2008018EF540F24908F
:10005600D43440D4FF30040BEF24BFB41A0050034D
:100066002461FFE511600215110514E514700205FF
:100076001330070E900041E475F001120FC6EF022F
:100086000E2E0200037403D2078003E4C207F510A4
:10009600900041120FDDE4F511F513F514E511603A
:1000A600077F2012006980F57512FFC201C200C2E7
:1000B60002C203C205C206C208120035FF700D3027
:1000C60007057F0012007AAF14AE1322B4255FC273
:1000D600D5C204120035FF24D0B40A00501A75F0B8
:1000E6000A781130D50508B6FF0106C6A426F62003
:1000F600D5047002D20380D924CFB41A00EF50047D
:10010600C2E5D20402027BD20180C6D20080C0D2F0
:100116000280BCD2D580BAD20580B47F2012006995
:100126002002077401B5110040F1120026FF1200EB
:10013600690200A3D208D2068095120026FB12009F
:1001460026FA120026F94A4B7006794C7A037BFF91
:1001560020022EE511602A7E008E82758300120E23
:100166000160060EEE651270F0C2D5EBC0E0EAC083
:10017600E0E9C0E0EE1202C2D0E0F9D0E0FAD0E049
:10018600FB120DE8FF60AAEBC0E0EAC0E0E9C0E0C0
:10019600120069D0E02401F9D0E03400FAD0E0FB87
:1001A600E5120460DCD512D980877BFF7A0279BE1E
:1001B600D202809C791080027908C206C2088008A3
:1001C600D2D5790A8004790AC2D5E512047002F5FF
:1001D60012E4FAFDFEFF120026FC7B082001131232
:1001E6000026FD7B1030000A120026FE120026FFB4
:1001F6007B20EC3382D592D55013C3E43000069FA2
:10020600FFE49EFEE42001039DFDE49CFCE4CBF8A4
:10021600C201EC700CCFCECDCCE824F8F870F38098
:1002260017C3EF33FFEE33FEED33FDEC33FCEB3358
:10023600FB994002FB0FD8E9EB300105F8D0E0C48A
:1002460048B201C0E00AEC4D4E4F78207B0070C2E8
:10025600EAB5120040BCC0E01202C4D0F0D0E020E3
:100266000104C4C0E0C4B201C0F0120052D0F0D5FF
:10027600F0EB0200A3120FE601405301BA58011138
:100286004C010D4201BE4F01C64401C64901264339
:0802960001CC5501B04601B096
:10029E004501B047036C5001152D01192E013C2B61
:1002AE00011D23013A2003552A00D54800000134D0
:1002BE003F3F3F00790AA2D5200314300509B9103B
:1002CE00020404B9080104A2D5200602500104203C
:1002DE0002689202B511005034C0E07F203003193D
:1002EE007F30A20272067205500F12031BC202C2A9
:1002FE0006C205C2087F30800F300503E9C0E01248
:10030E000069300503D0E0F9D0E0B511CC30051707
:10031E007F30B9100C1200697F583004077F788047
:10032E0003B908031200693002057F2D0200697FB0
:10033E00202008F87F2B2006F322920280CF286E11
:10034E00756C6C2900D2011200263001F8C20178BA
:10035E001130D50108F60200D52D50434958120030
:10036E00262403B405004001E49003679312005A5B
:0D037E00743A12005AD2037511040201BA3C
:0C0F7A00E6FC08E6FD08E6FE08E6FF22A3
:0C0F8600E0FCA3E0FDA3E0FEA3E0FF22DE
:0C0F9200E2FC08E2FD08E2FE08E2FF229B
:100F9E00E493FC740193FD740293FE740393FF2299
:0C0FAE00ECF608EDF608EEF608EFF6226F
:0C0FBA00ECF208EDF208EEF208EFF22273
:100FC600F8E0FBA3A3E0F925F0F0E58215827002B4
:070FD6001583E0FA38F02258
:090FDD00EBF0A3EAF0A3E9F02215
:100FE600D083D082F8E4937012740193700DA3A39A
:100FF60093F8740193F5828883E4737402936860AE
:06100600EFA3A3A380DFAD
:00000001FF
