:03000000020EA944
:0C0EA900787FE4F6D8FD758122020EF07F
:100ADA0043616E2073656E642020200043616E209E
:100AEA00726563657669650043616E2073656E643D
:100AFA002049443A202530376C582C2020444C4356
:100B0A003A2562782C2020446174613A20004361BE
:100B1A006E2073656E642049443A2025376C582C40
:100B2A002020444C433A2562782C20204461746189
:100B3A003A2000253032625820000D0A00526563BF
:100B4A0065697665205258425F4354524C5F41644E
:100B5A0064726573733A202562582C20444C433AD8
:100B6A002562782C20446174613A00526561645FA1
:100B7A005258425F4354524C3A2025303262582C24
:100B8A0020205258463A256258200D0A0031053075
:100B9A000100130530010009053001000405300188
:100BAA00000107380200010530010000053001008C
:100BBA000001100100000000000000000000000019
:0D0BCA00000000000020F1020304050607F2
:10117300C10CC10AC10BC109C110C10FC10EC10D00
:0C0003007879EFF21211997879E2FF226F
:09119000D2BAD28AD2AAD2AF224F
:03001300020FEAEF
:0D0FEA00C0E0C0F0C083C082C0D075D00848
:100FF7007F2C12115FEF30E702D20CEF30E602D2FE
:101007000AEF30E502D20BEF30E402D209EF30E30A
:1010170002D210EF30E202D20FEF30E102D20EEF30
:0510270030E002D20DD3
:0B102C00D0D0D082D083D0F0D0E032D2
:0A0E0B007809EEF208EFF208EDF2AC
:100E1500E408F208F2087C007DFE7BFF7A0B79BFBF
:100E2500FE7F08120451780BE2FBFD7C007809E295
:100E3500FE08E2FF1204DFAA057809E2FE08E2FFD8
:100E4500EBFD7C001204DF7809EEF208EFF2780C76
:100E5500E2FD04F2740E2DF8EAF2D3EF9400EE945D
:100E65000050C3780CE214F2240EF8E2FAD3940988
:100E750074809480EA5004243080022437FF780D72
:100E8500E2FE04F274002EF8EFF2780CE2D394003F
:100E95007480948050CD08E22400F8E4F27BFE7A59
:030EA500007900D1
:010EA8002227
:0A0D55007860EBF208EAF208E9F218
:100D5F0012056B786412058B900004120490FF1338
:100D6F00131354017868F2EFC4540F08F290000483
:100D7F00120490FF1313543F7BFF30E0067A0A7979
:100D8F00DA80047A0A79E61200887868E27BFF60DD
:100D9F00067A0A79F280047A0B79187864E2FC08F3
:100DAF00E2FD08E2FE08E2FF786D12058B7869E23A
:100DBF007871F2120088E47863F27869E2FF786361
:100DCF00E2FEC39F502D7860E2FB08E2FA08E224AE
:100DDF0005F9E43AFAEE7E0029F9EE3AFA120477B1
:100DEF00786DF27BFF7A0B793D1200887863E2040D
:0C0DFF00F280C77BFF7A0B794402008869
:070F3500F27BFE7A00793C1B
:0A0F3C007856EBF208EAF208E9F239
:100F460012056B785A12058B900004120490FF1359
:100F560013135401785EF2EFC4540F08F2120D55C4
:100F6600785AE2FC08E2FD08E2FE08E2FF08E278B1
:100F760064F2785FE27865F27856E2FB08E2FA08F6
:100F8600E22405F9E43AFA7866EBF208EAF208E9AF
:040F9600F202063528
:0D0BD7007816EFF208EBF208EAF208E9F2F6
:100BE400E4781BF208F2087C007DFE7BFF7A0B7927
:100BF400C7FE7F081204517816E2FF08E2FB08E200
:100C0400FA08E2F9120F9A7817E2FB08E2FA08E20E
:100C1400F9900005120490540FFF781BF27BFF7AC1
:100C24000B79477816E2786DF208EFF2120088E447
:100C3400781AF2781BE2FF18E2FEC39F5036E2FFF7
:100C44002406F582E433F5837817E2FB08E2FA0818
:100C5400E2F9120490FD741D2FF8EDF27BFF7A0B7C
:100C6400793D741D2EF8E2786DF2120088781AE24C
:100C740004F280BF7BFF7A0B79441200887816E275
:100C8400FF12115F781CEFF27BFF7A0B7975786D98
:080C9400F2540708F202008887
:100C9C00782E120597000007FDE47832F2087408EC
:100CAC00F2087C007DFE7BFF7A0B79CF7E00FF1271
:100CBC0004511211401211907BFF7A0B79AB12097F
:100CCC00CF783C120597000001237840E254FC4495
:100CDC0002F24404F254F7F2540F4480F27834E2F6
:100CEC007841120F357840E254FB120F35E4782C22
:100CFC00F208F2782EE2FC08E2FD08E2FE08E2249B
:100D0C0001FFE43EFEE43DFDE43CFC782E12058B35
:100D1C007832E270047F0180027F007832EFF208B3
:100D2C00E214F27FE87E03121121782DE22401F205
:100D3C0018E23400F2C308E2940218E2940040B3C3
:090D4C007FD07E0712112180FE08
:10103700303132333435363738393A3B3C3D40412D
:1010470042434445464748494A4B4C4D50515253F9
:101057005455565758595A5B5C5D00010203040505
:10106700060708090A0B1011121314151617181979
:0A1077001A1B20212223242526271E
:10112100D3EF9400EE94004015E4FDFC0DBD0001E9
:0E1131000CED64644C70F5EF1F70E51E80E25B
:01113F00228D
:10110000E4FFC295FEEEC39408748094805011D21F
:1011100095EF25E0FFA293E4334FFFC2950E80E5E3
:0111200022AC
:1010B300E4FEEEC3940874809480501AC295A80687
:1010C300EF088002C333D8FC30E704D2948002C215
:0810D30094D2950E80DCC29559
:0110DB0022F2
:0E10DC00E2FB08E2FA08E2F9120490FFE4FDDC
:1010EA00AC07C2927F021210B3AF041210B3AF055D
:0610FA001210B3D2922295
:02115F00AD07DA
:10116100C2927F031210B3AF051210B3121100D255
:0111710092EB
:01117200225A
:0A118600C2927FC01210B3D2922271
:100899007856EFF2E47FFF7E07FDFC08E2FB08E2F1
:1008A900F908E2FA08E2CBF8D31205345066785B0E
:1008B900E260137856E2FFE4FD1210EA7856E2048A
:1008C900FF7D080209927857E2FC08E2FD08E2FE82
:1008D90008E2FF7803120545AD077856E2FF1210CA
:1008E900EA7856E204FFC00708080808E25407FF3F
:1008F900E4FEFDFC7805120558AD07D0071210EA91
:100909007856E22402FFE4FD1210EA7856E2240345
:10091900FF0209CB7857E2FC08E2FD08E2FE08E293
:10092900FF7815120545AD077856E2FF1210EA78EF
:1009390056E204FFC00708E2FC08E2FD08E2FE08EF
:10094900E2FF7812120545EF5407FFE4FEFDFC783B
:1009590005120558C004C005C006C0077857E2FC57
:1009690008E2FD08E2FE08E2FF7810120545EF549F
:1009790003FFD003D002D001D000EB4FFFEAFEE81D
:10098900FCEF4408FFAD07D0071210EA7856E224BD
:1009990002FFC00708E2FC08E2FD08E2FE08E2FFE8
:1009A9007808120545AD07D0071210EA7856E224F7
:1009B90003FFC00708E2FC0808E2FE08E2FFAD07F2
:0609C900D0071210EA2223
:1009CF00E4FF1211867F017E0012112190000412A4
:1009DF000490FF1204774FFD7F2A1210EA90000255
:1009EF001204904480FF9000011204904FFD7F2964
:1009FF001210EA9000031204904480FD7F28121019
:100A0F00EA7D067F601210EA785712059700000101
:100A1F0000785B7401F2E4FF12089978571205977A
:100A2F00000007FEE4785BF27F04120899785712F2
:100A3F000597000007FFE4785BF27F201208997892
:100A4F005712059700000800785B7401F27F0812B7
:100A5F00089978571205971FFFFFFF785B7401F213
:100A6F007F101208997857120597000007FFE47856
:100A7F005BF27F1412089978571205970000000057
:100A8F00E4785BF27F1812089978571205971FFFC9
:100A9F00FFFEE4785BF27F24120899E4FD7F2C12AD
:100AAF0010EA7D037F2B1210EA0D7F0F1210EA7FE1
:100ABF000E12115FEF7E0060047F0180027F00EF56
:0A0ACF004E60077D047F0F1210EA4D
:010AD90022FA
:05063500786012058B46
:10063A007F3012115FEF20E204786980307F401228
:10064A00115FEF20E20F786974FFF2087410F20864
:10065A007445F280237F5012115FEF786920E20D12
:10066A0074FFF2087410F2087453F2800B74FFF2EC
:10067A00087410F2087437F27869E2FB08E2FA08A3
:10068A00E2F9900005120490FF7865E2FD1210EA83
:10069A00E47FFF7E07FDFC7860E2FB08E2F908E2EE
:1006AA00FA08E2CBF8D3120534400302074D786406
:1006BA00E27869601C9000011210DC7869E2FB089C
:1006CA00E2FA08E2F9900002120490FF7D0802079C
:1006DA00E0E2FB08E2FA08E2F9900001120490FF56
:1006EA00C0077860E2FC08E2FD08E2FE08E2FF7853
:1006FA0003120545AD07D0071210EA7869E2FB0834
:10070A00E2FA08E2F9900002120490FFC00778604A
:10071A00080808E25407FFE4FEFDFC7805120558B4
:10072A00AD07D0071210EA78699000031210DC783E
:10073A0069E2FB08E2FA08E2F9900004120490FF69
:10074A000208317869E2FB08E2FA08E2F99000014E
:10075A00120490FFC0077860E2FC08E2FD08E2FE9E
:10076A0008E2FF7815120545AD07D0071210EA789E
:10077A0069E2FB08E2FA08E2F9900002120490FF2B
:10078A00C0077860E2FC08E2FD08E2FE08E2FF78B2
:10079A0012120545EF5407FFE4FEFDFC7805120529
:1007AA0058C004C005C006C0077860E2FC08E2FD34
:1007BA0008E2FE08E2FF7810120545EF5403FFD065
:1007CA0003D002D001D000EB4FFFEAFEE8FCEF4471
:1007DA0008FFAD07D0071210EA7869E2FB08E2FACF
:1007EA0008E2F9900003120490FFC0077860E2FC67
:1007FA0008E2FD08E2FE08E2FF7808120545AD07A7
:10080A00D0071210EA7869E2FB08E2FA08E2F990E6
:10081A000004120490FFC0077860E2FC0808E2FEB8
:10082A0008E2FFAD07D0071210EAE4786CF27865A7
:10083A00E2FF786CE2FED39F503DEE9408748094F8
:10084A008050347869E2FB08E2FA08E2F99000067F
:10085A00120490FF786CE2FE2FFF7866E2FB08E252
:10086A00FA08E2F98E82758300120490FD1210EAEA
:10087A00786CE204F280B7C2927869E2FB08E2FA85
:0E088A0008E2F9120477FF7D081210EAD292FC
:01089800223D
:0D0F9A007825EFF208EBF208EAF208E9F220
:100FA700E4FCECC3940E74809480501E7825E22CE8
:100FB700FF12115F7826E2FB08E2FA08E2F98C8259
:100FC700758300EF1204BD0C80D87825E2FB7A0008
:100FD700646070028006EB64704A7006FD7F2C1215
:020FE70010EA0E
:010FE90022E5
:02118300C11198
:10114000C2AF53890F438920759850758DFA758BFE
:0F115000FA438780D299D2ACD28ED29CD2AF22F2
:03002300020016C2
:0B001600309803C29832C299C2113228
:081199008F99D2112011FD22F3
:101081007829EBF208EAF208E9F27829E2FB08E2B2
:10109100FA08E2F9120477FF1211997829E2FB08A4
:1010A10008E2F92401F218E2FA3400F2120477702E
:0210B100D92242
:100EB500020C9CE493A3F8E493A34003F68001F2AB
:100EC50008DFF48029E493A3F85407240CC8C3333E
:100ED500C4540F4420C8834004F456800146F6DF0D
:100EE500E4800B0102040810204080901173E47E19
:100EF500019360BCA3FF543F30E509541FFEE49302
:100F0500A360010ECF54C025E060A840B8E493A3C8
:100F1500FAE493A3F8E493A3C8C582C8CAC583CAF3
:100F2500F0A3C8C582C8CAC583CADFE9DEE780BEAB
:011185000069
:10038100E709F608DFFA8046E709F208DFFA803E5E
:1003910088828C83E709F0A3DFFA8032E309F6084B
:1003A100DFFA8078E309F208DFFA807088828C83B3
:1003B100E309F0A3DFFA806489828A83E0A3F60867
:1003C100DFFA805889828A83E0A3F208DFFA804C41
:1003D10080D280FA80C680D4806980F28033801018
:1003E10080A680EA809A80A880DA80E280CA803381
:1003F10089828A83ECFAE493A3C8C582C8CCC583F9
:10040100CCF0A3C8C582C8CCC583CCDFE9DEE780C8
:100411000D89828A83E493A3F608DFF9ECFAA9F047
:10042100EDFB2289828A83ECFAE0A3C8C582C8CC9D
:10043100C583CCF0A3C8C582C8CCC583CCDFEADEB6
:10044100E880DB89828A83E493A3F208DFF980CC18
:1004510088F0EF60010E4E60C388F0ED2402B40411
:100461000050B9F582EB2402B4040050AF232345B8
:0604710082239003D17309
:10047700BB010689828A83E0225002E722BBFE0283
:09048700E32289828A83E49322B6
:10049000BB010CE58229F582E5833AF583E0225021
:1004A00006E92582F8E622BBFE06E92582F8E2226B
:0D04B000E58229F582E5833AF583E4932285
:1004BD00F8BB010DE58229F582E5833AF583E8F075
:1004CD00225006E92582C8F622BBFE05E92582C821
:0204DD00F22209
:1004DF00BC000BBE0029EF8DF084FFADF022E4CC01
:1004EF00F875F008EF2FFFEE33FEEC33FCEE9DECCA
:1004FF00984005FCEE9DFE0FD5F0E9E4CEFD22ED10
:10050F00F8F5F0EE8420D21CFEADF075F008EF2F59
:10051F00FFED33FD4007985006D5F0F222C398FD4A
:05052F000FD5F0EA22E7
:10053400EB9FF5F0EA9E42F0E99D42F0E89C45F01D
:010544002294
:10054500E8600FECC313FCED13FDEE13FEEF13FF94
:03055500D8F122B8
:10055800E8600FEFC333FFEE33FEED33FDEC33FC01
:03056800D8F122A5
:10056B00BB010789828A830205CE5005E9F8020593
:10057B00C2BBFE05E9F80205DA89828A830205E629
:0C058B00ECF208EDF208EEF208EFF222AC
:10059700D083D082E493F208740193F20874029333
:0905A700F208740393F27404736A
:10002600E510246DF8E2051022786A300702786D33
:10003600E475F0011205F60204772000EB7F2ED25C
:10004600008018EF540F2490D43440D4FF30040BB2
:10005600EF24BFB41A0050032461FFE511600215B6
:10006600110514E5147002051330070D786AE4755E
:10007600F0011205F6EF0205B00200037403D20781
:100086008003E4C207F510786A120606E4F511F556
:1000960013F514E51160077F2012006180F57512D3
:1000A600FFC201C200C202C203C205C206C20812D2
:1000B600002FFF700D3007057F00120072AF14AEDF
:1000C6001322B4255FC2D5C20412002FFF24D0B478
:1000D6000A00501A75F00A781130D50508B6FF01E6
:1000E60006C6A426F620D5047002D20380D924CFF2
:1000F600B41A00EF5004C2E5D204020271D20180A4
:10010600C6D20080C0D20280BCD2D580BAD20580C9
:10011600B47F201200612002077401B5110040F17E
:10012600120026FF120061020099D208D2068095BD
:10013600120026FB120026FA120026F94A4B700618
:1001460079427A037BFF20022EE511602A7E008E1B
:100156008275830012049060060EEE651270F0C27E
:10016600D5EBC0E0EAC0E0E9C0E0EE1202B8D0E0AC
:10017600F9D0E0FAD0E0FB120477FF60AAEBC0E00A
:10018600EAC0E0E9C0E0120061D0E02401F9D0E065
:100196003400FAD0E0FBE5120460DCD512D9808782
:1001A6007BFF7A0279B4D202809C791080027908AA
:1001B600C206C2088008D2D5790A8004790AC2D557
:1001C600E512047002F512E4FAFDFEFF120026FCA9
:1001D6007B08200113120026FD7B1030000A120056
:1001E60026FE120026FF7B20EC3382D592D55013D3
:1001F600C3E43000069FFFE49EFEE42001039DFD5C
:10020600E49CFCE4CBF8C201EC700CCFCECDCCE87C
:1002160024F8F870F38017C3EF33FFEE33FEED33A7
:10022600FDEC33FCEB33FB994002FB0FD8E9EB30D6
:100236000105F8D0E0C448B201C0E00AEC4D4E4FCB
:1002460078207B0070C2EAB5120040BCC0E0120202
:10025600BAD0F0D0E0200104C4C0E0C4B201C0F0BE
:1002660012004AD0F0D5F0EB02009912060F0136C3
:100276005301B05801074C01034201B44F01BC447D
:1002860001BC49011C4301C25501A64601A6450110
:01029600A6C1
:1002970047036250010B2D010F2E01322B0113234F
:1002A700013020034B2A00CB480000012A3F3F3F83
:1002B70000790AA2D5200314300509B910020404F5
:1002C700B9080104A2D52006025001042002689251
:1002D70002B511005034C0E07F203003197F30A2EF
:1002E7000272067205500F120311C202C206C2053E
:1002F700C2087F30800F300503E9C0E0120061308B
:100307000503D0E0F9D0E0B511CC3005177F30B93F
:10031700100C1200617F583004077F788003B908FA
:10032700031200613002057F2D0200617F20200843
:10033700F87F2B2006F322920280CF286E756C6C13
:100347002900D2011200263001F8C201781130D5F8
:100357000108F60200CB2D5043495812002624030A
:10036700B405004001E490035D93120052743A1201
:0A0377000052D2037511040201B018
:1005B000BB010689828A83F0225002F722BBFE012A
:0205C000F32224
:0C05C200E6FC08E6FD08E6FE08E6FF2265
:0C05CE00E0FCA3E0FDA3E0FEA3E0FF22A0
:0C05DA00E2FC08E2FD08E2FE08E2FF225D
:1005E600E493FC740193FD740293FE740393FF225B
:1005F600FAE2FB0808E2F925F0F218E2CA3AF2221A
:09060600EBF208EAF208E9F22225
:10060F00D083D082F8E4937012740193700DA3A37A
:10061F0093F8740193F5828883E47374029368608E
:06062F00EFA3A3A380DF8E
:00000001FF
