:0300000002145295
:0C145200787FE4F6D8FD75812202149921
:1008B40043616E2073656E64202020200043616EC6
:1008C4002072656365766965200049443A202530C5
:1008D400376C582C2020444C433A2562782C202035
:1008E400446174613A200049443A2025376C582CFD
:1008F4002020444C433A2562782C202044617461C2
:100904003A2000253032625820000D0A00434E463A
:10091400313A2025303262582000434E46323A2084
:1009240025303262582000434E46333A2025303277
:100934006258200D0A00525842304354524C3A2017
:100944002530326258200043414E494E54463A20E5
:100954002530326258200043414E494E54453A20D6
:100964002530326258200D0A00525846305349440B
:10097400483A2025303262582000525846315349B3
:1009840044483A20253032625820005258463253A7
:100994004944483A202530326258200D0A00525802
:1009A4004633534944483A20253032625820005295
:1009B400584634534944483A20253032625820007E
:1009C40052584635534944483A202530326258201B
:1009D400200D0A0052584D30534944483A202530DE
:1009E400326258200052584D31534944483A202528
:1009F40030326258200043414E4354524C3A202531
:100A040030326258200D0A0043414E5F525830493B
:100A1400465F466C6167203D20256264200D0A0014
:100A240043414E5F52583149465F466C6167203DF1
:100A340020256264200D0A0043414E535441543A28
:100A4400202530326258200D0A0043414E494E544D
:100A5400463A202530326258200D0A003105300113
:100A640000130530010009053001000405300100C0
:100A740001073802000105300100000530010000C3
:0C0A84000110010020F102030405060728
:10172F00C10CC10AC10BC109C110C10FC10EC10D3E
:0C0003007873EFF21217557873E2FF22B9
:09174C00D2BAD28AD2AAD2AF228D
:0300130002159142
:0D159100C0E0C0F0C083C082C0D075D0089B
:10159E007F2C12171BEF30E702D20CEF30E602D28F
:1015AE000AEF30E502D20BEF30E402D209EF30E35E
:1015BE0002D210EF30E202D20FEF30E102D20EEF84
:0515CE0030E002D20D27
:0B15D300D0D0D082D083D0F0D0E03226
:061396007BFE7A007924C1
:0A139C00785AEBF208EAF208E9F2D1
:1013A600120528785E120592900004120490FF132D
:1013B600131354017862F2EFC4540F08F29000043C
:1013C600120490FF1313543F7BFF30E0067A08792E
:1013D600B480047A0879C11200887862E27BFF60E3
:1013E600067A0879CE80047A0879EB785EE2FC0802
:1013F600E2FD08E2FE08E2FF78671205927863E2F2
:10140600786BF2120088E4785DF27863E2FF785D2B
:10141600E2FEC39F502D785AE2FB08E2FA08E22466
:1014260005F9E43AFAEE7E0029F9EE3AFA12047763
:101436007867F27BFF7A097907120088785DE20403
:0C144600F280C77BFF7A09790E02008853
:0A14DE00785AEBF208EAF208E9F28E
:1014E800785AE2FB08E2FA08E2F9120528785D1258
:1014F8000592900004120490FF13131354017861AD
:10150800F2FBEFC4540FFA785DE2FC08E2FD08E252
:10151800FE08E2FF7866EBF2AB0208EBF2785AE2DB
:10152800FB08E2FA08E22405F9E43AFA7868EBF2F3
:0915380008EAF208E9F20206B02B
:060C6C007BFE7A007924F2
:0E0C7200785BEBF208EAF208E9F2785AEFF24A
:100C800012171B785FEFF2785AE204FF12171B78F5
:100C900060EFF2785AE22402FF12171B7861EFF23C
:100CA000785AE22403FF12171B7862EFF2785AE2B7
:100CB0002404FF12171B7863EFF2785AE22405FF31
:100CC00012171B7861E254081313135401333333A2
:100CD00054F8FE785BE2FB08E2FA08E22404F9E447
:100CE0003AFA12047754F74EFE1204BDEF540FC4C3
:100CF00054F0FFEE540F4F1204BD785BE2FB08E2A4
:100D0000FA08E2F9900004120490131313541F30F0
:020D1000E0778A
:100D12007860E275F008A4FFAEF008E2FBC4135459
:100D220007FDEF4DFFEE3395E0FDFC78641205926E
:100D3200EB54037E007810C333CE33CED8F9FDAC2A
:100D4200067862E24CFEEDFF08E2FDEF4DFFEE3366
:100D520095E0FDFC78681205927864E2FC08E2FDF9
:100D620008E2FE08E2FF78121205157868E2FB0835
:100D7200E2F908E2FA08E2CBF8EB4FFFEA4EFEE9AD
:050D82004DFDE84CFCF2
:020D8700802CBE
:100D89007860E275F008A4FFAEF008E2C4135407D6
:100D9900FDEF4DFFEE3395E0FDFC78641205927886
:100DA90064E2FC08E2FD08E2FE08E2FF785BE2FB90
:090DB90008E2FA08E2F9120578DB
:100DC200E4785EF2785BE2FB08E2FA08E2F990006E
:100DD20004120490C4540FFF785EE2FEC39F502DAC
:100DE200785AE22406FFEE2FFF12171B785BE2FB14
:100DF20008E2FA08E22405F9E43AFA08E27C00295A
:0D0E0200F9EC3AFAEF1204BDE204F280B7F9
:010E0F0022C0
:1011B000785AEBF208EAF208E9F2900A74E493FF35
:1011C000785AE2FB08E2FA08E2F9EF1204BD900A4D
:1011D00075E493FF785AE2FB08E2FA08E2F990001E
:1011E00001EF1204CF900A76E4939000021204CF2C
:1011F000900A77E4939000031204CF900A78E49366
:101200009000041204CFE92405F9E43AFA120477B5
:1012100044011204BD54F144061204BD785AE2FBA5
:1012200008E2FA08E2F990002674031204CF900055
:1012300027E41204CF9000061205B71FFFFFFF90AE
:1012400000121205B71FFFFFFF90000A1205B7003A
:1012500000010090000E1205B7000007FE90001676
:101260001205B70000010190001A1205B700000135
:101270000290001E1205B700000103900022120523
:10128000B700000104E92428F9E43AFA120477448B
:10129000011204BD54FD1204BD54FB1204BD4408E8
:0D12A0001204BD54EF1204BD44200204BD31
:1010A2007F2A12171B7867EFF27BFF7A09791112F8
:1010B20000887F2912171B7867EFF27BFF7A097984
:1010C2001E1200887F2812171B7867EFF27BFF7AC7
:1010D20009792B1200887F6012171B7867EFF27B69
:1010E200FF7A09793A1200887F2C12171B7867EF72
:1010F200F27BFF7A09794B1200887F2B12171B783B
:1011020067EFF27BFF7A09795B120088E4FF12171E
:101112001B7867EFF27BFF7A09796D1200887F04F2
:1011220012171B7867EFF27BFF7A09797E1200882B
:101132007F0812171B7867EFF27BFF7A09798F120B
:1011420000887F1012171B7867EFF27BFF7A09790C
:10115200A21200887F1412171B7867EFF27BFF7AC6
:101162000979B31200887F1812171B7867EFF27B98
:10117200FF7A0979C41200887F2012171B7867EF63
:10118200F27BFF7A0979D81200887F2412171B7824
:1011920067EFF27BFF7A0979E91200887F0F121755
:0E11A2001B7867EFF27BFF7A0979FA0200886A
:100E1000780712059E00000101E4780BF2087408BF
:100E2000F2780F7C007DFE7BFF7A0A79887E00FFD6
:100E30001204517BFE7A0079311211B01216F312AE
:100E4000174C7BFE7A007931120A90781BE2440439
:100E5000F27807E2FC08E2FD08E2FE08E2FF7817FC
:100E6000120592781BE254FC4402F254F7F2540F3C
:100E70004480F2E4780DF2780DE2C3940874809413
:100E8000805014E2FF240FF8E2FE741C2FF8EEF2FB
:100E9000780DE204F280E07828E254FBF2E4780D69
:100EA000F2780DE2C39402748094804003020F63D1
:100EB0007BFE7A0079171214DE7BFE7A0079171216
:100EC000139C781712059E00000100781BE254FC69
:100ED0004402F24408F2540F4470F27FB87E0B12C1
:100EE00016B37BFF7A0A790CA20D92001200887B60
:100EF000FF7A0A7924A20E92001200887F0E121740
:100F00001B7867EFF27BFF7A0A793C1200887F2C0E
:100F100012171B780EEFF27BFF7A0A794E7867F290
:100F2000120088780EE230E0167F60120C6C12130B
:100F3000967F2C12171BEF54FEFD7F2C121696780D
:100F40000EE230E1167F70120C6C1213967F2C1299
:100F5000171BEF54FDFD7F2C121696780DE204F25C
:0C0F6000020EA17FD07E071216B380FEA7
:1015DE00303132333435363738393A3B3C3D404181
:1015EE0042434445464748494A4B4C4D505152534D
:1015FE005455565758595A5B5C5D00010203040559
:10160E00060708090A0B10111213141516171819CC
:0A161E001A1B202122232425262771
:0716AC001217427F017E00CE
:1016B300D3EF9400EE94004015E4FDFC0DBD000152
:0E16C3000CED64644C70F5EF1F70E51E80E2C4
:0116D10022F6
:1016D200E4FFC295FEEEC39408748094805011D248
:1016E20095EF25E0FFA293E4334FFFC2950E80E50C
:0116F20022D5
:10165A00E4FEEEC3940874809480501AC295A806DA
:10166A00EF088002C333D8FC30E704D2948002C268
:08167A0094D2950E80DCC295AC
:011682002245
:101683009000021204904480FF9000011204904FD6
:03169300FD7F29AF
:10169600AC07C2927F0212165AAF0412165AAF0551
:0616A60012165AD2922236
:091712007D447F0F1216967F0E34
:02171B00AD0718
:10171D00C2927F0312165AAF0512165A1216D2D262
:01172D009229
:01172E002298
:0A174200C2927FC012165AD2922202
:100F6C00785DEFF2E47FFF7E07FDFC08E2FB08E210
:100F7C00F908E2FA08E2CBF8D31204F15066786271
:100F8C00E26013785DE2FFE4FD121696785DE204F0
:100F9C00FF7D08021065785EE2FC08E2FD08E2FEC7
:100FAC0008E2FF7803120502AD07785DE2FF121626
:100FBC0096785DE204FFC00708080808E25407FFB2
:100FCC00E4FEFDFC7805120515AD07D00712169648
:100FDC00785DE22402FFE4FD121696785DE22403AC
:100FEC00FF02109E785EE2FC08E2FD08E2FE08E2D9
:100FFC00FF7815120502AD07785DE2FF12169678A0
:10100C005DE204FFC00708E2FC08E2FD08E2FE080E
:10101C00E2FF7812120502EF5407FFE4FEFDFC78A4
:10102C0005120515C004C005C006C007785EE2FCB9
:10103C0008E2FD08E2FE08E2FF7810120502EF5408
:10104C0003FFD003D002D001D000EB4FFFEAFEE843
:10105C00FCEF4408FFAD07D007121696785DE2242A
:10106C0002FFC00708E2FC08E2FD08E2FE08E2FF0E
:10107C007808120502AD07D007121696785DE224A7
:10108C0003FFC00708E2FC0808E2FE08E2FFAD0718
:06109C00D0071216962297
:100A9000785AEBF208EAF208E9F21216AC785AE258
:100AA000FB08E2FA08E2F9900004120490FF120435
:100AB000774FFD7F2A121696785AE2FB08E2FA0871
:100AC000E2F9121683785AE2FB08E2FA08E2F9909A
:100AD00000031204904480FD7F28121696785AE293
:100AE000FB08E2FA08E2F99000051204905401258F
:100AF000E025E0FD7F601216967D607F70121696ED
:100B0000785AE2FB08E2FA08E2F990002712049012
:100B1000FD7F2C121696785AE2FB08E2FA08E2F9F9
:100B2000900026120490FD7F2B121696785AE2FB55
:100B300008E2FA08E2F990000A120548785E120508
:100B40009290002812049054017862F2E4FF120F90
:100B50006C785AE2FB08E2FA08E2F990000E1205FE
:100B600048785E120592900028120490C313540135
:100B70007862F27F04120F6C785AE2FB08E2FA08FE
:100B8000E2F9900016120548785E1205929000284E
:100B9000120490131354017862F27F08120F6C78DC
:100BA0005AE2FB08E2FA08E2F990001A12054878C6
:100BB0005E120592900028120490131313540178CA
:100BC00062F27F10120F6C785AE2FB08E2FA08E238
:100BD000F990001E120548785E12059290002812C6
:100BE0000490C454017862F27F14120F6C785AE2B8
:100BF000FB08E2FA08E2F9900022120548785E123A
:100C00000592900028120490C41354017862F27F78
:100C100018120F6C785AE2FB08E2FA08E2F9900029
:100C200006120548785E12059278627401F27F2000
:100C3000120F6C785AE2FB08E2FA08E2F99000120F
:100C4000120548785E12059278627401F27F2412D0
:100C50000F6C121712EF7E0060047F0180027F008C
:0C0C6000EF4E60077D447F0F12169622B5
:1012AD00E4FF1216AC900004120490FF1204774F65
:1012BD00FD7F2A1216961216839000031204904495
:1012CD0080FD7F281216967D067F60121696785E39
:1012DD0012059E0000010078627401F2E4FF120F06
:1012ED006C785E12059E000007FEE47862F27F04C2
:1012FD00120F6C785E12059E000007FFE47862F213
:10130D007F20120F6C785E12059E00000800786237
:10131D007401F27F08120F6C785E12059E1FFFFF9D
:10132D00FF78627401F27F10120F6C785E12059EC9
:10133D00000007FFE47862F27F14120F6C785E12E2
:10134D00059E00000000E47862F27F18120F6C78A1
:10135D005E12059E1FFFFFFEE47862F27F24120FDE
:10136D006CE4FD7F2C1216967D037F2B12169612C0
:10137D001712EF7E0060047F0180027F00EF4E6048
:08138D00077D447F0F12169644
:011395002235
:0506B0007862120592C2
:1006B5007F3012171B786DEFF254087007786B7452
:1006C50030F280227F4012171B786DEFF2540870CC
:1006D50007786B7440F2800E7F5012171B786DEF10
:1006E500F2786B7450F2786BE22405FF7867E2FDCF
:1006F500121696E47FFF7E07FDFC7862E2FB08E2B6
:10070500F908E2FA08E2CBF8D31204F1506D7866E5
:10071500E2786B6013E204FFE4FD121696786BE253
:100725002402FF7D080207FCE204FFC0077862E2AD
:10073500FC08E2FD08E2FE08E2FF7803120502ADBF
:1007450007D007121696786BE22402FFC00778627D
:10075500080808E25407FFE4FEFDFC7805120515BC
:10076500AD07D007121696786BE22403FFE4FD125D
:100775001696786BE22404FF020837786BE204FFD3
:10078500C0077862E2FC08E2FD08E2FE08E2FF78B5
:1007950015120502AD07D007121696786BE22402F2
:1007A500FFC0077862E2FC08E2FD08E2FE08E2FF0E
:1007B5007812120502EF5407FFE4FEFDFC780512DE
:1007C5000515C004C005C006C0077862E2FC08E252
:1007D500FD08E2FE08E2FF7810120502EF5403FF60
:1007E500D003D002D001D000EB4FFFEAFEE8FCEFCA
:1007F5004408FFAD07D007121696786BE22403FF75
:10080500C0077862E2FC08E2FD08E2FE08E2FF7834
:1008150008120502AD07D007121696786BE224047C
:10082500FFC0077862E2FC0808E2FE08E2FFAD07B8
:10083500D007121696E4786CF27867E2FF786CE2DE
:10084500FED39F5030EE940874809480502718E2B0
:100855002406FF08E2FE2FFF7868E2FB08E2FA08AB
:10086500E2F98E82758300120490FD121696786C5B
:10087500E204F280C4C292786BE2FF786DE244082C
:10088500FD121696D292E4786CF2786CE2C3940E5F
:1008950074809480501818E2FF12171BEF30E30E96
:0E08A5007F647E001216B3786CE204F280DCF1
:0108B3002222
:0D1541007800EFF208EBF208EAF208E9F298
:10154E00E4FCECC3940E74809480501E7800E22C60
:10155E00FF12171B7801E2FB08E2FA08E2F98C820F
:10156E00758300EF1204CF0C80D87800E2FB7A006E
:10157E00646070028006EB64704A7006FD7F2C1268
:02158E001696AF
:011590002238
:02173F00C111D6
:1016F300C2AF53890F438920759850758DFA758B46
:0F170300FA438780D299D2ACD28ED29CD2AF2239
:03002300020016C2
:0B001600309803C29832C299C2113228
:081755008F99D2112011FD2231
:101628007804EBF208EAF208E9F27804E2FB08E24F
:10163800FA08E2F9120477FF1217557804E2FB085A
:1016480008E2F92401F218E2FA3400F21204777081
:02165800D92295
:10145E00020E10E493A3F8E493A34003F68001F286
:10146E0008DFF48029E493A3F85407240CC8C3338F
:10147E00C4540F4420C8834004F456800146F6DF5E
:10148E00E4800B010204081020408090172FE47EA8
:10149E00019360BCA3FF543F30E509541FFEE49353
:1014AE00A360010ECF54C025E060A840B8E493A31A
:1014BE00FAE493A3F8E493A3C8C582C8CAC583CA45
:1014CE00F0A3C8C582C8CAC583CADFE9DEE780BEFD
:0117410000A7
:10038100E709F608DFFA8046E709F208DFFA803E5E
:1003910088828C83E709F0A3DFFA8032E309F6084B
:1003A100DFFA8078E309F208DFFA807088828C83B3
:1003B100E309F0A3DFFA806489828A83E0A3F60867
:1003C100DFFA805889828A83E0A3F208DFFA804C41
:1003D10080D280FA80C680D4806980F28033801018
:1003E10080A680EA809A80A880DA80E280CA803381
:1003F10089828A83ECFAE493A3C8C582C8CCC583F9
:10040100CCF0A3C8C582C8CCC583CCDFE9DEE780C8
:100411000D89828A83E493A3F608DFF9ECFAA9F047
:10042100EDFB2289828A83ECFAE0A3C8C582C8CC9D
:10043100C583CCF0A3C8C582C8CCC583CCDFEADEB6
:10044100E880DB89828A83E493A3F208DFF980CC18
:1004510088F0EF60010E4E60C388F0ED2402B40411
:100461000050B9F582EB2402B4040050AF232345B8
:0604710082239003D17309
:10047700BB010689828A83E0225002E722BBFE0283
:09048700E32289828A83E49322B6
:10049000BB010CE58229F582E5833AF583E0225021
:1004A00006E92582F8E622BBFE06E92582F8E2226B
:0D04B000E58229F582E5833AF583E4932285
:1004BD00BB010689828A83F0225002F722BBFE011E
:0204CD00F32218
:1004CF00F8BB010DE58229F582E5833AF583E8F063
:1004DF00225006E92582C8F622BBFE05E92582C80F
:0204EF00F222F7
:1004F100EB9FF5F0EA9E42F0E99D42F0E89C45F061
:0105010022D7
:10050200E8600FECC313FCED13FDEE13FEEF13FFD7
:03051200D8F122FB
:10051500E8600FEFC333FFEE33FEED33FDEC33FC44
:03052500D8F122E8
:10052800BB010789828A830205E75005E9F80205BD
:10053800DBBBFE05E9F80205F389828A830205FF21
:10054800BB010DE58229F582E5833AF5830205E7CB
:100558005007E92582F80205DBBBFE07E92582F88A
:100568000205F3E58229F582E5833AF5830205FF62
:10057800BB010789828A8302061B5005E9F8020637
:0A0588000FBBFE05E9F80205922200
:0C059200ECF208EDF208EEF208EFF222A5
:10059E00D083D082E493F208740193F2087402932C
:0905AE00F208740393F274047363
:1005B700BB010DE58229F582E5833AF58302064002
:1005C7005007E92582F8020627BBFE07E92582F8CE
:0405D70002059E2259
:10002600E5102467F8E20510227864300702786745
:10003600E475F0011206710204772000EB7F2ED2E0
:10004600008018EF540F2490D43440D4FF30040BB2
:10005600EF24BFB41A0050032461FFE511600215B6
:10006600110514E5147002051330070D7864E47564
:10007600F001120671EF0204BD0200037403D207F9
:100086008003E4C207F5107864120681E4F511F5E1
:1000960013F514E51160077F2012006180F57512D3
:1000A600FFC201C200C202C203C205C206C20812D2
:1000B600002FFF700D3007057F00120072AF14AEDF
:1000C6001322B4255FC2D5C20412002FFF24D0B478
:1000D6000A00501A75F00A781130D50508B6FF01E6
:1000E60006C6A426F620D5047002D20380D924CFF2
:1000F600B41A00EF5004C2E5D204020271D20180A4
:10010600C6D20080C0D20280BCD2D580BAD20580C9
:10011600B47F201200612002077401B5110040F17E
:10012600120026FF120061020099D208D2068095BD
:10013600120026FB120026FA120026F94A4B700618
:1001460079427A037BFF20022EE511602A7E008E1B
:100156008275830012049060060EEE651270F0C27E
:10016600D5EBC0E0EAC0E0E9C0E0EE1202B8D0E0AC
:10017600F9D0E0FAD0E0FB120477FF60AAEBC0E00A
:10018600EAC0E0E9C0E0120061D0E02401F9D0E065
:100196003400FAD0E0FBE5120460DCD512D9808782
:1001A6007BFF7A0279B4D202809C791080027908AA
:1001B600C206C2088008D2D5790A8004790AC2D557
:1001C600E512047002F512E4FAFDFEFF120026FCA9
:1001D6007B08200113120026FD7B1030000A120056
:1001E60026FE120026FF7B20EC3382D592D55013D3
:1001F600C3E43000069FFFE49EFEE42001039DFD5C
:10020600E49CFCE4CBF8C201EC700CCFCECDCCE87C
:1002160024F8F870F38017C3EF33FFEE33FEED33A7
:10022600FDEC33FCEB33FB994002FB0FD8E9EB30D6
:100236000105F8D0E0C448B201C0E00AEC4D4E4FCB
:1002460078207B0070C2EAB5120040BCC0E0120202
:10025600BAD0F0D0E0200104C4C0E0C4B201C0F0BE
:1002660012004AD0F0D5F0EB02009912068A013648
:100276005301B05801074C01034201B44F01BC447D
:1002860001BC49011C4301C25501A64601A6450110
:01029600A6C1
:1002970047036250010B2D010F2E01322B0113234F
:1002A700013020034B2A00CB480000012A3F3F3F83
:1002B70000790AA2D5200314300509B910020404F5
:1002C700B9080104A2D52006025001042002689251
:1002D70002B511005034C0E07F203003197F30A2EF
:1002E7000272067205500F120311C202C206C2053E
:1002F700C2087F30800F300503E9C0E0120061308B
:100307000503D0E0F9D0E0B511CC3005177F30B93F
:10031700100C1200617F583004077F788003B908FA
:10032700031200613002057F2D0200617F20200843
:10033700F87F2B2006F322920280CF286E756C6C13
:100347002900D2011200263001F8C201781130D5F8
:100357000108F60200CB2D5043495812002624030A
:10036700B405004001E490035D93120052743A1201
:0A0377000052D2037511040201B018
:0C05DB00E6FC08E6FD08E6FE08E6FF224C
:0C05E700E0FCA3E0FDA3E0FEA3E0FF2287
:0C05F300E2FC08E2FD08E2FE08E2FF2244
:1005FF00E493FC740193FD740293FE740393FF2242
:0C060F00ECF608EDF608EEF608EFF62217
:0C061B00ECF0A3EDF0A3EEF0A3EFF02252
:10062700D083D082E493F608740193F6087402939A
:09063700F608740393F6740473D1
:10064000A8828583F0D083D08212065712065712F3
:100650000657120657E473E493A3C583C5F0C58318
:10066000C8C582C8F0A3C583C5F0C583C8C582C804
:010670002267
:10067100FAE2FB0808E2F925F0F218E2CA3AF2229E
:09068100EBF208EAF208E9F222AA
:10068A00D083D082F8E4937012740193700DA3A3FF
:10069A0093F8740193F5828883E473740293686013
:0606AA00EFA3A3A380DF13
:00000001FF
