:030000000218F5EE
:0C18F500787FE4F6D8FD75812102193CD3
:1016A50043616E2073656E64202020200043616EC7
:1016B5002072656365766965200049443A202530C6
:1016C500376C582C2020444C433A2562782C202036
:1016D500446174613A200049443A2025376C582CFE
:1016E5002020444C433A2562782C202044617461C3
:1016F5003A2000253032625820000D0A00616464EA
:101705003A202530326258204C656E3A2025303219
:10171500625820446174613A0020253032625800D5
:1017250043414E5F52583049465F466C6167203DE4
:1017350020256264200D0A0043414E5F525831490D
:10174500465F466C6167203D20256264200D0A00D6
:1017550043414E535441543A202530326258200DAE
:101765000A0043414E494E54463A202530326258CC
:0C177500200D0A0020F103030405060704
:041D6E00C10AC109DC
:0E00030090008EEFF0121D6690008EE0FF223E
:091D5D00D2BAD28AD2AAD2AF2276
:03001300021C6864
:0D1C6800C0E0C0F0C083C082C0D075D008BD
:101C75007F2C121D2EEF30E102D20AEF30E002D2A6
:011C85000955
:0B1C8600D0D0D082D083D0F0D0E0326C
:061781007B017A007925CE
:0B17870090005CEBF0A3EAF0A3E9F097
:101792001205FB90006012068990000412054DFFAD
:1017A2001313135401900064F0EFC4540FA3F0908C
:1017B200000412054DFF1313543F7BFF30E0067AFD
:1017C2001679A580047A1679B2120819900064E09D
:1017D2007BFF60067A1679BF80047A1679DC900066
:1017E20060E0FCA3E0FDA3E0FEA3E0FF900069122D
:1017F2000689900065E090006DF0120819E49000EF
:101802005FF0900065E0FF90005FE0FEC39F503004
:1018120090005CE0FBA3E0FAA3E02405F9E43AFAC5
:10182200EE7E0029F9EE3AFA120534900069F07B57
:10183200FF7A1679F812081990005FE004F080C26E
:091842007BFF7A1679FF020819F8
:0B19810090005CEBF0A3EAF0A3E9F09B
:10198C0090005CE0FBA3E0FAA3E0F91205FB9000E9
:10199C005F12068990000412054DFF1313135401B6
:1019AC00900063F0FBEFC4540FFA90005FE0FCA3CF
:1019BC00E0FDA3E0FEA3E0FF900068EBF0AB02A318
:1019CC00EBF090005CE0FBA3E0FAA3E02405F9E463
:1019DC003AFA90006AEBF0A3EAF0A3E9F00212DD08
:060F8F007B017A007925C8
:100F950090005DEBF0A3EAF0A3E9F090005CEFF0C0
:100FA500121D2E900061EFF090005CE004FF121D11
:100FB5002E900062EFF090005CE02402FF121D2EDF
:100FC500900063EFF090005CE02403FF121D2E906B
:100FD5000064EFF090005CE02404FF121D2E9000E9
:100FE50065EFF090005CE02405FF121D2E90006374
:100FF500E05408131313540133333354F8FE9000AF
:101005005DE0FBA3E0FAA3E02404F9E43AFA120553
:101015003454F74EFE12057AEF540FC454F0FFEE28
:10102500540F4F12057A90005DE0FBA3E0FAA3E0B0
:0F103500F990000412054D131313541F30E07887
:10104400900062E075F008A4FFAEF0A3E0FBC413C7
:101054005407FDEF4DFFEE3395E0FDFC9000661262
:101064000689EB54037E007810C333CE33CED8F90F
:10107400FDAC06900064E04CFEEDFFA3E0FDEF4DF7
:10108400FFEE3395E0FDFC90006A1206899000663D
:10109400E0FCA3E0FDA3E0FEA3E0FF78121205E864
:1010A400A3E0F8A3E0F9A3E0FAA3E04FFFEA4EFEC1
:0610B400E94DFDE84CFCD3
:0210BA00802F85
:1010BC00900062E075F008A4FFAEF0A3E0C41354F6
:1010CC0007FDEF4DFFEE3395E0FDFC900066120638
:1010DC0089900066E0FCA3E0FDA3E0FEA3E0FF9096
:0D10EC00005DE0FBA3E0FAA3E0F912064B63
:1010F900E4900060F090005DE0FBA3E0FAA3E0F962
:1011090090000412054DC4540FFF900060E0FEC327
:101119009F503290005CE02406FFEE2FFF121D2E37
:1011290090005DE0FBA3E0FAA3E02405F9E43AFAB4
:10113900A3E07C0029F9EC3AFAEF12057A900060F5
:05114900E004F080B09D
:01114E00227E
:0B15C600900068EBF0A3EAF0A3E9F04E
:1015D100EF75F005A424F6601F24F1602224E76072
:1015E1002524CE602B24E7603A2483604924F570DA
:1015F1005790006B7431803090006B741380299088
:10160100006B7409802290006B7404F0A304801CA9
:1016110090006B7401F0A37407F0A37438F0A37405
:1016210002803490006B7401F0A37405F0A3743050
:10163100F0A374018021E490006BF0A37405F0A382
:101641007430F0A37401800FE490006BF0A304F0F8
:10165100A37410F0A37401F0E4A3F090006BE0FF19
:10166100900068E0FBA3E0FAA3E0F9EF12057A909D
:10167100006CE0FF900068E0FBA3E0FAA3E0F990C2
:101681000001EF12058C90006DE090000212058CB4
:1016910090006EE090000312058C90006FE09000C6
:0416A1000402058CAE
:0B1A540090008FEBF0A3EAF0A3E9F094
:101A5F007BFF7A177902900069EDF0900093E09088
:101A6F00006AF0120819E4900094F0900093E0FFE0
:101A7F00A3E0FEC39F502890008FE0FBA3E0FAA3E2
:101A8F00E0F98E8275830012054D900069F07BFF9F
:101A9F007A17791E120819900094E004F080CC7B1D
:081AAF00FF7A1679FF02081905
:0B00260090005CEBF0A3EAF0A3E9F00F
:1000310090005CE0FBA3E0FAA3E0F9120534900024
:100041005FF090002812054DFFC413131354019063
:100051000060F0EF5403A3F090002812054DFF1348
:10006100135403900062F0EFC45407A3F0900026EC
:1000710012054D900064F090002712054D90006527
:10008100F07B017A00795F90006B7407F0E4FD1258
:100091001AB790005CE0FBA3E0FAA3E0F990000638
:1000A10012061B78181205D590005FEFF09000063C
:1000B10012061B78101205D5900060EFF090000633
:1000C10012061B78081205D5900061EFF09000062A
:1000D10012061B900062EFF090000612061B7818C2
:1000E1001205D5900063EFF090000612061B781000
:1000F1001205D5900064EFF090000612061B7808F7
:100101001205D5900065EFF090000612061BE490F1
:100111000066EFF07B017A00795F90006B7408F064
:10012100FD121AB790005CE0FBA3E0FAA3E0F9909E
:10013100002912054D540175F080A4FFAEF0EE3395
:1001410095E0FDFCC004C005C006C00790005CA39B
:10015100A3E090000A12061B78181205D5D003D02F
:1001610002D001D000EF4BFF90005FEFF090005CF8
:10017100E0FBA3E0FAA3E0F990000A12061B781055
:100181001205D5900060EFF090000A12061B780866
:100191001205D5900061EFF090000A12061B900045
:1001A10062EFF090002912054DC313540175F080E0
:1001B100A4FFAEF0EE3395E0FDFCC004C005C0061F
:1001C100C00790005CA3A3E090000E12061B7818F4
:1001D1001205D5D003D002D001D000EF4BFF900023
:1001E10063EFF090005CE0FBA3E0FAA3E0F990007C
:1001F1000E12061B78101205D5900064EFF09000E6
:100201000E12061B78081205D5900065EFF09000DC
:100211000E12061BE4900066EFF07B017A00795F15
:1002210090006B7408F07D10121AB790005CE0FB2F
:10023100A3E0FAA3E0F990002912054D131354012C
:1002410075F080A4FFAEF0EE3395E0FDFCC004C074
:1002510005C006C00790005CA3A3E090001612063B
:100261001B78181205D5D003D002D001D000EF4B76
:10027100FF90005FEFF090005CE0FBA3E0FAA3E0E9
:10028100F990001612061B78101205D5900060EF48
:10029100F090001612061B78081205D5900061EF48
:1002A100F090001612061B900062EFF090002912E8
:1002B100054D131313540175F080A4FFAEF0EE3316
:1002C10095E0FDFCC004C005C006C00790005CA31A
:1002D100A3E090001A12061B78181205D5D003D09E
:1002E10002D001D000EF4BFF900063EFF090005C73
:1002F100E0FBA3E0FAA3E0F990001A12061B7810C4
:100301001205D5900064EFF090001A12061B7808D0
:100311001205D5900065EFF090001A12061BE490CB
:100321000066EFF07B017A00795F90006B7408F052
:100331007D18121AB790005CE0FBA3E0FAA3E0F984
:1003410090002912054DC4540175F080A4FFAEF050
:10035100EE3395E0FDFCC004C005C006C007900067
:100361005CA3A3E090001E12061B78181205D5D0DD
:1003710003D002D001D000EF4BFF90005FEFF0906F
:10038100005CE0FBA3E0FAA3E0F990001E12061B5B
:1003910078101205D5900060EFF090001E12061B38
:1003A10078081205D5900061EFF090001E12061B2F
:1003B100900062EFF090002912054DC413540175AD
:1003C100F080A4FFAEF0EE3395E0FDFCC004C00563
:1003D100C006C00790005CA3A3E090002212061B98
:1003E10078181205D5D003D002D001D000EF4BFF11
:1003F100900063EFF090005CE0FBA3E0FAA3E0F96A
:1004010090002212061B78101205D5900064EFF0BF
:1004110090002212061B78081205D5900065EFF0B6
:1004210090002212061BE4900066EFF07B017A0037
:0D043100795F90006B7408F07D20021AB70F
:0C184B004F12057A7B017A007960E4FD01
:10185700900068EBF0A3EAF0A3E9F0A3EDF024020F
:10186700FFE433FE900068E0FBA3E0FAA3E0F98F02
:10187700828E8312054DFFE4FCFDFE78081205E811
:10188700C004C005C006C00790006BE02401FFE458
:1018970033FE8F828E8312054DFFE4FCFDFE781028
:1018A7001205E8D003D002D001D000EF4BFFEE4A7B
:1018B700FEED49FDEC48FCC004C005C006C007901A
:1018C700006BE02403FFE433FE900068E0FBA3E035
:1018D700FAA3E0F98F828E8312054DFFD003D00261
:0E18E700D001D000EB4FFFEAFEE9FDE8FC2245
:0B0B130090005CEBF0A3EAF0A3E9F017
:100B1E007B017A00796090006C7408F0E4FD121984
:100B2E00EC900060E0FF90005CE0FBA3E0FAA3E035
:100B3E00F9EF12057A90005CE0FBA3E0FAA3E0F96E
:100B4E00120534FFE92401F9E43AFA1215C69000B1
:100B5E0061E05401C43333335480FF90005CE0FBFA
:100B6E00A3E0FAA3E02428F9E43AFA120534547FFC
:100B7E004F12057A900064E05407C454F0FF12053A
:100B8E0034548F4F12057A900065E0FF90005CE0C0
:100B9E00FBA3E0FAA3E0F9900026EF12058C90007B
:100BAE0066E090002712058C7B017A007960900038
:100BBE006C7408F0FD1219EC12184F90005CE0FBFB
:100BCE00A3E0FAA3E0F99000061206657B017A0015
:100BDE0079607D0412185790005CE0FBA3E0FAA345
:100BEE00E0F99000121206657B017A0079609000A0
:100BFE006C7408F07D101219EC900060E0C41313B1
:100C0E00135401FF90005CE0FBA3E0FAA3E024295B
:100C1E00F9E43AFA12053454FE12184B90005CE0D7
:100C2E00FBA3E0FAA3E0F990000A120665900064B7
:100C3E00E0C4131313540125E0FFE92429F9E43A23
:100C4E00FA12053454FD4F12057A7B017A00796051
:100C5E007D0412185790005CE0FBA3E0FAA3E0F9C4
:100C6E0090000E1206657B017A00796090006C741C
:100C7E0008F07D181219EC900060E0C413131354A1
:100C8E000125E025E0FF90005CE0FBA3E0FAA3E085
:100C9E002429F9E43AFA12053454FB12184B900049
:100CAE005CE0FBA3E0FAA3E0F99000161206659053
:100CBE000064E0C4131313540133333354F8FFE9C3
:100CCE002429F9E43AFA12053454F74F12057A7BC7
:100CDE00017A0079607D0412185790005CE0FBA346
:100CEE00E0FAA3E0F990001A1206657B017A00790A
:100CFE006090006C7408F07D201219EC900060E09A
:100D0E00C41313135401C454F0FF90005CE0FBA312
:100D1E00E0FAA3E02429F9E43AFA12053454EF126A
:100D2E00184B90005CE0FBA3E0FAA3E0F990001EE4
:100D3E00120665900064E0C41313135401C43354B7
:100D4E00E0FFE92429F9E43AFA12053454DF4F1290
:100D5E00057A7B017A0079607D0412185790005C49
:0E0D6E00E0FBA3E0FAA3E0F990002202066584
:1013DC0090005CEBF0A3EAF0A3E9F090005CE0FB7A
:1013EC00A3E0FAA3E0F9741412057A90005CE0FB18
:1013FC00A3E0FAA3E0F9900001740112058C9000AF
:10140C0002740712058C900003743812058C90003E
:10141C0004740212058C900005E412058CE9242852
:10142C00F9E43AFA120534448012057A548F4430A8
:10143C0012057A90005CE0FBA3E0FAA3E0F99000BF
:10144C0026740312058C900027E412058C9000067C
:10145C001206C61FFFFFFF9000121206C61FFFFFE9
:10146C00FF90000A1206C60000010090000E120642
:10147C00C6000007FE9000161206C600000101907F
:10148C00001A1206C60000010290001E1206C600C9
:10149C000001039000221206C600000104E9242971
:1014AC00F9E43AFA120534440112057A54FD120596
:1014BC007A54FB12057A440812057A54EF12057A15
:0514CC00442002057A36
:10114F0090000012069500000101E4900004F0A346
:10115F007408F078087C007D017BFF7A1779797E1F
:10116F0000FF12050E121CFA121D5D7B017A007929
:10117F00321213DC7B017A0079321200267B017A5E
:10118F00007932120B137B017A007932120D7C90A9
:10119F00001CE04404F0900000E0FCA3E0FDA3E09D
:1011AF00FEA3E0FF90001812068990001CE054FC8B
:1011BF004402F054F7F0540F4480F0E4900006F02E
:1011CF00900006E0C39408748094805021E0FF24BF
:1011DF0008F582E43400F583E0FE741D2FF582E4F8
:1011EF003400F583EEF0900006E004F080D290001A
:1011FF0029E054FBF0E4900006F0900006E0C39461
:10120F00027480948040030212D47B017A00791813
:10121F001219817B017A0079181217879000181222
:10122F0006950000010090001CE054FC4402F044BD
:10123F0008F0540F4470F07FB87E0B121CDB7BFF5D
:10124F007A177925A20992001208197BFF7A17796C
:10125F003DA20A92001208197F0E121D2E900069EE
:10126F00EFF07BFF7A1779551208197F2C121D2E7C
:10127F00900007EFF07BFF7A177967900069F01203
:10128F000819900007E030E0167F60120F8F1217D9
:10129F00817F2C121D2EEF54FEFD7F2C121C5290BD
:1012AF000007E030E1167F70120F8F1217817F2C2D
:1012BF00121D2EEF54FDFD7F2C121C52900006E0E4
:0E12CF0004F00212097FD07E07121CDB80FEA5
:101CDB00D3EF9400EE94004015E4FDFC0DBD000124
:0E1CEB000CED64644C70F5EF1F70E51E80E296
:011CF90022C8
:101CBA00E4FFC295FEEEC39408748094805011D25A
:101CCA0095EF25E0FFA293E4334FFFC2950E80E51E
:011CDA0022E7
:101C9100E4FEEEC3940874809480501AC295A8069D
:101CA100EF088002C333D8FC30E704D2948002C22B
:081CB10094D2950E80DCC2956F
:011CB9002208
:101C3A00900071E0FCA3E0FDA3E0FEA3E0FF120523
:081C4A00D5AD07900070E0FF2A
:101C5200AC07C2927F02121C91AF04121C91AF0515
:061C6200121C91D2922237
:021D2E00AD07FF
:101D3000C2927F03121C91AF05121C91121CBAD2E1
:011D40009210
:011D4100227F
:0A1D5300C2927FC0121C91D29222AE
:1014D100900070EFF0E47FFF7E07FDFCA3E0F8A32E
:1014E100E0F9A3E0FAA3E0FBD31205C45006200003
:1014F100030215907815121C3AE004FFC007A3E01F
:10150100FCA3E0FDA3E0FEA3E0FF78121205D5EFF6
:101511005407FFE4FEFDFC78051205E8C004C00590
:10152100C006C007900071E0FCA3E0FDA3E0FEA3AC
:10153100E0FF78101205D5EF5403FFD003D002D09D
:1015410001D000EB4FFFEAFEE8FCEF4408FFAD07D6
:10155100D007121C52900070E02402FFC007A3E0E4
:10156100FCA3E0FDA3E0FEA3E0FF78081205D5ADE2
:1015710007D007121C52900070E02403FFC007A39C
:10158100E0FCA3A3E0FEA3E0FFAD07D00780327823
:1015910003121C3AE004FFC007A3A3A3A3E054076E
:1015A100FFE4FEFDFC78051205E8AD07D007121C2B
:1015B10052900070E02402FFE4FD121C52E024036B
:0515C100FF121C522284
:100D7C0090005CEBF0A3EAF0A3E9F0121D537F01A5
:100D8C007E00121CDB90005CE0FBA3E0FAA3E0F910
:100D9C0090000112054DFF90000512054D4FFD7F8F
:100DAC002A121C5290005CE0FBA3E0FAA3E0F9903D
:100DBC00000312054D4480FF90000212054D4FFDBB
:100DCC007F29121C5290005CE0FBA3E0FAA3E0F92F
:100DDC0090000412054D4480FD7F28121C52900097
:100DEC005CE0FBA3E0FAA3E0F990002812054DC4E7
:100DFC00131313540125E025E0FD7F60121C527D76
:100E0C00607F70121C5290005CE0FBA3E0FAA3E040
:100E1C00F990002712054DFD7F2C121C5290005C9E
:100E2C00E0FBA3E0FAA3E0F990002612054DFD7F4C
:100E3C002B121C5290005CE0FBA3E0FAA3E0F990AB
:100E4C00000A12061B9000711206899000291205E7
:100E5C004D139200E4FF1214D190005CE0FBA3E070
:100E6C00FAA3E0F990000E12061B9000711206898D
:100E7C0090002912054DC3131392007F041214D154
:100E8C0090005CE0FBA3E0FAA3E0F99000161206D8
:100E9C001B90007112068990002912054D131354F2
:100EAC003F1392007F081214D190005CE0FBA3E08A
:100EBC00FAA3E0F990001A12061B90007112068931
:100ECC0090002912054D131313541F1392007F1019
:100EDC001214D190005CE0FBA3E0FAA3E0F99000BF
:100EEC001E12061B90007112068990002912054DE6
:100EFC00C4540F1392007F141214D190005CE0FBC9
:100F0C00A3E0FAA3E0F990002212061B90007112E4
:100F1C00068990002912054DC41354071392007FC3
:100F2C00181214D190005CE0FBA3E0FAA3E0F99056
:100F3C00000612061B900071120689D2007F201247
:100F4C0014D190005CE0FBA3E0FAA3E0F99000124E
:100F5C0012061B900071120689D2007F241214D144
:100F6C007D447F0F121C527F0E121D2EEF7E0060EF
:100F7C00047F0180027F00EF4E60077D447F0F12DB
:030F8C001C5222D2
:0612DD0090006412068976
:1012E3007F30121D2E90006FEFF0540870089000AD
:1012F3006D7430F080267F40121D2E90006FEFF04A
:101303005408700890006D7440F080107F50121DD7
:101313002E90006FEFF090006D7450F090006DE030
:101323002405FF900069E0FD121C5290006DE0045B
:10133300FFC007900064E0FCA3E0FDA3E0FEA3E090
:10134300FF900071120689900068E024FF9200D09C
:10135300071214D1E490006EF0900069E0FF900052
:101363006EE0FED39F5033EE940874809480502A2D
:1013730090006DE02406FFA3E02FFF90006AE0FBDE
:10138300A3E0FAA3E0F98E8275830012054DFD12E6
:101393001C5290006EE004F080BFC29290006DE09A
:1013A300FF90006FE04408FD121C52D292E49000BB
:1013B3006EF090006EE0C3940E7480948050199088
:1013C300006DE0FF121D2EEF30E30D7F647E0012EF
:0813D3001CDBA3E004F080DA4A
:0113DB0022EF
:0E1B1900900095EFF0A3EBF0A3EAF0A3E9F043
:101B2700E4FCECC3940E74809480501E900095E002
:101B37002CFF121D2EA3E0FBA3E0FAA3E0F98C8291
:101B4700758300EF12058C0C80D8900095E0FB7A26
:101B570000646070028006EB64704A7006FD7F2C9B
:031B6700121C52FB
:011B6A002258
:021D7200C10BA3
:101CFA00C2AF53890F438920759850758DFA758B39
:0F1D0A00FA438780D299D2ACD28ED29CD2AF222C
:03002300020016C2
:0B001600309803C29832C299C20B322E
:081D66008F99D20B200BFD2226
:101BA100900099EBF0A3EAF0A3E9F0900099E0FB33
:101BB100A3E0FAA3E0F9120534FF121D6690009923
:101BC100E0FBA3E475F0011205AEA9F0FA120534A9
:031BD10070D922A6
:101D4200D2A0D2A100000000C2A000000000C2A1E7
:011D5200226E
:101D1900C2A1C2A000000000D2A100000000D2A010
:051D2900000000002293
:101B6B007E80EE601B5F7004C2A08002D2A00000DA
:101B7B000000D2A100000000C2A1EEC313FE80E260
:101B8B00D2A000000000D2A1A2A092000000000091
:051B9B00C2A1A200B38D
:011BA0002222
:101BD400D2A07E80EE601D00000000D2A120A005EE
:101BE400F45FFF8003EF4EFF00000000C2A1EEC3CC
:101BF40013FE80E0D2A000000000D2A1000000008B
:021C0400C2A17B
:011C060022BB
:101C0700D2A07E80EE601D00000000D2A120A005BA
:101C1700F45FFF8003EF4EFF00000000C2A1EEC398
:101C270013FE80E0C2A000000000D2A10000000067
:021C3700C2A148
:011C39002288
:1019EC00900068EBF0A3EAF0A3E9F0121D427FA08F
:1019FC00121B6B4005121D1980F1AF05121B6B12E7
:101A0C001D427FA1121B6B90006CE0D3940174807B
:101A1C009480401F121C07900068E0FBA3E475F053
:101A2C00011205AEA9F0FAEF12057A90006CE014E1
:101A3C00F080D4121BD4900068E0FBA3E0FAA3E082
:081A4C00F9EF12057A021D19E1
:101AB700900067EBF0A3EAF0A3E9F090006BE0D3A6
:101AC7009400748094804049121D427FA0121B6BC2
:101AD7004005121D1980F1AF05121B6B90006BE0DA
:101AE700D39400748094804023900067E0FBA3E4C4
:101AF70075F0011205AEA9F0FA120534FF121B6B3F
:101B070090006BE014F00DED540770D0121D198092
:021B1700AA2200
:1019010002114FE493A3F8E493A34003F68001F29C
:1019110008DFF48029E493A3F85407240CC8C333E7
:10192100C4540F4420C8834004F456800146F6DFB6
:10193100E4800B0102040810204080901D6EE47EBB
:10194100019360BCA3FF543F30E509541FFEE493AB
:10195100A360010ECF54C025E060A840B8E493A372
:10196100FAE493A3F8E493A3C8C582C8CAC583CA9D
:10197100F0A3C8C582C8CAC583CADFE9DEE780BE55
:011D7400006E
:10043E00E709F608DFFA8046E709F208DFFA803EA0
:10044E0088828C83E709F0A3DFFA8032E309F6088D
:10045E00DFFA8078E309F208DFFA807088828C83F5
:10046E00E309F0A3DFFA806489828A83E0A3F608A9
:10047E00DFFA805889828A83E0A3F208DFFA804C83
:10048E0080D280FA80C680D4806980F2803380105A
:10049E0080A680EA809A80A880DA80E280CA8033C3
:1004AE0089828A83ECFAE493A3C8C582C8CCC5833B
:1004BE00CCF0A3C8C582C8CCC583CCDFE9DEE7800B
:1004CE000D89828A83E493A3F608DFF9ECFAA9F08A
:1004DE00EDFB2289828A83ECFAE0A3C8C582C8CCE0
:1004EE00C583CCF0A3C8C582C8CCC583CCDFEADEF9
:1004FE00E880DB89828A83E493A3F208DFF980CC5B
:10050E0088F0EF60010E4E60C388F0ED2402B40453
:10051E000050B9F582EB2402B4040050AF232345FA
:06052E00822390048E738D
:10053400BB010689828A83E0225002E722BBFE02C5
:09054400E32289828A83E49322F8
:10054D00BB010CE58229F582E5833AF583E0225063
:10055D0006E92582F8E622BBFE06E92582F8E222AD
:0D056D00E58229F582E5833AF583E49322C7
:10057A00BB010689828A83F0225002F722BBFE0160
:02058A00F3225A
:10058C00F8BB010DE58229F582E5833AF583E8F0A5
:10059C00225006E92582C8F622BBFE05E92582C851
:0205AC00F22239
:1005AE00A3F8E0C5F025F0F0E58215827002158300
:0605BE00E0C838F0E8225D
:1005C400EB9FF5F0EA9E42F0E99D42F0E89C45F08D
:0105D4002204
:1005D500E8600FECC313FCED13FDEE13FEEF13FF04
:0305E500D8F12228
:1005E800E8600FEFC333FFEE33FEED33FDEC33FC71
:0305F800D8F12215
:1005FB00BB010789828A830206F65005E9F80206D9
:10060B00EABBFE05E9F802070289828A8302070E1C
:10061B00BB010DE58229F582E5833AF5830206F6E7
:10062B005007E92582F80206EABBFE07E92582F8A6
:10063B00020702E58229F582E5833AF58302070E6C
:10064B00BB010789828A830206895005E9F80207F4
:0A065B001EBBFE05E9F802072A2283
:10066500BB010DE58229F582E5833AF5830206890A
:100675005007E92582F802071EBBFE07E92582F827
:0406850002072A221C
:0C068900ECF0A3EDF0A3EEF0A3EFF022E4
:10069500A8828583F0D083D0821206AC1206AC12F4
:1006A50006AC1206ACE473E493A3C583C5F0C58319
:1006B500C8C582C8F0A3C583C5F0C583C8C582C8AF
:0106C5002212
:1006C600BB010DE58229F582E5833AF5830206959D
:1006D6005007E92582F8020736BBFE07E92582F8AE
:0406E60002074F2296
:1007AE00E5102469F582E43400F583E0051022900B
:1007BE000066300703900069E475F00112076802C5
:1007CE0005342000E97F2ED2008018EF540F2490BC
:1007DE00D43440D4FF30040BEF24BFB41A005003BE
:1007EE002461FFE511600215110514E51470020570
:1007FE001330070E900066E475F001120768EF02E1
:10080E00057A0200037403D2078003E4C207F510D1
:10081E0090006612077FE4F511F513F514E51160EB
:10082E00077F201207F180F57512FFC201C200C2C8
:10083E0002C203C205C206C2081207BDFF700D3008
:10084E0007057F00120802AF14AE1322B4255FC253
:10085E00D5C2041207BDFF24D0B40A00501A75F099
:10086E000A781130D50508B6FF0106C6A426F62073
:10087E00D5047002D20380D924CFB41A00EF5004ED
:10088E00C2E5D204020A03D20180C6D20080C0D2D1
:10089E000280BCD2D580BAD20580B47F201207F177
:1008AE002002077401B5110040F11207AEFF1207C6
:1008BE00F102082BD208D20680951207AEFB120762
:1008CE00AEFA1207AEF94A4B700679D47A0A7BFF5C
:1008DE0020022EE511602A7E008E8275830012059D
:1008EE004D60060EEE651270F0C2D5EBC0E0EAC0A8
:1008FE00E0E9C0E0EE120A4AD0E0F9D0E0FAD0E02A
:10090E00FB120534FF60AAEBC0E0EAC0E0E9C0E0EC
:10091E001207F1D0E02401F9D0E03400FAD0E0FB68
:10092E00E5120460DCD512D980877BFF7A0A7946FE
:10093E00D202809C791080027908C206C208800813
:10094E00D2D5790A8004790AC2D5E512047002F56F
:10095E0012E4FAFDFEFF1207AEFC7B082001131213
:10096E0007AEFD7B1030000A1207AEFE1207AEFF77
:10097E007B20EC3382D592D55013C3E43000069F12
:10098E00FFE49EFEE42001039DFDE49CFCE4CBF815
:10099E00C201EC700CCFCECDCCE824F8F870F38009
:1009AE0017C3EF33FFEE33FEED33FDEC33FCEB33C9
:1009BE00FB994002FB0FD8E9EB300105F8D0E0C4FB
:1009CE0048B201C0E00AEC4D4E4F78207B0070C259
:1009DE00EAB5120040BCC0E0120A4CD0F0D0E020C4
:1009EE000104C4C0E0C4B201C0F01207DAD0F0D5E1
:1009FE00F0EB02082B12078808C8530942580899D1
:100A0E004C08954209464F094E44094E4908AE43DB
:080A1E00095455093846093856
:100A2600450938470AF450089D2D08A12E08C42B05
:100A360008A52308C2200ADD2A085D48000008BC74
:100A46003F3F3F00790AA2D5200314300509B910AB
:100A5600020404B9080104A2D520060250010420AC
:100A660002689202B511005034C0E07F20300319AD
:100A76007F30A20272067205500F120AA3C202C28A
:100A860006C205C2087F30800F300503E9C0E012B8
:100A960007F1300503D0E0F9D0E0B511CC300517E9
:100AA6007F30B9100C1207F17F583004077F788029
:100AB60003B908031207F13002057F2D0207F17F03
:100AC600202008F87F2B2006F322920280CF286E82
:100AD600756C6C2900D2011207AE3001F8C201789C
:100AE6001130D50108F602085D2D5043495812070A
:100AF600AE2403B405004001E4900AEF931207E226
:0D0B0600743A1207E2D2037511040209428D
:0C06EA00E6FC08E6FD08E6FE08E6FF223C
:0C06F600E0FCA3E0FDA3E0FEA3E0FF2277
:0C070200E2FC08E2FD08E2FE08E2FF2233
:10070E00E493FC740193FD740293FE740393FF2231
:0C071E00ECF608EDF608EEF608EFF62207
:0C072A00ECF208EDF208EEF208EFF2220B
:10073600D083D082E493F608740193F6087402938A
:09074600F608740393F6740473C1
:10074F00D083D082E493F208740193F20874029379
:09075F00F208740393F2740473B0
:10076800F8E0FBA3A3E0F925F0F0E582158270021A
:070778001583E0FA38F022BE
:09077F00EBF0A3EAF0A3E9F0227B
:10078800D083D082F8E4937012740193700DA3A300
:1007980093F8740193F5828883E473740293686014
:0607A800EFA3A3A380DF14
:00000001FF
