:03000000020E14D9
:0C0E1400787FE4F6D8FD758122020E5BA9
:100A860043616E2073656E642049443A20253038F0
:100A9600582C2020444C433A2562782C202044616F
:100AA60074613A200043616E2073656E6420494488
:100AB6003A202538582C2020444C433A2562782C7D
:100AC6002020446174613A200025303262582000AB
:100AD6000D0A0052656365697665205258425F4388
:100AE60054524C5F416464726573733A20256258B0
:100AF6002C20444C433A2562782C20446174613A98
:100B060000526561645F5258425F4354524C3A202A
:100B160025303262582C20205258463A25625820F9
:100B26000D0A0031053001001305300100090530BA
:100B360001000405300100010738020001053001FB
:100B46000000053001000001100100000000000057
:100B5600000000000000000000000020F102030475
:030B66000506077A
:10107900C10CC10AC10BC109C110C10FC10EC10DFB
:0C0003007852EFF212109F7852E2FF22B8
:09109600D2BAD28AD2AAD2AF224A
:03001300020EF0EA
:0D0EF000C0E0C0F0C083C082C0D075D00843
:100EFD007F2C121065EF30E702D20CEF30E602D2F4
:100F0D000AEF30E502D20BEF30E402D209EF30E305
:100F1D0002D210EF30E202D20FEF30E102D20EEF2B
:050F2D0030E002D20DCE
:0B0F3200D0D0D082D083D0F0D0E032CD
:0A0CDB007809EEF208EFF208EDF2DE
:100CE500E408F208F2087C007DFE7BFF7A0B79515F
:100CF500FE7F081206B5780BE2FBFD7C007809E261
:100D0500FE08E2FF120743AA057809E2FE08E2FFA2
:100D1500EBFD7C001207437809EEF208EFF2780C40
:100D2500E2FD04F2740E2DF8EAF2D3EF9400EE948E
:100D35000050C3780CE214F2240EF8E2FAD39409B9
:100D450074809480EA5004243080022437FF780DA3
:100D5500E2FE04F274002EF8EFF2780CE2D3940070
:100D65007480948050CD08E22400F8E4F27BFE7A8A
:030D750000790002
:010D78002258
:100D7900783CEEF208EFF2783FEBF218EDF27BFFE8
:100D890060067A0A798680047A0A79AB783CE2FFB0
:100D990008E27846CFF208EFF2783FE27848F2129B
:100DA9000088E47808F2783FE2FF7808E2FEC39F02
:100DB90050257840E2FB08E2FA08E2F98E82758351
:100DC900001206F47846F27BFF7A0A79CF1200887E
:100DD9007808E204F280CF7BFF7A0A79D61200887C
:100DE900783CE2FE08E2FFE4FCFD08E27847F2788D
:100DF9003FE27848F27840E2F908E2FA08E27849F5
:0B0E0900C9F208EAF208E9F2020381D6
:0D0B69007816EFF208EBF208EAF208E9F264
:100B7600E4781BF208F2087C007DFE7BFF7A0B7995
:100B860059FE7F081206B57816E2FF08E2FB08E276
:100B9600FA08E2F9120EA07817E2FB08E2FA08E278
:100BA600F99000051206F4540FFF781BF27BFF7ACA
:100BB6000A79D97816E27846F208EFF2120088E44C
:100BC600781AF2781BE2FF18E2FEC39F5036E2FF66
:100BD6002406F582E433F5837817E2FB08E2FA0887
:100BE600E2F91206F4FD741D2FF8EDF27BFF7A0A86
:100BF60079CF741D2EF8E27846F2120088781AE250
:100C060004F280BF7BFF7A0A79D61200887816E252
:100C1600FF121065781CEFF27BFF7A0B7907784696
:080C2600F2540708F2020088F5
:100C2E00782E1207DB000007FDE47832F208740814
:100C3E00F2087C007DFE7BFF7A0B79617E00FF124D
:100C4E0006B51210461210967BFF7A0B793D1209EB
:100C5E007BE4782CF208F2782E0808E2FE08E2FF18
:100C6E0008E2FD784074FEF2087400F2087434F263
:100C7E007833E2FB120D79782EE2FC08E2FD08E2F1
:100C8E00FE08E22401FFE43EFEE43DFDE43CFC7878
:100C9E002E1207CF7832E270047F0180027F007837
:100CAE0032EFF208E214F27FE87E03121027782D5D
:100CBE00E22401F218E23400F2C308E2940218E2D0
:0D0CCE00940040937FD07E0712102780FE17
:100F3D00303132333435363738393A3B3C3D404128
:100F4D0042434445464748494A4B4C4D50515253F4
:100F5D005455565758595A5B5C5D00010203040500
:100F6D00060708090A0B1011121314151617181974
:0A0F7D001A1B202122232425262719
:10102700D3EF9400EE94004015E4FDFC0DBD0001E4
:0E1037000CED64644C70F5EF1F70E51E80E256
:011045002288
:10100600E4FFC295FEEEC39408748094805011D21A
:1010160095EF25E0FFA293E4334FFFC2950E80E5DE
:0110260022A7
:100FB900E4FEEEC3940874809480501AC295A80682
:100FC900EF088002C333D8FC30E704D2948002C210
:080FD90094D2950E80DCC29554
:010FE10022ED
:0E0FE200E2FB08E2FA08E2F91206F4FFE4FD71
:100FF000AC07C2927F02120FB9AF04120FB9AF054E
:06100000120FB9D292228A
:02106500AD07D5
:10106700C2927F03120FB9AF05120FB9121006D241
:0110770092E6
:011078002255
:0A108C00C2927FC0120FB9D2922267
:10084500783CEFF2E47FFF7E07FDFC08E2FB08E25F
:10085500F908E2FA08E2CBF8D31207985066784116
:10086500E26013783CE2FFE4FD120FF0783CE2040D
:10087500FF7D0802093E783DE2FC08E2FD08E2FE44
:1008850008E2FF78031207A9AD07783CE2FF120FD3
:10089500F0783CE204FFC00708080808E25407FFA7
:1008A500E4FEFDFC78051207BCAD07D007120FF07A
:1008B500783CE22402FFE4FD120FF0783CE22403C9
:1008C500FF020977783DE2FC08E2FD08E2FE08E256
:1008D500FF78151207A9AD07783CE2FF120FF078F3
:1008E5003CE204FFC00708E2FC08E2FD08E2FE085E
:1008F500E2FF78121207A9EF5407FFE4FEFDFC782A
:10090500051207BCC004C005C006C007783DE2FC5F
:1009150008E2FD08E2FE08E2FF78101207A9EF548D
:1009250003FFD003D002D001D000EB4FFFEAFEE871
:10093500FCEF4408FFAD07D007120FF0783CE22426
:1009450002FFC00708E2FC08E2FD08E2FE08E2FF3C
:1009550078081207A9AD07D007120FF0783CE224FA
:1009650003FFC00708E2FC0808E2FE08E2FFAD0746
:06097500D007120FF02272
:10097B00E4FF12108C7F017E0012102790000412EE
:10098B0006F4FF1206DB4FFD7F2A120FF0900002D8
:10099B001206F44480FF9000011206F44FFD7F29EC
:1009AB00120FF09000031206F44480FD7F28120F03
:1009BB00F07D067F60120FF0783D1207DB0000011F
:1009CB000078417401F2E4FF120845783D1207DB11
:1009DB00000007FEE47841F27F04120845783D12CF
:1009EB0007DB000007FFE47841F27F20120845780F
:1009FB003D1207DB0000080078417401F27F0812FA
:100A0B000845783D1207DB1FFFFFFF78417401F2A9
:100A1B007F10120845783D1207DB000007FFE478D2
:100A2B0041F27F14120845783D1207DB00000000ED
:100A3B00E47841F27F18120845783D1207DB1FFF5F
:100A4B00FFFEE47841F27F24120845E4FD7F2C126F
:100A5B000FF07D037F2B120FF00D7F0F120FF07F26
:100A6B000E121065EF7E0060047F0180027F00EFA5
:0A0A7B004E60077D047F0F120FF09C
:010A8500224E
:0503810078431207CFD4
:100386007F30121065EF20E204784C80307F4012F7
:100396001065EF20E20F784C74FFF208740FF20834
:1003A600744BF280237F50121065EF784C20E20DDB
:1003B60074FFF208740FF2087459F2800B74FFF29E
:1003C60008740FF208743DF2784CE2FB08E2FA0872
:1003D600E2F99000051206F4FF7848E2FD120FF0EC
:1003E600E47FFF7E07FDFC7843E2FB08E2F908E2C2
:1003F600FA08E2CBF8D3120798400302049978472B
:10040600E2784C601C900001120FE2784CE2FB0887
:10041600E2FA08E2F99000021206F4FF7D080205EE
:100426002CE2FB08E2FA08E2F99000011206F4FF5A
:10043600C0077843E2FC08E2FD08E2FE08E2FF7826
:10044600031207A9AD07D007120FF0784CE2FB089C
:10045600E2FA08E2F99000021206F4FFC0077843B8
:10046600080808E25407FFE4FEFDFC78051207BC05
:10047600AD07D007120FF0784C900003120FE27808
:100486004CE2FB08E2FA08E2F99000041206F4FFD7
:1004960002057D784CE2FB08E2FA08E2F9900001D9
:1004A6001206F4FFC0077843E2FC08E2FD08E2FE0C
:1004B60008E2FF78151207A9AD07D007120FF078EA
:1004C6004CE2FB08E2FA08E2F99000021206F4FF99
:1004D600C0077843E2FC08E2FD08E2FE08E2FF7886
:1004E600121207A9EF5407FFE4FEFDFC7805120778
:1004F600BCC004C005C006C0077843E2FC08E2FDA4
:1005060008E2FE08E2FF78101207A9EF5403FFD0B5
:1005160003D002D001D000EB4FFFEAFEE8FCEF4427
:1005260008FFAD07D007120FF0784CE2FB08E2FA9D
:1005360008E2F99000031206F4FFC0077843E2FCD4
:1005460008E2FD08E2FE08E2FF78081207A9AD07F7
:10055600D007120FF0784CE2FB08E2FA08E2F990B5
:1005660000041206F4FFC0077843E2FC0808E2FE26
:1005760008E2FFAD07D007120FF0E4784FF2784893
:10058600E2FF784FE2FED39F503DEE9408748094CC
:10059600805034784CE2FB08E2FA08E2F990000653
:1005A6001206F4FF784FE2FE2FFF7849E2FB08E2DD
:1005B600FA08E2F98E827583001206F4FD120FF036
:1005C600784FE204F280B7C292784CE2FB08E2FA76
:0E05D60008E2F91206DBFF7D08120FF0D29248
:0105E40022F4
:0D0EA0007825EFF208EBF208EAF208E9F21B
:100EAD00E4FCECC3940E74809480501E7825E22CE3
:100EBD00FF1210657826E2FB08E2FA08E2F98C824F
:100ECD00758300EF1207210C80D87825E2FB7A009C
:100EDD00646070028006EB64704A7006FD7F2C1210
:020EED000FF004
:010EEF0022E0
:02108900C11193
:10104600C2AF53890F438920759850758DFA758BF9
:0F105600FA438780D299D2ACD28ED29CD2AF22ED
:03002300020016C2
:0B001600309803C29832C299C2113228
:08109F008F99D2112011FD22EE
:100F87007829EBF208EAF208E9F27829E2FB08E2AD
:100F9700FA08E2F91206DBFF12109F7829E2FB0834
:100FA70008E2F92401F218E2FA3400F21206DB70C3
:020FB700D9223D
:100E2000020C2EE493A3F8E493A34003F68001F2AE
:100E300008DFF48029E493A3F85407240CC8C333D3
:100E4000C4540F4420C8834004F456800146F6DFA2
:100E5000E4800B0102040810204080901079E47EA9
:100E6000019360BCA3FF543F30E509541FFEE49397
:100E7000A360010ECF54C025E060A840B8E493A35E
:100E8000FAE493A3F8E493A3C8C582C8CAC583CA89
:100E9000F0A3C8C582C8CAC583CADFE9DEE780BE41
:01108B000064
:1005E500E709F608DFFA8046E709F208DFFA803EF8
:1005F50088828C83E709F0A3DFFA8032E309F608E5
:10060500DFFA8078E309F208DFFA807088828C834C
:10061500E309F0A3DFFA806489828A83E0A3F60800
:10062500DFFA805889828A83E0A3F208DFFA804CDA
:1006350080D280FA80C680D4806980F280338010B1
:1006450080A680EA809A80A880DA80E280CA80331A
:1006550089828A83ECFAE493A3C8C582C8CCC58392
:10066500CCF0A3C8C582C8CCC583CCDFE9DEE78062
:100675000D89828A83E493A3F608DFF9ECFAA9F0E1
:10068500EDFB2289828A83ECFAE0A3C8C582C8CC37
:10069500C583CCF0A3C8C582C8CCC583CCDFEADE50
:1006A500E880DB89828A83E493A3F208DFF980CCB2
:1006B50088F0EF60010E4E60C388F0ED2402B404AB
:1006C5000050B9F582EB2402B4040050AF23234552
:0606D5008223900635733C
:1006DB00BB010689828A83E0225002E722BBFE021D
:0906EB00E32289828A83E4932250
:1006F400BB010CE58229F582E5833AF583E02250BB
:1007040006E92582F8E622BBFE06E92582F8E22204
:0D071400E58229F582E5833AF583E493221E
:10072100F8BB010DE58229F582E5833AF583E8F00E
:10073100225006E92582C8F622BBFE05E92582C8BA
:02074100F222A2
:10074300BC000BBE0029EF8DF084FFADF022E4CC9A
:10075300F875F008EF2FFFEE33FEEC33FCEE9DEC63
:10076300984005FCEE9DFE0FD5F0E9E4CEFD22EDA9
:10077300F8F5F0EE8420D21CFEADF075F008EF2FF3
:10078300FFED33FD4007985006D5F0F222C398FDE4
:050793000FD5F0EA2281
:10079800EB9FF5F0EA9E42F0E99D42F0E89C45F0B7
:0107A800222E
:1007A900E8600FECC313FCED13FDEE13FEEF13FF2E
:0307B900D8F12252
:1007BC00E8600FEFC333FFEE33FEED33FDEC33FC9B
:0307CC00D8F1223F
:0C07CF00ECF208EDF208EEF208EFF22266
:1007DB00D083D082E493F208740193F208740293ED
:0907EB00F208740393F274047324
:10002600E5102446F8E205102278433007027846A8
:10003600E475F0011208060206DB2000EB7F2ED2E3
:10004600008018EF540F2490D43440D4FF30040BB2
:10005600EF24BFB41A0050032461FFE511600215B6
:10006600110514E5147002051330070D7843E47585
:10007600F001120806EF0207F40200037403D20728
:100086008003E4C207F5107843120816E4F511F56B
:1000960013F514E51160077F2012006180F57512D3
:1000A600FFC201C200C202C203C205C206C20812D2
:1000B600002FFF700D3007057F00120072AF14AEDF
:1000C6001322B4255FC2D5C20412002FFF24D0B478
:1000D6000A00501A75F00A781130D50508B6FF01E6
:1000E60006C6A426F620D5047002D20380D924CFF2
:1000F600B41A00EF5004C2E5D204020271D20180A4
:10010600C6D20080C0D20280BCD2D580BAD20580C9
:10011600B47F201200612002077401B5110040F17E
:10012600120026FF120061020099D208D2068095BD
:10013600120026FB120026FA120026F94A4B700618
:1001460079427A037BFF20022EE511602A7E008E1B
:10015600827583001206F460060EEE651270F0C218
:10016600D5EBC0E0EAC0E0E9C0E0EE1202B8D0E0AC
:10017600F9D0E0FAD0E0FB1206DBFF60AAEBC0E0A4
:10018600EAC0E0E9C0E0120061D0E02401F9D0E065
:100196003400FAD0E0FBE5120460DCD512D9808782
:1001A6007BFF7A0279B4D202809C791080027908AA
:1001B600C206C2088008D2D5790A8004790AC2D557
:1001C600E512047002F512E4FAFDFEFF120026FCA9
:1001D6007B08200113120026FD7B1030000A120056
:1001E60026FE120026FF7B20EC3382D592D55013D3
:1001F600C3E43000069FFFE49EFEE42001039DFD5C
:10020600E49CFCE4CBF8C201EC700CCFCECDCCE87C
:1002160024F8F870F38017C3EF33FFEE33FEED33A7
:10022600FDEC33FCEB33FB994002FB0FD8E9EB30D6
:100236000105F8D0E0C448B201C0E00AEC4D4E4FCB
:1002460078207B0070C2EAB5120040BCC0E0120202
:10025600BAD0F0D0E0200104C4C0E0C4B201C0F0BE
:1002660012004AD0F0D5F0EB02009912081F0136B1
:100276005301B05801074C01034201B44F01BC447D
:1002860001BC49011C4301C25501A64601A6450110
:01029600A6C1
:1002970047036250010B2D010F2E01322B0113234F
:1002A700013020034B2A00CB480000012A3F3F3F83
:1002B70000790AA2D5200314300509B910020404F5
:1002C700B9080104A2D52006025001042002689251
:1002D70002B511005034C0E07F203003197F30A2EF
:1002E7000272067205500F120311C202C206C2053E
:1002F700C2087F30800F300503E9C0E0120061308B
:100307000503D0E0F9D0E0B511CC3005177F30B93F
:10031700100C1200617F583004077F788003B908FA
:10032700031200613002057F2D0200617F20200843
:10033700F87F2B2006F322920280CF286E756C6C13
:100347002900D2011200263001F8C201781130D5F8
:100357000108F60200CB2D5043495812002624030A
:10036700B405004001E490035D93120052743A1201
:0A0377000052D2037511040201B018
:1007F400BB010689828A83F0225002F722BBFE01E4
:02080400F322DD
:10080600FAE2FB0808E2F925F0F218E2CA3AF22207
:09081600EBF208EAF208E9F22213
:10081F00D083D082F8E4937012740193700DA3A368
:10082F0093F8740193F5828883E47374029368607C
:06083F00EFA3A3A380DF7C
:00000001FF
